:100000000C9419050C9460050C9460050C94600523
:100010000C9460050C9460050C9460050C946005CC
:100020000C9460050C9460050C948B2F0C945F303D
:100030000C94C2240C9460050C9460050C9460052B
:100040000C9460050C94FB120C9460050C946005F4
:100050000C941F130C940D250C9460050C946005F2
:100060000C9460050C9460050C9460050C9460057C
:100070000C9460050C9460050C9460050C9460056C
:100080000C9460050C9460050C9460050C9460055C
:100090000C9460050C9460050C9460050C9460054C
:1000A0000C9460050C9460050C9460053643413552
:1000B000344237413241323341363641006E757435
:1000C0007479377400290027001E001F00200021CA
:1000D0000022000152230024002500260027004CA6
:1000E000002A002B022B0014001A0009001300053F
:1000F0000001000D000F0018001C00330035000146
:10010000000551025104001500160017000A0008EE
:10011000511000110008000C0012003400280003E8
:1001200051E1001D001B0006000700190001000E30
:10013000000B00360037002D00E5000100E000E074
:10014000000100E200E00005512C00E1000651E34F
:1001500000E2000451010001000100290027001EF7
:10016000001F00200021002200005223002400254F
:1001700000260027004C002A002B022B0014001A36
:100180000008001500170001001C0018000C0012E8
:10019000001300350001000551025104001600074C
:1001A0000009000A0008510B000D000E000F00337B
:1001B00000340028000351E1001D001B0006001957
:1001C000000500010011001000360037002D00E589
:1001D000000100E000E0000100E200E00005512C19
:1001E00000E1000651E300E20004510100010001BA
:1001F00000010001000100010001000100010001F7
:1002000000010001000100010001000100010001E6
:1002100000010001000100010001000100010001D6
:10022000004C002A00010001000100010001000152
:100230000001000100010001000100010050005117
:100240000052004F00010001000100010001000107
:100250000001000100010001000100010001000196
:100260000001000100010001000100010001000186
:100270000001000100010001000100010001000176
:100280000001000100010001000100010001000166
:100290000001000100010001000100010001000156
:1002A0000001000100010001000100010001000146
:1002B00000010001000100AE007800010001000112
:1002C000000100010001000100005C0100010001CB
:1002D000000100A800AA00A900BD00010001000162
:1002E0000001000100010001000100010001000106
:1002F000000100BC00BB00BE0001000100010001C4
:1003000000010001000100010001000100010001E5
:1003100000010001000100010001000100010001D5
:1003200000010001000100010001000100010001C5
:1003300000010001000100010001000100010001B5
:100340000001000100010001000100010040004126
:100350000042004500010001000100010001000110
:1003600000010001000100010001003D003E003FCE
:100370000044000100010001000100010001000132
:100380000001000100010001003A003B003C004375
:100390000001000100010001000100010001000155
:1003A0000001000100010001000100010001000145
:1003B0000001000100010001000100010001000135
:1003C00000530001006700540055000100010001C6
:1003D0000001000100010001000100010001000115
:1003E0000001005F00600061005600010001000193
:1003F0000001000100010001002C00010001006269
:10040000005C005D005E0057000100580001000123
:1004100000010001004C002A000100010001005908
:10042000005A005B003600010001000100010001DC
:1004300000010001000100010001000100620062F2
:100440000063000100010001000100010001000142
:100450000001000100010001000100010001000194
:100460000001000100010001000100350035022FEC
:10047000023002380001003102240225022E00332E
:100480000201000100055101003602370226022751
:1004900002290001002E0221022202230228003438
:1004A000020100010001002B022B002F003000315F
:1004B0000001002D001E021F0220022B000100017E
:1004C0000001000100010001000100010001000124
:1004D0000001002700270037000100010001000192
:1004E0000001000100010001000100010001000104
:1004F00000010001000100010001000100010001F4
:1005000000010001000100010001000100010001E3
:1005100000010001000100010001000100010001D3
:1005200000010001000100010001000B010D010E9E
:10053000010F0101000100010001000100010001A3
:1005400000010001000100010001000100010001A3
:100550000001000100010001000100010001000193
:100560000001002C0101002C01010001000100012B
:100570000001000100010001000100010001000173
:100580000001000100010001000100010001000163
:100590000001000100010001000100010001000153
:1005A0000001000100F900F000010001000100015C
:1005B00000010001000100010001000100F4000140
:1005C00000B600F200F100F300B7000100010001E5
:1005D0000001000100010001000100010001000113
:1005E00000FA000100F90001000100010001000112
:1005F00000010001000100010001000100F400F50C
:1006000000010001000100010001000000000000E5
:100610000000002A2B28000000000000000000005D
:1006200000000000000029000000002C1E342021E2
:100630002224342627252E362D3738271E1F202129
:1006400022232425263333362E37381F0405060788
:1006500008090A0B0C0D0E0F1011121314151617A2
:1006600018191A1B1C1D2F3130232D3504050607C0
:1006700008090A0B0C0D0E0F101112131415161782
:1006800018191A1B1C1D2F3130354C0000000000BA
:100690000000000000000000000000000000007EDC
:1006A0000F00D4FFFFFFC70000007832190A0004D2
:1006B0007F3F1F643214643214783C1E1E140A05F6
:1006C0002223252628292A2C2D2F3032333536385F
:1006D0003A3B3D3E4042434547494A4C4E505153B8
:1006E0005557595A5C5E6062646668696B6D6F71DC
:1006F000737577797B7D7F81838587898A8C8E90DE
:10070000929496989A9C9E9FA1A3A5A7A8AAACAEE6
:10071000AFB1B3B4B6B8B9BBBCBEBFC1C2C3C5C626
:10072000C7C9CACBCCCDCED0D1D2D2D3D4D5D6D7CF
:10073000D7D8D9D9DADADBDBDBDCDCDCDCDCDDDD0D
:10074000DDDDDCDCDCDCDCDBDBDBDADAD9D9D8D7FD
:10075000D7D6D5D4D3D2D2D1D0CECDCCCBCAC9C79F
:10076000C6C5C3C2C1BFBEBCBBB9B8B6B4B3B1AFD6
:10077000AEACAAA8A7A5A3A19F9E9C9A9896949276
:10078000908E8C8A89878583817F7D7B797775734D
:10079000716F6D6B6968666462605E5C5A5957552B
:1007A0005351504E4C4A4947454342403E3D3B3AE7
:1007B0003836353332302F2D2C2A2928262523226E
:1007C000FFAA7F5540000101010101010101010261
:1007D00002020202020202020303030303030303F1
:1007E00004040404040404050505050506060606BC
:1007F00006070707070708080808090909090A0A78
:100800000A0B0B0B0C0C0C0D0D0D0E0E0E0F0F0F1B
:1008100010101111111212131314141515161617A6
:1008200017181819191A1A1B1B1C1D1D1E1E1F2014
:1008300020212222232424252626272829292A2B61
:100840002C2D2D2E2F303132323334353637383986
:100850003A3B3C3D3E3F4041424344454647484980
:100860004A4C4D4E4F50515354555658595A5B5D52
:100870005E5F616264656668696B6C6D6F707273F0
:100880007577787A7B7D7E8082838587888A8C8E57
:100890008F91939596989A9C9EA0A2A3A5A7A9AB89
:1008A000ADAFB1B3B5B7BABCBEC0C2C4C6C9CBCD7B
:1008B000CFD1D4D6D8DBDDDFE2E4E7E9EBEEF0F32D
:1008C000F5F8FAFDFF0403300000000A0358004465
:1008D000003700350000000C0378006900750064E3
:1008E00000690000000403090409023B0002010042
:1008F000A0FA09040000010301010009211101000F
:10090000012240000705810308000A0904010001D3
:100910000300000009211101000122BC000705822B
:100920000320000A120110010000000844787575C8
:1009300001000102030105010902A101850209016B
:10094000A100050919012905150025019505750165
:100950008102950175038101050109300931158175
:10096000257F95027508810609381581257F950137
:1009700075088106050C0A38021581257F950175D9
:10098000088106C0C005010980A101850319012A5B
:10099000B700150126B700950175108100C0050C40
:1009A0000901A101850419012AA002150126A0024E
:1009B000950175108100C005010906A10185050595
:1009C0000719E029E7150025019508750181020541
:1009D00007190029EF1500250195F0750181020521
:1009E0000819012905950575019102950175039175
:1009F00001C005010906A101050719E029E7150055
:100A00002501950875018102950175088101050789
:100A1000190029FF150026FF0095067508810005BD
:100A20000819012905950575019102950175039134
:100A300001C011241FBECFEFDAE0DEBFCDBF04B688
:100A400003FE27C080914B0390914C03A0914D036E
:100A5000B0914E038730904BA740B04BD1F4109229
:100A60004B0310924C0310924D0310924E0314BE90
:100A700084B7877F84BF0FB6F894A89580916000F3
:100A8000886180936000109260000FBEE0E0F8E3A0
:100A9000099511E0A0E0B1E0ECE2F8E602C00590B3
:100AA0000D92AC3EB107D9F723E0ACEEB1E001C046
:100AB0001D92AB34B207E1F70E94BC2C0C94993321
:100AC0000C9400000C94CE050C949A050C943B07F2
:100AD0002A9A0895229A0C9468058F9A0895879A05
:100AE0000C946D058C980895849A0C9472058D9AD7
:100AF0000895859A0C9477050E946A050E946F05F7
:100B00000E9474050E9479050C94BF09FC01808144
:100B1000823019F489E30C940C1982E00C94BE2005
:100B2000FC018081823019F489E30C94A31982E0DE
:100B30000C94DF20CF938633910521F0C797D9F02D
:100B4000C1E00FC0E0912D01F0912E0180818272F1
:100B500059F0FB01C28188E3CC23C1F00E940C193B
:100B6000C0E08C2FCF91089581EE0E94A31988E3F5
:100B70000E94A319E5CFE0912D01F0912E01808113
:100B8000827239F0FB01C2818EE1E6CF0E94A31987
:100B9000E8CF81EE0E94A3198EE1EACF80912C026A
:100BA000882309F454C080912A0290912B020E945C
:100BB000FE248D32914008F44AC010922C020E940B
:100BC00047178091200290912102439709F03FC07E
:100BD00080912202909123024897E1F080912202B5
:100BE00090912302439799F58091240290912502D8
:100BF0002091260230912702822B932B20912802EC
:100C000030912902822B932B892B09F58CEA90E0F5
:100C10000C942A07809124029091250220912602AB
:100C200030912702822B932B2091280230912902A8
:100C3000822B932B892B59F48DEB90E00E942A078D
:100C40008091200290912102439741F208950895E6
:100C500081E0089508950C942A061F93CF93DF93A3
:100C600000D000D00F92CDB7DEB749835A836B8393
:100C700030913E0289819A8131111DC06623B9F0FD
:100C80002223A9F00E94AE21182F682F89819A8112
:100C90000E945A2169817A81812F0F900F900F90C5
:100CA0000F900F90DF91CF911F910C94B4070E9489
:100CB0008621182FEFCF0E94AE2169817A81EDCF76
:100CC000FC01262F408151816281738184810C94C3
:100CD0002D06CF93DF93EC0160E00E946006BE0119
:100CE000DF91CF910C942B06FF920F931F93CF931C
:100CF000DF93E82FF0E0E55FF94FF490C82FC69539
:100D0000C695C695D0E0FE01E556F94F049187706F
:100D100010E0082E02C0159507950A94E2F70170BD
:100D20001127C557D94FFE01C491D0E002C0D59517
:100D3000C7958A95E2F7C170DD270115110519F0F5
:100D400081EE0E940C19209719F086EE0E940C1972
:100D50008F2D0E94F919CD2B19F086EE0E94A31950
:100D6000012B41F081EEDF91CF911F910F91FF9008
:100D70000C94A319DF91CF911F910F91FF900895CB
:100D8000EF92FF920F931F93CF93DF938C01F62E78
:100D90008AE0E82EF8018491882309F454C0813058
:100DA00009F04DC0E8012196FE018491813091F453
:100DB0002196FE0184910E94F9198E010F5F1F4F49
:100DC0008F2D815038F3EFE9FFE03197F1F700C044
:100DD0000000F7CF823039F4E8012296FE018491B9
:100DE0000E940C19EACF833039F4E8012296FE0103
:100DF00084910E94A319E1CF8430F9F6E80122968C
:100E0000FE01249190E080E0FE0131962053330BE7
:100E10002A30310548F0019780F2EFE9FFE0319781
:100E2000F1F700C00000F7CFE89EA001E99E500D49
:100E30001124C901840F951F2491EF01E5CF0E9471
:100E40007406E801BACFDF91CF911F910F91FF9007
:100E5000EF90089560E00C94C0060E94F522811185
:100E600002C00E94A5230E94C0130C947C050E941E
:100E7000F7160C946205089581E008950C943C07E0
:100E8000CF93C82F0E9466058C2FCF910C943E07FC
:100E900008950E94881C0E9448072FEF84E39CE07D
:100EA000215080409040E1F700C000000C943125B3
:100EB0000F931F93CF93DF93EC0161E00E946006D4
:100EC0008C01BE010E945716BE01C8010E94640534
:100ED0008823E9F1BE01C8010E94C4128823B9F138
:100EE000BE01C8010E949D16882389F1BE01C80178
:100EF0000E946117882359F1BE01C8010E9469143C
:100F0000882329F1BE01C8010E94AA148823F9F0A0
:100F1000BE01C8010E94CD158823C9F0BE01C801D9
:100F20000E948B11882399F08A81882339F001155A
:100F30008CE5180751F00F3D1C4579F0CE01DF918B
:100F4000CF911F910F910C9428060E94490780E0D1
:100F5000DF91CF911F910F9108950E94A523F7CFA4
:100F600090E080E008950895972F70E02FE0929F21
:100F7000600D711D1124FB019BE4899FE00DF11DA3
:100F80001124EE0FFF1FEB53FF4F859194910895AD
:100F9000FC01EE0FFF1FE555F94F859194910895DF
:100FA000CF93DF930E94B4070E94E508EC018115FE
:100FB00020E5920708F042C0811530E4930708F05D
:100FC000BDC0883E910528F5803E910508F09DC082
:100FD000883A910588F4853A910508F08FC08130F0
:100FE000910509F492C0009709F48FC0049708F0A6
:100FF0008CC0D0E0C0E089C08F3B910508F489C067
:10100000805C9109C03CD105A0F30E94C807EC01A7
:101010007CC08115904250F4C11581E0D80708F0DA
:1010200074C0C03FD10528F3D0656FC0C11590E3EF
:10103000D90708F079C0CE019F70E7CF811525E56B
:10104000920758F5811534E5930708F0A6C081157D
:1010500042E5940750F4C11581E5D80708F471C042
:10106000DC2FCC27C16FD06A50C0982F96959695EB
:101070009E0123703327C115D34508F07FC0C1E01E
:10108000D0E002C0CC0FDD1F2A95E2F720E2929F4C
:10109000C0011124C82BD92B6FC0C11589E5D80711
:1010A000A8F4C11598E5D90708F07CC0C11526E55C
:1010B000D20708F09ECF8C2F0E947C09C82FD0E069
:1010C000DC2FCC27CC27DF71D0621FC0C1153AE5D9
:1010D000D30708F46CC0CE0190568115904208F0F9
:1010E00088CF8D2F8F710E947C0990E0982F8827E0
:1010F00088279F719C012C2BE901E6CFC55AD0E0CF
:10110000C159DE4FC881D0E0D064CE01DF91CF91CC
:101110000895C85AD0E0CC0FDD1FCF5BDE4F099099
:10112000D881C02DD464F1CFCE019927D3FF03C05D
:10113000EC01D86CEACFEC01D06CE7CFDF70D06A5D
:10114000E4CFCE01E4E096958795EA95E1F78370C8
:101150002C2F26952695237090E2299F900111242B
:10116000382B8C2F8370C1E0D0E002C0CC0FDD1F84
:101170008A95E2F7C22BD32BDC68C7CFC1E0D0E061
:1011800002C0CC0FDD1F2A95E2F730E2939FC00129
:101190001124C82BD92BDA68B8CFD82FCC27C46F2D
:1011A000D06AB3CFDC2FCC27C06FD06AAECF8C2FE4
:1011B0008F700E947C0934E0D695C7953A95E1F787
:1011C000CF709C2FEC01D069A0CF82389105B1F18E
:1011D000B0F48133910509F475C048F48932910562
:1011E00009F469C08A32910509F473C00895853302
:1011F000910509F459C08933910501F10895833EA1
:101200009105A9F138F4803E9105F9F0823E9105EF
:1012100049F10895863E9105A9F1873E9105C9F1EE
:10122000843E910519F520913D0321FF1FC0809157
:101230003C0384FD14C087EE90E0089520913C03A8
:101240002370A1F080EE90E0089520913C0320FDF2
:1012500047C030913D0330FF09C024FF44C090E0F7
:1012600080E004C020913C0322FDF7CF0895209137
:101270003C0322FD3BC030913D0330FDE3CF24FF12
:10128000F5CFEDCF20913C0323FFF0CF24FDE7CF36
:10129000D2CF20913C0323FD2CC030913D0331FF80
:1012A000EECF84EE90E0089520913C0325FFDECF41
:1012B00089E290E0089520913C0325FFD7CF85E394
:1012C00090E0089520913C0326FFD0CF8AE290E081
:1012D000089520913C0326FFC9CF81E390E0089553
:1012E00089E390E0089583EE90E0089582EE90E027
:1012F000089586EE90E0089590913C0392FF06C019
:10130000282F28712830F9F4877F846093FF06C066
:10131000282F28712831F1F4877E846120913D03C4
:1013200020FF06C0382F38713830D9F4877F8160AC
:1013300021FF06C0282F28712831D1F4877E8161D2
:1013400094FD877E0895282F24712430F9F68B7F31
:101350008860DCCF282F2471243101F78B7E8861CF
:10136000DDCF382F3171313019F78E7F8860E0CFB3
:10137000282F2171213121F78E7E8861E1CF0895D8
:10138000E82FF0E0EE0FFF1FEA5EFC4F80819181B5
:101390000895089580EA8A95F1F70895CF93DF9331
:1013A000A1E8B1E046E851E0C1E0D0E08D91E82F3E
:1013B000E295EF70F0E061A18F709E0101C0220FF5
:1013C0008A95EAF7922F9095962391A382A1822B7A
:1013D00082A34A175B0751F7A2E7B1E061E070E032
:1013E0008D91E82FE295EF70F0E041A18F709B01A5
:1013F00001C0220F8A95EAF7922F9095942391A32A
:1014000082A1822B82A381E0A138B80749F710920C
:101410000D0310920C0310921703109216031092F2
:101420000F0310920E0310921903109218031092DA
:1014300011031092100310921B0310921A031092C2
:1014400013031092120310921D0310921C031092AA
:1014500015031092140310921F0310921E0385E0CF
:101460000E94BD0ADF91CF910C942D078F929F921D
:10147000AF92BF92CF92DF92EF92FF920F931F93A2
:10148000CF93DF9381E8E82E81E0F82E0CE013E0A3
:10149000912CAA24A394B12CF70181917F01C82F2C
:1014A000C295CF70D0E099A18F70650101C0CC0CBE
:1014B0008A95EAF7892F8C2989A38AA18C2C80949C
:1014C00088218AA30E94CA09E2E7F1E050E040E0E7
:1014D00030E020E06191A62FA295AF70B0E0909629
:1014E0008C9190E06F7002C0959587956A95E2F7B0
:1014F00080FD3EC0C501042E02C0880F991F0A94CA
:10150000E2F7282B392B4F5F5F4F4F30510511F712
:1015100089A1882289A28AA1C82ACAA2F801808149
:1015200091812817390739F13183208381E0982A86
:101530000E5F1F4FF6E8EF16F1E0FF0609F0ACCFA3
:10154000292D45E066E173E08CE093E00E94BE0A3D
:101550000E943707892DDF91CF911F910F91FF9046
:10156000EF90DF90CF90BF90AF909F908F900895B5
:1015700090E080E0C6CF80E0DACF0895FF920F932D
:101580001F93CF93DF93F82E092F162FD72FC42F39
:10159000222349F081E08093EE010E94F22490938F
:1015A000ED018093EC018091EE018823A1F0809100
:1015B000EC019091ED010E94FE24069760F0EF2D62
:1015C000F02FA12FBD2F90E080E0D0E08C179D0779
:1015D00044F01092EE01DF91CF911F910F91FF9097
:1015E0000895219131912D933D930196EFCFAF92C4
:1015F000BF92CF92DF92FF920F931F93CF93DF930F
:10160000362F472FE82FF0E0EB53F84F71110DC044
:101610006491762F862FDF91CF911F910F91FF90CC
:10162000DF90CF90BF90AF900895C72FD0E0249166
:10163000F22E022F10E056E0659FC0011124EFEF5B
:10164000F0E0BF010E943B32832F90E0880F991F8A
:1016500035E5369FD001379FB00D11248A1B9B0BB7
:10166000982F990F980F6F01CC1ADD0AC09ED001F8
:10167000C19EB00DD09EB00D11248B2F949FA00160
:101680001124452F55276F01C41AD50AC09EA00109
:10169000C19E500DD09E500D11245F01A91AB108B2
:1016A000AC9E6001AD9ED00CBC9ED00C1124CD2C04
:1016B000DD24EC19FD09E09FE001E19FD00DF09FD2
:1016C000D00D1124ED2F62307105A1F048F46115A1
:1016D000710569F06130710589F0EB2F852F07C026
:1016E0006430710571F088F066307105B1F76E2FC6
:1016F000722F91CFE22F2B2F8D2FF9CFE22F252F95
:10170000F6CFEB2F822F2D2FF2CF2B2F8F2DE52F02
:10171000EECF0895CF93DF93762FE901682F842FC2
:101720000E94F70A798368838A83DF91CF910895B5
:1017300080912003982F9E7F29F48170826080938E
:10174000200308958635E8F381708465F8CF88E03A
:1017500090E00C943233CF92DF92EF92FF926B01C4
:101760007C010E94980BB701A60188E090E0FF90F1
:10177000EF90DF90CF900C945033E0E2F3E083E001
:10178000808311828FEF82838383148260817181D1
:10179000828193810C94AB0B8091200380FF02C067
:1017A0008695089580E0089580912403833018F48D
:1017B0008F5F8093240360912003709121038091B7
:1017C0002203909123030C94AB0B80912403882374
:1017D00019F08150809324036091200370912103BC
:1017E00080912203909123030C94AB0B70E00C9436
:1017F000D01360911D018091200380FF0AC0809169
:101800001C0123E0829FC00111248B5D9C4F0C942E
:10181000F60B80911E0190911F0123E0829FF00141
:101820001124EB5DFC4F891750F711821082128250
:101830008F5F3396F8CF9091200390FF14C0909162
:101840001E0120911F0133E0939FF0011124EB5DF5
:10185000FC4F921710F00C94F90B81836083428344
:101860009F5F3396F6CF0895CF93DF9300D00F920A
:10187000CDB7DEB79091200390FF0AC09E012F5F85
:101880003F4F0E948A0B4B8169818A810E941B0C09
:101890000F900F900F90DF91CF910895CF93DF932A
:1018A000EC01EC81F0E0E054F94F4491E0E2F3E028
:1018B000628181810E94340C8C818F5F8C83DF91E7
:1018C000CF910895CF93DF93EC01E0E2F3E0438101
:1018D00062818C810E94340C8C818F5F8C83DF91BC
:1018E000CF9108950F931F93CF93DF9300D00F9262
:1018F000CDB7DEB78C018091EF0181110AC09E0146
:101900002F5F3F4F4FEF6FEF0E948A0B8A818093CA
:10191000EF01F8016481613069F08091EF0140E0EE
:10192000662361F040E0623011F44091EF0180E005
:1019300060E004C06091EF0140E080E00E941B0C79
:10194000F801848190E0019663E070E00E944F32DC
:1019500084830F900F900F90DF91CF911F910F9183
:101960000895AF92BF92CF92DF92EF92FF920F93C2
:101970001F93CF93DF9300D00F92CDB7DEB7182F10
:10198000F62E042FE22E9091200390FF29C0E92F1C
:10199000E695AE2FB0E0AA57BE4F8C918093170208
:1019A0009E7F923059F59E012F5F3F4F812F0E94FD
:1019B0008A0B4B8169818A810E941B0C1093210341
:1019C000F092220300932303EE2051F06091200354
:1019D0007091210380912203909123030E94AB0B0D
:1019E0000F900F900F90DF91CF911F910F91FF906B
:1019F000EF90DF90CF90BF90AF900895823019F4B0
:101A000000912303DBCF863019F410912103D6CF48
:101A10008930D9F3893191F6E9518E2F8170D82E12
:101A2000E695F0E0E054F84FA590B490C12CBB24AB
:101A300060912001C61618F00E94F90BBFCF2C2D23
:101A400030E0A29EC001A39E900DB29E900D112485
:101A500070E00E943B32812FD11013C0860F40915D
:101A60001E01420F532F511D9A01220F331F240FC5
:101A7000351F2B5D3C4F402F6F2D0E948A0BC39466
:101A8000D7CF861BECCFE0E2F3E09181282F438192
:101A900062818CE0890F0C94B10C81E00C94430DB1
:101AA000E0E2F3E09181282F4381628184EF890F86
:101AB0000C94B10C81E00C94500DE0E2F3E06281F3
:101AC00029E1620F08F46FEF282F438181810C9484
:101AD000B10C81E00C945D0DE0E2F3E0628129E15C
:101AE000621B08F460E0282F438181810C94B10CC3
:101AF00081E00C946C0DE0E2F3E043812CE0420FB6
:101B000008F44FEF282F628181810C94B10C81E0A1
:101B10000C947B0DE0E2F3E043812CE0421B08F4DF
:101B200040E0282F628181810C94B10C81E00C94FB
:101B30008A0D20E00C94B10CEF92FF921F93CF938B
:101B4000DF93EC0110E0EE24EA94F12C6091200187
:101B5000161770F00E94F90B9A818C8190FF27C0B4
:101B60008F5F8C83DF91CF911F91FF90EF9008954D
:101B700020911E01422F410F5527551FCA019A017E
:101B8000220F331F280F391F2B5D3C4F70E0C70118
:101B90000E944F32962F8C81409123036091220343
:101BA000199F800D11240E948A0B1F5FCFCF815097
:101BB000D8CFAF92BF92CF92DF92EF92FF920F9366
:101BC0001F93CF93DF93FC0182810FEF80FF01E031
:101BD00010E046E0A42E809120011817C8F00E9462
:101BE000F90B8091F101013009F055C0811102C05B
:101BF0008091200181508093F101DF91CF911F915D
:101C00000F91FF90EF90DF90CF90BF90AF9008952D
:101C1000C0911E01C12ED12CCC0DDD2DD11DCE01C8
:101C2000880F991FC80FD91FCB5DDC4F198218820E
:101C30001A8234E0E32EF12CB12C8091F1018B0D4E
:101C400087301CF16A2D0E942D32892F082E000C3E
:101C5000990BC816D90691F4809123038E9DA0019B
:101C60008F9D500D112455954795559547959E018B
:101C700060912203809121030E948A0BB00EF1E053
:101C8000EF1AF108D1F61F5FA6CF87FFDFCF909143
:101C90002001890FDBCF90E001966091200170E078
:101CA0000E944F32A8CF0F931F93CF93DF93809161
:101CB0001E0190911F0123E0829FF0011124EB5D32
:101CC000FC4F891740F1C0E0D3E060912001C617B6
:101CD00040F10E94F90B20911A018091F001820FCE
:101CE0008093F00190911B01920F90931B011916A4
:101CF00054F4082E000C990B409120014150550BD3
:101D0000841795071CF0219520931A01DF91CF913C
:101D10001F910F9108951182108212828F5F339666
:101D2000D0CF0C2F10E070E0C8010E944F322091FC
:101D30001E01820F482F50E02091F001022E000C6E
:101D4000330B02171307BCF020911B01022E000C6D
:101D5000330B201731077CF08D9F900111242B5DF0
:101D60003C4F4091230360912203809121030E9404
:101D70008A0BCF5FAACFFA01EE0FFF1FE40FF51F0A
:101D8000EB5DFC4F118210821282F3CF0F931F93F1
:101D9000CF93DF938C01FC01848195810196817042
:101DA000992795838483C0E0D5E580912001C817E9
:101DB00030F0DF91CF911F910F910C94F90B20918E
:101DC0001E01422F4C0F5527551FCA019A01220FA1
:101DD000331F280F391F2B5D3C4F8C2F8695F80140
:101DE00044815581840F952F911D8170409123036B
:101DF000609122038D9F802D11240E948A0BCF5F5A
:101E0000D4CF0F931F93CF93DF93EC0110E000E04A
:101E1000909120019017110609F06CF40E94F90BC3
:101E20008C8190E00196817099278C83DF91CF910E
:101E30001F910F91089520911E01A801420F511D7D
:101E40009A01220F331F240F351F2B5D3C4F4C810D
:101E5000609122038091210396959017110651F00D
:101E60004CF0442349F0409123030E948A0B0F5FFA
:101E70001F4FCECF4423B9F340E0F7CF8F929F920C
:101E8000AF92BF92CF92DF92EF92FF920F931F9388
:101E9000CF93DF93FC01B280948081E0848300E0E3
:101EA00015E05BE4A52E88248394EE24EA94F12CBB
:101EB0007BE4C72ED12C80912001081770F0DF91B0
:101EC000CF911F910F91FF90EF90DF90CF90BF9037
:101ED000AF909F908F900C94F90BC02FD0E01C9F77
:101EE000F0011D9FF00D1124EE50FE4F91101CC00B
:101EF0001382128220911E01CE01820F911D9C013E
:101F0000220F331F280F391F2B5D3C4F1C9FF00100
:101F10001D9FF00D1124EE50FE4F428161818081A2
:101F20000E948A0B0F5FC7CF2381222379F12150B2
:101F3000238334818A2D821B311101C0822F1C9F83
:101F4000F0011D9FF00D1124EE50FE4F90912303E0
:101F5000899FC0011124B6010E943B326283211186
:101F600004C0332311F01482A38222E02B1510F257
:101F70001C9FF0011D9FF00D1124EE50FE4F80912B
:101F800021038083809122038183B4CF0E940D338B
:101F9000823091400CF0AECF82E08B1530F50E947C
:101FA0000D33B7010E944F321C9FF0011D9FF00DB1
:101FB0001124EE50FE4F808322E02B15C8F40E94BE
:101FC0000D33209122032695622F70E00E944F323C
:101FD000280F1C9FF0011D9FF00D1124EE50FE4FA5
:101FE00021831282A382848285CF80912103DCCF5A
:101FF00020912203EECFE0E2F3E080818E7F8083A8
:1020000060817181828193810E94AB0B10921802D2
:102010002FEF80E792E0215080409040E1F700C030
:1020200000000C94F90B60912003669570E04BE082
:1020300050E081E291E00E941D33892B19F481E088
:10204000809318020E94F224909311028093100250
:1020500008959091200390FF35C09170811128C0A0
:10206000926090932003662351F060912003709159
:10207000210380912203909123030E94AB0B609176
:102080002003669570E04BE050E081E291E00E9411
:102090001D33892BA1F01092180281E08093130266
:1020A0004091230360912203809121030C94990DA8
:1020B0008B3210F09465D5CF880F982BD2CF0E9429
:1020C0001310EBCF0895682F90912003969581E02F
:1020D000890F8B3208F081E00C94291081E00C9478
:1020E0006310682F9091200396958FEF890F09F464
:1020F0008AE20C94291081E00C94711061E00C9438
:102100002910E0E2F3E080818160808386950C9461
:102110007E108091200380FD0C94FB0F0C948110A5
:1021200060E00C9429108091160281112EC00E944B
:10213000F522811104C00E94A5230E94BD0B0E94BC
:10214000A70B609320037093210380932203909345
:1021500023036E7F61F40E94BD0B0E94A70B609366
:1021600020037093210380932203909323030E9402
:10217000980B109218028091200380FF03C086956F
:102180000E94901081E08093160208950F931F9390
:10219000CF93DF9380911802882309F49DC080912A
:1021A0001702E0912003E695E81BE09312028230CB
:1021B000C9F5F0E0E454F94FE491CE2FD0E00EE4FD
:1021C0001CE080911302882389F0109213020E9470
:1021D000F2249E0120953095820F931F9093110257
:1021E0008093100210921502109214028091100236
:1021F000909111020E94FE248C179D0708F46CC078
:10220000E0911002F0911102CE0FDF1FD093110266
:10221000C093100280E192E0F801DF91CF911F910D
:102220000F910994863049F4F0E0E754F94FE491B6
:10223000CE2FD0E002E61CE0C4CF893051F4E69501
:10224000F0E0EA54F94FE491CE2FD0E00CE91DE024
:10225000B8CF8F3051F4E695F0E0ED54F94FE491AA
:10226000CE2FD0E009ED1DE0ACCF853149F4F0E090
:10227000E055F94FE491CE2FD0E003E51EE0A1CF69
:10228000C8EED3E006EC1EE0883109F49ACF833221
:1022900039F4EEEAF6E0C591D49102E71CE091CF63
:1022A000C4EFD1E001E01FE0843209F48ACFC0ED31
:1022B000D7E009E81BE0853209F083CF8E2F63E079
:1022C0000E942132E92FF0E0E555F94FE491CE2F3D
:1022D000D0E00EE31FE075CFDF91CF911F910F91FA
:1022E0000895FA01811101C0FB010994CF93DF9396
:1022F000C82FD62F0E94CC0B8C1740F00E94CC0B1D
:102300008D1720F4DF91CF910C946E108C2FDF91FC
:10231000CF910C947E100F931F93CF938C01FB01F0
:10232000C281CC2309F465C00E9443228272F80165
:10233000E35CFC45E431F10538F4E556FC4C0C94C3
:1023400085320E948910C0E08C2FCF911F910F9190
:1023500008954BE750E16EE670E10E947111F3CFF2
:102360004EE650E16BE770E1F8CF4AE55DE06DE4E1
:102370007DE0F3CF4DE45DE06AE57DE0EECF48E738
:102380005DE069E67DE0E9CF49E65DE068E77DE094
:10239000E4CF46E95DE067E87DE0DFCF47E85DE058
:1023A00066E97DE0DACF45EE5BE064ED7BE0D5CF1A
:1023B00044ED5BE065EE7BE0D0CF81E00E947E10D3
:1023C000C2CF65E082E00E947611BDCF68E086E072
:1023D000FACF6EE089E0F7CF64E18FE0F4CF67E1F8
:1023E00085E1F1CF88E1EACF62E289E1ECCF83E2D7
:1023F000E5CFC1E0A9CF0E94F522811102C00E9461
:10240000A5230E942D2380933703883320F0877003
:1024100080638093370390913703892F817090FFF9
:1024200004C0892F8695869586950C944A138091D1
:102430003703982F969596959695963040F49F5F22
:10244000990F990F990F8770892B8093370380918B
:1024500037038160809337030E94312380913703D3
:102460008695869586950C944A1380913703982F0C
:10247000987F79F0885080933703887F91E009F442
:1024800090E08091370390FB80F9809337030E949E
:102490003123809137038695869586950C944A134F
:1024A0008091370380FD13C08160809337038130B2
:1024B00019F489E080933703809137030E94312318
:1024C000809137038695869586950C944A130895D6
:1024D0008091370380FF08C08E7F809337030E946E
:1024E000312380E00C944A1308958091370380FDD6
:1024F0000C9468120C94501290913703892F869592
:10250000869586958F5F8F7197708730D8F4880F86
:10251000880F880F892B8093370380913703887F3A
:1025200091E009F490E08091370390FB80F980936B
:1025300037030E94312380913703869586958695CF
:102540000C944A1390933703E8CF873008F086E065
:10255000909137039770282F220F220F220F922B72
:1025600090933703987F21E009F420E0909137039E
:1025700020FB90F9909337030C944A130E94A51204
:10258000809137030C9431239C01FB0182818823C5
:1025900049F12E3BFCE53F07C9F040F42C3BECE54C
:1025A0003E0769F02D3B3C4579F00895203C9CE5C1
:1025B000390791F070F0213C3C4589F0089586E0A0
:1025C0000E94BE1280E0089580E0FACF0E9435128A
:1025D000F9CF0E941712F6CF0E947512F3CF0E9416
:1025E0007C12F0CF81E00895859A8D9A08958D9898
:1025F00008958D9A08951F920F920FB60F9211248D
:102600002F933F934F935F936F937F938F939F93FA
:10261000AF93BF93EF93FF930E94F912FF91EF9155
:10262000BF91AF919F918F917F916F915F914F91EA
:102630003F912F910F900FBE0F901F9018951F92F2
:102640000F920FB60F9211242F933F934F935F93E6
:102650006F937F938F939F93AF93BF93EF93FF936A
:1026600080918800909189008130914010F00E9403
:10267000F712FF91EF91BF91AF919F918F917F9151
:102680006F915F914F913F912F910F900FBE0F90DF
:102690001F901895CF92DF92EF92FF92CF93C82FA1
:1026A000873098F5811132C080918800909189001F
:1026B000892B51F080916F008D7F80936F00809106
:1026C0006F008E7F80936F000E94F9122C2F30E0F4
:1026D000AFEFBFEF0E948B3226E030E040E050E0E9
:1026E0000E946332C9012C3764E1360700F569E0C6
:1026F00070E00E943B327093890060938800CF9114
:10270000FF90EF90DF90CF900895C6E08091880011
:1027100090918900892BD1F680916F00826080931F
:102720006F0080916F00816080936F00CFCF2A503F
:10273000374D4F4F5F4F942F832F722F662725EF12
:1027400038E241E050E00E94633269017A01CA0137
:10275000B9010E9411329B01AC01C701B6010E9470
:102760001132672F782F892F99276115710521E084
:102770008207910509F0BFCF6FEF7FEFBCCF0895BF
:102780000E94F41282E08093800089E180938100AE
:102790008FEF9FEF90938700809386000C94FB113E
:1027A000869A41B34F7B51B35064EFB7F8949B01C5
:1027B000220F331F260F371F280F391F28173907FD
:1027C00041F4EFBF8FE594E00197F1F700C00000FE
:1027D0000895DC016D91CD0178E051BB000000C08F
:1027E00067FF41BB660F000000C000C000C041BBD6
:1027F00000C07A9591F7E2CF0F931F93CF93DF93A9
:10280000C62FD42F022FFC0182818823C9F0609348
:102810001B020E94F22490931A028093190280E214
:102820008C0F883008F050C0C77081E001C0880F5D
:10283000CA95EAF7DF91CF911F910F910C940C1A72
:1028400010911B02161335C08091190290911A0243
:102850000E94FE24883C910560F5C0E2CD0F1D1753
:10286000B9F080E2810F883040F4177081E001C038
:10287000880F1A95EAF70E94131AC83048F481E0CD
:102880009D2F977001C0880F9A95EAF70E940C1A45
:10289000802F0E94F919C830B8F4D77081E001C0C8
:1028A000880FDA95EAF7DF91CF911F910F910C9481
:1028B000131A80E28C0F883038F4C77081E001C0B1
:1028C000880FCA95EAF7EFCFDF91CF911F910F9153
:1028D00008959C01CB01243F4CE5340731F190F47D
:1028E000293DFCE53F07E9F02A3D4CE5340769F155
:1028F000283D3C4579F426E241EE61EE0E94FC134E
:1029000080E00895263FFCE53F07B9F090F0273FAF
:102910003C45B9F0FC0182818823D1F010921B0262
:10292000089527E245EE65EEE9CF26E241EE60EE3E
:10293000E5CF27E245EE64EEE1CF26E241EE62EE1E
:10294000DDCF27E245EE66EED9CF28E241E0EBCFBE
:1029500081E00895CF93DF93EC01FB01828188230E
:1029600009F419C1C230FCE5DF07C0F1C6319CE5AE
:10297000D90730F09E012B5F3C452930310570F5B9
:102980000E94122390933D0380933C03C031ECE5F9
:10299000DE0709F4CFC008F05BC0C8308CE5D8076B
:1029A00009F4B6C088F5C430ECE5DE0709F4A8C028
:1029B000C0F4C2308CE5D80709F49CC080913C0378
:1029C0008260C330DC4509F498C080913C0390914B
:1029D0003D030E9420230E94881C80E0DF91CF915C
:1029E000089580913C038061C630ECE5DE0709F470
:1029F00084C080913C038860C730DC4508F47DC00A
:102A000080913C03806279C0CC308CE5D80709F412
:102A100089C070F480913C038C60CA30ECE5DE071D
:102A200009F46BC008F478C080913C038E7F65C0C8
:102A3000CE308CE5D80709F479C080913C038B7FB8
:102A4000CF30DC4508F459C080913C038F7E55C0DF
:102A5000CC3FECE5DE0709F457C030F5C3318CE517
:102A6000D80709F46FC078F4C131ECE5DE0709F44A
:102A700065C0C231DC4509F0A8CF0E94881C809156
:102A80003C038F773AC0C5318CE5D80709F462C0A2
:102A900008F476C080913D038160CB3FDC4509F0AE
:102AA00094CF80933D0391CFC115FDE5DF0709F475
:102AB0004DC088F480913D038D7FCE3F9CE5D907C2
:102AC00081F380913D038E7FCF3FDC4550F38091B1
:102AD0003D038360E6CFC230FDE5DF0709F459C04E
:102AE00008F444C080E0C330DD4509F06ECF0E9499
:102AF000A7236BCF80913C03816080933C0365CF1B
:102B000080913C038460F9CF80913D038260C9CFFE
:102B100080913C038064F1CF0E94881C80913C032B
:102B20008068EBCF80913C038D7FE7CF80913C03A1
:102B3000877FE3CF80913C038F7DDFCF80913C0383
:102B40008F7BDBCF80913C03837FD7CF80913D0388
:102B50008C7FA7CF80913C0382FB992790F921E0DD
:102B6000922790FB82F990FB83F9C7CF80913D03B8
:102B7000982F909591708E7F892B90FB81F991CF42
:102B80000E94881C90913C03892F97FB87F98058FD
:102B9000B4CF81E0ACCF81E021CFCF93DF93EB01C5
:102BA00086319C4511F50E9443229A81992399F020
:102BB0008A7A91E009F490E090931C02811109C097
:102BC00089E20E941E220E94922280E0DF91CF9132
:102BD000089585E3F6CF80911C02811104C089E23B
:102BE0000E942522F0CF85E3FBCF81E0EFCFCF938A
:102BF000DF93EC0181E0898B8F810E9446228885DA
:102C00000E9459220E949222EA81FB81309739F07A
:102C10006C897D89CE010696DF91CF910994DF9171
:102C2000CF910895EF92FF920F931F93CF93DF936D
:102C3000EC018A85811134C0EB80FC8087E5F81AAD
:102C400026E12E9DC0012F9D900D1124DC01AC5F6B
:102C5000BE4F1496ED91FC911597309731F0549634
:102C60006D917C91865F9E4F099586E18E9D8001D6
:102C70008F9D100D11240C5F1E4FF80187810E945B
:102C80004C22F80180850E945F220E9492221882C5
:102C900019861B861E821D8210921E0210921D0232
:102CA000DF91CF911F910F91FF90EF900895DF92E8
:102CB000EF92FF920F931F93CF93DF937C01FB0161
:102CC0008281882391F080912C018F3F71F0C4E0C4
:102CD000D1E010E000E0DD24D39480912C01082E97
:102CE000000C990B8017910744F4DF91CF911F914D
:102CF0000F91FF90EF90DF9008958E818823C9F0A7
:102D000089859A858E159F0539F480911D029091D1
:102D10001E028E159F0569F0DF86FC86EB86898989
:102D2000811103C0CE010E94F715CE0106960E94C4
:102D300012160F5F1F4F6696D0CFEF92FF920F9340
:102D40001F93CF93DF937C0197558F3F910509F037
:102D5000D8F520912C01022E000C330B28173907CF
:102D600014F480932C01FB01228136E1389F80010D
:102D7000399F100D1124E801CC5FDE4F288B928122
:102D80008E81992349F1FA86E9868F5F8E830E94AE
:102D9000F2249E878D870E9479228F830E9443228E
:102DA00088870E9456229885892B8887E881F98137
:102DB000309731F06C897D89C801865F9E4F0995F7
:102DC000F0921E02E0921D0281E0DF91CF911F91EF
:102DD0000F91FF90EF9008958823B1F3898988239C
:102DE00099F3C801865F9E4F0E941216EDCFEF92B5
:102DF000FF920F931F93CF93DF9380912C0110E0EC
:102E000006E18F3FC1F5DF91CF911F910F91FF90A8
:102E1000EF900895029FF001039FF00D1124EC5FE5
:102E2000FE4FE288F388E114F10419F488ECE82EEF
:102E3000F12C029FE001039FD00D1124CC5FDE4FE7
:102E40008E818823B9F08D859E850E94FE24E81628
:102E5000F90680F4109F700111248989811105C041
:102E6000C7018C5F9E4F0E94F715C701865F9E4F7A
:102E70000E9412161F5F212F30E080912C01082E36
:102E8000000C990B821793072CF6BDCF0895089577
:102E900080912C02811114C00E94461781E080931A
:102EA0002C020E94F22490932B0280932A0210920B
:102EB0001F02E0E2F2E08AE0DF011D928A95E9F765
:102EC00008951F93CF93DF93EC01FB011281111141
:102ED00006C011E0812FDF91CF911F91089580915D
:102EE0002C02882351F180912A0290912B020E949A
:102EF000FE248C32914068F7CE019056811520E275
:102F0000920720F0905E8115904108F4DD278091B2
:102F10001F02853068F4E82FF0E0EE0FFF1FE05E3F
:102F2000FD4FD183C0838F5F80931F0210E0D2CF0B
:102F300010922C020E944717F9CFC731DC4549F6A1
:102F40000E944817C7CF90933202809331020895B0
:102F5000E0913102F0913202309721F00190F0813E
:102F6000E02D099480E00895E0913102F091320261
:102F7000309799F020914001222359F020913C0391
:102F800027FF07C0DC012C9111962C93119725E0A7
:102F90002C930280F381E02D09940895E091310291
:102FA000F0913202309739F022E0DC012C9304805A
:102FB000F581E02D0994089520912F02309130027F
:102FC0002817390771F09093300280932F02E09117
:102FD0003102F0913202309721F00680F781E02D26
:102FE0000994089520912D0230912E022817390757
:102FF00071F090932E0280932D02E0913102F091B6
:103000003202309721F00084F185E02D0994089573
:1030100085B7806885BF85B7806885BF08950895A6
:1030200008950C940F1808950C9413180E94081812
:103030000E9410180C94111881E008950C941C182B
:103040000E94E9240E94CE090E94A0250E94FB1143
:103050000E9493100C9414189F92AF92BF92CF923B
:10306000DF92EF92FF920F931F93CF93DF93CDB731
:10307000DEB72A970FB6F894DEBF0FBECDBF0E9411
:10308000360A0E941E18882309F474C054E3A52E42
:1030900052E0B52E10E000E0902E802F0E94C00973
:1030A0006C01F501E190F1905F01E816F90609F471
:1030B0005BC08091D60281FD0E94C90997012C2531
:1030C0003D2580E0EE24E394F12CA9014E215F21FF
:1030D000452B09F443C08E839F82CE20DF2081E000
:1030E000CD2809F480E088870E94F2248160782F3F
:1030F0009A8789874E815F8168858A850E94DD185D
:10310000000F111FF801EC5CFD4F80819181E826D2
:10311000F926F182E0820E94C6100E94BF130E942D
:103120002F280E94A817909133028917A1F10E94BD
:10313000A817809333022A960FB6F894DEBF0FBE0D
:10314000CDBFDF91CF911F910F91FF90EF90DF9056
:10315000CF90BF90AF909F900C9440078F5FEE0C84
:10316000FF1C8F3009F0B1CF0F5F1F4F05301105E5
:1031700009F092CF8FEF89838A831B820E94F22409
:103180008160782F9D838C8349815A816B818D81E9
:103190000E94DD18C0CF2A960FB6F894DEBF0FBE8E
:1031A000CDBFDF91CF911F910F91FF90EF90DF90F6
:1031B000CF90BF90AF909F900895CF93DF93CDB7FE
:1031C000DEB72B970FB6F894DEBF0FBECDBF4F838F
:1031D000588769877A878B871E821D8285E0FE016A
:1031E0003796DE01119601900D928A95E1F749819B
:1031F0005A816B817C818D819E812B960FB6F894CC
:10320000DEBF0FBECDBFDF91CF910C943A1FFC0102
:10321000808191810C94F021CF93C82F882309F4E9
:1032200090C08238C1F40E94A81781FD8AC089E34A
:103230000E941E220E9492222FEF81EE94E02150E4
:1032400080409040E1F700C0000089E30E94252201
:10325000CF910C9492228338A1F40E94A81780FD8C
:1032600070C083E50E941E220E9492222FEF81EE01
:1032700094E0215080409040E1F700C0000083E5D9
:10328000E5CF8438A1F40E94A81782FD5AC087E4D4
:103290000E941E220E9492222FEF81EE94E0215084
:1032A00080409040E1F700C0000087E4CFCF8CEF72
:1032B0008C0F813AB8F48C2F0E94A22A811141C050
:1032C0006C2F80912D0190912E010E94C0238823A4
:1032D00029F08C2F0E9425220E9492228C2F0E947E
:1032E0001E22B6CF80E28C0F883048F4C77081E090
:1032F00001C0880FCA95EAF70E944622A9CFEBE5E4
:10330000EC0FE33040F4F0E0E152FE4F808190E0BA
:10331000CF910C94DC17E8E5EC0FE73150F4F0E0C6
:10332000EE0FFF1FEF54FE4F80819181CF910C94DF
:10333000F217C03F30F08C2F0E943D27CF910C94A4
:103340002428CF910895882309F452C0823871F45B
:103350000E94A81781FF4CC089E30E941E220E9490
:10336000922289E30E9425220C949222833859F4F8
:103370000E94A81780FF3CC083E50E941E220E9485
:10338000922283E5EFCF843859F40E94A81782FF78
:103390002FC087E40E941E220E94922287E4E2CF7F
:1033A0009CEF980F913AF0F290E2980F983050F419
:1033B000877091E001C0990F8A95EAF7892F0E94E2
:1033C0004C22D2CF9BE5980F933020F490E080E020
:1033D0000C94DC1798E5980F973120F490E080E08A
:1033E0000C94F217803F20F00E94A5270C9424280B
:1033F0000895CF93C82F0E940C19C93349F42FEFB9
:1034000087EE93E0215080409040E1F700C000003B
:103410008C2FCF910C94A319882321F00E9446226F
:103420000C9492220895882321F00E944C220C943F
:1034300092220895BF92CF92DF92EF92FF920F9364
:103440001F93CF93DF936C01D62FC72FFC0105810B
:1034500002950F70128111110E9466220E943C2277
:10346000E82E882391F01123D1F08C2F807F8034B7
:1034700021F080E28D0F883090F082E00E94DD2202
:103480000E943C2291E0E82EE926BC2EB2949FE0F7
:10349000B922EB2DF0E0E155FC4C0C948532E12C87
:1034A000F4CF0C2F0F70C07F11F00295007F112315
:1034B000A9F0002359F080E28D0F883010F0D1116F
:1034C00009C0802F0E9446220E9492228D2F0E94C6
:1034D0000C1914C0802F0E945922F6CF8D2F0E9404
:1034E000A319002359F080E28D0F883010F0D1111C
:1034F0002CC0802F0E944C220E9492222B2D2850FB
:10350000330B2430310520F40E94A8170E94400795
:10351000EE2009F49EC10E94382280FD9AC1F60176
:1035200012820E9432220E94BE20C6010E944A1CC2
:103530000E943222DF91CF911F910F91FF90EF9067
:10354000DF90CF90BF900C94DF20802F0E945F22ED
:10355000D3CFFC2FFF70FF2EC07FC03219F0F29442
:1035600080EFF822DD2369F0D13049F1112391F188
:10357000002351F1F601858180FFA8CF8F708583EC
:1035800023C0112381F0011106C00E9479228F29E6
:103590000E940C1AB3CF0130C1F70E9479228F2903
:1035A0000E947F22ABCF011106C00E9488228F2D7E
:1035B0000E94131AA3CF013009F4A0CFF6CF112334
:1035C00029F0063008F09ACF8F2DE2CF053008F0B1
:1035D00095CFEDCF002359F3D93349F4FFEF27EE10
:1035E00033E0F15020403040E1F700C000008D2F63
:1035F0000E94A31983CF8C2F86958695837069F0DE
:10360000813009F07BCF8D2F9C2F9370111102C058
:1036100090E080E00E94F21771CF8D2F9C2F937065
:10362000111102C090E080E00E94DC1767CF8D2F5F
:10363000112329F00E943D270E9424285FCF0E9479
:10364000A527FACF8C2F837009F041C0111156CFF6
:103650004D2F429546954770440F440F0D2F0F7024
:1036600010E030E020E0042E04C0000F111F221FE4
:10367000331F0A94D2F760E070E0CB01D4FF0FC093
:103680006FE070E080E090E004C0660F771F881F55
:10369000991F4A95D2F76095709580959095C6953B
:1036A000C695C370602B712B822B932BC23049F0CF
:1036B00058F4C13019F00E94702020CF0E945E2083
:1036C0001DCF0E9482201ACF0E945C2017CF8695C2
:1036D000112311F08C2F8170882309F40FCF4D2F07
:1036E000429546954770440F440F0D2F0F7010E020
:1036F00030E020E0042E04C0000F111F221F331FF2
:103700000A94D2F760E070E0CB01D4FF0FC06FE005
:1037100070E080E090E004C0660F771F881F991F5B
:103720004A95D2F76095709580959095C695C69507
:10373000C370602B712B822B932BC23049F058F44D
:10374000C13019F00E943521D9CE0E942321D6CE56
:103750000E944721D3CE0E949820D0CECF70112353
:1037600029F08C2F0E94BE208D2F12CF8D2F0E940A
:10377000131A8C2F0E94DF20C1CED23F89F160F452
:10378000D03FC9F0D13F29F1112309F442C0011102
:103790009DCE8C2F8F7121C0D33F39F1D43FA1F73B
:1037A000112369F1CF718C2F0E94BE2063E08C2F12
:1037B0000E94C822A3CE112341F0053008F09ECE0E
:1037C0008C2F8F710E94022199CE063008F096CE80
:1037D000F7CF8C2F8F71112369F20E94BE208ECEFD
:1037E0008C2F8F711123C9F3C5CF112329F08C2F92
:1037F0008F710E94A92082CE0E94A4207FCE81E0FA
:103800000E94DD22023008F479CE82E00E94DD229F
:1038100075CE002359F0D93309F0E9CE8FEF97EE3A
:10382000E3E081509040E040E1F7DFCE8C2F8F71D4
:10383000A1CF4C2F4F706D2FC6010E94B0070E9480
:10384000D41F5CCE4C2F4F706D2FC6010E94B30762
:1038500055CEDF91CF911F910F91FF90EF90DF90A8
:10386000CF90BF9008950F931F93CF93DF93EC01F8
:10387000688179818A810E94FA218C010E945921F4
:103880000E945B20B801CE01DF91CF911F910F9173
:103890000C941A1ACF93DF93EC018B819C81892BB6
:1038A00029F08881998189238F3F59F4DF91CF9145
:1038B0000895CE010E94331CCE01DF91CF910C946C
:1038C0006906CE010E9458078111F3CF0E943C2265
:1038D000882361F38A81882349F382E0DF91CF91C5
:1038E0000C94DD220E9466220E9476220E9492227F
:1038F0000E9449290E94242890E080E00E94DC1761
:1039000090E080E00C94F2170E942C220C94721C20
:103910000E9453220C94841CE92FE295EF70E25030
:10392000EE3070F4F0E0E154FC4C0C948532803FB2
:1039300019F020F4883E20F481E00895843FE1F3FB
:1039400080E00895883EC0F3813FD1F7F5CF93FB27
:10395000882780F908950E94F0210C948C1CCF9345
:10396000DF9300D000D00F92CDB7DEB70F900F904D
:103970000F900F900F90DF91CF910895CF93DF9329
:1039800000D000D000D0CDB7DEB726960FB6F894A1
:10399000DEBF0FBECDBFDF91CF9108951F93CF93B0
:1039A000DF93C0913F0216E0809140028C1304C067
:1039B000DF91CF911F910895D0E01C9FF0011D9FD2
:1039C000F00D1124EF5BFD4F4081518162817381C5
:1039D000848195810E94BE1C2196C770E5CF4091DD
:1039E0007102509172026091730270917402809121
:1039F0007502909176020C94BE1C20913F0290912A
:103A0000400256E0291302C080E0089530E0529F42
:103A1000F001539FF00D1124EF5BFD4F7181761380
:103A200006C07081781303C07281741304C02F5FC5
:103A30003F4F2770E7CF81E008951F93CF93DF9327
:103A400080917602807FA9F480917302882389F0A7
:103A500080913F02C09140026091710270917202A8
:103A6000A0917402B0917502D62FD72316E0C81327
:103A700004C0DF91CF911F91089590E0109711F04D
:103A8000DF3F19F401968770F2CF189F9001199FBC
:103A9000300D1124F901EF5BFD4F41814713F2CF47
:103AA00040814613EFCF42814111ECCF43815481D5
:103AB0004A1B5B0B483C510528F7809176028F70BA
:103AC000806180937602F901EA5BFD4F80818F70FF
:103AD0008061808381E792E00E944A1CDF91CF9150
:103AE0001F910C94CE1C8F929F92AF92BF92CF9257
:103AF000DF92EF92FF920F931F93CF93DF93CDB797
:103B0000DEB761970FB6F894DEBF0FBECDBF8C0154
:103B100085E0F801DE011D9601900D928A95E1F78E
:103B2000D801EC901196FC9011971296CC901297B8
:103B300081E7A82E82E0B82E409174025091750260
:103B40004115510509F474C19091710220917202DE
:103B5000892F82238F3F09F46BC113968D909C901F
:103B60001497D0907302F401E41BF50BDD2009F4E7
:103B70000AC180917602382F307FE83CF10508F0C9
:103B8000C1C0311189C0DC2C2F1126C09E1124C068
:103B9000C11022C08F708061809376020E94EF1C5A
:103BA000C5010E944A1C80917602D80115968C931B
:103BB0008D2D61960FB6F894DEBF0FBECDBFDF919D
:103BC000CF911F910F91FF90EF90DF90CF90BF901A
:103BD000AF909F908F9008958114910429F08F2DBC
:103BE0008E218F3F09F043C180E080FF15C04C2D2E
:103BF0006F2D8E2D0E94FD1C882371F081E792E0CD
:103C00000E944A1C86E0E1E7F2E0DF011D928A95FE
:103C1000E9F70E94EF1C3EC0892829F08F2D8E21E4
:103C20008F3F09F021C180E0B82FB170AB2E80FF2B
:103C300029C04C2D6F2D8E2D0E94FD1CB82E811198
:103C400021C0ED86FE868D859E850E94F021292F5C
:103C500022952F70223050F0243078F49F7051F06C
:103C6000F8019581907F31F4DB2CA2CF9F7011F089
:103C70008823D1F3805E8830B8F3C8010E944A1CC3
:103C8000BA2CF2CFCC2009F493CF809176028160D8
:103C900080937602D12C8CCF2F1105C09E1103C0CA
:103CA000CC2009F48DC0ED86FE868D859E850E9410
:103CB000AB1C882319F1CC2009F180917602803267
:103CC00070F0209171023091720238872F8319862B
:103CD0009B868A868C87CE0107960E944A1C86E0C6
:103CE000F801A1E7B2E001900D928A95E1F70E94F8
:103CF0001D1D0E94EF1CDD24D3945ACFC8010E94E1
:103D00004A1CF9CF311112C0782D998A888AA701EF
:103D10006C2D89890E94AF1C81E792E00E944A1CA9
:103D200086E0F50111928A95E9F773CF2F110FC044
:103D30009E110DC0C1100BC015968C93C8010E9436
:103D40004A1C86E0F50111928A95E9F731CFED869C
:103D5000FE868D859E850E94AB1C882379F2CC203F
:103D600069F280917602803208F4B9CF2091710215
:103D7000309172023A8329831B829D828C828E83CA
:103D8000CE010196AACFE83CF10508F043C0DC2C37
:103D9000CC2009F4B3CF2F112CC09E112AC08091E2
:103DA000760280FD1DC0982F907FD1F015968C93E0
:103DB0001597903F39F0982F907F905F8F70892BE7
:103DC00015968C93C8010E944A1C86E0F801A1E771
:103DD000B2E001900D928A95E1F70E94EF1CE8CEC7
:103DE00086E0F801A1E7B2E001900D928A95E1F733
:103DF000DFCEED86FE868D859E850E94AB1C8111EF
:103E00006ECF80917602816080937602C8010E9415
:103E10004A1CCECE782D998A888AA7016C2D898973
:103E20000E94AF1C86E0F50111928A95E9F7D5CF83
:103E3000CC2009F463CFED86FE868D859E850E9499
:103E4000AB1CD82E882309F459CF86E0F801A1E7EE
:103E5000B2E001900D928A95E1F781E792E00E942D
:103E600007190E941D1DB9CF81E08C25DDCE81E0B0
:103E70008C25BBCE1F93CF93DF93CDB7DEB72C97A6
:103E80000FB6F894DEBF0FBECDBF4F83588769874A
:103E90007A878B879C87CE0107960E94731D8823A3
:103EA00069F08A859B85892B39F04F815885842F4D
:103EB00085238F3F09F071C016E05FC086E0FE01E8
:103EC0003796DE01119601900D928A95E1F78A8569
:103ED0009B85892B89F38F81988589238F3F61F397
:103EE0002091400230E0C9010196877099274091E6
:103EF0003F024817190671F40E94881C1092400274
:103F000010923F0286E0E1E7F2E0DF011D928A9520
:103F1000E9F7D2CF96E0929FD001939FB00D112484
:103F2000AF5BBD4FFE01319601900D929A95E1F77E
:103F3000809340020E94CE1CBFCF819FC0011124FC
:103F40008F5B9D4F0E94731D8823E9F0E0913F0233
:103F50001E9FF0011124EF5BFD4F40815181628172
:103F60007381848195810E94BE1C80913F0290E004
:103F700001968770992780933F0280913F0290912C
:103F800040028913DACF2C960FB6F894DEBF0FBE2D
:103F9000CDBFDF91CF911F91089569857A858B857B
:103FA0009C850E94BE1C88CFEF92FF920F931F93B7
:103FB000CF93DF938C01892B81F0F12CEE24E394D5
:103FC000E8012196F8018491843770F4843008F078
:103FD0005FC08130B1F08230A1F1DF91CF911F91AC
:103FE0000F91FF90EF900895853709F44CC008F4C5
:103FF0003DC09CE7980F903780F78F770E94A319F8
:1040000049C00E5F1F4FFE01849190E2980F9830D7
:1040100060F48770FE2D01C0FF0F8A95EAF78F2F9D
:104020000E9469220E94922202C00E940C198F2DC8
:10403000815030F2EFE9FFE03197F1F700C0000066
:10404000F7CF0E5F1F4FFE01849190E2980F9830DA
:1040500050F48770FE2D01C0FF0F8A95EAF78F2F6D
:104060000E946F22DFCF0E94A319E1CF0E5F1F4F86
:10407000FE01C491C150D8F28FE99FE00197F1F79A
:1040800000C00000F7CF0E5F1F4FFE01F490CFCFAE
:104090000E940C198E01CBCF08950C944C200E94E5
:1040A0004D206093AD027093AE028093AF02909367
:1040B000B0020C94721C08950C944F200F931F9320
:1040C0000091AD021091AE022091AF023091B0028A
:1040D000602B712B822B932B1F910F910C944F20EF
:1040E0000F931F930091AD021091AE022091AF0289
:1040F0003091B00260237123822393231F910F918B
:104100000C944F200F931F930091AD021091AE02BB
:104110002091AF023091B002602771278227932748
:104120001F910F910C944F200C944C200C949420D0
:104130000E9496206093A9027093AA028093AB021A
:104140009093AC020C94721C60E070E0CB010C9474
:1041500098200F931F9341E050E060E070E08A01E7
:104160009B0104C0000F111F221F331F8A95D2F735
:10417000C901B8011F910F910C9498200F931F93C0
:1041800041E050E060E070E004C0440F551F661F3E
:10419000771F8A95D2F78091A9029091AA02A091E7
:1041A000AB02B091AC028A019B01082B192B2A2B80
:1041B0003B2BC901B8011F910F910C9498200F93CC
:1041C0001F9341E050E060E070E004C0440F551FD1
:1041D000661F771F8A95D2F7CB01BA01609570955B
:1041E000809590950091A9021091AA022091AB02AE
:1041F0003091AC0260237123822393231F910F918E
:104200000C9498200F931F9341E050E060E070E021
:1042100004C0440F551F661F771F8A95D2F78091FF
:10422000A9029091AA02A091AB02B091AC028A01BE
:104230009B01082719272A273B27C901B8011F918D
:104240000F910C9498200F931F930091A902109145
:10425000AA022091AB023091AC02602B712B822B11
:10426000932B1F910F910C9498200F931F93009103
:10427000A9021091AA022091AB023091AC026023F6
:104280007123822393231F910F910C9498200F93F5
:104290001F930091A9021091AA022091AB023091C4
:1042A000AC0260277127822793271F910F910C94EE
:1042B000982008952FE0929F800D1124982F9770D9
:1042C00041E001C0440F9A95EAF786958695869558
:1042D00095E0899FF0011124E958FD4F90E080E0BE
:1042E00070E05191DF0111979B01082E02C03695B5
:1042F00027950A94E2F72170219525272423252765
:104300002C9301968530910561F708952FE0929FD7
:10431000800D1124982F977086958695869525E0B7
:10432000829FF0011124E958FD4F50E040E080E009
:10433000219130E0092E02C0369527950A94E2F7C4
:1043400021703327042E01C0220F0A94EAF7822B32
:104350004F5F5F4F4530510559F70895BF92CF9297
:10436000DF92EF92FF920F931F93CF93DF938C0115
:10437000C090A902D090AA02E090AB02F090AC02EB
:104380008091AD029091AE02A091AF02B091B002C7
:10439000C82AD92AEA2AFB2ACFE1D0E0BC2ED701CD
:1043A000C6010C2E04C0B695A795979587950A94DB
:1043B000D2F780FD0EC0219788F7B12C8B2DDF91AD
:1043C000CF911F910F91FF90EF90DF90CF90BF9012
:1043D0000895B8018C2F0E94D007019761F3EECFAA
:1043E000CF93DF93EC010E94AE21BE01DF91CF910C
:1043F0000C94D0071F93CF93DF93EB0190913E0273
:10440000992331F0CB01DF91CF911F910C94F021D2
:10441000882379F0CB010E94AE21182F682FCE019E
:104420000E945A21BE01812FDF91CF911F910C94E0
:10443000D007CB010E948621182FF4CF682F8091DE
:104440002D0190912E010C944024682F80912D0114
:1044500090912E010C944B2480912D0190912E016E
:104460000C9456248091B102859585958595089583
:104470008091B102877008959091B102977081E0A8
:1044800009F480E008958091D50208959091D502B5
:10449000892B8093D502089580959091D502982319
:1044A0009093D50208951092D50208958091D40278
:1044B00008959091D402892B8093D4020895809519
:1044C0009091D40298239093D40208951092D4022C
:1044D00008959091D302892B8093D30208958095FB
:1044E0009091D30298239093D30208951092D3020F
:1044F00008958091B202089508950C947C229091C1
:10450000B202981721F08093B2020C947D22089594
:104510008091B202882329F01092B20280E00C94BC
:104520007D220895E0912D01F0912E018091D50218
:104530008083E0912D01F0912E0180819091D40231
:10454000892B8083E0912D01F0912E018081909143
:10455000D302892B80839091B202992381F0E0915C
:104560002D01F0912E018081892B808380912D0176
:1045700090912E010E94AC2381110E94882280918B
:104580002D0190912E010C94B41708950C94C5221E
:1045900098E0899F90011124622B6093B1020E94E0
:1045A000BE208091B1028595859585950C94C62293
:1045B0001092B10280E00C94C6229091B1028095D5
:1045C00089238093B102282F277071F4282F082E99
:1045D000000C330B9217130639F085958595859558
:1045E0000E94DF200C94D822089590E080E00E9481
:1045F000383321E08C3E9E4F09F020E0822F089551
:1046000082E090E00C942A33682F82E090E00C94D2
:104610003E3383E090E00C942A33682F83E090E0EF
:104620000C943E33CF9384E090E00E942A33C82F4D
:1046300081E290E00E942A33982F8C2FCF91089529
:10464000CF93C92F682F84E090E00E943E336C2FF7
:1046500081E290E0CF910C943E3386E090E00C94A0
:104660002A33682F86E090E00C943E33AB01BC0106
:104670008FE090E00C945033AB01BC0183E190E0FB
:104680000C94503360E070E0CB010C943C2360E06C
:1046900070E0CB010E9436230C9442236CEE7EEF37
:1046A00090E080E00E945C3360E082E090E00E9455
:1046B0003E3360E083E090E00E943E331092AD0212
:1046C0001092AE021092AF021092B00260E084E04D
:1046D00090E00E943E3360E081E290E00E943E3331
:1046E00060E085E090E00E943E3360E086E090E08C
:1046F0000E943E336FEF87E090E00E943E3340E03F
:1047000050E0BA0188E090E00E94503360E08DE014
:1047100090E00E943E3340E050E0BA0188E190E032
:104720000E94503360E087E190E00E943E3340E019
:1047300050E0BA018CE190E00E94503360E080E2EA
:1047400090E00E943E330C9447230C944E23682F34
:104750008EE090E00C943E33FC0132968091400153
:10476000882321F080913C039EE187FF96E080E062
:10477000915008F4089521912223D1F38F5FF8CF4F
:10478000662301F1209140012223F1F020913C03A6
:1047900027FF1AC0462F4695469546954E3190F410
:1047A000677021E030E002C0220F331F6A95E2F704
:1047B000840F911DFC01828190E02823392381E040
:1047C000232B69F480E00895FC013296089621912C
:1047D000261721F0E817F907D1F7F4CF81E0089503
:1047E0009C01FC0132969FEF80E04191461751F009
:1047F0009F3F19F4411101C0982F8F5F8630A9F7B0
:104800009F3F09F40895290F311D97FD3A95F9014D
:1048100062830895FC01329608962191261303C005
:10482000DF0111971C92E817F907B9F70895E62FF1
:10483000E695E695E695EE3168F4E80FF92FF11D5F
:10484000677021E030E001C0220F6A95EAF78281AB
:10485000822B82830895E62FE695E695E695EE3164
:1048600070F4E80FF92FF11D677021E030E001C00E
:10487000220F6A95EAF720958281282322830895E2
:1048800020914001222329F020913C0327FD0C9424
:1048900017240C94F02320914001222329F0209129
:1048A0003C0327FD0C942B240C940A24FC01329623
:1048B00080914001882351F080913C0387FF06C01E
:1048C0008EE1DF011D928A95E9F7089586E0F9CF20
:1048D000089508950C9469240E946A2480914203EB
:1048E000843061F11092D70288E190E020E40FB6A5
:1048F000F894A895809360000FBE2093600080E03C
:104900000E944A1380E00E9440070E946A2483B7F5
:10491000817F846083BF83B7816083BF78948895EB
:1049200083B78E7F83BF0FB6F894A89580916000FF
:10493000886180936000109260000FBE0895089512
:10494000CF930E9468240E94360A0E949F24C0E0F0
:104950008C2F0E94C009892B31F4CF5FC530C1F77D
:1049600080E0CF91089581E0FCCF08950C94B524A8
:104970000E94881C0E94FB110E94A8170E944007F9
:104980000C94B6241F921FB61F9211248F939F93ED
:10499000AF93BF938091D702811113C080913803E8
:1049A00090913903A0913A03B0913B034196A11D28
:1049B000B11D8093380390933903A0933A03B093C9
:1049C0003B03BF91AF919F918F911F901FBE1F908E
:1049D000189582E084BD93E095BD9AEF97BD8093D2
:1049E0006E0008952FB7F8948091380390913903A1
:1049F000A0913A03B0913B032FBF08959C014FB79C
:104A0000F8948091380390913903A0913A03B091C2
:104A10003B034FBF821B930B089578941F921FB6E0
:104A20001F9211248F939F93AF93BF93809138036C
:104A300090913903A0913A03B0913B030196A11DD7
:104A4000B11D8093380390933903A0933A03B09338
:104A50003B03BF91AF919F918F911F901FBE1F90FD
:104A6000189581E08093E00080E28093D800109256
:104A7000C9008FE19EE40197F1F700C0000087E0D4
:104A800090EBDC0180934B0390934C03A0934D0378
:104A9000B0934E0388E19CE00FB6F894A8958093FC
:104AA00060000FBE90936000FFCFAF92BF92CF9295
:104AB000DF92EF92FF920F931F93CF93C0E0CC242D
:104AC000C394D12CE82EF12C8C2F0E94C0095C01DC
:104AD00010E000E0C601002E02C0880F991F0A9462
:104AE000E2F78A219B21892B99F40F5F1F4F0F302A
:104AF000110581F7CF5FC53039F780E0CF911F9165
:104B00000F91FF90EF90DF90CF90BF90AF900895FE
:104B1000602F7C2F80E00E94B407E816F90629F781
:104B200081E0ECCFCF93C82F8CE20E9455258823DB
:104B300021F08C2FCF910C94552580E0CF910895D2
:104B4000CF930E94F522811102C00E94A523C5E6E1
:104B500008C00E94360A8FE39CE90197F1F700C074
:104B60000000C150B1F789E20E949225811100C175
:104B70008AE20E94922581110E94A52385E00E946D
:104B8000922581110E9431250E9400238093D60234
:104B900087E00E949225882371F08BE10E94922584
:104BA000882309F4C2C09091D602892F8D7F91FF8E
:104BB00082608093D6028091D6020E9404230E94D4
:104BC000122390933D0380933C0380EE0E94922534
:104BD000882341F090913C03892F8E7F90FF816064
:104BE00080933C0389E30E949225882341F09091B1
:104BF0003C03892F8D7F91FF826080933C0382EE7E
:104C00000E949225882341F090913C03892F8B7F4D
:104C100092FF846080933C0386EE0E949225882355
:104C200041F090913C03892F877F93FF88608093A8
:104C30003C0383EE0E949225882341F090913C032F
:104C4000892F8F7E94FF806180933C0385E30E94CF
:104C50009225882341F090913C03892F8F7D95FF09
:104C6000806280933C0381E30E949225882341F077
:104C700090913C03892F8F7B96FF806480933C0347
:104C800081E10E949225882341F090913C03892F75
:104C900097FB87F9805880933C0380913C03909167
:104CA0003D030E94202387E20E949225C82F8EE1B7
:104CB0000E9492258111C2608FE10E94922581118C
:104CC000C46080E20E9492258111C86081E20E9446
:104CD00092258111C06182E20E9492258111C062F9
:104CE00083E20E9492258111C06484E20E94922591
:104CF0008823C1F1C0688C2F0E940D236C2F70E0B7
:104D000090E080E00E945C208FE00E949225882342
:104D100019F081E00E94A72385E10E949225882353
:104D200039F180E0CF910C94A7238EE00E94922568
:104D3000882339F09091D602892F8B7F92FF84606F
:104D400038CF80E10E9492259091D602882329F0E5
:104D5000892F877F93FF88602CCF892F8E7F90FFCC
:104D6000816027CFC111C7CF0E940923682FC7CF09
:104D7000CF9108958091E00280FF12C060913401CC
:104D800085E0689FB00111247595679575956795C5
:104D900060387105A8F561157105A1F1862F089598
:104DA00081FF09C06091340185E0689FB001112442
:104DB00075956795EDCF6091340182FD0AC08091B1
:104DC000DF028823D1F0909133016091340189177B
:104DD00028F085E0689FB0011124DACF869FB001EA
:104DE000112485E0869F9001879F300D1124692F43
:104DF00070E0C9010E944F32CBCF65E070E0CECFAA
:104E00008FE7089581E008958091E00280FF0CC053
:104E10006091300170E0759567957595679561159E
:104E2000710549F1862F089581FF06C06091300118
:104E300070E075956795F3CF6091300182FD0BC0EE
:104E40009091DF029923A1F060912F0180913001B0
:104E5000961738F0682F70E06038710500F38FE71F
:104E60000895899FC001112470E00E944F32F4CF51
:104E700061E070E0D7CF81E00895803F31F40E9477
:104E8000BA2681958093E4020895813F19F40E9427
:104E9000BA26F8CF823F31F40E94BA2681958093DA
:104EA000E3020895833F19F40E94BA26F8CF893FA0
:104EB00029F40E9404278093E50208958A3F21F493
:104EC0000E9404278195F7CF8B3F31F40E9404277D
:104ED00081958093E60208958C3F19F40E9404277F
:104EE000F8CF843F31F48091E20281608093E20246
:104EF0000895853F21F48091E2028260F7CF863FDA
:104F000021F48091E2028460F1CF873F21F4809107
:104F1000E2028860EBCF883F21F48091E202806159
:104F2000E5CF8D3F31F48091E00281608093E00213
:104F300008958E3F21F48091E0028260F7CF8F3F89
:104F4000B9F78091E0028460F1CF9091E302803F55
:104F500041F48091E40287FD1092E402992371F0FC
:104F60000895813F29F48091E4021816ACF3F6CF3E
:104F7000823F81F497FFF2CF1092E3028091E40226
:104F80009091E502892B9091E602892B49F71092C6
:104F9000DF020895833F19F4191674F3DFCF893FB8
:104FA00039F48091E5021816CCF61092E502D6CFBE
:104FB0008A3F29F48091E50287FFD0CFF6CF8B3F5F
:104FC00039F48091E60287FFC9CF1092E602C6CF7E
:104FD0008C3F29F48091E6021816BCF3BFCF843FC2
:104FE00031F48091E2028E7F8093E202B7CF853F59
:104FF00021F48091E2028D7FF7CF863F21F48091EA
:10500000E2028B7FF1CF873F21F48091E202877F1C
:10501000EBCF883F21F48091E2028F7EE5CF8D3F78
:1050200031F48091E0028E7F8093E00297CF8E3F33
:1050300021F48091E0028D7FF7CF8F3F09F08ECF72
:105040008091E0028B7FF0CF81EE92E00E94CE173C
:105050000E94F2249093DE028093DD020895CF93A4
:10506000DF9300D000D000D0CDB7DEB786E0E1EE10
:10507000F2E0DE01119601900D928A95E1F78091A0
:10508000E3029091E402892B81F08091DB02909100
:10509000DC020E94FE24AC019091DF02992331F1E1
:1050A000809135018417150670F18091E502909189
:1050B000E602892B91F08091D9029091DA020E9448
:1050C000FE24AC019091DF02992309F478C080910D
:1050D00031018417150608F480C026960FB6F8949F
:1050E000DEBF0FBECDBFDF91CF9108952091D802D2
:1050F0008AE0289F9001112424173507B0F69F5F9E
:105100009093DF0202C09F3FD1F71092E502109208
:10511000E6028091E302181624F40E94BA268093D6
:10512000E3028091E30287FF05C00E94BA268195C1
:105130008093E3028091E402181624F40E94BA26B8
:105140008093E4028091E40287FF05C00E94BA26A2
:1051500081958093E4023091E3023323A1F0209102
:10516000E402222381F045EB3403C001112499238A
:10517000F1F09093E30245EB2403900111243323D3
:10518000D1F03093E4020E9424288091DD029091B6
:10519000DE029093DC028093DB0286E0FE01319612
:1051A000A1EEB2E001900D928A95E1F77ECF81E009
:1051B0008093E302E0CF81E08093E402E4CF20918A
:1051C00032018AE0289F900111242417350708F046
:1051D00084CF9F5F9093DF0202C09F3FD1F7109270
:1051E000E3021092E4028091E502181624F40E9472
:1051F00004278093E5028091E50287FF05C00E94A5
:10520000042781958093E5028091E602181624F424
:105210000E9404278093E6028091E60287FF05C082
:105220000E94042781958093E6023091E5023323A2
:10523000A1F02091E602222381F045EB3403C00166
:1052400011249923F1F09093E50245EB240390019A
:1052500011243323D1F03093E6020E942428809158
:10526000DD029091DE029093DA028093D90286E00B
:10527000FE013196A1EEB2E001900D928A95E1F720
:105280002CCF81E08093E502E0CF81E08093E602BD
:10529000E4CF86E0E1EEF2E0DF011D928A95E9F7C6
:1052A0001092DF021092E0020895833081F128F419
:1052B000813059F08230D1F00895853009F449C029
:1052C000B8F1863009F456C008958091D802482F6D
:1052D000460F5527551F4F3F510524F4680F609323
:1052E000D80208958FEF8093D802089580913501F8
:1052F000482F460F5527551F4F3F510524F4680F7F
:105300006093350108958FEF809335010895809162
:105310003401482F460F5527551F4F3F510524F4A0
:10532000680F6093340108958FEF809334010895DE
:1053300080913301482F460F5527551F4F3F510588
:1053400024F4680F6093330108958FEF8093330145
:10535000089580913001482F460F5527551F4F3F24
:10536000510524F4680F6093300108958FEF809306
:105370003001089580912F01482F460F5527551F62
:105380004F3F510524F4680F60932F0108958FEF6C
:1053900080932F010895833011F128F4813049F072
:1053A000823091F00895853081F120F18630C1F18D
:1053B00008958091D802681720F4861B8093D80244
:1053C00008951092D802089580913501681720F44D
:1053D000861B8093350108951092350108958091C0
:1053E0003401681720F4861B8093340108951092CD
:1053F0003401089580913301681720F4861B80934F
:105400003301089510923301089580913001681797
:1054100020F4861B80933001089510923001089586
:1054200080912F01681720F4861B80932F01089527
:1054300010922F0108950F931F9341E050E060E018
:1054400070E08A019B0104C0000F111F221F331F4F
:105450008A95D2F7C901B8010E945C201F910F9173
:105460000C94881CEBEFE80FEF3308F05AC0F0E023
:10547000E353FC4C0C9485320E94A52381E00895EF
:105480008091D602807F8093D60281E08093E802EB
:1054900008950E944907F2CF9091D602892F8E7FFE
:1054A00090FF81608093D60280FDE8CF817F80935A
:1054B000D602E4CF9091D602892F8D7F91FF826032
:1054C0008093D60281FFDACF8091D6028160EFCF40
:1054D0009091D602892F8B7F92FF84608093D602B1
:1054E00082FDF2CFCBCF9091D602892F877F93FF99
:1054F00088608093D60283FDE7CFC0CF0E94881CCE
:1055000090913C03892F97FB87F9805880933C0347
:10551000B5CF80E00E941B2AB1CF8953FBCF8D51BC
:10552000F9CF80E0089580E008950C94932A8E517D
:105530008A3030F4E82FF0E0EE51FE4F808108957C
:1055400080E00895CF93C82F8091E8028130B9F0B0
:10555000882331F08230A1F11092E80280E00DC082
:105560000E9443228232D1F78C2F0E94932A81110C
:105570001BC08C2F0E94322A8170CF9108950E9407
:105580004322823289F38C2F0E94952A81110AC00E
:10559000C43199F060F4CB3029F0C03169F782E072
:1055A0008093E80281E0E8CF81E090E0E5CFC93266
:1055B00021F0C833B9F380E0DFCF1092E802FBCFCF
:1055C000C93219F188F4C43101F120F4C73081F1F6
:1055D00081E0D3CF82EE8C0F8630D0F78C2F0E94E3
:1055E000972A8093E702F4CFCE3401F140F46AE0C9
:1055F000CB3471F78091E7020E945529E9CFC1357C
:1056000079F061E0C235B1F3E3CF8091E7028823FE
:1056100019F01092E702DCCF81E08093E802ADCF71
:1056200061E08091E7020E94CB29D2CF6AE0F9CFF6
:105630001092D802C093350183E08093340184E650
:105640008093330188E08093300188E280932F01BA
:10565000BFCF809109030895CF93DF9300D00F92BD
:10566000CDB7DEB790914203943019F589837B83DF
:105670006A8382E08093E9008FEF9091E800815087
:1056800095FD06C095ED9A95F1F700008111F5CFD3
:105690008091E80085FF0DC050E040E063E070E0DD
:1056A000CE0101960E94802D8091E8008E77809334
:1056B000E8000F900F900F90DF91CF910895CF9356
:1056C000DF93EC010E94632D823011F0843031F4BD
:1056D000BE0184E0DF91CF910C942C2BDF91CF9110
:1056E0000895BC0183E00C942C2BCF93DF93EC0145
:1056F0000E94632D823011F08430F9F482E08093AF
:10570000E9008FEF9091E800815095FD06C095ED7E
:105710009A95F1F700008111F5CF8091E80085FF9F
:105720000CC050E040E066E070E0CE010E94802DA9
:105730008091E8008E778093E800DF91CF91089503
:10574000CF93DF93EC010E94632D823011F08430FF
:10575000B9F5809140018823B1F180913C0387FF26
:1057600032C060E282E08093E9008FEF9091E80020
:10577000815095FD06C095ED9A95F1F700008111D5
:10578000F5CF8091E80085FF1BC08091400170E05B
:1057900050E040E0811104C050E040E068E070E07B
:1057A000CE010E94802D8091E8008E778093E800E2
:1057B00080E2FE01A9EEB2E001900D928A95E1F738
:1057C000DF91CF91089568E081E0CDCF80914103D2
:1057D000811109C00E94102F0E946D2F8091E2005C
:1057E00084608093E2000895109241030895089523
:1057F00008950C94B82442E061EC81E00E948C2E64
:1058000042E261EC82E00C948C2E80914403833060
:1058100009F45FC030F48130C1F1823009F49BC0DB
:1058200008958A3009F487C08B3009F46DC089303F
:1058300009F04EC080914303813209F049C0809144
:10584000470390914803029708F042C08091E80016
:10585000877F8093E8008091E80082FF35C09091B7
:10586000F3008091F200029729F48091F1008B7F80
:10587000813021F48091F100809309038091E80048
:105880008B778093E8000C94C02E80914303813A7B
:10589000F9F48091E800877F8093E80080914703C6
:1058A00090914803892B61F460E289EE92E070E008
:1058B0000E94CF2D8091E8008B778093E8000895B7
:1058C00060E090E080E0F3CF809142038111C3CF8C
:1058D000089580914303813AD9F7809147039091CD
:1058E0004803892BA9F78091E800877F8093E8001F
:1058F0008091E80080FFFCCF809140018093F1000F
:105900008091E8008E77BDCF80914303813201F70B
:105910008091470390914803892BD1F68091E8004C
:10592000877F8093E8000E94C02E8091450380937A
:1059300040010C94881C80914303813249F6809188
:10594000E800877F8093E8000E94C02E8091460384
:1059500080930A03089580914303813A09F0B8CFF8
:105960008091E800877F8093E8008091E80080FFC5
:10597000FCCF80910A03C2CF84B7877F84BF0FB664
:10598000F894A895809160008861809360001092DF
:1059900060000FBE80E890E00FB6F894809361003D
:1059A000909361000FBE0E9416180E94102F0E9453
:1059B0006D2F8091E20084608093E20078940E94D1
:1059C000F6310E94201886E391E00E94A31780918F
:1059D0004203853019F00E942C18F9CF0E946C24E4
:1059E00080914003882399F30E94A024882379F3AF
:1059F0000E946A2DECCF0C94FD2C292F33272330E5
:105A0000310519F168F42130310509F44AC022301A
:105A1000310509F44BC090E080E030E020E028C080
:105A20002132310579F122323105A9F780E490E085
:105A300022EF39E061157105D9F08CEB90E026E397
:105A400039E061307105A1F0E6CF992781309105E9
:105A500099F0009741F08230910589F00397D9F6CB
:105A6000E5ECF8E002C0E5EEF8E0849190E09F01FB
:105A7000FA01318320830895E7EDF8E0F6CFEBECEF
:105A8000F8E0F3CF89E090E02BEF38E06115710585
:105A900079F389E090E024E139E06130710541F368
:105AA000BACF82E190E024E239E0E2CF8BE390E0EC
:105AB00029EE38E0DDCF80914203843011F482E09A
:105AC000089581E0089580910B03811102C00C9428
:105AD0005B2D089580E189BD82E189BD09B400FE96
