:100000000C947B040C94C2040C94C2040C94C2049F
:100010000C94C2040C94C2040C94C2040C94C20448
:100020000C94C2040C94C2040C94572D0C942B2EE7
:100030000C948C220C94C2040C94C2040C94C20440
:100040000C94C2040C9417120C94C2040C94C204B5
:100050000C943B120C94D7220C94C2040C94C2044E
:100060000C94C2040C94C2040C94C2040C94C204F8
:100070000C94C2040C94C2040C94C2040C94C204E8
:100080000C94C2040C94C2040C94C2040C94C204D8
:100090000C94C2040C94C2040C94C2040C94C204C8
:1000A0000C94C2040C94C2040C94C2046E75747453
:1000B00079377400290001001E001F002000210074
:1000C00022000100230024002500260027004C0008
:1000D0002A002B022B0014001A000900130005004F
:1000E00001000D000F0018001C0033003500010056
:1000F0000451394104001500160017000A000100E0
:100100001000110008000C001200340028000251F9
:10011000E1001D001B0006000700190038000E005A
:100120000B00360037002D00E5000100E00006510D
:1001300001000251E200E3002C61175C0551E1006F
:100140000351010001000100010001000100010054
:100150000100010001000100010001000100010097
:100160000100010001000100010001000100010087
:10017000010001000100010001004C002A00010003
:100180000100010001000100010001000100010067
:100190000100010001005000510052004F00010019
:1001A0000100010001000100010001000100010047
:1001B0000100010001000100010001000100010037
:1001C0000100010001000100010001000100010027
:1001D0000100010001000100010001000100010017
:1001E0000100010001000100010001000100010007
:1001F00001000100010001000100010001000100F7
:1002000001000100010001000100010001000100E6
:10021000AE007800010001000100010001000100B2
:100220000100005C0100010001000100A800AA001B
:10023000A900BD0001000100010001000100010052
:10024000010001000100010001000100BC00BB0031
:10025000BE000100010001000100010001000100D9
:100260000100010001000100010001000100010086
:100270000100010001000100010001000100010076
:100280000100010001000100010001000100010066
:100290000100010001000100010001000100010056
:1002A0000100010001004000410042004500010042
:1002B0000100010001000100010001000100010036
:1002C000010001003D003E003F004400010001002C
:1002D0000100010001000100010001000100010016
:1002E00001003A003B003C00430001000100010016
:1002F00001000100010001000100010001000100F6
:1003000001000100010001000100010001000100E5
:10031000010001000100010001005300010067001D
:10032000540055000100010001000100010001001E
:100330000100010001000100010001005F006000F8
:1003400061005600010001000100010001000100F0
:1003500001002C000100010001005C005D005E0056
:1003600057000100580001000100010001004C008D
:100370002A0001000100010059005A005B0036000C
:100380000100010001000100010001000100010065
:1003900001000100620062006200630001000100D0
:1003A0000100010001000100010001000100010045
:1003B0000100010001000100010001000100010035
:1003C00001000100350035022F0230023800010023
:1003D0003102240225022E003302010001000451E3
:1003E00001003602370226022702290001002E02F0
:1003F0002102220223022800010001000100010065
:10040000010001002F003000310001002D001E020C
:100410001F02200201000100010001000100010093
:100420000100010001000100010001002700270078
:10043000370001000100010001000100010001007E
:1004400001000100010001000100010001000100A4
:100450000100010001000100010001000100010094
:100460000100010001000100010001000100010084
:100470000100010001000100010001000100010074
:10048000010001000B010D010E010F01010001002F
:100490000100010001000100010001000100010054
:1004A0000100010001000100010001000100010044
:1004B0000100010001000100010001002C01010008
:1004C0002C010100010001000100010001000000F9
:1004D0000000000000002A2B28000000000000009F
:1004E00000000000000000000029000000002C1E99
:1004F0003420212224342627252E362D3738271E56
:100500001F202122232425263333362E37381F047B
:1005100005060708090A0B0C0D0E0F101112131413
:1005200015161718191A1B1C1D2F3130232D3504D1
:1005300005060708090A0B0C0D0E0F1011121314F3
:1005400015161718191A1B1C1D2F3130354C0000B9
:10055000000000000000000000000000000000009B
:1005600000007E0F00D4FFFFFFC7000000783219A3
:100570000A00047F3F1F643214643214783C1E1E4C
:10058000140A052223252628292A2C2D2F30323320
:100590003536383A3B3D3E4042434547494A4C4E4A
:1005A0005051535557595A5C5E6062646668696B76
:1005B0006D6F71737577797B7D7F81838587898A7C
:1005C0008C8E90929496989A9C9E9FA1A3A5A7A882
:1005D000AAACAEAFB1B3B4B6B8B9BBBCBEBFC1C2B2
:1005E000C3C5C6C7C9CACBCCCDCED0D1D2D2D3D445
:1005F000D5D6D7D7D8D9D9DADADBDBDBDCDCDCDC63
:10060000DCDDDDDDDDDCDCDCDCDCDBDBDBDADAD930
:10061000D9D8D7D7D6D5D4D3D2D2D1D0CECDCCCBB2
:10062000CAC9C7C6C5C3C2C1BFBEBCBBB9B8B6B4D0
:10063000B3B1AFAEACAAA8A7A5A3A19F9E9C9A9860
:10064000969492908E8C8A89878583817F7D7B7931
:10065000777573716F6D6B6968666462605E5C5A12
:100660005957555351504E4C4A4947454342403ED5
:100670003D3B3A3836353332302F2D2C2A29282667
:10068000252322FFAA7F554000010101010101013C
:100690000101020202020202020202030303030337
:1006A0000303030404040404040405050505050606
:1006B00006060606070707070708080808090909C4
:1006C000090A0A0A0B0B0B0C0C0C0D0D0D0E0E0E6D
:1006D0000F0F0F10101111111212131314141515FE
:1006E00016161717181819191A1A1B1B1C1D1D1E70
:1006F0001E1F2020212222232424252626272829C4
:10070000292A2B2C2D2D2E2F3031323233343536F1
:100710003738393A3B3C3D3E3F40414243444546F1
:100720004748494A4C4D4E4F5051535455565859CD
:100730005A5B5D5E5F616264656668696B6C6D6F74
:100740007072737577787A7B7D7E808283858788E7
:100750008A8C8E8F91939596989A9C9EA0A2A3A521
:10076000A7A9ABADAFB1B3B5B7BABCBEC0C2C4C622
:10077000C9CBCDCFD1D4D6D8DBDDDFE2E4E7E9EBDE
:10078000EEF0F3F5F8FAFDFF0403300000000A0371
:10079000580044003700350000000C037800690061
:1007A00075006400690000000403090409023B00AD
:1007B000020100A0FA09040000010301010009215F
:1007C000110100012240000705810308000A090405
:1007D0000100010300000009211101000122BC00F9
:1007E0000705820320000A120110010000000844DE
:1007F00078757501000102030105010902A1018557
:10080000020901A100050919012905150025019515
:100810000575018102950175038101050109300902
:10082000311581257F9502750881060938158125C6
:100830007F950175088106050C0A38021581257F10
:10084000950175088106C0C005010980A1018503D5
:1008500019012AB700150126B7009501751081000E
:10086000C0050C0901A101850419012AA002150186
:1008700026A002950175108100C005010906A1019D
:100880008505050719E029E715002501950875017B
:1008900081020507190029EF1500250195F0750162
:1008A0008102050819012905950575019102950137
:1008B00075039101C005010906A101050719E02989
:1008C000E7150025019508750181029501750881DC
:1008D000010507190029FF150026FF009506750878
:1008E00081000508190129059505750191029501F9
:1008F00075039101C00011241FBECFEFDAE0DEBF07
:10090000CDBF04B603FE27C080913203909133031C
:10091000A0913403B09135038730904BA740B04B82
:10092000D1F41092320310923303109234031092D8
:10093000350314BE84B7877F84BF0FB6F894A8959B
:1009400080916000886180936000109260000FBE0B
:10095000E0E0F8E3099511E0A0E0B1E0E4ECF3E6B3
:1009600002C005900D92A63DB107D9F723E0A6ED90
:10097000B1E001C01D92A233B207E1F70E94882ABC
:100980000C9465310C9400000C941C050C94E80444
:100990000C9461062A9A0895229A0C94CA048F9A9C
:1009A0000895879A0C94CF048C980895849A0C9497
:1009B000D4048D9A0895859A0C94D9040E94CC048D
:1009C0000E94D1040E94D6040E94DB040C94DB0830
:1009D000CF938633910521F0C797D9F0C1E00FC0BE
:1009E000E0911601F09117018081827259F0FB01AC
:1009F000C28188E3CC23C1F00E94D916C0E08C2FBD
:100A0000CF91089581EE0E94701788E30E947017BD
:100A1000E5CFE0911601F09117018081827239F0E3
:100A2000FB01C2818EE1E6CF0E947017E8CF81EE14
:100A30000E9470178EE1EACF80911402882379F129
:100A400080911202909113020E94C8228D3291402F
:100A500030F1109214020E941415809108029091B6
:100A600009024397E1F480910A0290910B024897A2
:100A7000B1F480910C0290910D0220910E02309100
:100A80000F02822B932B2091100230911102822BA6
:100A9000932B892B21F48CEA90E00C945206089554
:100AA00081E0089508950C9452051F93CF93DF932E
:100AB00000D000D00F92CDB7DEB749835A836B8345
:100AC0003091260289819A8131111DC06623B9F0C7
:100AD0002223A9F00E947B1F182F682F89819A81F9
:100AE0000E94271F69817A81812F0F900F900F90AC
:100AF0000F900F90DF91CF911F910C94D0060E9420
:100B0000531F182FEFCF0E947B1F69817A81EDCF91
:100B1000FC01262F408151816281738184810C9474
:100B20005505CF93DF93EC0160E00E948805BE017C
:100B3000DF91CF910C945305FF920F931F93CF93A6
:100B4000DF93E82FF0E0E253FB4FF490C82FC695F7
:100B5000C695C695D0E0FE01E25AFA4F049187701F
:100B600010E0082E02C0159507950A94E2F701706F
:100B70001127C25BDA4FFE01C491D0E002C0D595C7
:100B8000C7958A95E2F7C170DD270115110519F0A7
:100B900081EE0E94D916209719F086EE0E94D91690
:100BA0008F2D0E94C617CD2B19F086EE0E9470176C
:100BB000012B41F081EEDF91CF911F910F91FF90BA
:100BC0000C947017DF91CF911F910F91FF900895B2
:100BD000EF92FF920F931F93CF93DF938C01F62E2A
:100BE0008AE0E82EF8018491882309F454C081300A
:100BF00009F04DC0E8012196FE018491813091F405
:100C00002196FE0184910E94C6178E010F5F1F4F2F
:100C10008F2D815038F3EFE9FFE03197F1F700C0F5
:100C20000000F7CF823039F4E8012296FE0184916A
:100C30000E94D916EACF833039F4E8012296FE01EA
:100C400084910E947017E1CF8430F9F6E801229672
:100C5000FE01249190E080E0FE0131962053330B99
:100C60002A30310548F0019780F2EFE9FFE0319733
:100C7000F1F700C00000F7CFE89EA001E99E500DFB
:100C80001124C901840F951F2491EF01E5CF0E9423
:100C90009C05E801BACFDF91CF911F910F91FF9092
:100CA000EF90089560E00C94E8050E94BF20811148
:100CB00002C00E946F210E94DC120C94DE040C948E
:100CC000C404089581E008950C946206CF93C82F60
:100CD0000E94C8048C2FCF910C94640608950E9442
:100CE000551A0E946E062FEF84E39CE0215080404D
:100CF0009040E1F700C000000C94FB220F931F937B
:100D0000CF93DF93EC0161E00E9488058C01BE0166
:100D10000E94C6048823B9F1BE01C8010E94E011F7
:100D2000882389F1BE01C8010E942E15882359F13C
:100D3000BE01C8010E948513882329F1BE01C801A4
:100D40000E94C6138823F9F0BE01C8010E94E9146D
:100D50008823C9F0BE01C8010E94A710882399F01A
:100D60008A81882339F001158CE5180751F00F3D71
:100D70001C4579F0CE01DF91CF911F910F910C941A
:100D800050050E946F0680E0DF91CF911F910F9177
:100D900008950E946F21F7CF90E080E008950895B4
:100DA000972F70E02FE0929F600D711D1124FB01C1
:100DB0009BE4899FE00DF11D1124EE0FFF1FEC5401
:100DC000FF4F859194910895FC01EE0FFF1FE259AA
:100DD000FA4F859194910895CF93DF930E94D006A6
:100DE0000E940108EC01811520E5920708F042C03D
:100DF000811530E4930708F0BDC0883E910528F5C1
:100E0000803E910508F09DC0883A910588F4853AA6
:100E1000910508F08FC08130910509F492C00097C8
:100E200009F48FC0049708F08CC0D0E0C0E089C0FE
:100E30008F3B910508F489C0805C9109C03CD105C5
:100E4000A0F30E94E406EC017CC08115904250F4AE
:100E5000C11581E0D80708F074C0C03FD10528F360
:100E6000D0656FC0C11590E3D90708F079C0CE01F5
:100E70009F70E7CF811525E5920758F5811534E578
:100E8000930708F0A6C0811542E5940750F4C115F8
:100E900081E5D80708F471C0DC2FCC27C16FD06A78
:100EA00050C0982F969596959E0123703327C115B3
:100EB000D34508F07FC0C1E0D0E002C0CC0FDD1FF9
:100EC0002A95E2F720E2929FC0011124C82BD92B6A
:100ED0006FC0C11589E5D807A8F4C11598E5D907F1
:100EE00008F07CC0C11526E5D20708F09ECF8C2FF4
:100EF0000E949808C82FD0E0DC2FCC27CC27DF71C8
:100F0000D0621FC0C1153AE5D30708F46CC0CE010A
:100F100090568115904208F088CF8D2F8F710E94D6
:100F2000980890E0982F882788279F719C012C2B88
:100F3000E901E6CFC55AD0E0C75ADE4FC881D0E0FC
:100F4000D064CE01DF91CF910895C85AD0E0CC0F84
:100F5000DD1FC55DDE4F0990D881C02DD464F1CF6F
:100F6000CE019927D3FF03C0EC01D86CEACFEC0186
:100F7000D06CE7CFDF70D06AE4CFCE01E4E0969585
:100F80008795EA95E1F783702C2F26952695237097
:100F900090E2299F90011124382B8C2F8370C1E09F
:100FA000D0E002C0CC0FDD1F8A95E2F7C22BD32B15
:100FB000DC68C7CFC1E0D0E002C0CC0FDD1F2A95AE
:100FC000E2F730E2939FC0011124C82BD92BDA68D5
:100FD000B8CFD82FCC27C46FD06AB3CFDC2FCC27A3
:100FE000C06FD06AAECF8C2F8F700E94980834E00B
:100FF000D695C7953A95E1F7CF709C2FEC01D06953
:10100000A0CF82389105B1F1B0F48133910509F494
:1010100075C048F48932910509F469C08A32910596
:1010200009F473C008958533910509F459C08933D3
:10103000910501F10895833E9105A9F138F4803EB0
:101040009105F9F0823E910549F10895863E91059A
:10105000A9F1873E9105C9F1843E910519F52091CA
:10106000240321FF1FC08091230384FD14C087EE59
:1010700090E00895209123032370A1F080EE90E08A
:1010800008952091230320FD47C03091240330FFB1
:1010900009C024FF44C090E080E004C020912303F5
:1010A00022FDF7CF08952091230322FD3BC030910C
:1010B000240330FDE3CF24FFF5CFEDCF20912303B0
:1010C00023FFF0CF24FDE7CFD2CF2091230323FDD0
:1010D0002CC03091240331FFEECF84EE90E00895D0
:1010E0002091230325FFDECF89E290E0089520912F
:1010F000230325FFD7CF85E390E0089520912303B4
:1011000026FFD0CF8AE290E008952091230326FFA6
:10111000C9CF81E390E0089589E390E0089583EEDC
:1011200090E0089582EE90E0089586EE90E00895B4
:101130009091230392FF06C0282F28712830F9F4DC
:10114000877F846093FF06C0282F28712831F1F42F
:10115000877E84612091240320FF06C0382F3871D8
:101160003830D9F4877F816021FF06C0282F28718D
:101170002831D1F4877E816194FD877E0895282FE0
:1011800024712430F9F68B7F8860DCCF282F2471FE
:10119000243101F78B7E8861DDCF382F31713130FA
:1011A00019F78E7F8860E0CF282F2171213121F738
:1011B0008E7E8861E1CF0895E82FF0E0EE0FFF1FEB
:1011C000E350FD4F808191810895089580EA8A95CA
:1011D000F1F70895CF93DF93ABE6B1E040E751E03C
:1011E000C1E0D0E08D91E82FE295EF70F0E061A1D1
:1011F0008F709E0101C0220F8A95EAF7922F909579
:10120000962391A382A1822B82A34A175B0751F7F1
:10121000ACE5B1E061E070E08D91E82FE295EF7010
:10122000F0E041A18F709B0101C0220F8A95EAF77F
:10123000922F9095942391A382A1822B82A381E087
:10124000AB36B80749F71092F4021092F3021092ED
:10125000FE021092FD021092F6021092F502109218
:1012600000031092FF021092F8021092F7021092FF
:101270000203109201031092FA021092F9021092E6
:101280000403109203031092FC021092FB021092CE
:1012900006031092050385E00E94D909DF91CF91E2
:1012A0000C9455068F929F92AF92BF92CF92DF928D
:1012B000EF92FF920F931F93CF93DF938BE6E82E6D
:1012C00081E0F82E03EF12E0912CAA24A394B12C14
:1012D000F70181917F01C82FC295CF70D0E099A10D
:1012E0008F70650101C0CC0C8A95EAF7892F8C2993
:1012F00089A38AA18C2C809488218AA30E94E60865
:10130000ECE5F1E050E040E030E020E06191A62F14
:10131000A295AF70B0E090968C9190E06F7002C093
:10132000959587956A95E2F780FD3EC0C501042E2C
:1013300002C0880F991F0A94E2F7282B392B4F5FC0
:101340005F4F4F30510511F789A1882289A28AA1E8
:10135000C82ACAA2F801808191812817390739F17A
:101360003183208381E0982A0E5F1F4FF0E7EF164C
:10137000F1E0FF0609F0ACCF292D45E06DEF72E0FA
:1013800083EF92E00E94DA090E945F06892DDF91C7
:10139000CF911F910F91FF90EF90DF90CF90BF9072
:1013A000AF909F908F90089590E080E0C6CF80E04E
:1013B000DACF0895FF920F931F93CF93DF93F82E08
:1013C000092F162FD72FC42F222349F081E08093B5
:1013D000D8010E94BC229093D7018093D6018091BE
:1013E000D8018823A1F08091D6019091D7010E9465
:1013F000C822069760F0EF2DF02FA12FBD2F90E0AF
:1014000080E0D0E08C179D0744F01092D801DF9166
:10141000CF911F910F91FF900895219131912D93BC
:101420003D930196EFCFAF92BF92CF92DF92FF92A2
:101430000F931F93CF93DF93362F472FE82FF0E0C2
:10144000E857F94F71110DC06491762F862FDF9107
:10145000CF911F910F91FF90DF90CF90BF90AF90F1
:101460000895C72FD0E02491F22E022F10E056E00D
:10147000659FC0011124EFEFF0E0BF010E9407302B
:10148000832F90E0880F991F35E5369FD001379F55
:10149000B00D11248A1B9B0B982F990F980F6F0189
:1014A000CC1ADD0AC09ED001C19EB00DD09EB00DF9
:1014B00011248B2F949FA0011124452F55276F01D4
:1014C000C41AD50AC09EA001C19E500DD09E500DD9
:1014D00011245F01A91AB108AC9E6001AD9ED00C29
:1014E000BC9ED00C1124CD2CDD24EC19FD09E09F0D
:1014F000E001E19FD00DF09FD00D1124ED2F62305F
:101500007105A1F048F46115710569F0613071054C
:1015100089F0EB2F852F07C06430710571F088F0DA
:1015200066307105B1F76E2F722F91CFE22F2B2FFE
:101530008D2FF9CFE22F252FF6CFEB2F822F2D2FD6
:10154000F2CF2B2F8F2DE52FEECF0895CF93DF9382
:10155000762FE901682F842F0E94130A798368830C
:101560008A83DF91CF91089580910703982F9E7F02
:1015700029F4817082608093070308958635E8F32B
:1015800081708465F8CF88E090E00C94FE30CF92B3
:10159000DF92EF92FF926B017C010E94B40AB701C7
:1015A000A60188E090E0FF90EF90DF90CF900C9440
:1015B0001C31E7E0F3E083E0808311828FEF8283C8
:1015C0008383148260817181828193810C94C70A24
:1015D0008091070380FF02C08695089580E00895FA
:1015E00080910B03833018F48F5F80930B0360911D
:1015F0000703709108038091090390910A030C94EA
:10160000C70A80910B03882319F0815080930B0344
:1016100060910703709108038091090390910A0378
:101620000C94C70A70E00C94EC1260910701809151
:10163000070380FF0AC08091060123E0829FC0015A
:101640001124845F9C4F0C94120B8091080190919F
:10165000090123E0829FF0011124E45FFC4F891708
:1016600050F71182108212828F5F3396F8CF9091DB
:10167000070390FF14C0909108012091090133E005
:10168000939FF0011124E45FFC4F921710F00C942B
:10169000150B8183608342839F5F3396F6CF089555
:1016A000CF93DF9300D00F92CDB7DEB790910703B1
:1016B00090FF0AC09E012F5F3F4F0E94A60A4B81F8
:1016C00069818A810E94370B0F900F900F90DF91F4
:1016D000CF910895CF93DF93EC01EC81F0E0ED57CB
:1016E000FA4F4491E7E0F3E0628181810E94500B60
:1016F0008C818F5F8C83DF91CF910895CF93DF939F
:10170000EC01E7E0F3E0438162818C810E94500BA1
:101710008C818F5F8C83DF91CF9108950F931F93FE
:10172000CF93DF9300D00F92CDB7DEB78C018091BD
:10173000D90181110AC09E012F5F3F4F4FEF6FEF1C
:101740000E94A60A8A818093D901F80164816130E0
:1017500069F08091D90140E0662361F040E0623099
:1017600011F44091D90180E060E004C06091D9019A
:1017700040E080E00E94370BF801848190E0019600
:1017800063E070E00E941B3084830F900F900F90F5
:10179000DF91CF911F910F910895AF92BF92CF9299
:1017A000DF92EF92FF920F931F93CF93DF9300D0BE
:1017B0000F92CDB7DEB7182FF62E042FE22E9091A0
:1017C000070390FF29C0E92FE695AE2FB0E0A0599E
:1017D000BE4F8C91809301029E7F923059F59E01FD
:1017E0002F5F3F4F812F0E94A60A4B8169818A811A
:1017F0000E94370B10930803F092090300930A0329
:10180000EE2051F060910703709108038091090365
:1018100090910A030E94C70A0F900F900F90DF91DA
:10182000CF911F910F91FF90EF90DF90CF90BF90DD
:10183000AF900895823019F400910A03DBCF86300F
:1018400019F410910803D6CF8930D9F3893191F674
:10185000E9518E2F8170D82EE695F0E0ED57F94FC3
:10186000A590B490C12CBB2460910A01C61618F053
:101870000E94150BBFCF2C2D30E0A29EC001A39E6D
:10188000900DB29E900D112470E00E940730812FC0
:10189000D11013C0860F40910801420F532F511DE4
:1018A0009A01220F331F240F351F245F3C4F402F16
:1018B0006F2D0E94A60AC394D7CF861BECCFE7E01A
:1018C000F3E09181282F438162818CE0890F0C9491
:1018D000CD0B81E00C945F0CE7E0F3E09181282FC1
:1018E0004381628184EF890F0C94CD0B81E00C94CD
:1018F0006C0CE7E0F3E0628129E1620F08F46FEF1E
:10190000282F438181810C94CD0B81E00C94790CBC
:10191000E7E0F3E0628129E1621B08F460E0282F30
:10192000438181810C94CD0B81E00C94880CE7E01D
:10193000F3E043812CE0420F08F44FEF282F62813F
:1019400081810C94CD0B81E00C94970CE7E0F3E0DF
:1019500043812CE0421B08F440E0282F6281818102
:101960000C94CD0B81E00C94A60C20E00C94CD0BD4
:10197000EF92FF921F93CF93DF93EC0110E0EE24E0
:10198000EA94F12C60910A01161770F00E94150B71
:101990009A818C8190FF27C08F5F8C83DF91CF91DC
:1019A0001F91FF90EF90089520910801422F410F61
:1019B0005527551FCA019A01220F331F280F391FBF
:1019C000245F3C4F70E0C7010E941B30962F8C8132
:1019D00040910A0360910903199F800D11240E9410
:1019E000A60A1F5FCFCF8150D8CFAF92BF92CF92C0
:1019F000DF92EF92FF920F931F93CF93DF93FC013F
:101A000082810FEF80FF01E010E046E0A42E80917C
:101A10000A011817C8F00E94150B8091DB010130F4
:101A200009F055C0811102C080910A018150809354
:101A3000DB01DF91CF911F910F91FF90EF90DF902D
:101A4000CF90BF90AF900895C0910801C12ED12CC6
:101A5000CC0DDD2DD11DCE01880F991FC80FD91FC8
:101A6000C45FDC4F198218821A8234E0E32EF12C15
:101A7000B12C8091DB018B0D87301CF16A2D0E9407
:101A8000F92F892F082E000C990BC816D90691F44E
:101A900080910A038E9DA0018F9D500D11245595B4
:101AA0004795559547959E016091090380910803DC
:101AB0000E94A60AB00EF1E0EF1AF108D1F61F5FFE
:101AC000A6CF87FFDFCF90910A01890FDBCF90E08F
:101AD000019660910A0170E00E941B30A8CF0F931D
:101AE0001F93CF93DF93809108019091090123E028
:101AF000829FF0011124E45FFC4F891740F1C0E0A0
:101B0000D3E060910A01C61740F10E94150B2091A5
:101B100004018091DA01820F8093DA01909105012E
:101B2000920F90930501191654F4082E000C990B8E
:101B300040910A014150550B841795071CF02195DF
:101B400020930401DF91CF911F910F91089511828D
:101B5000108212828F5F3396D0CF0C2F10E070E08E
:101B6000C8010E941B3020910801820F482F50E0CD
:101B70002091DA01022E000C330B02171307BCF080
:101B800020910501022E000C330B201731077CF049
:101B90008D9F90011124245F3C4F40910A03609176
:101BA0000903809108030E94A60ACF5FAACFFA0119
:101BB000EE0FFF1FE40FF51FE45FFC4F1182108250
:101BC0001282F3CF0F931F93CF93DF938C01FC010D
:101BD0008481958101968170992795838483C0E0E3
:101BE000D5E580910A01C81730F0DF91CF911F91A0
:101BF0000F910C94150B20910801422F4C0F552783
:101C0000551FCA019A01220F331F280F391F245F65
:101C10003C4F8C2F8695F80144815581840F952F78
:101C2000911D817040910A03609109038D9F802D61
:101C300011240E94A60ACF5FD4CF0F931F93CF9396
:101C4000DF93EC0110E000E090910A01901711067B
:101C500009F06CF40E94150B8C8190E00196817064
:101C600099278C83DF91CF911F910F910895209137
:101C70000801A801420F511D9A01220F331F240FA2
:101C8000351F245F3C4F4C8160910903809108030C
:101C900096959017110651F04CF0442349F040916D
:101CA0000A030E94A60A0F5F1F4FCECF4423B9F349
:101CB00040E0F7CF8F929F92AF92BF92CF92DF9288
:101CC000EF92FF920F931F93CF93DF93FC01B280AB
:101CD000948081E0848300E015E05BE4A52E8824F5
:101CE0008394EE24EA94F12C7BE4C72ED12C8091CE
:101CF0000A01081770F0DF91CF911F910F91FF90AB
:101D0000EF90DF90CF90BF90AF909F908F900C940A
:101D1000150BC02FD0E01C9FF0011D9FF00D11246A
:101D2000E452FE4F91101CC01382128220910801D0
:101D3000CE01820F911D9C01220F331F280F391FE6
:101D4000245F3C4F1C9FF0011D9FF00D1124E452B5
:101D5000FE4F4281618180810E94A60A0F5FC7CF3A
:101D60002381222379F12150238334818A2D821B00
:101D7000311101C0822F1C9FF0011D9FF00D112415
:101D8000E452FE4F90910A03899FC0011124B601CD
:101D90000E9407306283211104C0332311F01482A2
:101DA000A38222E02B1510F21C9FF0011D9FF00D65
:101DB0001124E452FE4F809108038083809109032F
:101DC0008183B4CF0E94D930823091400CF0AECFE5
:101DD00082E08B1530F50E94D930B7010E941B308C
:101DE0001C9FF0011D9FF00D1124E452FE4F8083D3
:101DF00022E02B15C8F40E94D930209109032695C2
:101E0000622F70E00E941B30280F1C9FF0011D9F65
:101E1000F00D1124E452FE4F21831282A3828482AA
:101E200085CF80910803DCCF20910903EECFE7E056
:101E3000F3E080818E7F80836081718182819381D4
:101E40000E94C70A109202022FEF80E792E0215011
:101E500080409040E1F700C000000C94150B6091A9
:101E60000703669570E04BE050E08BE091E00E9444
:101E7000E930892B19F481E0809302020E94BC2290
:101E80009093FB018093FA0108959091070390FFCE
:101E900035C09170811128C092609093070366232A
:101EA00051F06091070370910803809109039091AC
:101EB0000A030E94C70A60910703669570E04BE031
:101EC00050E08BE091E00E94E930892BA1F0109264
:101ED000020281E08093FD0140910A0360910903B1
:101EE000809108030C94B50C8B3210F09465D5CF1B
:101EF000880F982BD2CF0E942F0FEBCF0895682F19
:101F000090910703969581E0890F8B3208F081E06C
:101F10000C94450F81E00C947F0F682F909107037C
:101F200096958FEF890F09F48AE20C94450F81E0B2
:101F30000C948D0F61E00C94450FE7E0F3E0808195
:101F40008160808386950C949A0F8091070380FDB1
:101F50000C94170F0C949D0F60E00C94450F80912A
:101F6000000281112EC00E94BF20811104C00E9476
:101F70006F210E94D90A0E94C30A609307037093DD
:101F800008038093090390930A036E7F61F40E9413
:101F9000D90A0E94C30A60930703709308038093D1
:101FA000090390930A030E94B40A109202028091DE
:101FB000070380FF03C086950E94AC0F81E08093E9
:101FC000000208950F931F93CF93DF938091020235
:101FD000882309F49DC080910102E0910703E695F2
:101FE000E81BE093FC018230C9F5F0E0E158FA4FBC
:101FF000E491CE2FD0E00AE61BE08091FD0188231A
:1020000089F01092FD010E94BC229E01209530951E
:10201000820F931F9093FB018093FA011092FF01AE
:102020001092FE018091FA019091FB010E94C8225A
:102030008C179D0708F46CC0E091FA01F091FB0148
:10204000CE0FDF1FD093FB01C093FA018AEF91E01E
:10205000F801DF91CF911F910F910994863049F4D7
:10206000F0E0E458FA4FE491CE2FD0E00EE71BE009
:10207000C4CF893051F4E695F0E0E758FA4FE49187
:10208000CE2FD0E008EB1CE0B8CF8F3051F4E695AE
:10209000F0E0EA58FA4FE491CE2FD0E005EF1CE0D3
:1020A000ACCF853149F4F0E0ED58FA4FE491CE2FF2
:1020B000D0E00FE61DE0A1CFC8EED3E002EE1DE0B8
:1020C000883109F49ACF833239F4E1E7F5E0C5911C
:1020D000D4910EE81BE091CFC4EFD1E00DE11EE0FA
:1020E000843209F48ACFC0EDD7E005EA1AE08532E0
:1020F00009F083CF8E2F63E00E94ED2FE92FF0E0EF
:10210000E259FA4FE491CE2FD0E00AE51EE075CFF8
:10211000DF91CF911F910F910895FA01811101C0B4
:10212000FB010994CF93DF93C82FD62F0E94E80AB2
:102130008C1740F00E94E80A8D1720F4DF91CF91B0
:102140000C948A0F8C2FDF91CF910C949A0F0F93E0
:102150001F93CF938C01FB01C281CC2309F465C08E
:102160000E9410208272F801E35CFC45E431F10525
:1021700038F4E959FE4C0C9451300E94A50FC0E090
:102180008C2FCF911F910F91089547E95FE06AE886
:102190007FE00E948D10F3CF4AE85FE067E97FE0BF
:1021A000F8CF46E75CE069E67CE0F3CF49E65CE027
:1021B00066E77CE0EECF44E95CE065E87CE0E9CFEF
:1021C00045E85CE064E97CE0E4CF42EB5CE063EA94
:1021D0007CE0DFCF43EA5CE062EB7CE0DACF41E019
:1021E0005BE060EF7AE0D5CF40EF5AE061E07BE062
:1021F000D0CF81E00E949A0FC2CF65E082E00E94BA
:102200009210BDCF68E086E0FACF6EE089E0F7CFAC
:1022100064E18FE0F4CF67E185E1F1CF88E1EACFB7
:1022200062E289E1ECCF83E2E5CFC1E0A9CF0E9471
:10223000BF20811102C00E946F210E94F72080936D
:102240001E03883320F08770806380931E03909173
:102250001E03892F817090FF04C0892F8695869573
:1022600086950C94661280911E03982F96959695EC
:102270009695963040F49F5F990F990F990F87704C
:10228000892B80931E0380911E03816080931E031F
:102290000E94FB2080911E038695869586950C945E
:1022A000661280911E03982F987F79F08850809352
:1022B0001E03887F91E009F490E080911E0390FB5B
:1022C00080F980931E030E94FB2080911E03869557
:1022D000869586950C94661280911E0380FD13C02E
:1022E000816080931E03813019F489E080931E037E
:1022F00080911E030E94FB2080911E038695869587
:1023000086950C946612089580911E0380FF08C084
:102310008E7F80931E030E94FB2080E00C94661247
:10232000089580911E0380FD0C9484110C946C110F
:1023300090911E03892F8695869586958F5F8F7164
:1023400097708730D8F4880F880F880F892B809377
:102350001E0380911E03887F91E009F490E0809134
:102360001E0390FB80F980931E030E94FB20809146
:102370001E038695869586950C94661290931E038F
:10238000E8CF873008F086E090911E039770282FE1
:10239000220F220F220F922B90931E03987F21E091
:1023A00009F420E090911E0320FB90F990931E0306
:1023B0000C9466120E94C11180911E030C94FB20A4
:1023C0009C01FB018281882349F12E3BFCE53F07FC
:1023D000C9F040F42C3BECE53E0769F02D3B3C4551
:1023E00079F00895203C9CE5390791F070F0213C8C
:1023F0003C4589F0089586E00E94DA1180E0089556
:1024000080E0FACF0E945111F9CF0E943311F6CF2C
:102410000E949111F3CF0E949811F0CF81E00895AE
:10242000859A8D9A08958D9808958D9A08951F9292
:102430000F920FB60F9211242F933F934F935F93F8
:102440006F937F938F939F93AF93BF93EF93FF937C
:102450000E941512FF91EF91BF91AF919F918F91C3
:102460007F916F915F914F913F912F910F900FBE90
:102470000F901F9018951F920F920FB60F92112474
:102480002F933F934F935F936F937F938F939F937C
:10249000AF93BF93EF93FF93809188009091890051
:1024A0008130914010F00E941312FF91EF91BF9183
:1024B000AF919F918F917F916F915F914F913F91DC
:1024C0002F910F900FBE0F901F901895CF92DF9213
:1024D000EF92FF92CF93C82F873098F5811132C0C9
:1024E0008091880090918900892B51F080916F0034
:1024F0008D7F80936F0080916F008E7F80936F003F
:102500000E9415122C2F30E0AFEFBFEF0E94573022
:1025100026E030E040E050E00E942F30C9012C3727
:1025200064E1360700F569E070E00E9407307093BF
:10253000890060938800CF91FF90EF90DF90CF905B
:102540000895C6E08091880090918900892BD1F68A
:1025500080916F00826080936F0080916F00816036
:1025600080936F00CFCF2A50374D4F4F5F4F942F3E
:10257000832F722F662725EF38E241E050E00E945A
:102580002F3069017A01CA01B9010E94DD2F9B0138
:10259000AC01C701B6010E94DD2F672F782F892F6C
:1025A00099276115710521E08207910509F0BFCFD8
:1025B0006FEF7FEFBCCF08950E94101282E08093EE
:1025C000800089E1809381008FEF9FEF90938700D7
:1025D000809386000C941711869A41B34F7B51B3B8
:1025E0005064EFB7F8949B01220F331F260F371F5B
:1025F000280F391F2817390741F4EFBF8FE594E002
:102600000197F1F700C000000895DC016D91CD0144
:1026100078E051BB000000C067FF41BB660F0000BF
:1026200000C000C000C041BB00C07A9591F7E2CF66
:102630000F931F93CF93DF93C62FD42F022FFC014C
:1026400082818823C9F0609305020E94BC22909386
:1026500004028093030280E28C0F883008F050C09F
:10266000C77081E001C0880FCA95EAF7DF91CF916A
:102670001F910F910C94D91710910502161335C0B4
:1026800080910302909104020E94C8228436910531
:1026900060F5C0E2CD0F1D17B9F080E2810F8830E0
:1026A00040F4177081E001C0880F1A95EAF70E9484
:1026B000E017C83048F481E09D2F977001C0880F63
:1026C0009A95EAF70E94D917802F0E94C617C83042
:1026D000B8F4D77081E001C0880FDA95EAF7DF918E
:1026E000CF911F910F910C94E01780E28C0F8830EE
:1026F00038F4C77081E001C0880FCA95EAF7EFCFC0
:10270000DF91CF911F910F9108959C01CB01243F40
:102710004CE5340731F190F4293DFCE53F07E9F041
:102720002A3D4CE5340769F1283D3C4579F426E221
:1027300041EE61EE0E94181380E00895263FFCE50B
:102740003F07B9F090F0273F3C45B9F0FC0182818A
:102750008823D1F010920502089527E245EE65EE38
:10276000E9CF26E241EE60EEE5CF27E245EE64EEEA
:10277000E1CF26E241EE62EEDDCF27E245EE66EEE6
:10278000D9CF28E241E0EBCF81E00895CF93DF93EA
:10279000EC01FB018281882309F419C1C230FCE5F8
:1027A000DF07C0F1C6319CE5D90730F09E012B5FF1
:1027B0003C452930310570F50E94DC2090932403BC
:1027C00080932303C031ECE5DE0709F4CFC008F0A5
:1027D0005BC0C8308CE5D80709F4B6C088F5C430B2
:1027E000ECE5DE0709F4A8C0C0F4C2308CE5D807D8
:1027F00009F49CC0809123038260C330DC4509F456
:1028000098C080912303909124030E94EA200E94A3
:10281000551A80E0DF91CF91089580912303806164
:10282000C630ECE5DE0709F484C08091230388609C
:10283000C730DC4508F47DC080912303806279C0F5
:10284000CC308CE5D80709F489C070F4809123035B
:102850008C60CA30ECE5DE0709F46BC008F478C080
:10286000809123038E7F65C0CE308CE5D80709F4B4
:1028700079C0809123038B7FCF30DC4508F459C0A9
:10288000809123038F7E55C0CC3FECE5DE0709F431
:1028900057C030F5C3318CE5D80709F46FC078F420
:1028A000C131ECE5DE0709F465C0C231DC4509F051
:1028B000A8CF0E94551A809123038F773AC0C53163
:1028C0008CE5D80709F462C008F476C0809124032F
:1028D0008160CB3FDC4509F094CF8093240391CFF6
:1028E000C115FDE5DF0709F44DC088F4809124038C
:1028F0008D7FCE3F9CE5D90781F3809124038E7FA5
:10290000CF3FDC4550F3809124038360E6CFC23093
:10291000FDE5DF0709F459C008F444C080E0C33086
:10292000DD4509F06ECF0E9471216BCF80912303AA
:1029300081608093230365CF809123038460F9CF66
:10294000809124038260C9CF809123038064F1CFFA
:102950000E94551A809123038068EBCF8091230356
:102960008D7FE7CF80912303877FE3CF809123037F
:102970008F7DDFCF809123038F7BDBCF809123037B
:10298000837FD7CF809124038C7FA7CF80912303AF
:1029900082FB992790F921E0922790FB82F990FB26
:1029A00083F9C7CF80912403982F909591708E7FE3
:1029B000892B90FB81F991CF0E94551A90912303A6
:1029C000892F97FB87F98058B4CF81E0ACCF81E0A5
:1029D00021CFCF93DF93EB0186319C4511F50E9407
:1029E00010209A81992399F08A7A91E009F490E075
:1029F00090930602811109C089E20E94EB1F0E9498
:102A00005C2080E0DF91CF91089585E3F6CF80913F
:102A10000602811104C089E20E94F21FF0CF85E313
:102A2000FBCF81E0EFCF08950895809114028111CA
:102A300014C00E94131581E0809314020E94BC22EE
:102A4000909313028093120210920702E8E0F2E0E2
:102A50008AE0DF011D928A95E9F708951F93CF93CD
:102A6000DF93EC01FB011281111106C011E0812FEF
:102A7000DF91CF911F91089580911402882351F125
:102A800080911202909113020E94C8228C329140D0
:102A900068F7CE019056811520E2920720F0905EF3
:102AA0008115904108F4DD2780910702853068F494
:102AB000E82FF0E0EE0FFF1FE85FFD4FD183C083EA
:102AC0008F5F8093070210E0D2CF109214020E9411
:102AD0001415F9CFC731DC4549F60E941515C7CF4B
:102AE00090931A02809319020895E0911902F091CF
:102AF0001A02309721F00190F081E02D099480E0D6
:102B00000895E0911902F0911A02309799F02091FE
:102B10002A01222359F02091230327FF07C0DC015B
:102B20002C9111962C93119725E02C930280F38120
:102B3000E02D09940895E0911902F0911A0230975E
:102B400039F022E0DC012C930480F581E02D09941A
:102B5000089520911702309118022817390771F053
:102B60009093180280931702E0911902F0911A02D3
:102B7000309721F00680F781E02D09940895209187
:102B80001502309116022817390771F0909316023A
:102B900080931502E0911902F0911A02309721F00A
:102BA0000084F185E02D0994089585B7806885BF7C
:102BB00085B7806885BF0895089508950C94DC1545
:102BC00008950C94E0150E94D5150E94DD150C9413
:102BD000DE1581E008950C94E9150E94B3220E944D
:102BE000EA080E946A230E9417110E94AF0F0C94FA
:102BF000E1159F92AF92BF92CF92DF92EF92FF9238
:102C00000F931F93CF93DF93CDB7DEB72A970FB6FD
:102C1000F894DEBF0FBECDBF0E9452090E94EB1593
:102C2000882309F474C05CE1A52E52E0B52E10E0B3
:102C300000E0902E802F0E94DC086C01F501E190ED
:102C4000F1905F01E816F90609F45BC08091BE02BD
:102C500081FD0E94E50897012C253D2580E0EE24AA
:102C6000E394F12CA9014E215F21452B09F443C0C7
:102C70008E839F82CE20DF2081E0CD2809F480E082
:102C800088870E94BC228160782F9A8789874E812D
:102C90005F8168858A850E94AA16000F111FF801BE
:102CA000E45EFD4F80819181E826F926F182E08281
:102CB0000E94E20F0E94DB120E94F9250E94751506
:102CC00090911B028917A1F10E94751580931B0238
:102CD0002A960FB6F894DEBF0FBECDBFDF91CF911D
:102CE0001F910F91FF90EF90DF90CF90BF90AF902A
:102CF0009F900C9466068F5FEE0CFF1C8F3009F0DE
:102D0000B1CF0F5F1F4F0530110509F092CF8FEF44
:102D100089838A831B820E94BC228160782F9D83D5
:102D20008C8349815A816B818D810E94AA16C0CF04
:102D30002A960FB6F894DEBF0FBECDBFDF91CF91BC
:102D40001F910F91FF90EF90DF90CF90BF90AF90C9
:102D50009F900895CF93DF93CDB7DEB72B970FB633
:102D6000F894DEBF0FBECDBF4F83588769877A873F
:102D70008B871E821D8285E0FE013796DE0111964B
:102D800001900D928A95E1F749815A816B817C818E
:102D90008D819E812B960FB6F894DEBF0FBECDBFFE
:102DA000DF91CF910C94071DFC01808191810C94DF
:102DB000BD1FCF93C82F882309F490C08238C1F477
:102DC0000E94751581FD8AC089E30E94EB1F0E9455
:102DD0005C202FEF81EE94E0215080409040E1F79D
:102DE00000C0000089E30E94F21FCF910C945C2088
:102DF0008338A1F40E94751580FD70C083E50E94A0
:102E0000EB1F0E945C202FEF81EE94E02150804068
:102E10009040E1F700C0000083E5E5CF8438A1F4DD
:102E20000E94751582FD5AC087E40E94EB1F0E9424
:102E30005C202FEF81EE94E0215080409040E1F73C
:102E400000C0000087E4CFCF8CEF8C0F813AB8F43C
:102E50008C2F0E946C28811141C06C2F809116012B
:102E6000909117010E948A21882329F08C2F0E94BB
:102E7000F21F0E945C208C2F0E94EB1FB6CF80E2D5
:102E80008C0F883048F4C77081E001C0880FCA9564
:102E9000EAF70E941320A9CFEBE5EC0FE33040F4F2
:102EA000F0E0E753FE4F808190E0CF910C94A9159C
:102EB000E8E5EC0FE73150F4F0E0EE0FFF1FE556C8
:102EC000FE4F80819181CF910C94BF15C03F30F0AF
:102ED0008C2F0E940725CF910C94EE25CF91089559
:102EE000882309F452C0823871F40E94751581FF5D
:102EF0004CC089E30E94EB1F0E945C2089E30E9482
:102F0000F21F0C945C20833859F40E94751580FFE1
:102F10003CC083E50E94EB1F0E945C2083E5EFCF5D
:102F2000843859F40E94751582FF2FC087E40E94EF
:102F3000EB1F0E945C2087E4E2CF9CEF980F913A50
:102F4000F0F290E2980F983050F4877091E001C051
:102F5000990F8A95EAF7892F0E941920D2CF9BE515
:102F6000980F933020F490E080E00C94A91598E538
:102F7000980F973120F490E080E00C94BF15803FCB
:102F800020F00E946F250C94EE250895CF93C82F52
:102F90000E94D916C93349F42FEF87EE93E02150F0
:102FA00080409040E1F700C000008C2FCF910C943E
:102FB0007017882321F00E9413200C945C20089540
:102FC000882321F00E9419200C945C200895BF9260
:102FD000CF92DF92EF92FF920F931F93CF93DF93E5
:102FE0006C01D62FC72FFC01058102950F7012814D
:102FF00011110E9430200E940920E82E882391F0B0
:103000001123D1F08C2F807F803421F080E28D0F4E
:10301000883090F082E00E94A7200E94092091E071
:10302000E82EE926BC2EB2949FE0B922EB2DF0E009
:10303000E558FE4C0C945130E12CF4CF0C2F0F705E
:10304000C07F11F00295007F1123A9F0002359F0F1
:1030500080E28D0F883010F0D11109C0802F0E94BE
:1030600013200E945C208D2F0E94D91614C0802F3F
:103070000E942320F6CF8D2F0E947017002359F055
:1030800080E28D0F883010F0D1112CC0802F0E946B
:1030900019200E945C202B2D2850330B2430310541
:1030A00020F40E9475150E946606EE2009F49EC168
:1030B0000E94052080FD9AC1F60112820E94FF1F26
:1030C0000E948B1EC6010E94171A0E94FF1FDF91EB
:1030D000CF911F910F91FF90EF90DF90CF90BF9015
:1030E0000C94AC1E802F0E942920D3CFFC2FFF70A0
:1030F000FF2EC07FC03219F0F29480EFF822DD235A
:1031000069F0D13049F1112391F1002351F1F60119
:10311000858180FFA8CF8F70858323C0112381F024
:10312000011106C00E9443208F290E94D917B3CFF6
:103130000130C1F70E9443208F290E944920ABCF64
:10314000011106C00E9452208F2D0E94E017A3CFCC
:10315000013009F4A0CFF6CF112329F0063008F092
:103160009ACF8F2DE2CF053008F095CFEDCF002319
:1031700059F3D93349F4FFEF27EE33E0F150204003
:103180003040E1F700C000008D2F0E94701783CF00
:103190008C2F86958695837069F0813009F07BCFFE
:1031A0008D2F9C2F9370111102C090E080E00E943F
:1031B000BF1571CF8D2F9C2F9370111102C090E01D
:1031C00080E00E94A91567CF8D2F112329F00E945E
:1031D00007250E94EE255FCF0E946F25FACF8C2F26
:1031E000837009F041C0111156CF4D2F429546957D
:1031F0004770440F440F0D2F0F7010E030E020E0B7
:10320000042E04C0000F111F221F331F0A94D2F78F
:1032100060E070E0CB01D4FF0FC06FE070E080E0B1
:1032200090E004C0660F771F881F991F4A95D2F758
:103230006095709580959095C695C695C370602BE6
:10324000712B822B932BC23049F058F4C13019F006
:103250000E943D1E20CF0E942B1E1DCF0E944F1E9C
:103260001ACF0E94291E17CF8695112311F08C2F9B
:103270008170882309F40FCF4D2F429546954770F2
:10328000440F440F0D2F0F7010E030E020E0042EAB
:1032900004C0000F111F221F331F0A94D2F760E0F1
:1032A00070E0CB01D4FF0FC06FE070E080E090E0F1
:1032B00004C0660F771F881F991F4A95D2F7609543
:1032C000709580959095C695C695C370602B712BAF
:1032D000822B932BC23049F058F4C13019F00E9470
:1032E000021FD9CE0E94F01ED6CE0E94141FD3CE4C
:1032F0000E94651ED0CECF70112329F08C2F0E9422
:103300008B1E8D2F12CF8D2F0E94E0178C2F0E94C5
:10331000AC1EC1CED23F89F160F4D03FC9F0D13F9D
:1033200029F1112309F442C001119DCE8C2F8F7118
:1033300021C0D33F39F1D43FA1F7112369F1CF71F7
:103340008C2F0E948B1E63E08C2F0E949220A3CEB4
:10335000112341F0053008F09ECE8C2F8F710E9412
:10336000CF1E99CE063008F096CEF7CF8C2F8F71F6
:10337000112369F20E948B1E8ECE8C2F8F71112328
:10338000C9F3C5CF112329F08C2F8F710E94761EAF
:1033900082CE0E94711E7FCE81E00E94A720023063
:1033A00008F479CE82E00E94A72075CE002359F060
:1033B000D93309F0E9CE8FEF97EEE3E081509040EA
:1033C000E040E1F7DFCE8C2F8F71A1CF4C2F4F70F3
:1033D0006D2FC6010E94CC060E94A11D5CCE4C2F11
:1033E0004F706D2FC6010E94CF0655CEDF91CF9151
:1033F0001F910F91FF90EF90DF90CF90BF900895B5
:103400000F931F93CF93DF93EC01688179818A81B9
:103410000E94C71F8C010E94261F0E94281EB8010F
:10342000CE01DF91CF911F910F910C94E717CF93AD
:10343000DF93EC018B819C81892B29F08881998114
:1034400089238F3F59F4DF91CF910895CE010E94D7
:10345000001ACE01DF91CF910C949105CE010E940C
:103460007E068111F3CF0E940920882361F38A81AF
:10347000882349F382E0DF91CF910C94A7200E942A
:1034800030200E9440200E945C200E9413270E944E
:10349000EE2590E080E00E94A91590E080E00C9479
:1034A000BF150E94F91F0C943F1A0E9420200C9413
:1034B000511AE92FE295EF70E250EE3070F4F0E02F
:1034C000E557FE4C0C945130803F19F020F4883EB3
:1034D00020F481E00895843FE1F380E00895883E80
:1034E000C0F3813FD1F7F5CF93FB882780F908958A
:1034F0000E94BD1F0C94591ACF93DF9300D000D0C7
:103500000F92CDB7DEB70F900F900F900F900F90E6
:10351000DF91CF910895CF93DF9300D000D000D0FA
:10352000CDB7DEB726960FB6F894DEBF0FBECDBF7F
:10353000DF91CF9108951F93CF93DF93C09127021E
:1035400016E0809128028C1304C0DF91CF911F9167
:103550000895D0E01C9FF0011D9FF00D1124E75D40
:10356000FD4F4081518162817381848195810E94E8
:103570008B1A2196C770E5CF4091590250915A029B
:1035800060915B0270915C0280915D0290915E029D
:103590000C948B1A209127029091280256E029134F
:1035A00002C080E0089530E0529FF001539FF00D7B
:1035B0001124E75DFD4F7181761306C07081781389
:1035C00003C07281741304C02F5F3F4F2770E7CF91
:1035D00081E008951F93CF93DF9380915E02807FF7
:1035E000A9F480915B02882389F080912702C09121
:1035F00028026091590270915A02A0915C02B09128
:103600005D02D62FD72316E0C81304C0DF91CF91F7
:103610001F91089590E0109711F0DF3F19F4019683
:103620008770F2CF189F9001199F300D1124F90176
:10363000E75DFD4F41814713F2CF40814613EFCF45
:1036400042814111ECCF438154814A1B5B0B4436CC
:10365000510528F780915E028F70806180935E0231
:10366000F901E25DFD4F80818F708061808389E583
:1036700092E00E94171ADF91CF911F910C949B1A30
:103680008F929F92AF92BF92CF92DF92EF92FF9272
:103690000F931F93CF93DF93CDB7DEB761970FB62C
:1036A000F894DEBF0FBECDBF8C0185E0F801DE01CE
:1036B0001D9601900D928A95E1F7D801EC90119634
:1036C000FC9011971296CC90129789E5A82E82E073
:1036D000B82E40915C0250915D024115510509F4EC
:1036E00074C19091590220915A02892F82238F3FF1
:1036F00009F46BC113968D909C901497D0905B0247
:10370000F401E41BF50BDD2009F40AC180915E028F
:10371000382F307FE436F10508F0C1C0311189C07F
:10372000DC2C2F1126C09E1124C0C11022C08F7026
:10373000806180935E020E94BC1AC5010E94171A24
:1037400080915E02D80115968C938D2D61960FB6EF
:10375000F894DEBF0FBECDBFDF91CF911F910F91C7
:10376000FF90EF90DF90CF90BF90AF909F908F90A1
:1037700008958114910429F08F2D8E218F3F09F037
:1037800043C180E080FF15C04C2D6F2D8E2D0E940F
:10379000CA1A882371F089E592E00E94171A86E020
:1037A000E9E5F2E0DF011D928A95E9F70E94BC1A73
:1037B0003EC0892829F08F2D8E218F3F09F021C12D
:1037C00080E0B82FB170AB2E80FF29C04C2D6F2D3B
:1037D0008E2D0E94CA1AB82E811121C0ED86FE8658
:1037E0008D859E850E94BD1F292F22952F70223026
:1037F00050F0243078F49F7051F0F8019581907F5B
:1038000031F4DB2CA2CF9F7011F08823D1F3805EBE
:103810008830B8F3C8010E94171ABA2CF2CFCC2016
:1038200009F493CF80915E02816080935E02D12C77
:103830008CCF2F1105C09E1103C0CC2009F48DC080
:10384000ED86FE868D859E850E94781A882319F163
:10385000CC2009F180915E02803270F020915902F3
:1038600030915A0238872F8319869B868A868C87E7
:10387000CE0107960E94171A86E0F801A9E5B2E08A
:1038800001900D928A95E1F70E94EA1A0E94BC1AF3
:10389000DD24D3945ACFC8010E94171AF9CF3111F1
:1038A00012C0782D998A888AA7016C2D89890E9477
:1038B0007C1A89E592E00E94171A86E0F5011192C0
:1038C0008A95E9F773CF2F110FC09E110DC0C1105B
:1038D0000BC015968C93C8010E94171A86E0F5015B
:1038E00011928A95E9F731CFED86FE868D859E850A
:1038F0000E94781A882379F2CC2069F280915E02C6
:10390000803208F4B9CF2091590230915A023A839B
:1039100029831B829D828C828E83CE010196AACF41
:10392000E436F10508F043C0DC2CCC2009F4B3CF19
:103930002F112CC09E112AC080915E0280FD1DC0F7
:10394000982F907FD1F015968C931597903F39F072
:10395000982F907F905F8F70892B15968C93C8015C
:103960000E94171A86E0F801A9E5B2E001900D92D5
:103970008A95E1F70E94BC1AE8CE86E0F801A9E535
:10398000B2E001900D928A95E1F7DFCEED86FE86DA
:103990008D859E850E94781A81116ECF80915E027E
:1039A000816080935E02C8010E94171ACECE782DE6
:1039B000998A888AA7016C2D89890E947C1A86E0E1
:1039C000F50111928A95E9F7D5CFCC2009F463CFA0
:1039D000ED86FE868D859E850E94781AD82E8823D6
:1039E00009F459CF86E0F801A9E5B2E001900D9203
:1039F0008A95E1F789E592E00E94D4160E94EA1ABE
:103A0000B9CF81E08C25DDCE81E08C25BBCE1F9324
:103A1000CF93DF93CDB7DEB72C970FB6F894DEBF08
:103A20000FBECDBF4F83588769877A878B879C8766
:103A3000CE0107960E94401B882369F08A859B85EA
:103A4000892B39F04F815885842F85238F3F09F0CA
:103A500071C016E05FC086E0FE013796DE01119668
:103A600001900D928A95E1F78A859B85892B89F3D0
:103A70008F81988589238F3F61F32091280230E060
:103A8000C9010196877099274091270248171906A6
:103A900071F40E94551A109228021092270286E0B3
:103AA000E9E5F2E0DF011D928A95E9F7D2CF96E0D1
:103AB000929FD001939FB00D1124A75DBD4FFE01D1
:103AC000319601900D929A95E1F7809328020E9419
:103AD0009B1ABFCF819FC0011124875D9D4F0E941B
:103AE000401B8823E9F0E09127021E9FF00111247A
:103AF000E75DFD4F408151816281738184819581B1
:103B00000E948B1A8091270290E001968770992776
:103B10008093270280912702909128028913DACF9F
:103B20002C960FB6F894DEBF0FBECDBFDF91CF91BC
:103B30001F91089569857A858B859C850E948B1AD3
:103B400088CFEF92FF920F931F93CF93DF938C0157
:103B5000892B81F0F12CEE24E394E8012196F80101
:103B60008491843770F4843008F05FC08130B1F004
:103B70008230A1F1DF91CF911F910F91FF90EF90D3
:103B80000895853709F44CC008F43DC09CE7980FB0
:103B9000903780F78F770E94701749C00E5F1F4FD4
:103BA000FE01849190E2980F983060F48770FE2DAA
:103BB00001C0FF0F8A95EAF78F2F0E9433200E94E1
:103BC0005C2002C00E94D9168F2D815030F2EFE99F
:103BD000FFE03197F1F700C00000F7CF0E5F1F4FF5
:103BE000FE01849190E2980F983050F48770FE2D7A
:103BF00001C0FF0F8A95EAF78F2F0E943920DFCF8F
:103C00000E947017E1CF0E5F1F4FFE01C491C1509B
:103C1000D8F28FE99FE00197F1F700C00000F7CFDD
:103C20000E5F1F4FFE01F490CFCF0E94D9168E0178
:103C3000CBCF08950C94191E0E941A1E6093950212
:103C40007093960280939702909398020C943F1A77
:103C500008950C941C1E0F931F93009195021091D0
:103C600096022091970230919802602B712B822B43
:103C7000932B1F910F910C941C1E0F931F93009177
:103C8000950210919602209197023091980260233C
:103C90007123822393231F910F910C941C1E0F9369
:103CA0001F930091950210919602209197023091F6
:103CB000980260277127822793271F910F910C94F8
:103CC0001C1E0C94191E0C94611E0E94631E6093AE
:103CD00091027093920280939302909394020C94B9
:103CE0003F1A60E070E0CB010C94651E0F931F93A8
:103CF00041E050E060E070E08A019B0104C0000FE9
:103D0000111F221F331F8A95D2F7C901B8011F91D5
:103D10000F910C94651E0F931F9341E050E060E0FB
:103D200070E004C0440F551F661F771F8A95D2F7B5
:103D30008091910290919202A0919302B09194028D
:103D40008A019B01082B192B2A2B3B2BC901B80197
:103D50001F910F910C94651E0F931F9341E050E04B
:103D600060E070E004C0440F551F661F771F8A95FE
:103D7000D2F7CB01BA01609570958095909500912E
:103D8000910210919202209193023091940260234B
:103D90007123822393231F910F910C94651E0F931F
:103DA0001F9341E050E060E070E004C0440F551FF5
:103DB000661F771F8A95D2F78091910290919202A7
:103DC000A0919302B09194028A019B0108271927C0
:103DD0002A273B27C901B8011F910F910C94651E3A
:103DE0000F931F93009191021091920220919302E0
:103DF00030919402602B712B822B932B1F910F918A
:103E00000C94651E0F931F930091910210919202E2
:103E10002091930230919402602371238223932393
:103E20001F910F910C94651E0F931F9300919102A7
:103E30001091920220919302309194026027712791
:103E4000822793271F910F910C94651E08952FE0F0
:103E5000929F800D1124982F977041E001C0440F6C
:103E60009A95EAF786958695869595E0899FF00163
:103E70001124E15AFD4F90E080E070E05191DF01A4
:103E800011979B01082E02C0369527950A94E2F7F8
:103E9000217021952527242325272C9301968530F1
:103EA000910561F708952FE0929F800D1124982FBE
:103EB000977086958695869525E0829FF00111245E
:103EC000E15AFD4F50E040E080E0219130E0092EC2
:103ED00002C0369527950A94E2F721703327042E05
:103EE00001C0220F0A94EAF7822B4F5F5F4F4530E3
:103EF000510559F70895BF92CF92DF92EF92FF924A
:103F00000F931F93CF93DF938C01C0909102D090B9
:103F10009202E0909302F090940280919502909129
:103F20009602A0919702B0919802C82AD92AEA2A4B
:103F3000FB2ACFE1D0E0BC2ED701C6010C2E04C075
:103F4000B695A795979587950A94D2F780FD0EC0F0
:103F5000219788F7B12C8B2DDF91CF911F910F9175
:103F6000FF90EF90DF90CF90BF900895B8018C2F15
:103F70000E94EC06019761F3EECFCF93DF93EC0143
:103F80000E947B1FBE01DF91CF910C94EC061F9322
:103F9000CF93DF93EB0190912602992331F0CB016F
:103FA000DF91CF911F910C94BD1F882379F0CB0135
:103FB0000E947B1F182F682FCE010E94271FBE0171
:103FC000812FDF91CF911F910C94EC06CB010E94C1
:103FD000531F182FF4CF682F80911601909117016D
:103FE0000C940A22682F80911601909117010C946D
:103FF000152280911601909117010C942022809136
:104000009902859585958595089580919902877087
:10401000089590919902977081E009F480E00895E5
:104020008091BD0208959091BD02892B8093BD02BD
:10403000089580959091BD0298239093BD020895B4
:104040001092BD0208959091BC02892B8093BC020E
:10405000089580959091BC0298239093BC02089596
:104060001092BC0208959091BB02892B8093BB02F1
:10407000089580959091BB0298239093BB02089578
:104080001092BB02089580919A02089508950C94AD
:10409000462090919A02981721F080939A020C94EE
:1040A0004720089580919A02882329F010929A025D
:1040B00080E00C9447200895E0911601F0911701DB
:1040C0008091BD028083E0911601F09117018081FB
:1040D0009091BC02892B8083E0911601F091170129
:1040E00080819091BB02892B808390919A029923C1
:1040F00081F0E0911601F09117018081892B808376
:1041000080911601909117010E94762181110E94E1
:10411000522080911601909117010C9481150895F9
:104120000C948F2098E0899F90011124622B60935A
:1041300099020E948B1E809199028595859585959F
:104140000C9490201092990280E00C949020909111
:1041500099028095892380939902282F277071F402
:10416000282F082E000C330B9217130639F0859573
:10417000859585950E94AC1E0C94A220089590E030
:1041800080E00E94043121E08C3E9E4F09F020E047
:10419000822F089582E090E00C94F630682F82E040
:1041A00090E00C940A3183E090E00C94F630682F94
:1041B00083E090E00C940A31CF9384E090E00E9479
:1041C000F630C82F81E290E00E94F630982F8C2FB5
:1041D000CF910895CF93C92F682F84E090E00E947B
:1041E0000A316C2F81E290E0CF910C940A3186E085
:1041F00090E00C94F630682F86E090E00C940A3141
:10420000AB01BC018FE090E00C941C31AB01BC0110
:1042100083E190E00C941C3160E070E0CB010C94E1
:10422000062160E070E0CB010E9400210C940C217B
:104230006CEE7EEF90E080E00E94283160E082E04A
:1042400090E00E940A3160E083E090E00E940A3131
:104250001092950210929602109297021092980274
:1042600060E084E090E00E940A3160E081E290E04A
:104270000E940A3160E085E090E00E940A3160E02F
:1042800086E090E00E940A316FEF87E090E00E94A4
:104290000A3140E050E0BA0188E090E00E941C3111
:1042A00060E08DE090E00E940A3140E050E0BA0109
:1042B00088E190E00E941C3160E087E190E00E947C
:1042C0000A3140E050E0BA018CE190E00E941C31DC
:1042D00060E080E290E00E940A310C9411210C947D
:1042E0001821682F8EE090E00C940A31FC01329680
:1042F00080912A01882321F0809123039EE187FF8A
:1043000096E080E0915008F4089521912223D1F3A2
:104310008F5FF8CF662301F120912A012223F1F06B
:104320002091230327FF1AC0462F469546954695B0
:104330004E3190F4677021E030E002C0220F331F4D
:104340006A95E2F7840F911DFC01828190E0282399
:10435000392381E0232B69F480E00895FC01329633
:1043600008962191261721F0E817F907D1F7F4CF25
:1043700081E008959C01FC0132969FEF80E041911D
:10438000461751F09F3F19F4411101C0982F8F5FDC
:104390008630A9F79F3F09F40895290F311D97FD35
:1043A0003A95F90162830895FC01329608962191AD
:1043B000261303C0DF0111971C92E817F907B9F71C
:1043C0000895E62FE695E695E695EE3168F4E80F58
:1043D000F92FF11D677021E030E001C0220F6A95CE
:1043E000EAF78281822B82830895E62FE695E6958F
:1043F000E695EE3170F4E80FF92FF11D677021E0BA
:1044000030E001C0220F6A95EAF7209582812823C7
:104410002283089520912A01222329F02091230349
:1044200027FD0C94E1210C94BA2120912A0122232A
:1044300029F02091230327FD0C94F5210C94D4211D
:10444000FC01329680912A01882351F08091230348
:1044500087FF06C08EE1DF011D928A95E9F7089576
:1044600086E0F9CF089508950C9433220E943422F7
:1044700080912903843061F11092BF0288E190E0BD
:1044800020E40FB6F894A895809360000FBE2093A7
:10449000600080E00E94661280E00E9466060E9432
:1044A000342283B7817F846083BF83B7816083BFF9
:1044B0007894889583B78E7F83BF0FB6F894A895BC
:1044C00080916000886180936000109260000FBE50
:1044D00008950895CF930E9432220E9452090E94AB
:1044E0006922C0E08C2F0E94DC08892B31F4CF5F59
:1044F000C530C1F780E0CF91089581E0FCCF0895E9
:104500000C947F220E94551A0E9417110E94751563
:104510000E9466060C9480221F921FB61F921124DF
:104520008F939F93AF93BF938091BF02811113C06C
:1045300080911F0390912003A0912103B091220349
:104540004196A11DB11D80931F0390932003A0935A
:104550002103B0932203BF91AF919F918F911F9040
:104560001FBE1F90189582E084BD93E095BD9AEF21
:1045700097BD80936E0008952FB7F89480911F0324
:1045800090912003A0912103B09122032FBF0895A1
:104590009C014FB7F89480911F0390912003A09144
:1045A0002103B09122034FBF821B930B089578948F
:1045B0001F921FB61F9211248F939F93AF93BF93A7
:1045C00080911F0390912003A0912103B0912203B9
:1045D0000196A11DB11D80931F0390932003A0930A
:1045E0002103B0932203BF91AF919F918F911F90B0
:1045F0001FBE1F90189581E08093E00080E28093B9
:10460000D8001092C9008FE19EE40197F1F700C035
:10461000000087E090EBDC0180933203909333033A
:10462000A0933403B093350388E19CE00FB6F8946F
:10463000A895809360000FBE90936000FFCFAF926B
:10464000BF92CF92DF92EF92FF920F931F93CF937F
:10465000C0E0CC24C394D12CE82EF12C8C2F0E94E6
:10466000DC085C0110E000E0C601002E02C0880FEB
:10467000991F0A94E2F78A219B21892B99F40F5FF5
:104680001F4F0F30110581F7CF5FC53039F780E03C
:10469000CF911F910F91FF90EF90DF90CF90BF903F
:1046A000AF900895602F7C2F80E00E94D006E8161E
:1046B000F90629F781E0ECCFCF93C82F8CE20E9456
:1046C0001F23882321F08C2FCF910C941F2380E08F
:1046D000CF910895CF930E94BF20811102C00E9404
:1046E0006F21C5E608C00E9452098FE39CE901973B
:1046F000F1F700C00000C150B1F789E20E945C23CD
:10470000811100C18AE20E945C2381110E946F2105
:1047100085E00E945C2381110E94FB220E94CA2036
:104720008093BE0287E00E945C23882371F08BE1B6
:104730000E945C23882309F4C2C09091BE02892F95
:104740008D7F91FF82608093BE028091BE020E94A5
:10475000CE200E94DC20909324038093230380EEDC
:104760000E945C23882341F090912303892F8E7F40
:1047700090FF81608093230389E30E945C23882358
:1047800041F090912303892F8D7F91FF8260809368
:10479000230382EE0E945C23882341F0909123033F
:1047A000892F8B7F92FF84608093230386EE0E9483
:1047B0005C23882341F090912303892F877F93FF07
:1047C00088608093230383EE0E945C23882341F05A
:1047D00090912303892F8F7E94FF80618093230320
:1047E00085E30E945C23882341F090912303892F65
:1047F0008F7D95FF80628093230381E30E945C2379
:10480000882341F090912303892F8F7B96FF80644A
:104810008093230381E10E945C23882341F09091DF
:104820002303892F97FB87F9805880932303809176
:104830002303909124030E94EA2087E20E945C23D4
:10484000C82F8EE10E945C238111C2608FE10E941B
:104850005C238111C46080E20E945C238111C860E6
:1048600081E20E945C238111C06182E20E945C238C
:104870008111C06283E20E945C238111C06484E2E2
:104880000E945C238823C1F1C0688C2F0E94D7202E
:104890006C2F70E090E080E00E94291E8FE00E9463
:1048A0005C23882319F081E00E94712185E10E9438
:1048B0005C23882339F180E0CF910C9471218EE044
:1048C0000E945C23882339F09091BE02892F8B7F50
:1048D00092FF846038CF80E10E945C239091BE02F9
:1048E000882329F0892F877F93FF88602CCF892F19
:1048F0008E7F90FF816027CFC111C7CF0E94D32048
:10490000682FC7CFCF9108958091C70280FF12C052
:1049100060911D0185E0689FB00111247595679530
:104920007595679560387105A8F561157105A1F158
:10493000862F089581FF09C060911D0185E0689F61
:10494000B001112475956795EDCF60911D0182FD31
:104950000AC08091C6028823D1F090911C01609119
:104960001D01891728F085E0689FB0011124DACF76
:10497000869FB001112485E0869F9001879F300DAE
:104980001124692F70E0C9010E941B30CBCF65E074
:1049900070E0CECF8FE7089581E008958091C7023F
:1049A00080FF0CC06091190170E075956795759551
:1049B00067956115710549F1862F089581FF06C03D
:1049C0006091190170E075956795F3CF60911901B9
:1049D00082FD0BC09091C6029923A1F0609118014D
:1049E00080911901961738F0682F70E060387105D2
:1049F00000F38FE70895899FC001112470E00E94A1
:104A00001B30F4CF61E070E0D7CF81E00895803FA4
:104A100031F40E94842481958093CB020895813FD4
:104A200019F40E948424F8CF823F31F40E94842438
:104A300081958093CA020895833F19F40E948424CB
:104A4000F8CF893F29F40E94CE248093CC020895A8
:104A50008A3F21F40E94CE248195F7CF8B3F31F419
:104A60000E94CE2481958093CD0208958C3F19F445
:104A70000E94CE24F8CF843F31F48091C902816036
:104A80008093C9020895853F21F48091C902826014
:104A9000F7CF863F21F48091C9028460F1CF873F30
:104AA00021F48091C9028860EBCF883F21F4809186
:104AB000C9028061E5CF8D3F31F48091C7028160EA
:104AC0008093C70208958E3F21F48091C7028260CF
:104AD000F7CF8F3FB9F78091C7028460F1CF9091F3
:104AE000CA02803F41F48091CB0287FD1092CB0235
:104AF000992371F00895813F29F48091CB02181613
:104B0000ACF3F6CF823F81F497FFF2CF1092CA0246
:104B10008091CB029091CC02892B9091CD02892B70
:104B200049F71092C6020895833F19F4191674F3D9
:104B3000DFCF893F39F48091CC021816CCF6109261
:104B4000CC02D6CF8A3F29F48091CC0287FFD0CF08
:104B5000F6CF8B3F39F48091CD0287FFC9CF1092F9
:104B6000CD02C6CF8C3F29F48091CD021816BCF33C
:104B7000BFCF843F31F48091C9028E7F8093C902F8
:104B8000B7CF853F21F48091C9028D7FF7CF863F53
:104B900021F48091C9028B7FF1CF873F21F480916E
:104BA000C902877FEBCF883F21F48091C9028F7EB5
:104BB000E5CF8D3F31F48091C7028E7F8093C7028D
:104BC00097CF8E3F21F48091C7028D7FF7CF8F3F23
:104BD00009F08ECF8091C7028B7FF0CF88EC92E0F6
:104BE0000E949B150E94BC229093C5028093C40230
:104BF0000895CF93DF9300D000D000D0CDB7DEB7BB
:104C000086E0E8ECF2E0DE01119601900D928A95C3
:104C1000E1F78091CA029091CB02892B81F08091BB
:104C2000C2029091C3020E94C822AC019091C602B8
:104C3000992331F180911E018417150670F180913E
:104C4000CC029091CD02892B91F08091C00290917D
:104C5000C1020E94C822AC019091C602992309F4B6
:104C600078C080911A018417150608F480C0269632
:104C70000FB6F894DEBF0FBECDBFDF91CF91089580
:104C800020911F018AE0289F9001112424173507E5
:104C9000B0F69F5F9093C60202C09F3FD1F710927B
:104CA000CC021092CD028091CA02181624F40E9400
:104CB00084248093CA028091CA0287FF05C00E94A3
:104CC000842481958093CA028091CB02181624F423
:104CD0000E9484248093CB028091CB0287FF05C081
:104CE0000E94842481958093CB023091CA023323A1
:104CF000A1F02091CB02222381F045EB3403C001C7
:104D000011249923F1F09093CA0245EB24039001FA
:104D100011243323D1F03093CB020E94EE258091F1
:104D2000C4029091C5029093C3028093C20286E0B0
:104D3000FE013196A8ECB2E001900D928A95E1F760
:104D40007ECF81E08093CA02E0CF81E08093CB02E6
:104D5000E4CF20911B018AE0289F900111242417A1
:104D6000350708F084CF9F5F9093C60202C09F3F33
:104D7000D1F71092CA021092CB028091CC02181681
:104D800024F40E94CE248093CC028091CC0287FF31
:104D900005C00E94CE2481958093CC028091CD02E3
:104DA000181624F40E94CE248093CD028091CD0267
:104DB00087FF05C00E94CE2481958093CD0230915B
:104DC000CC023323A1F02091CD02222381F045EBC8
:104DD0003403C00111249923F1F09093CC0245EBE8
:104DE0002403900111243323D1F03093CD020E948B
:104DF000EE258091C4029091C5029093C1028093E8
:104E0000C00286E0FE013196A8ECB2E001900D925E
:104E10008A95E1F72CCF81E08093CC02E0CF81E04E
:104E20008093CD02E4CF86E0E8ECF2E0DF011D9252
:104E30008A95E9F71092C6021092C702089583304E
:104E400081F128F4813059F08230D1F00895853015
:104E500009F449C0B8F1863009F456C0089580912C
:104E60001F01482F460F5527551F4F3F510524F46A
:104E7000680F60931F0108958FEF80931F010895BD
:104E800080911E01482F460F5527551F4F3F510552
:104E900024F4680F60931E0108958FEF80931E0124
:104EA000089580911D01482F460F5527551F4F3FEC
:104EB000510524F4680F60931D0108958FEF8093CE
:104EC0001D01089580911C01482F460F5527551F3D
:104ED0004F3F510524F4680F60931C0108958FEF34
:104EE00080931C01089580911901482F460F552782
:104EF000551F4F3F510524F4680F60931901089521
:104F00008FEF80931901089580911801482F460F63
:104F10005527551F4F3F510524F4680F6093180122
:104F200008958FEF809318010895833011F128F4CC
:104F3000813049F0823091F00895853081F120F17F
:104F40008630C1F1089580911F01681720F4861BF7
:104F500080931F01089510921F01089580911E01F2
:104F6000681720F4861B80931E01089510921E017D
:104F7000089580911D01681720F4861B80931D0100
:104F8000089510921D01089580911C01681720F466
:104F9000861B80931C01089510921C010895809136
:104FA0001901681720F4861B809319010895109247
:104FB0001901089580911801681720F4861B8093C9
:104FC000180108951092180108950F931F9341E05E
:104FD00050E060E070E08A019B0104C0000F111FE7
:104FE000221F331F8A95D2F7C901B8010E94291EDA
:104FF0001F910F910C94551AEBEFE80FEF3308F067
:105000005AC0F0E0E756FE4C0C9451300E946F21DC
:1050100081E008958091BE02807F8093BE0281E08E
:105020008093CF0208950E946F06F2CF9091BE0246
:10503000892F8E7F90FF81608093BE0280FDE8CF34
:10504000817F8093BE02E4CF9091BE02892F8D7F35
:1050500091FF82608093BE0281FFDACF8091BE0211
:105060008160EFCF9091BE02892F8B7F92FF846089
:105070008093BE0282FDF2CFCBCF9091BE02892FEA
:10508000877F93FF88608093BE0283FDE7CFC0CF08
:105090000E94551A90912303892F97FB87F9805816
:1050A00080932303B5CF80E00E94E527B1CF8953D9
:1050B000FBCF8D51F9CF80E0089580E008950C94E6
:1050C0005D288E518A3030F4E82FF0E0E453FE4F33
:1050D0008081089580E00895CF93C82F8091CF02FA
:1050E0008130B9F0882331F08230A1F11092CF02E3
:1050F00080E00DC00E9410208232D1F78C2F0E94D8
:105100005D2881111BC08C2F0E94FC278170CF91DC
:1051100008950E941020823289F38C2F0E945F280C
:1051200081110AC0C43199F060F4CB3029F0C0314C
:1051300069F782E08093CF0281E0E8CF81E090E0E0
:10514000E5CFC93221F0C833B9F380E0DFCF109248
:10515000CF02FBCFC93219F188F4C43101F120F438
:10516000C73081F181E0D3CF82EE8C0F8630D0F74B
:105170008C2F0E9461288093CE02F4CFCE3401F1AF
:1051800040F46AE0CB3471F78091CE020E941F2771
:10519000E9CFC13579F061E0C235B1F3E3CF809159
:1051A000CE02882319F01092CE02DCCF81E08093EA
:1051B000CF02ADCF61E08091CE020E949527D2CF81
:1051C0006AE0F9CF8EE180931F0182E380931E0194
:1051D0008AE080931D0184E180931C0188E0809324
:1051E000190188E280931801BDCF8091F0020895E3
:1051F000CF93DF9300D00F92CDB7DEB79091290304
:10520000943019F589837B836A8382E08093E90077
:105210008FEF9091E800815095FD06C095ED9A952D
:10522000F1F700008111F5CF8091E80085FF0DC0F6
:1052300050E040E063E070E0CE0101960E944C2B0C
:105240008091E8008E778093E8000F900F900F9088
:10525000DF91CF910895CF93DF93EC010E942F2B24
:10526000823011F0843031F4BE0184E0DF91CF91BF
:105270000C94F828DF91CF910895BC0183E00C9441
:10528000F828CF93DF93EC010E942F2B823011F08E
:105290008430F9F482E08093E9008FEF9091E80088
:1052A000815095FD06C095ED9A95F1F700008111AA
:1052B000F5CF8091E80085FF0CC050E040E066E04B
:1052C00070E0CE010E944C2B8091E8008E77809395
:1052D000E800DF91CF910895CF93DF93EC010E9416
:1052E0002F2B823011F08430B9F580912A01882368
:1052F000B1F18091230387FF32C060E282E08093A6
:10530000E9008FEF9091E800815095FD06C095ED82
:105310009A95F1F700008111F5CF8091E80085FFA3
:105320001BC080912A0170E050E040E0811104C070
:1053300050E040E068E070E0CE010E944C2B80918C
:10534000E8008E778093E80080E2FE01A0EDB2E0F5
:1053500001900D928A95E1F7DF91CF91089568E071
:1053600081E0CDCF80912803811109C00E94DC2CFF
:105370000E94392D8091E20084608093E2000895BC
:10538000109228030895089508950C94822242E013
:1053900061EC81E00E94582C42E261EC82E00C94C6
:1053A000582C80912B03833009F45FC030F4813096
:1053B000C1F1823009F49BC008958A3009F487C096
:1053C0008B3009F46DC0893009F04EC080912A03FA
:1053D000813209F049C080912E0390912F030297EA
:1053E00008F042C08091E800877F8093E8008091B8
:1053F000E80082FF35C09091F3008091F20002979F
:1054000029F48091F1008B7F813021F48091F100AB
:105410008093F0028091E8008B778093E8000C94F1
:105420008C2C80912A03813AF9F48091E800877FDF
:105430008093E80080912E0390912F03892B61F4D3
:1054400060E280ED92E070E00E949B2B8091E8008A
:105450008B778093E800089560E090E080E0F3CFE0
:10546000809129038111C3CF089580912A03813A45
:10547000D9F780912E0390912F03892BA9F7809162
:10548000E800877F8093E8008091E80080FFFCCFF0
:1054900080912A018093F1008091E8008E77BDCF42
:1054A00080912A03813201F780912E0390912F037E
:1054B000892BD1F68091E800877F8093E8000E94D5
:1054C0008C2C80912C0380932A010C94551A809186
:1054D0002A03813249F68091E800877F8093E800B3
:1054E0000E948C2C80912D038093F102089580916D
:1054F0002A03813A09F0B8CF8091E800877F809332
:10550000E8008091E80080FFFCCF8091F102C2CFDB
:1055100084B7877F84BF0FB6F894A8958091600008
:10552000886180936000109260000FBE80E890E078
:105530000FB6F89480936100909361000FBE0E94B3
:10554000E3150E94DC2C0E94392D8091E2008460DA
:105550008093E20078940E94C22F0E94ED1580E2B1
:1055600091E00E94701580912903853019F00E9406
:10557000F915F9CF0E94362280912703882399F3E9
:105580000E946A22882379F30E94362BECCF0C9478
:10559000C92A292F33272330310519F168F4213026
:1055A000310509F44AC02230310509F44BC090E0BE
:1055B00080E030E020E028C02132310579F122324C
:1055C0003105A9F780E490E025EB38E0611571051D
:1055D000D9F08CEB90E029EF37E061307105A1F054
:1055E000E6CF99278130910599F0009741F08230FC
:1055F000910589F00397D9F6E8E8F7E002C0E8EAF8
:10560000F7E0849190E09F01FA01318320830895AF
:10561000EAE9F7E0F6CFEEE8F7E0F3CF89E090E0D3
:105620002EEB37E06115710579F389E090E027ED05
:1056300037E06130710541F3BACF82E190E027EEA7
:1056400037E0E2CF8BE390E02CEA37E0DDCF8091CA
:105650002903843011F482E0089581E00895809157
:10566000F202811102C00C94272B089580E189BDBC
:1056700082E189BD09B400FEFDCF8091D8008F7D05
:105680008093D8008091E00082608093E000809158
:10569000E00081FDFCCF0895AF92BF92CF92DF92E0
:1056A000FF920F931F93CF93DF936C01EB018A015D
:1056B0000E94AB2CF82E811123C00115110539F081
:1056C000F80180819181C81BD90BC80ED91EB12C5D
:1056D000A12C2097A9F08091E80085FD22C080913F
:1056E000E8008E778093E80001151105A1F0F8011C
:1056F00080819181A80EB91EB182A08285E0F82E2A
:105700008F2DDF91CF911F910F91FF90DF90CF9060
:10571000BF90AF9008950E94AB2C8823D1F2F82E51
:10572000EFCFF60181916F018093F1002197FFEF98
:10573000AF1ABF0ACECFFC018091300390913103A4
:1057400086179707A0F06115710529F49091E8007C
:105750009E779093E80090E06115710551F49111E6
:1057600008C08091E80082FF34C080E00895BC0149
:10577000F2CF809129038823C1F18530C1F1809156
:10578000E80083FD30C08091E80082FDEACF80917F
:10579000E80080FFE1CF8091F3002091F200382FE4
:1057A0006115710519F02830310558F091E0283065
:1057B000310509F090E02091E8002E772093E80071
:1057C000CBCF81918093F100615071092F5F3F4FE2
:1057D000E7CF80912903882341F0853041F0809103
:1057E000E80083FFBECF81E0089582E0089583E062
:1057F0000895FC018091300390913103861797073B
:10580000A0F06115710529F48091E8008E778093EE
:10581000E80090E06115710551F4911108C0809184
:10582000E80082FF35C080E00895BC01F2CF80918E
:1058300029038823C9F18530C9F18091E80083FDEF
:1058400031C08091E80082FDEACF8091E80080FFBE
:10585000E1CF8091F3002091F200382F611571059E
:1058600019F02830310558F091E02830310509F061
:1058700090E08091E8008E778093E800CBCF849110
:105880008093F1003196615071092F5F3F4FE6CF51
:1058900080912903882341F0853041F08091E80010
:1058A00083FFBDCF81E0089582E0089583E00895ED
:1058B000982F973028F08F708093E90081E0089549
:1058C0009093E900242F762F50E0981731F07091D3
:1058D000EC002091ED005091F00021FD02C09F5F8F
:1058E000E8CF3091EB003E7F3093EB003091ED003C
:1058F0003D7F3093ED003091EB0031603093EB0051
:105900007093EC002093ED005093F0002091EE0096
:1059100027FDE5CF80E0089580912A0387FF13C01B
:105920008091E80082FF06C08091E8008B77809329
:10593000E80004C0809129038111F2CF089580917D
:1059400029038823D9F38091E80080FFF8CF809164
:10595000E8008E77ECCF2091E4003091E50095E6E9
:10596000A9012091EC00822F817020FF06C0809158
:10597000E80080FF06C080E008952091E80022FD45
:105980001AC080912903882389F0853089F080919D
:10599000EB0085FD0FC02091E4003091E500421737
:1059A0005307F9F29150E1F684E0089582E00895FA
:1059B00083E0089581E008950E944A2D0E94522DAF
:1059C000E0EEF0E0808181608083E8EDF0E08081AE
:1059D0008F77808319BCA7EDB0E08C918E7F8C937C
:1059E00080818F7E80831092280308950F931F93E8
:1059F000CF93DF930E944A2D0E94522DC8EDD0E034
:105A000088818F77888388818068888388818F7D6B
:105A1000888319BC10922903109225031092270342
:105A20001092260300EE10E0F80180818B7F8083C6
:105A300088818160888342E060E080E00E94582C89
:105A4000E1EEF0E080818E7F8083E2EEF0E0808105
:105A500081608083808188608083F80180818E7F6F
:105A60008083888180618883DF91CF911F910F911E
:105A70000895E8EDF0E080818F7E8083E7EDF0E02F
:105A800080818160808384E082BF81E080932803ED
:105A90000C94F62CE8EDF0E080818E7F80831092EC
:105AA000E20008951092DA001092E10008951F922A
:105AB0000F920FB60F9211242F933F934F935F9342
:105AC0006F937F938F939F93AF93BF93EF93FF93C6
:105AD0008091E10082FF0BC08091E20082FF07C04D
