:100000000C9457020C9433150C949E020C949E028F
:100010000C949E020C949E020C949E020C949E02E0
:100020000C949E020C949E020C94AC2A0C947F2B90
:100030000C94DD230C949E020C949E020C949E0260
:100040000C949E020C949E020C949E020C949E02B0
:100050000C949E020C943E240C949E020C949E02DE
:100060000C949E020C949E020C949E020C949E0290
:100070000C949E020C949E020C949E020C949E0280
:100080000C949E020C949E020C949E020C949E0270
:100090000C949E020C949E020C949E020C949E0260
:1000A0000C949E020C949E020C949E02290029003E
:1000B0002900290029002900290014001A0009003C
:1000C00013000500290004001500160017000A009F
:1000D00029001D001B000600070019000000000099
:1000E0000100010001002C0029002900290029003D
:1000F00029002900290033001C0018000F000D0002
:10010000290012000C00080011001000290038021C
:10011000370036000B000E00000000000100010057
:100120000100005701000100010001000100010071
:10013000010014021A02090213020502010004025E
:100140001502160217020A0201001D021B02060216
:100150000702190200000000010001000100010077
:100160000100010001000100010001000100330055
:100170001C0218020F020D02010012020C020802FA
:100180001102100201001E02340234000B020E02A2
:1001900000000000010001000100010000047F3F99
:1001A0001F643214643214783C1E1E140A05222384
:1001B000252628292A2C2D2F3032333536383A3B44
:1001C0003D3E4042434547494A4C4E505153555796
:1001D000595A5C5E6062646668696B6D6F717375B5
:1001E00077797B7D7F81838587898A8C8E909294B5
:1001F00096989A9C9E9FA1A3A5A7A8AAACAEAFB1C2
:10020000B3B4B6B8B9BBBCBEBFC1C2C3C5C6C7C90B
:10021000CACBCCCDCED0D1D2D2D3D4D5D6D7D7D8C5
:10022000D9D9DADADBDBDBDCDCDCDCDCDDDDDDDD17
:10023000DCDCDCDCDCDBDBDBDADAD9D9D8D7D7D61F
:10024000D5D4D3D2D2D1D0CECDCCCBCAC9C7C6C5D6
:10025000C3C2C1BFBEBCBBB9B8B6B4B3B1AFAEAC1C
:10026000AAA8A7A5A3A19F9E9C9A98969492908EC7
:100270008C8A89878583817F7D7B79777573716FA0
:100280006D6B6968666462605E5C5A59575553517C
:10029000504E4C4A4947454342403E3D3B3A383632
:1002A000353332302F2D2C2A292826252322FFAA48
:1002B0007F55400000000000000000000001010127
:1002C0000101010101010202020202020202030312
:1002D00003030303030404040404050505050506DC
:1002E0000606060607070707080808080909090A95
:1002F0000A0A0B0B0B0C0C0C0D0D0D0E0E0E0F0F36
:1003000010101011111212131314141515161617BC
:1003100017181819191A1A1B1C1C1D1D1E1F1F2027
:10032000212122232324252526272828292A2B2C6E
:100330002C2D2E2F30313132333435363738393A8F
:100340003B3C3D3E3F404142434445464748494B84
:100350004C4D4E4F50525354555758595A5C5D5E50
:10036000606163646567686A6B6C6E6F71727476E6
:1003700077797A7C7D7F8182848687898B8D8E9048
:1003800092949597999B9D9FA1A2A4A6A8AAACAE72
:10039000B0B2B4B6B9BBBDBFC1C3C5C8CACCCED05C
:1003A000D3D5D7DADCDEE1E3E6E8EAEDEFF2F4F705
:1003B000F9FCFF0403300000001C034900720069CF
:1003C00000730020004B006500790062006F00613F
:1003D000007200640000000E034B006500650062BF
:1003E0000069006F0000000403090409023B0002D9
:1003F0000100A0FA09040000010301010009211114
:100400000100012240000705810308000A090401D8
:10041000000103000000092111010001223600073C
:1004200005820320000A120110010000000810CB11
:10043000561200030102030105010980A101850391
:100440001601002603001A81002A83007510950109
:100450008100C0050C0901A1018504160100269C3C
:10046000021A01002A9C02751095018100C0050145
:100470000906A101050719E029E7150025019508DE
:100480007501810295017508810105081901290589
:1004900095057501910295017503910105071900F4
:1004A00029FF150026FF00950675088100C011245C
:1004B0001FBECFEFDAE0DEBFCDBF04B603FE27C01C
:1004C0008091A5029091A602A091A702B091A802E6
:1004D0008730904BA740B04BD1F41092A5021092F8
:1004E000A6021092A7021092A80214BE84B7877FBA
:1004F00084BF0FB6F894A8958091600088618093BE
:100500006000109260000FBEE0E0F8E3099511E092
:10051000A0E0B1E0E2EEFCE502C005900D92AE383D
:10052000B107D9F722E0AEE8B1E001C01D92A53ACB
:10053000B207E1F70E94DB270C94002E0C94000018
:100540000F931F93CF93DF938C01EB019A95811545
:100550009F4138F510FF03C080EEFB01099511FFA4
:1005600003C081EEFE01099512FF03C082EEFE0179
:10057000099513FF03C083EEFE0109950115104193
:1005800080F084EEFE01099585EEFE01099586EE68
:10059000FE01099587EEFE01DF91CF911F910F912A
:1005A0000994DF91CF911F910F910895982F977023
:1005B00081E001C0880F9A95EAF70E940E220C9400
:1005C00049220C94D602982F977081E001C0880FC1
:1005D0009A95EAF70E9414220C9449220C94E302A3
:1005E000CF93DF93EC01805E9109089720F066EDD0
:1005F00072E0209711F461EE72E0CE010E94A00239
:100600008C2FDF91CF910C947B17CF93DF93EC016C
:100610000E946018CE01805E9109089720F063EE79
:1006200072E0209711F46EEE72E0CE01DF91CF916F
:100630000C94A00281E0089581E008950C941C03BD
:100640001F93CF93DF9300D000D00F92CDB7DEB7CA
:1006500049835A836B832091E20189819A81211118
:100660001BC06623A9F00E945A21182F682F898188
:100670009A810E94012169817A81812F0F900F90C8
:100680000F900F900F90DF91CF911F910C94CE059A
:100690000E943021182FEFCF0E945A2169817A8160
:1006A000EDCFFC01408151816281738184810C9482
:1006B00020030E94FF120E9467130C947A08E82F0F
:1006C000E295EF70F0E032A1282F2F7081E090E0EA
:1006D00001C0880F2A95EAF78095832382A30895A5
:1006E000CF93DF93CDB7DEB728970FB6F894DEBF70
:1006F0000FBECDBF863048F5811128C09091800093
:100700009F7D90938000282F30E0AFEFBFEF0E94D5
:10071000912D25E030E040E050E00E94692DC901B4
:100720002C3764E13607B0F469E070E00E94412D97
:1007300070938B0060938A0028960FB6F894DEBF02
:100740000FBECDBFDF91CF91089585E090918000DD
:100750009062D7CF2A50374D4F4F5F4FB42FA32F02
:10076000922F8827BC01CD0125EF38E241E050E00F
:100770000E94692D29833A834B835C83CA01B901A6
:100780000E94312D9B01AC0169817A818B819C8112
:100790000E94312DBB27A92F982F872FBC010097CE
:1007A000A140B10529F66FEF7FEFC2CF269A86E30D
:1007B0000E945F0382E28093800089E18093810040
:1007C0008FEF9FEF90938700809386000C9486258F
:1007D0000E94AC22811102C00E943B230E94D603DA
:1007E0000E9451130C94770808950C94F4030C9410
:1007F000F50308950E947E1B0E94F9032FEF84E306
:100800009CE0215080409040E1F700C000000C9433
:1008100062240F931F93CF93DF93EC010E94510347
:100820008C01BE010E945E12BE01C8010E941E031F
:10083000882309F452C0BE01C8010E94A512882372
:1008400009F44BC0BE01C8010E943B14882309F47F
:1008500044C00F3D8CE51807A0F4023C8CE5180756
:10086000B8F405318CE51807E8F402308CE5180778
:1008700008F013C101158CE5180759F101301C452A
:1008800091F1CE01DF91CF911F910F910C941A033A
:10089000F801E25CFC45ED31F10598F7EE5FF14DB2
:1008A0000C948B2D06311C4561F70E94F7219A812B
:1008B000992309F465C18A7A91E009F490E0909354
:1008C0008E0181115BC189E20E94D2210E944922DE
:1008D00004C08A8181110E94FA0380E0DF91CF91E8
:1008E0001F910F9108958A818823B9F3909158023E
:1008F000892F8E7F90FF816080935802EECF8A818E
:10090000882359F30E943B23E8CF8A818111E5CFE8
:100910000E945C10E2CF8A818823F9F20E94F721BD
:10092000827251F00E944E10D8CF8A818823A9F29A
:100930000E94F7218272B1F30E944010CECF8A81CB
:100940008111CBCF0E94400DC8CF8A818111C5CFC4
:100950000E944C0DC2CF8A818111BFCF0E945B0DD6
:10096000BCCF8A818111B9CF0E946A0DB6CF8A812E
:100970008111B3CF0E94790DB0CF8A818111ADCFA3
:100980000E94880DAACF8A81882309F4A6CF0E94ED
:100990008D0BA3CF8A81882309F49FCF0E94B00BCF
:1009A0009CCF8A81882309F498CF81E00E9451105E
:1009B00094CF8A81882309F490CF0E94850B8230DE
:1009C00028F00E94850B853008F4B6CF82E0EECF88
:1009D0008A81882309F481CF0E94850B863028F014
:1009E0000E94850B883008F4A7CF86E0DFCF8A818C
:1009F000882309F472CF0E94850B893028F00E9469
:100A0000850B8E3008F498CF89E0D0CF8A81882377
:100A100009F463CF0E94850B8F3028F00E94850B6C
:100A2000843108F489CF8FE0C1CF8A81882309F40B
:100A300054CF0E94850B853128F00E94850B8731A9
:100A400008F47ACF85E1B2CF8A81882309F445CFB3
:100A500088E1ACCF8A81882309F43FCF0E94850BBF
:100A6000893128F00E94850B823208F465CF89E134
:100A70009DCF8A81882309F430CF83E297CF8A8182
:100A8000882309F42ACF80E00E947C2826CF8A811F
:100A9000882309F422CF82E0F7CF8A81882309F4E2
:100AA000F0CE0E94AC22811102C00E943B230E9422
:100AB000BF2290E09093960280939502F801E35054
:100AC000FC45809195028160E231F10538F4E15EE8
:100AD000F14D0C948B2D809195028260809395024C
:100AE000809195020E94C3220E947E1BF6CE8091C7
:100AF00095028460F3CF809195028860EFCF80915A
:100B000095028061EBCF809195028062E7CF809162
:100B100095028064E3CF809195028068DFCF809159
:100B200095028C60DBCF809195028E7FD7CF80912C
:100B300095028D7FD3CF809195028B7FCFCF80910F
:100B40009502877FCBCF809195028F7EC7CF809112
:100B500095028F7DC3CF809195028F7BBFCF80910F
:100B600095028F77BBCF80919502837FB7CF90910D
:100B70009502892F97FB87F98058B0CF85E3A4CEE3
:100B800080918E01811104C089E20E94D9219ECEFC
:100B900085E3FBCF90E080E008950895972F70E003
:100BA00026E0929F600D711D1124FB019CE3899F3B
:100BB000E00DF11D1124EE0FFF1FE455FF4F85914D
:100BC00094910895FC01EE0FFF1FE456FE4F8591AE
:100BD00094910895CF93DF930E94CE050E94D80789
:100BE000EC01811523E5920708F063C0811532E519
:100BF000930708F05FC18F3F910509F090F5803FA2
:100C0000910508F033C18F3B9105D8F4883A9105DE
:100C100008F0CDC0853A910568F4049738F491E066
:100C200080E0219709F090E0C92FD82FCE01DF9105
:100C3000CF910895853A910509F0B2C0C1E8D0E49A
:100C4000F5CF803E910540F4805C9109CF3BD10502
:100C5000D9F4D0E0C0E0EACF805E9109089730F384
:100C6000F8CF811540E59407D0F4C11580E4D8078A
:100C700008F001C1C11590E3D90750F4C11520E275
:100C8000D207A0F2CE019F700E94E205EC01CECF08
:100C9000CE019927D3FDECC0EC01D06CC7CF8115F4
:100CA00031E5930708F4EAC0D82FCC27C16FD06A8A
:100CB000BDCF8C3B9C4509F427C1CD3B8CE5D807C3
:100CC00008F043C0C11599E5D90798F5C11528E585
:100CD000D20708F004C1C11535E5D307C8F4C11522
:100CE00044E5D40708F0F6C0CE018370992721E0CF
:100CF00030E002C0220F331F8A95E2F7C695C695F1
:100D000080E2C89FE0011124C22BD32BDA688ECF7A
:100D1000CE0195558F3F910511F008F09ACF8C2F99
:100D20000E945308C82FD0E0DC2FCC27CC27DF71DE
:100D300035C0C1159AE5D90708F4D6C0CB3BDC45D0
:100D400009F087CFC0E0D4ED71CFCF3B3CE5D307AE
:100D500009F4DDC060F4CD3B8CE5D80709F4DAC0B6
:100D6000CE3BDC4509F075CFC0E0D0ED5FCFC03C95
:100D70002CE5D20709F4D1C0CE01905681159042DE
:100D800008F067CF8D2F8F710E94530890E0982F45
:100D9000882788279F719C012C2BE901D06246CFC0
:100DA000863A910509F0BCC0C2E8D0E43FCF883A4A
:100DB000910509F4B8C0893A910509F4B7C08A3A97
:100DC000910509F4B6C08B3A910509F4B5C08C3A87
:100DD000910509F4B4C08B3B910509F4B3C08C3B79
:100DE000910509F4B2C08D3A910509F4B1C0803B78
:100DF000910509F4B0C08E3A910509F4AFC08F3A5D
:100E0000910509F4AEC0813B910509F4ADC0823B68
:100E1000910509F4ACC0833B910509F4ABC0843B58
:100E2000910509F4AAC0853B910509F4A9C0863B48
:100E3000910509F4A8C0873B910509F4A7C0883B38
:100E4000910509F4A6C0893B910509F4A5C08D3B25
:100E5000910509F4A4C08E3B910509F4A3C08A3B17
:100E6000910509F4A2C0C0E0D4E4E0CED065DECEA6
:100E7000EC01D86CDBCEDF70D06AD8CE54E096950A
:100E800087955A95E1F783702C2F26952695237028
:100E900090E2299F90011124382B8C2F8370C1E0A0
:100EA000D0E002C0CC0FDD1F8A95E2F7C22BD32B16
:100EB000DC68BCCE8370992721E030E002C0220FAD
:100EC000331F8A95E2F7C695C69540E2C49FE001BC
:100ED0001124ECCFDC2FCC27C46FD06AA7CEDC2F37
:100EE000CC27C06FD06AA2CE8C2F8F700E9453087F
:100EF00094E0D695C7959A95E1F79C2F9F70C82FDF
:100F0000CF70C06ED92FB8CFC0E0D5ED8FCEC0E086
:100F1000D2ED8CCEC0E0D1ED89CEC0E0D3ED86CE4F
:100F2000C3E8D0E483CEC2EED4E480CEC9EED4E4EC
:100F30007DCECAEED4E47ACEC5EBD4E477CEC6EB50
:100F4000D4E474CEC3EBD4E471CEC4EBD4E46ECE5F
:100F5000C7EBD4E46BCECCECD4E468CECDECD4E4D7
:100F600065CEC3E8D5E462CECAE8D5E45FCEC2E977
:100F7000D5E45CCEC4E9D5E459CEC1E2D6E456CE80
:100F8000C3E2D6E453CEC4E2D6E450CEC5E2D6E402
:100F90004DCEC6E2D6E44ACEC7E2D6E447CECFE68F
:100FA000D4E444CEC0E7D4E441CECAE2D6E43ECE97
:100FB000803E910581F1C8F48133910509F462C046
:100FC00048F48932910509F456C08A32910509F432
:100FD00060C0089589339105B9F082389105A1F078
:100FE0008533910509F440C00895863E910561F16D
:100FF00038F4823E9105B1F0833E9105E1F0089509
:10100000873E910551F10895209195022370D9F002
:1010100080EE90E008952091950220FF14C089E3AE
:1010200090E008952091950222FF0DC024FD09C093
:1010300083EE90E008952091950222FD31C024FFB7
:1010400002C090E080E008952091950223FFFBCF3D
:1010500024FDF7CF87EE90E008952091950223FFBD
:10106000EECF86EE90E008952091950225FFEBCF1C
:1010700089E290E008952091950225FFE4CF85E371
:1010800090E008952091950226FFDDCF8AE290E05E
:1010900008952091950226FFD6CF81E390E0089530
:1010A00082EE90E008959091950292FF06C0282F5D
:1010B0002871283069F4877F846093FF06C0282F49
:1010C0002871283161F4877E846194FD877E0895BC
:1010D000282F2471243089F78B7F8860EECF282F4A
:1010E0002471243191F78B7E8861EFCF08950C94A1
:1010F000760808950C9479080895E82FF0E0EB56EF
:10110000FE4F808108950895CF93DF938091580218
:101110008B6080935802809119018091190195E0AC
:10112000811190E09093670285E0891B80936602AD
:10113000AEE4B1E061E070E08D91E82FE295EF70F0
:10114000F0E041A18F709B0101C0220F8A95EAF760
:10115000922F9095942391A382A1822B82A381E068
:10116000A335B80749F7A8E4B1E04EE451E0C1E087
:10117000D0E08D91E82FE295EF70F0E061A18F70E3
:101180009E0101C0220F8A95EAF7922F909596232F
:1011900091A382A1822B82A34A175B0751F7E5E94D
:1011A000F1E08FE991E011928E179F07E1F785E05A
:1011B0000E949E09DF91CF910C94E8036F927F9279
:1011C0008F929F92AF92BF92CF92DF92EF92FF9257
:1011D0000F931F93CF93DF9320E931E04EE4E42E89
:1011E00041E0F42E712CCC24C394D12CE9017991E7
:1011F0009E01DE011E92F70181917F01E82FE295A9
:10120000EF70F0E091A18F70860101C0000F8A9508
:10121000EAF7892F802B81A382A1602E609486211A
:1012200082A380EA8A95F1F798E4A92E91E0B92E7D
:1012300050E040E0E50169915E01862E82948FE0E6
:101240008822912CE40188A190E06F7002C09595EE
:1012500087956A95E2F7812C80FD06C04601042E31
:1012600001C0880C0A94EAF78C91882A8C924F5F0F
:101270005F4F46305105F1F681A1862181A382A1FD
:10128000082B02A381E09C91971301C080E0782A8B
:10129000D1E025393D0709F0A9CF6091670270E0E0
:1012A0006B567E4F272D45E080E991E00E949F0913
:1012B000872DDF91CF911F910F91FF90EF90DF90DD
:1012C000CF90BF90AF909F908F907F906F90089538
:1012D000CF930E94DE08C82F0E94D909882311F1FC
:1012E0008091660290E08B569E4F0E94330A8111D6
:1012F00016C090918F019F5F90938F01963050F0B0
:10130000E0916602F0E0EB56FE4F108211821282ED
:10131000138214820E9459038C2FCF91089510924A
:101320008F01F8CF8091670290E08B569E4F0E940C
:10133000600A0E9467130E947C08EECF0895FF9216
:101340000F931F93CF93DF93F82E092F162FD72FCC
:10135000C42F222349F081E08093A1010E940D2433
:101360009093A00180939F018091A1018823A1F017
:1013700080919F019091A0010E941924069760F02E
:10138000EF2DF02FA12FBD2FCE0FDF2FD11DEC178A
:10139000FD0741F41092A101DF91CF911F910F91B0
:1013A000FF90089581918D93F2CF80988FB18170D5
:1013B00008958091A201811110C08091D8008061B0
:1013C0008093D8008AE18A95F1F700C09091D90006
:1013D000917082E0891B8093A20181E09091A2012B
:1013E000913009F080E008950E94D5098093190199
:1013F0008091190166E0882349F080E00E94210B6A
:101400000E94D909882321F00C940A0A86E0F6CFBD
:101410000C94100A62E070E08AE191E00C94E01410
:1014200062E070E08AE191E00C94E9140E945A0FA6
:10143000882361F08CEA91E00E94600F81E090E0E7
:101440000E94C215892B11F40C945D0F08958091B0
:10145000AB01883039F460E08CEA91E00E94A3107F
:101460001092AB010895CF93DF93D82FC92F0E941C
:10147000160A90E080E00E94C2159C0180E02115D0
:101480003105C9F4ED2FFC2FD901AB55BE4F8C911E
:1014900081932F5F3F4F25303105B1F70E9407261A
:1014A000882361F00E9454268093A4018AEA91E087
:1014B0000E94A81381E0DF91CF91089580E0F4CFDE
:1014C000CF93DF93D82FC92F0E94270AED2FFC2F2F
:1014D00090E080E02191DC01AB55BE4F2C9301964A
:1014E00085309105B9F78091A4010E9470038AEAC2
:1014F00091E0DF91CF910C94A313AF92BF92CF9262
:10150000DF92EF92FF920F931F93CF93DF93362FCB
:10151000D72E282FE82FF0E0711110C0ED54FD4FA9
:101520006491762F862FDF91CF911F910F91FF90BD
:10153000EF90DF90CF90BF90AF900895E72EF12C01
:1015400086E0689F80011124CFEFD0E0C801BE0182
:101550000E94412D832F90E0880F991F35E5369F1B
:10156000A001379F500D1124841B950B382F330F8A
:10157000380FCE018E199F098E9FA0018F9F500DAD
:101580009E9F500D1124952F3D9DD0011124AB2F0E
:10159000BB276E01CA1ADB0ACE9ED001CF9EB00DCA
:1015A000DE9EB00D11248B2F5E01A31AB108AE9CF4
:1015B0006001AF9CD00CBE9CD00C1124CD2CDD243E
:1015C000CC19DD09CE9F7001CF9FF00CDE9FF00C8F
:1015D00011246330710531F10C3F33E0130760F4DF
:1015E0006130710519F16230710521F10F3F11056C
:1015F00048F4852F9F2D06C064307105F1F06630E8
:101600007105B9F3E22FF0E0ED54FD4F7491E92F2D
:10161000F0E0ED54FD4F6491E82FF0E0ED54FD4F04
:10162000849181CF9B2F822F252FECCF922F2B2FB0
:10163000852FE8CF8F2D922FF7CF822F2F2DE2CF3E
:1016400008958093BB0160932E010895CF93DF939B
:10165000982F762F842FE901692F0E947D0A7983C4
:1016600068838A83DF91CF91089580916802982FD3
:101670009E7F29F4817082608093680208958A3485
:10168000E8F381708864F8CF88E090E00C94C02D76
:101690000F931F93CF93DF938B01D82FC92F0E94F5
:1016A000350BA8016D2F7C2F88E090E0DF91CF9162
:1016B0001F910F910C94DE2DCF93DF9300D000D0BB
:1016C000CDB7DEB7E8E6F2E083E0808311828FEFEA
:1016D000828383831482A3ECB1E012968C911297DB
:1016E000836012968C9380819181A281B3818983DA
:1016F0009A83AB83BC83BC01CD010F900F900F90F8
:101700000F90DF91CF910C94480B8091680280FF7D
:1017100002C08695089580E00895CF93DF9300D0AE
:1017200000D0CDB7DEB780916C02833018F48F5FA4
:1017300080936C028091680290916902A0916A0284
:10174000B0916B0289839A83AB83BC83BC01CD01CA
:101750000F900F900F900F90DF91CF910C94480B4A
:10176000CF93DF9300D000D0CDB7DEB780916C026D
:10177000882319F0815080936C02809168029091C7
:101780006902A0916A02B0916B0289839A83AB834C
:10179000BC83BC01CD010F900F900F900F90DF9193
:1017A000CF910C94480B60912E0170E080916802FB
:1017B00080FF0AC08091BB0123E0829FC0011124F9
:1017C00083599D4F0C94D3118091BA0190912D01B2
:1017D00023E0829FF0011124E359FD4F891750F750
:1017E0001182108212828F5F3396F8CF9091680237
:1017F00090FF14C09091BA0120912D0133E0939F86
:10180000F0011124E359FD4F921710F00C94D30B03
:101810008183608342839F5F3396F6CF0895CF9391
:10182000DF9300D00F92CDB7DEB79091680290FFA2
:101830000AC09E012F5F3F4F0E94260B4B8169819A
:101840008A810E94F60B0F900F900F90DF91CF913D
:101850000895CF93DF93EC01EC81F0E0E255FE4F69
:101860004491E8E6F2E0628181810E940F0C8C8154
:101870008F5F8C83DF91CF910895CF93DF93EC013D
:10188000E8E6F2E0438162818C810E940F0C8C813A
:101890008F5F8C83DF91CF9108950F931F93CF9328
:1018A000DF9300D00F92CDB7DEB78C018091B401E9
:1018B00081110AC09E012F5F3F4F4FEF6FEF0E94D3
:1018C000260B8A818093B401F8016481613049F06C
:1018D0006230F1F08091B40140E0662331F040E0E5
:1018E00019C06091B40140E080E00E94F60BF8015D
:1018F000848190E0019663E070E00E94552D84831E
:101900000F900F900F90DF91CF911F910F9108953D
:101910004091B40180E060E0E8CFAF92BF92CF92F7
:10192000DF92EF92FF920F931F93CF93DF9300D03C
:1019300000D000D00F92CDB7DEB7182FF62E042FAF
:10194000D22E9091680290FF3DC0E92FE695AE2F10
:10195000B0E0A85ABE4F8C918093C3019E7F923015
:1019600009F041C09E012F5F3F4F812F0E94260B3F
:101970004B8169818A810E94F60B809169028113F3
:1019800008C080916A028F1104C080916B02801799
:1019900029F08091C50182608093C501109369028E
:1019A000F0926A0200936B02DD2061F08091680280
:1019B00090916902A0916A02B0916B02BC01CD01C5
:1019C0000E94480B27960FB6F894DEBF0FBECDBF1E
:1019D000DF91CF911F910F91FF90EF90DF90CF900B
:1019E000BF90AF900895823019F400916B02C5CF7B
:1019F000863019F410916902C0CF8930D9F389314A
:101A000009F0BBCFE9518E2F8170C82EE695F0E02A
:101A1000E255FD4FA590B490E12CBB2460912C01C0
:101A2000E61618F00E94D30BA8CF2E2D30E0EA9CCA
:101A3000C001EB9C900D112470E00E94412D812F7C
:101A4000C11013C0860F4091BA01420F532F511D90
:101A50009A01220F331F240F351F23593D4F402F6A
:101A60006F2D0E94260BE394D9CF861BECCF282F35
:101A7000E8E6F2E0818143816281885F0C948D0CFD
:101A800081E00C94370D282FE8E6F2E08181438154
:101A9000628188500C948D0C81E00C94430D282FAA
:101AA000E8E6F2E0628138E0630F08F46FEF43810B
:101AB00081810C948D0C81E00C944F0D282FE8E669
:101AC000F2E0628138E0631B08F460E043818181C9
:101AD0000C948D0C81E00C945E0D282FE8E6F2E06A
:101AE000438138E0430F08F44FEF628181810C9409
:101AF0008D0C81E00C946D0D282FE8E6F2E0438117
:101B000038E0431B08F440E0628181810C948D0C25
:101B100081E00C947C0D20E00C948D0CEF92FF92F0
:101B20001F93CF93DF93EC0110E0EE24EA94F12CA5
:101B300060912C01161770F00E94D30B9A818C8152
:101B400090FF27C08F5F8C83DF91CF911F91FF9013
:101B5000EF9008952091BA01422F410F5527551F4C
:101B6000CA019A01220F331F280F391F23593D4FF5
:101B700070E0C7010E94552D962F8C8140916B0219
:101B800060916A02199F800D11240E94260B1F5F2D
:101B9000CFCF8150D8CF9F92AF92BF92CF92DF929A
:101BA000EF92FF920F931F93CF93DF93EC018A8103
:101BB000BB24BA9480FD02C0BB24B3948C818111F4
:101BC0000AC081E0B81227C080912C018150809317
:101BD000B60181E08C83A12C80912C01A816F0F035
:101BE0000E94D30B8091B60191E0B91259C08111C6
:101BF00052C080912C0181508093B6011C82DF91EC
:101C0000CF911F910F91FF90EF90DF90CF90BF90F9
:101C1000AF909F9008951092B601DBCF0091BA016A
:101C2000CA2CD12C0C0D1D2D111DC801880F991F18
:101C3000080F191F03591D4FF801118210821282DB
:101C400034E0E32EF12C912C8091B601890D87FFB1
:101C500003C090912C01890F082E000C990BC81617
:101C6000D90691F480916B028E9DA0018F9D500D3D
:101C700011245595479555954795980160916A02AD
:101C8000809169020E94260B9B0CF1E0EF1AF1088B
:101C9000D9F6A394A1CF81508093B601BC82AFCF77
:101CA00090E0019660912C0170E00E94552D809388
:101CB000B6018C83A4CFEF92FF920F931F93CF9323
:101CC000DF93EC018C81811109C081E08C8310923B
:101CD000B50192E090932B0180932A018091BA0183
:101CE00090912D0123E0829FF0011124E359FD4FD3
:101CF000891768F110E003E060912C01161768F174
:101D00000E94D30B80912A012091B501280F2093C6
:101D1000B50190912B01980F90932B01191654F453
:101D2000022E000C330B40912C014150550B24170F
:101D3000350734F0819580932A01813009F41C82A3
:101D4000DF91CF911F910F91FF90EF900895118235
:101D5000108212828F5F3396CBCFE12EF12C70E090
:101D6000C7010E94552D2091BA01820F482F50E0E3
:101D70002091B501022E000C330BE216F306BCF0E5
:101D800020912B01022E000C330B2E153F057CF009
:101D9000809F9001112423593D4F40916B02609127
:101DA0006A02809169020E94260B1F5FA5CFFA018B
:101DB000EE0FFF1FE40FF51FE359FD4F1182108254
:101DC0001282F3CF0F931F93CF93DF938C01FC010B
:101DD0008481958101968170992795838483C0E0E1
:101DE000D5E580912C01C81730F0DF91CF911F917C
:101DF0000F910C94D30B2091BA01422F4C0F552711
:101E0000551FCA019A01220F331F280F391F23596A
:101E10003D4F8C2F8695F80144815581840F952F75
:101E2000911D817040916B0260916A028D9F802D9F
:101E300011240E94260BCF5FD4CF0F931F93CF9313
:101E4000DF93EC0110E000E090912C019017110657
:101E500009F06CF40E94D30B8C8190E001968170A4
:101E600099278C83DF91CF911F910F910895209135
:101E7000BA01A801420F511D9A01220F331F240FEE
:101E8000351F23593D4F4C8160916A028091690250
:101E900096959017110651F04CF0442349F040916B
:101EA0006B020E94260B0F5F1F4FCECF4423B9F366
:101EB00040E0F7CF8091C50108951092C5010895C3
:101EC000CF93DF93EC0185E0E8E6F2E0DE010190DC
:101ED0000D928A95E1F78091C3019091C401A09180
:101EE000C5018D839E83AF83DF91CF910895E3EC8D
:101EF000F1E011828281846082830895E8E6F2E055
:101F000080818E7F80830E94770FE3ECF1E08281F5
:101F1000816082832FEF80E792E0215080409040E3
:101F2000E1F700C000000C94D30BCF93DF9300D0F7
:101F300000D0CDB7DEB7E8E6F2E080818E7F808307
:101F400080819181A281B38189839A83AB83BC8391
:101F5000BC01CD010E94480B0E94770FE3ECF1E039
:101F60008281816082839FEFA0E7B2E09150A04020
:101F7000B040E1F700C000000F900F900F900F905D
:101F8000DF91CF910C94D30B60916802669570E05D
:101F90004BE050E08FE291E00E94AB2D892B19F4C9
:101FA00081E08093C4010E940D249093BD01809331
:101FB000BC018091C50184608093C5010895CF93D1
:101FC000DF9300D000D0CDB7DEB79091680290FFCC
:101FD00046C09170811139C09260909368028091DF
:101FE000C50181608093C501662381F080916802FC
:101FF00090916902A0916A02B0916B0289839A83E1
:10200000AB83BC83BC01CD010E94480B6091680288
:10201000669570E04BE050E08FE291E00E94AB2DBE
:10202000892BD1F00E94770F81E08093BF0140910E
:102030006B0260916A02809169020F900F900F907D
:102040000F90DF91CF910C948B0D853210F0986436
:10205000C4CF880F982BC1CF0E94C40FE5CF0F903B
:102060000F900F900F90DF91CF910895682F80917E
:10207000680286958F5F853208F081E00C94DF0F4F
:1020800081E00C943610682F9091680296958FEF3E
:10209000890F913009F484E20C94DF0F81E00C94F5
:1020A000431061E00C94DF0FE8E6F2E0808181608C
:1020B000808386950C9451108091680280FD0C9469
:1020C000950F0C94541060E00C94DF0F8091C201C6
:1020D000811138C0809158028160809358020E941B
:1020E000AC22811104C00E943B230E945C0B0E9421
:1020F000440B609368027093690280936A02909324
:102100006B028091C50183608093C5016E7F61F48D
:102110000E945C0B0E94440B6093680270936902FA
:1021200080936A0290936B020E94350B0E94770F96
:102130008091680280FF03C086950E94631081E051
:102140008093C20108951F93CF93DF93EC01162F64
:102150008F8180FF0CC0888180FF24C0809168023D
:10216000816080936802888186950E94DF0F8F814D
:1021700081FF06C0212F4B816A8189810E948D0CCD
:102180008F8182FF05C08E81882379F00E94C40F61
:102190008F8183FF03C081E08093BF01DF91CF91E6
:1021A0001F9108950E947E0FE2CF0E94770FF0CF1B
:1021B000EF92FF920F931F93CF93DF938091C4010F
:1021C000882309F468C08091C301E0916802E69514
:1021D000E81BE093BE01823009F064C0F0E0E655F0
:1021E000FE4FE491CE2FD0E009E21CE08091BF01C8
:1021F000882389F01092BF010E940D249E01209532
:102200003095280F391F3093BD012093BC011092E7
:10221000C1011092C0018091BC019091BD010E944A
:1022200019248C179D07B8F18091B9018823B1F06A
:102230001092B9018091B7019091B8010E941924C0
:102240008033954758F00E940D249093B8018093F5
:10225000B7018091C50188608093C501E090C001FD
:10226000F090C101E091BC01F091BD01CE0FDF1FE4
:10227000D093BD01C093BC018CEB91E0F8010995AE
:102280008091C0019091C101892B29F4EF2819F0A8
:1022900081E08093B901DF91CF911F910F91FF9061
:1022A000EF900895863049F4F0E0E955FE4FE4914F
:1022B000CE2FD0E00DE31CE099CF893051F4E695A4
:1022C000F0E0EC55FE4FE491CE2FD0E00EE81DE09B
:1022D0008DCF8F3051F4E695F0E0EF55FE4FE4914D
:1022E000CE2FD0E00BEC1DE081CF853149F4F0E03A
:1022F000E256FE4FE491CE2FD0E00BE51EE076CF04
:10230000C8EED3E002EE1EE0883109F46FCF8332CD
:1023100039F4ECE9F1E0C591D4910DE41CE066CF0D
:10232000C4EFD1E00DE11FE0843209F45FCFC0EDCE
:10233000D7E000E21BE05ACF9C01CB0161B3542FE0
:102340005095562361B3462B6FB7F894820F931FB5
:102350002817390711F46FBF0895F90171919F0192
:10236000E8E041BB000000C077FF51BB770F0000E1
:1023700000C000C000C051BB00C0EA9591F7E8CF93
:10238000FC0190B3942B90BB9B01220F331F620F73
:10239000731FCF010E949C1187EC90E00197F1F729
:1023A00000C00000089540E80C94C011CF93DF9363
:1023B000EC0181E0898B8F810E94FA2188850E943F
:1023C0000E220E944922EA81FB81309739F06C8904
:1023D0007D89CE010696DF91CF910994DF91CF914F
:1023E0000895CF93DF93EC01FB018881823029F4BB
:1023F00082810E94CC1F81E08B87DF91CF9108956D
:10240000FB01DC018C91813021F4808191810C945D
:10241000F002823019F482810C94CC1F0895FB01E4
:10242000DC018C91813021F4808191810C94050331
:102430000895EF92FF920F931F93CF93DF93EC01D8
:102440008A85811134C0EB80FC8087E5F81A26E18B
:102450002E9DC0012F9D900D1124DC01A050BF4F77
:102460001496ED91FC911597309731F054966D913B
:102470007C918A5F9E4F099586E18E9D80018F9D9C
:10248000100D112400501F4FF80187810E94002277
:10249000F80180850E9414220E9449221882198620
:1024A0001B861E821D821092C7011092C601DF9109
:1024B000CF911F910F91FF90EF900895DF92EF92CF
:1024C000FF920F931F93CF93DF938C01FB018281C7
:1024D000882391F080913A018F3F71F0C0E0D1E004
:1024E000F12CE12CDD24D39480913A01082E000CCC
:1024F000990B8E159F0544F4DF91CF911F910F9199
:10250000FF90EF90DF9008958E818823C9F0898530
:102510009A858017910739F48091C6019091C7017F
:102520008017910769F0DF861C870B8789898111E5
:1025300003C0CE010E94D611CE0106960E94191248
:10254000FFEFEF1AFF0A6696CFCFEF92FF920F933D
:102550001F93CF93DF938C01FB0197558F3F91051C
:1025600009F0D0F520913A01022E000C330B281708
:10257000390714F480933A01228136E1389F7001C3
:10258000399FF00C1124E701C050DF4F288B928156
:102590008E81992349F11A8709878F5F8E830E9464
:1025A0000D249E878D870E9430228F830E94F72101
:1025B00088870E940B229885982B9887E881F9815B
:1025C000309731F06C897D89C7018A5F9E4F0995EC
:1025D0001093C7010093C60181E0DF91CF911F9155
:1025E0000F91FF90EF9008958823B1F38989882394
:1025F00099F3C7018A5F9E4F0E941912EDCFEF92A7
:10260000FF920F931F93CF93DF9380913A0110E0D5
:1026100006E18F3FC1F5DF91CF911F910F91FF90A0
:10262000EF900895029FF001039FF00D1124E050F8
:10263000FF4FE288F388E114F10419F488ECE82EE6
:10264000F12C029FE001039FD00D1124C050DF4FF9
:102650008E818823B9F08D859E850E941924E81605
:10266000F90680F4109F700111248989811105C039
:10267000C70180509F4F0E94D611C7018A5F9E4FAD
:102680000E9419121F5F212F30E080913A01082E1D
:10269000000C990B821793072CF6BDCF08950C946C
:1026A0004E1325982D9A27982F9A83B185FB88275A
:1026B00080F923B130E0220F232F221F330B90E04B
:1026C000232B09F092E0892B8093CA010895E091B1
:1026D000CA01EE0FEE0FE093CA0183B185FB2227FA
:1026E00020F983B190E0880F892F881F990B0097FC
:1026F00011F082E090E0822BE82BE093CA01EF70AA
:10270000F0E0E358FE4F80819091C801890F8093DB
:10271000C801843024F060E080E00E944F13809173
:10272000C8018D3F24F461E080E00E944F13909136
:10273000C801892F837897FF03C081508C6F8F5F0A
:102740008093C80108952091CA01FC012083089557
:10275000DC01EC91EF70F0E0E358FE4F8081909146
:10276000C901890F8093C901843024F060E081E0C1
:102770000E944F138091C9018D3F24F461E081E0F4
:102780000E944F139091C901892F837897FF03C04E
:1027900081508C6F8F5F8093C90108950F931F93B1
:1027A000CF93DF93C62FD42F022FFC018281882381
:1027B000C9F06093CD010E940D249093CC018093C9
:1027C000CB0180E28C0F883008F050C0C77081E0E8
:1027D00001C0880FCA95EAF7DF91CF911F910F9141
:1027E0000C94C2181091CD01161335C08091CB0105
:1027F0009091CC010E941924883C910560F5C0E2BB
:10280000CD0F1D17B9F080E2810F883040F41770AA
:1028100081E001C0880F1A95EAF70E94C918C830F4
:1028200048F481E09D2F977001C0880F9A95EAF7D0
:102830000E94C218802F0E94AF18C830B8F4D77019
:1028400081E001C0880FDA95EAF7DF91CF911F91FF
:102850000F910C94C91880E28C0F883038F4C7703F
:1028600081E001C0880FCA95EAF7EFCFDF91CF91E1
:102870001F910F9108959C01CB01203F4CE5340737
:1028800069F190F4283DFCE53F0721F1293D4CE535
:10289000340781F1273D3C45B1F0FC01828188235A
:1028A00061F11092CD010895223FFCE53F07D1F080
:1028B000233F4CE53407D1F0213F3C4571F727E237
:1028C00045EE64EE03C026E241EE61EE0E94CE13B7
:1028D00080E0089527E245EE65EEF8CF26E241EE6E
:1028E00060EEF4CF26E241EE62EEF0CF27E245EE55
:1028F00066EEECCF28E241E0EFCF81E008958EE173
:10290000489B02C08150E1F7489BFECF089558983C
:1029100080E28A95F1F7589A0895FC013BE03A95D8
:10292000F1F720E090E080E031E040E14A95F1F7F6
:10293000880F489B02C08160232742E04A95F1F747
:10294000000040E14A95F1F79F5F6913EECF90E1F7
:102950009A95F1F799B132E03A95F1F7000040E12C
:102960004A95F1F7917092272081920F90830895F4
:10297000EF92FF920F931F93CF93DF930F92CDB7F8
:10298000DEB719828C017C01E60EF11C0E151F05C5
:1029900061F481E09981911180E00F90DF91CF91F6
:1029A0001F910F91FF90EF9008950E947F1468E0AF
:1029B000CE0101960E948D14F80181938F01E6CF1C
:1029C0009093D0018093CF016093CE01509A589A92
:1029D00008959093D0018093CF016093CE015098D9
:1029E000589AE89AE9E6F0E080818C7F8083089528
:1029F0006150770B91E001C0990F6A95EAF720E0EA
:102A000031E0911108C0222391F0589A80E28A9512
:102A1000F1F758980895492F482339F0589A2327F9
:102A200040E24A95F1F79695ECCF5898F9CF58982F
:102A3000EDCFFF920F931F93CF93DF93EC018C01A7
:102A4000060F111DC017D10731F4DF91CF911F91EF
:102A50000F91FF900895F9900E94871468E08F2DE0
:102A60000E94F814EFCF1F920F920FB60F9211240D
:102A70000F931F932F933F934F935F936F937F9386
:102A80008F939F93AF93BF93EF93FF93CF93DF9376
:102A90000F92CDB7DEB719820E947F1467E0CE0196
:102AA00001960E948D14082F069506950695982F7D
:102AB00092959570202F2570920F292F237096954F
:102AC00096958770920F891344C08981811141C006
:102AD0008091CE018017E8F120E12A95F1F7589A0C
:102AE000509A82E08A95F1F700C0A8E00A9FC001E1
:102AF00011240091CF011091D001080F191F58988F
:102B0000F8016581662321F0868197810E9419155D
:102B10000E948714F0E1FA95F1F758985098589A66
:102B200020E12A95F1F7D80112966C91129766234D
:102B300031F113968D919C910E94B814D801ED91BA
:102B4000FC91882311F088E001C082E080830E941C
:102B50007F140F90DF91CF91FF91EF91BF91AF91D3
:102B60009F918F917F916F915F914F913F912F91A5
:102B70001F910F910F900FBE0F901F901895ED9120
:102B8000FC91E1CF0F931F93CF93DF939C01809132
:102B9000CE01821713060CF471C0890183E0000F87
:102BA000111F8A95E1F7C091CF01D091D001C00FDC
:102BB000D11FF894509A589885E08A95F1F7000053
:102BC000922F969595702570920F892F8370969508
:102BD0009695980F092B0E94871400C067E0802FFC
:102BE0000E94F81480E18A95F1F75098589A489B12
:102BF00017C087E090E0489915C06D81662321F1E8
:102C00008E819F810E94B81481111EC0509A589ADB
:102C1000E881F98182E08083789482E090E00DC0C1
:102C200000C0E5CF019771F4509A589AE881F98174
:102C300081E08083789481E090E0DF91CF911F91D3
:102C40000F91089500C0D7CF0E947F1480E28A952B
:102C5000F1F75898509A80E18A95F1F76A816623D6
:102C600021F08B819C810E9419150E948714E881B4
:102C7000F9811082789490E080E0DFCF84E090E0EA
:102C8000DCCF9093D6018093D5010895E091D501D2
:102C9000F091D601309721F00190F081E02D099458
:102CA00080E00895E091D501F091D601309721F0B0
:102CB0000280F381E02D099408952091D301309191
:102CC000D4012817390771F09093D4018093D30170
:102CD000E091D501F091D601309721F00680F7817F
:102CE000E02D099408952091D1013091D201281747
:102CF000390771F09093D2018093D101E091D50111
:102D0000F091D601309721F00084F185E02D0994EF
:102D1000089585B7806885BF85B7806885BF0895A9
:102D200008950C94901608950C9493160E94891699
:102D30000E94F4090C9491160E9404240E948408B5
:102D40000E9486240E9486250E9466100C94941688
:102D5000BF92CF92DF92EF92FF920F931F93CF9388
:102D6000DF9300D000D00F92CDB7DEB70E94680984
:102D70000E94D909882309F470C088EDC82E81E02B
:102D8000D82E10E000E0E02E802F0E947D08B82EA3
:102D9000F601F1906F01F81609F459C080915802BC
:102DA00081FD0E94830830E020E0FB244F2D50E09D
:102DB000922FBA01022E02C0759567950A94E2F728
:102DC00060FF3FC02983EA8221E030E0790102C040
:102DD000EE0CFF1C9A95E2F72B2D30E02E213F21BF
:102DE00081E0232B09F480E08B830E940D24816015
:102DF000782F9D838C8349815A816B818D810E94BC
:102E00004D17F801E852FE4F80818E2580830E9485
:102E100046169091D701891789F10E944616809332
:102E2000D7010F900F900F900F900F90DF91CF91DF
:102E30001F910F91FF90EF90DF90CF90BF900C9477
:102E4000F7032F5F3F4F2630310509F0B1CF0F5FF9
:102E50001F4F0A30110509F096CF8FEF89838A83BF
:102E60001B820E940D248160782F9D838C83498171
:102E70005A816B818D810E944D17C9CF0F900F90A1
:102E80000F900F900F90DF91CF911F910F91FF90B6
:102E9000EF90DF90CF90BF900895CF93DF93CDB7A1
:102EA000DEB72B970FB6F894DEBF0FBECDBF4F83B2
:102EB000588769877A878B871E8285E0FE0137965F
:102EC000DE01119601900D928A95E1F749815A81B0
:102ED0006B817C818D819E812B960FB6F894DEBF2D
:102EE0000FBECDBFDF91CF910C94171EFC018081E6
:102EF00091810C949C21CF93C82F882309F4DEC0C4
:102F00008238C1F40E94461681FDD8C089E30E9430
:102F1000D2210E9449222FEF81EE94E0215080407F
:102F20009040E1F700C0000089E30E94D921CF91D1
:102F30000C9449228338A1F40E94461680FDBEC03D
:102F400083E50E94D2210E9449222FEF81EE94E076
:102F5000215080409040E1F700C0000083E5E5CFBC
:102F60008438A1F40E94461682FDA8C087E40E941E
:102F7000D2210E9449222FEF81EE94E0215080401F
:102F80009040E1F700C0000087E4CFCF8CEF8C0FBA
:102F9000813A48F48C2F0E944E2581118FC08C2FCE
:102FA0000E94D221C4CF80E28C0F883048F4C770D1
:102FB00081E001C0880FCA95EAF70E94FA21B7CFD5
:102FC0008BE58C0F833068F481E890E0C53A31F0EE
:102FD00083E890E0C63A11F482E890E0CF910C9437
:102FE0005D1688E58C0F873108F068C082EE90E0AE
:102FF000C83A09F460C089EE90E0C93A09F45BC0B0
:103000008AEE90E0CA3A09F456C085EB90E0CB3ADC
:1030100009F451C086EB90E0CC3A09F44CC083EB44
:1030200090E0CB3B09F447C084EB90E0CC3B09F443
:1030300042C087EB90E0CD3AF1F18CEC90E0C03BE0
:10304000D1F18DEC90E0CE3AB1F183E891E0CF3A46
:1030500091F18AE891E0C13B71F182E991E0C23BD4
:1030600051F184E991E0C33B31F181E292E0C43B4C
:1030700011F183E292E0C53BF1F084E292E0C63BBD
:10308000D1F085E292E0C73BB1F086E292E0C83B26
:1030900091F087E292E0C93B71F08FE690E0CD3B82
:1030A00051F080E790E0CE3B31F090E080E0CA3B09
:1030B00011F48AE292E0CF910C947316CF910895A7
:1030C000882309F44BC0823871F40E94461681FFB0
:1030D00045C089E30E94D2210E94492289E30E94CF
:1030E000D9210C944922833859F40E94461680FF56
:1030F00035C083E50E94D2210E94492283E5EFCFAB
:10310000843859F40E94461682FF28C087E40E9442
:10311000D2210E94492287E4E2CF9CEF980F913A96
:10312000F0F290E2980F983050F4877091E001C06F
:10313000990F8A95EAF7892F0E940022D2CF9BE54A
:10314000980F933020F490E080E00C945D16885A3C
:10315000873120F490E080E00C9473160895CF93AB
:10316000C82F0E947B17C93349F42FEF87EE93E0F5
:10317000215080409040E1F700C000008C2FCF919B
:103180000C946018882321F00E94FA210C944922A3
:103190000895882321F00E9400220C94492208956A
:1031A000BF92CF92DF92EF92FF920F931F93CF9334
:1031B000DF9300D000D00F92CDB7DEB76C016D83E6
:1031C0007983FC01058102950F70128111110E9413
:1031D0001C220E94F021E82E882371F01123B1F007
:1031E0008D81805E883090F082E00E9494220E945F
:1031F000F02191E0E82EE926B980B2949FE0B9224F
:10320000EB2DF0E0EF5CF14D0C948B2DE12CF4CF25
:1032100009810F70F981F07F11F00295007F112371
:10322000B1F0002361F08D81805E883018F02D812F
:10323000211109C0802F0E94FA210E9449228D810C
:103240000E947B1715C0802F0E940E22F6CF8D8121
:103250000E946018002361F08D81805E883018F034
:103260004D81411133C0802F0E9400220E944922CB
:1032700078E0B71629F096E09B0D9F70923020F40D
:103280000E9446160E94F703EE2009F4ECC10E944A
:10329000EC2180FDE8C1F60112820E94E6210E9425
:1032A000F11FC6010E94421B0E94E6210F900F9061
:1032B0000F900F900F90DF91CF911F910F91FF9082
:1032C000EF90DF90CF90BF900C942220802F0E942F
:1032D0001422CCCF59815F70F52E6981607F6032F6
:1032E00019F0F29480EFF8227D81772369F0713034
:1032F00049F1112391F1002351F1F601858180FFFD
:103300009ECF8F70858323C0112381F0011106C0E9
:103310000E9430228F290E94C218AACF0130C1F723
:103320000E9430228F290E943622A2CF011106C0AE
:103330000E943F228F2D0E94C9189ACF013009F4B4
:1033400097CFF6CF112329F0063008F091CF8F2DBB
:10335000E2CF053008F08CCFEDCF002359F3FD818B
:10336000F93349F42FEF47EE53E0215040405040ED
:10337000E1F700C000008D810E94601879CF89813B
:1033800086958695837069F0813009F071CF8D81C3
:1033900099819370111102C090E080E00E94731631
:1033A00067CF8D8199819370111102C090E080E008
:1033B0000E945D165DCF8981837009F050C01111A4
:1033C00057CF4D81429546954770440F440F8D81EC
:1033D0008F7090E0B0E0A0E0042E04C0880F991F29
:1033E000AA1FBB1F0A94D2F76D8100E010E098017C
:1033F00064FF0FC00FE010E020E030E004C0000FD9
:10340000111F221F331F4A95D2F700951095209562
:10341000309579817695769573707D83B901A80191
:10342000482B592B6A2B7B2B49835A836B837C83D4
:103430005D8169817A818B819C81523051F053305A
:1034400059F0513019F00E94671F12CF0E943F1FA0
:103450000FCF0E948F1F0CCF0E943D1F09CF869572
:10346000112311F089818170882309F401CF4D81E6
:10347000429546954770440F440F8D818F7090E0C0
:10348000B0E0A0E0042E04C0880F991FAA1FBB1F44
:103490000A94D2F76D8100E010E0980164FF0FC03C
:1034A0000FE010E020E030E004C0000F111F221FE9
:1034B000331F4A95D2F70095109520953095798164
:1034C0007695769573707D83B901A801482B592BA9
:1034D0006A2B7B2B49835A836B837C835D81698153
:1034E0007A818B819C81523051F0533059F05130A8
:1034F00019F00E94B020BCCE0E948820B9CE0E9454
:10350000D820B6CE0E94BB1FB3CE6D81623F09F4B6
:1035100048C080F4603F81F1613FE1F1862F805E19
:103520008031D8F0112309F457C0011188CE898168
:103530008F7134C07D81733FD9F1743F99F71123A6
:1035400009F440C099819F719983892F0E94F11FCE
:1035500063E089810E947F228BCE8D818F708D8365
:1035600089818F71112321F00E94F11F8D81D3CEAB
:103570000E9422208D81DFCE112341F0053008F01A
:1035800077CE89818F710E94572072CE063008F065
:103590006FCEF7CF89818F71112339F00E94F11F0F
:1035A00067CE89818F711123C9F30E94222060CEDA
:1035B000112329F089818F710E94CC1F59CE0E945E
:1035C000C71F56CE81E00E949422023008F450CEEC
:1035D00082E00E9494224CCE002361F0ED81E93319
:1035E00009F0C9CEFFEF27EE43E0F1502040404004
:1035F000E1F7BFCE89818F71D8CF49814F706D813E
:10360000C6010E94CA050E94B11E32CE111130CEF1
:1036100059815F7059835330D1F048F4513089F0AB
:10362000523091F0511124CE0E94A22521CE698101
:10363000643081F080E0653009F01ACE0E943426B3
:1036400017CE0E94C02514CE0E94002611CE0E94E3
:103650000B260ECE85E0F2CF49814F706D81C601F9
:103660000E94CD0505CE0F900F900F900F900F90F8
:10367000DF91CF911F910F91FF90EF90DF90CF904E
:10368000BF9008950F931F93CF93DF93EC018B812D
:103690009C81892B29F08881998189238F3F29F486
:1036A000DF91CF911F910F910895CE010E940904DF
:1036B0008823B1F3688179818A810E94A8218C01D5
:1036C0000E9400210E943C1FB801CE01DF91CF91E2
:1036D0001F910F910C94D0180E941C220E942D2241
:1036E0000E94492290E080E00E945D1690E080E018
:1036F0000C9473160E94E0210C946C1B0E9408220B
:103700000C947A1B282F892F82958F70903C80F41F
:103710008A30B0F4843020F4823090F480E0089550
:103720008630E1F781E0203E88F0213FB9F70EC0F6
:103730008C3011F08F3091F793FB882780F9089532
:1037400081E0203F39F018F4203E40F70895243FEF
:1037500029F7FCCF08950E949C210C94821BCF93E3
:10376000DF9300D000D00F92CDB7DEB70F900F904F
:103770000F900F900F90DF91CF910895CF93DF932B
:1037800000D000D000D0CDB7DEB726960FB6F894A3
:10379000DEBF0FBECDBFDF91CF9108951F93CF93B2
:1037A000DF93E091E30116E08091E4018E1304C001
:1037B000DF91CF911F910895CE2FD0E01E9FF00191
:1037C0001124EB51FE4F40815181628173818481CC
:1037D00095810E94BE1BFE013196E770E5CF4091B6
:1037E0001502509116026091170270911802809193
:1037F000190290911A020C94BE1B1F93CF93DF9372
:1038000080911A02807FC1F4809117028823A1F071
:103810008091E301C091E40160911502709116025C
:103820004091180250911902D62FD723DA01A095A2
:10383000B09516E0C81304C0DF91CF911F91089591
:1038400090E04115510511F0DF3F31F4019687708A
:10385000F1CF2A0F3B1F17C0189FF001199FF00DE1
:103860001124EB51FE4F21812713F0CF2081261325
:10387000EDCF22812111EACF23813481241735072E
:1038800040F3241B350B283C310500F720911A0228
:103890002F70206120931A0226E0289FF001299FB3
:1038A000F00D1124E651FE4F80818F70806180837E
:1038B00085E192E00E94421BDF91CF911F910C9411
:1038C000CE1B9F92AF92BF92CF92DF92EF92FF9268
:1038D0000F931F93CF93DF93CDB7DEB72B970FB620
:1038E000F894DEBF0FBECDBF8C0185E0F801DE018C
:1038F000179601900D928A95E1F7D8014C91119697
:103900005C9111971296EC90129780911802909109
:103910001902009709F46CC120911502309116022A
:10392000632F62236F3F09F463C11396CD90DC903F
:1039300090901702992009F4FAC0C816D90608F425
:103940003FC0F601E81BF90BCF01FF24F394883C3C
:10395000910508F0F12C85E1A82E82E0B82E809127
:103960001A02982F907FFF2009F4B9C0911180C0EE
:10397000FE2C35132AC0241328C0E11026C08F70F6
:10398000806180931A020E94EF1BC5010E94421BB6
:1039900080911A02D80115968C938F2D2B960FB615
:1039A000F894DEBF0FBECDBFDF91CF911F910F9175
:1039B000FF90EF90DF90CF90BF90AF909F900895D1
:1039C000809590958C0D9D1DC0CFCD2829F0842F1A
:1039D00085238F3F09F028C180E0B82FB170DB2E1E
:1039E000E091E3012091E40136E080FD1CC0EE206F
:1039F000A1F280911A02816080931A02F12CCDCF3E
:103A00008E2F90E03E9FF0011124EB51FE4F61811B
:103A1000651306C06081641303C062816E11E7CF35
:103A2000FC013196E770E213EBCF4F8358878F810B
:103A300098850E949C21292F22952F70903260F04A
:103A4000225F2F70223078F49F7051F0F801958139
:103A5000907F31F4D12C0AC09F7011F08823D1F3EC
:103A6000805E8830B8F3C8010E94421BFD2C95CFC0
:103A7000351306C0241304C0D801EE2009F47CC01D
:103A80004F8358878F8198850E94AB1B882319F13B
:103A9000EE2009F180911A02803270F02091150217
:103AA000309116023A8329831B82DD82CC828E8379
:103AB000CE0101960E94421B86E0F801A5E1B2E02A
:103AC00001900D928A95E1F70E94FD1B0E94EF1B69
:103AD000FF24F39462CFC8010E94421BF9CF9111D9
:103AE00013C07C2DDB86CA866E2D8B850E94AF1B92
:103AF00085E192E00E94421B86E0F50111928A95D1
:103B0000E9F70E94EF1B49CF3513BACF2413B8CF82
:103B1000E110B6CFD80115968C93C8010E94421BC4
:103B200086E0F50111928A95E9F7F92C36CFC8168F
:103B3000D90680F1B601681B790BCB01F12C883CCA
:103B4000910508F046C0FE2CEE2029F2351330C056
:103B500024132EC080911A0280FD21C0982F907FDF
:103B6000F1F0D80115968C931597903F39F0982F66
:103B7000907F905F8F70892B15968C93C8010E945F
:103B8000421B86E0F801A5E1B2E001900D928A9512
:103B9000E1F7B7CF809590958C0D9D1DCFCF86E036
:103BA000F801A5E1B2E001900D928A95E1F7F5CE1A
:103BB0004F8358878F8198850E94AB1B81117CCFE2
:103BC00080911A02816080931A02C8010E94421BF0
:103BD000E4CE7C2DDB86CA866E2D8B850E94AF1BC2
:103BE00086E0E5E1F2E0DF011D928A95E9F789CFF1
:103BF000EE2009F470CF4F8358878F8198850E94FB
:103C0000AB1BF82E882309F466CF86E0F801A5E106
:103C1000B2E001900D928A95E1F785E192E00E9471
:103C200076170E94FD1B6DCF81E08E25D6CE1F93A7
:103C3000CF93DF93CDB7DEB72C970FB6F894DEBFE6
:103C40000FBECDBF4F83588769877A878B879C8744
:103C5000CE0107960E94611C882369F08A859B85A6
:103C6000892B39F04F815885842F85238F3F09F0A8
:103C700071C016E05FC086E0FE013796DE01119646
:103C800001900D928A95E1F78A859B85892B89F3AE
:103C900088859F8189238F3F61F32091E40130E083
:103CA000C9010196877099274091E30148171906C9
:103CB00071F40E947E1B1092E4011092E30186E0F1
:103CC000E5E1F2E0DF011D928A95E9F7D2CF96E0B7
:103CD000929FD001939FB00D1124AB51BE4FFE01B6
:103CE000319601900D929A95E1F78093E4010E943C
:103CF000CE1BBFCF819FC00111248B519E4F0E94CC
:103D0000611C8823E9F0E091E3011E9FF00111247A
:103D1000EB51FE4F40815181628173818481958195
:103D20000E94BE1B8091E30190E001968770992765
:103D30008093E3018091E3019091E4018913DACF4C
:103D40002C960FB6F894DEBF0FBECDBFDF91CF919A
:103D50001F91089569857A858B859C850E94BE1B7D
:103D600088CFEF92FF920F931F93CF93DF938C0135
:103D7000892B89F0F12CEE24E394E8012196F801D7
:103D80008491843709F457C0A0F4823009F43EC00E
:103D900048F48130D1F0DF91CF911F910F91FF90C6
:103DA000EF9008959CEF980F9037A8F70E947B172B
:103DB0000AC0853709F44CC09CE7980F903758F734
:103DC0008F770E9460188E0116C00E5F1F4FFE0194
:103DD000849190E2980F983060F48770FE2D01C0B6
:103DE000FF0F8A95EAF78F2F0E941F220E94492217
:103DF00002C00E947B178F2D815008F4BECFEFE9DF
:103E0000FFE03197F1F700C00000F6CF0E5F1F4FC3
:103E1000FE01849190E2980F983050F48770FE2D47
:103E200001C0FF0F8A95EAF78F2F0E942522DECF6F
:103E30000E946018E0CF0E5F1F4FFE01C491C15079
:103E4000D0F28FE99FE00197F1F700C00000F7CFB3
:103E50000E5F1F4FFE01F490CECF08950C942D1FDE
:103E60000E942E1F6093470270934802809349027C
:103E700090934A020C946C1B08950C94301FCF93BE
:103E8000DF9300D000D0CDB7DEB769837A838B8310
:103E90009C838091470290914802A0914902B09181
:103EA0004A0229813A814B815C81282B392B4A2B8C
:103EB0005B2B29833A834B835C83CA01B9010F9042
:103EC0000F900F900F90DF91CF910C94301FCF93F4
:103ED000DF9300D000D0CDB7DEB769837A838B83C0
:103EE0009C838091470290914802A0914902B09131
:103EF0004A0229813A814B815C81282339234A2354
:103F00005B2329833A834B835C83CA01B9010F90F9
:103F10000F900F900F90DF91CF910C94301FCF93A3
:103F2000DF9300D000D0CDB7DEB769837A838B836F
:103F30009C838091470290914802A0914902B091E0
:103F40004A0229813A814B815C81282739274A27F7
:103F50005B2729833A834B835C83CA01B9010F90A5
:103F60000F900F900F90DF91CF910C94301F0C9415
:103F70002D1F0C94B71F0E94B91F609343027093CA
:103F8000440280934502909346020C946C1B60E0BF
:103F900070E0CB010C94BB1F0F931F93CF93DF9363
:103FA00000D000D0CDB7DEB741E050E060E070E077
:103FB0008A019B0104C0000F111F221F331F8A9525
:103FC000D2F709831A832B833C83C901B8010F9070
:103FD0000F900F900F90DF91CF911F910F910C9444
:103FE000BB1F0F931F93CF93DF9300D000D0CDB7AB
:103FF000DEB741E050E060E070E004C0440F551FC0
:10400000661F771F8A95D2F78091430290914402F0
:10401000A0914502B09146028A019B01082B192B01
:104020002A2B3B2B09831A832B833C83C901B801BC
:104030000F900F900F900F90DF91CF911F910F91E4
:104040000C94BB1F0F931F93CF93DF9300D000D02E
:10405000CDB7DEB741E050E060E070E004C0440F4F
:10406000551F661F771F8A95D2F74095509560952A
:1040700070958091430290914402A0914502B091C5
:1040800046028A019B01082319232A233B23098323
:104090001A832B833C83C901B8010F900F900F90B6
:1040A0000F90DF91CF911F910F910C94BB1F0F9335
:1040B0001F93CF93DF9300D000D0CDB7DEB741E0A0
:1040C00050E060E070E004C0440F551F661F771F8A
:1040D0008A95D2F78091430290914402A0914502C3
:1040E000B09146028A019B01082719272A273B27FE
:1040F00009831A832B833C83C901B8010F900F9069
:104100000F900F90DF91CF911F910F910C94BB1FD7
:10411000CF93DF9300D000D0CDB7DEB769837A8329
:104120008B839C838091430290914402A09145022D
:10413000B091460229813A814B815C81282B392B31
:104140004A2B5B2B29833A834B835C83CA01B901D9
:104150000F900F900F900F90DF91CF910C94BB1F99
:10416000CF93DF9300D000D0CDB7DEB769837A83D9
:104170008B839C838091430290914402A0914502DD
:10418000B091460229813A814B815C8128233923F1
:104190004A235B2329833A834B835C83CA01B90199
:1041A0000F900F900F900F90DF91CF910C94BB1F49
:1041B000CF93DF9300D000D0CDB7DEB769837A8389
:1041C0008B839C838091430290914402A09145028D
:1041D000B091460229813A814B815C812827392799
:1041E0004A275B2729833A834B835C83CA01B90141
:1041F0000F900F900F900F90DF91CF910C94BB1FF9
:104200000895292F220FE22FE90FEE0FE80F8E2FCE
:10421000877041E001C0440F8A95EAF7E695E6957C
:10422000E69585E0E89FF0011124E55EFD4F30E062
:1042300020E070E05191DF011197CB01022E02C006
:10424000969587950A94E2F7817081958527842356
:1042500085278C932F5F3F4F2530310559F70895FF
:10426000292F220FE22FE90FEE0FE80F9E2F9770F4
:10427000E695E695E69585E0E89FF0011124E55E78
:10428000FD4F50E040E080E0219130E0092E02C077
:10429000369527950A94E2F721703327042E01C042
:1042A000220F0A94EAF7822B4F5F5F4F453051058A
:1042B00059F70895BF92CF92DF92EF92FF920F933A
:1042C0001F93CF93DF938C01C0904302D0904402A0
:1042D000E0904502F090460280914702909148029A
:1042E000A0914902B0914A02C82AD92AEA2AFB2A97
:1042F000CFE1D0E0BC2ED701C6010C2E04C0B6958C
:10430000A795979587950A94D2F780FD0EC02197BF
:1043100088F7B12C8B2DDF91CF911F910F91FF90DA
:10432000EF90DF90CF90BF900895B8018C2F0E943E
:10433000EA05019761F3EECFCF93DF93D82FC92F12
:104340000E945A216D2F7C2FDF91CF910C94EA05AA
:104350001F93CF93DF93162FD72F9091E2019923CC
:1043600039F0862F972FDF91CF911F910C949C21CC
:10437000882391F0862F972F0E945A21C82F682FEB
:10438000812F9D2F0E940121612F7D2F8C2FDF9186
:10439000CF911F910C94EA05862F972F0E94302110
:1043A000C82FF2CF682F80913B0190913C010C9473
:1043B0007823682F80913B0190913C010C947A23E3
:1043C00080913B0190913C010C947C2380914B02A5
:1043D000859585958595089580914B028770089500
:1043E00090914B02977081E009F480E008958091EC
:1043F0005702089590915702982B90935702089571
:10440000982F9095809157028923809357020895A1
:104410001092570208958091560208959091560285
:10442000982B909356020895982F9095809156025C
:104430008923809356020895109256020895909110
:104440005502982B909355020895982F909580913E
:1044500055028923809355020895109255020895BC
:1044600080914C02089508950C94332290914C024F
:10447000981721F080934C020C9434220895809177
:104480004C02882329F010924C0280E00C943422D4
:104490000895E0913B01F0913C01809157028083A7
:1044A000E0913B01F0913C01808190915602892B73
:1044B0008083E0913B01F0913C0180819091550215
:1044C000892B808390914C02992381F0E0913B01EC
:1044D000F0913C018081892B808380913B019091F8
:1044E0003C010E943D2381110E943F2280913B01AB
:1044F00090913C010C94521608950C947C2298E003
:10450000899F90011124622B60934B020E94F11F3E
:1045100080914B028595859585950C947D2210920E
:104520004B0280E00C947D2290914B028095892370
:1045300080934B02282F277071F4282F082E000C2F
:10454000330B9217130639F08595859585950E9452
:1045500022200C948F22089590E080E00E94C62DC6
:104560009C0181E02D3E3E4F09F080E0089582E0FD
:1045700090E00C94B82D83E090E00C94B82D84E08A
:1045800090E00C94B82D682F84E090E00C94CC2D32
:1045900086E090E00C94B82D682F86E090E00C94B3
:1045A000CC2DAB01BC018FE090E00C94DE2DAB0173
:1045B000BC0183E190E00C94DE2D60E070E0CB0163
:1045C0000C94D72260E070E0CB010E94D1220C94C1
:1045D000DD226DEE7EEF90E080E00E94EA2D60E04B
:1045E00082E090E00E94CC2D60E083E090E00E94A9
:1045F000CC2D10924702109248021092490210925C
:104600004A0260E084E090E00E94CC2D60E085E00A
:1046100090E00E94CC2D60E086E090E00E94CC2DDE
:104620006FEF87E090E00E94CC2D40E050E0BA01AF
:1046300088E090E00E94DE2D60E08DE090E00E9436
:10464000CC2D40E050E0BA0188E190E00E94DE2DE0
:1046500060E087E190E00E94CC2D40E050E0BA019C
:104660008CE190E00E94DE2D60E080E290E00E940C
:10467000CC2D0C94E2220C94E922AC019C012E5F1B
:104680003F4F485F5F4F80E02417350709F40895D6
:10469000F90191919F019923B9F38F5FF5CF9C01A7
:1046A000FC0132968FEF90E04191461751F08F3F19
:1046B00019F4411101C0892F9F5F9630A9F78F3FF0
:1046C00009F40895280F311D87FD3A95F901628399
:1046D00008959C01FC013296285F3F4F819186131B
:1046E00003C0DF0111971C92E217F307B9F7089591
:1046F0000C944F230C946923FC01329686E0DF0171
:104700001D928A95E9F70895089508950C948523DC
:104710000E94862380919C02843061F1109259029C
:1047200088E190E020E40FB6F894A89580936000AB
:104730000FBE2093600080E00E94700380E00E9422
:10474000F7030E94862383B7817F846083BF83B78A
:10475000816083BF7894889583B78E7F83BF0FB6BF
:10476000F894A89580916000886180936000109211
:1047700060000FBE08950895CF930E9484230E9485
:1047800068090E94BB23C0E08C2F0E947D08811124
:1047900005C0CF5FCA30C1F7CF91089581E0FCCF4B
:1047A00008950C94D0230E947E1B0E9486250E94AF
:1047B00046160E94F7030C94D1231F921FB61F9236
:1047C00011248F939F93AF93BF93809159028111CE
:1047D00013C08091910290919202A0919302B091A6
:1047E00094024196A11DB11D809391029093920273
:1047F000A0939302B0939402BF91AF919F918F9138
:104800001F901FBE1F90189582E084BD93E095BD58
:104810009AEF97BD80936E0008952FB7F89480911A
:10482000910290919202A0919302B09194022FBFB5
:104830000895CF92DF92EF92FF929C014FB7F894C8
:104840008091910290919202A0919302B091940272
:104850004FBF6C017D01EE24FF24A90170E060E0F0
:10486000C416D506E606F70638F0821B930BFF90B8
:10487000EF90DF90CF9008950197F7CF78941F9233
:104880001FB61F9211248F939F93AF93BF93809174
:10489000910290919202A0919302B091940201969C
:1048A000A11DB11D8093910290939202A093930257
:1048B000B0939402BF91AF919F918F911F901FBEB3
:1048C0001F90189581E08093E00080E28093D800EB
:1048D0001092C9008FE19EE40197F1F700C000003B
:1048E00087E090EBDC018093A5029093A602A09351
:1048F000A702B093A80288E19CE00FB6F894A895AF
:10490000809360000FBE90936000FFCFCF93DF9342
:1049100000D000D0CDB7DEB70E94AC22811102C01A
:104920000E943B230E94B722809358020E94BF221C
:1049300090E090939602809395020E94BB22282FCC
:1049400030E050E040E029833A834B835C83CA0126
:10495000B9010F900F900F900F90DF91CF910C94B1
:104960003D1F0F931F93CF93DF9300D000D0CDB79F
:10497000DEB741E050E060E070E08A019B0104C0D6
:10498000000F111F221F331F8A95D2F709831A8344
:104990002B833C83C901B8010E943D1F0F900F90EB
:1049A0000F900F90DF91CF911F910F910C947E1B70
:1049B0008B3258F48530C0F0EBEFE80FE632A0F40C
:1049C000F0E0EF5BF14D0C948B2D833450F48A337F
:1049D00008F05CC0853309F455C0883329F481E0C0
:1049E0000895833409F44EC080E008950E943B236B
:1049F000F6CF80915802807F8093580281E08093A7
:104A00005A0208950E947E1B2FEF83ED90E3215000
:104A100080409040E1F700C000000E946224DFCF98
:104A200090915802892F8E7F90FF81608093580269
:104A300080FDD5CF817F80935802D1CF90915802CD
:104A4000892F8D7F91FF82608093580281FFC7CFAD
:104A5000809158028160EFCF90915802892F8B7F0F
:104A600092FF84608093580282FDF2CFB8CF90917C
:104A70005802892F877F93FF88608093580283FDB7
:104A8000E7CFADCF80E00E94B124A9CF8953FBCFFF
:104A90008D51F9CF80E008950C944A25CF93C82F0B
:104AA00080915A02882331F0813099F010925A0295
:104AB00080E00DC00E94F7218232D1F78C2F0E9436
:104AC0004A25811119C08C2F0E94D8248170CF9162
:104AD00008950E94F721823289F38C2F0E944C2581
:104AE000811112C0C93229F050F4CB3069F0C431C1
:104AF00069F710925A0206C081E090E0E7CF81E0AA
:104B0000C83321F380E0E2CF81E0E0CF0E94AC2205
:104B1000811102C00E943B230E94C8228093970209
:104B2000803320F08770886280939702909197027B
:104B3000892F817090FF04C0892F86958695869570
:104B40000C94700380919702982F96959695969560
:104B5000883240F49F5F990F990F990F8770892BC6
:104B600080939702809197028160809397020E94C0
:104B7000CC22809197028695869586950C94700339
:104B800080919702982F987F79F0885080939702B0
:104B9000887F91E009F490E08091970290FB80F982
:104BA000809397020E94CC228091970286958695E9
:104BB00086950C9470038091970280FD13C08160EC
:104BC00080939702813019F489E080939702809155
:104BD00097020E94CC2280919702869586958695B1
:104BE0000C94700308958091970280FF08C08E7F17
:104BF000809397020E94CC2280E00C947003089569
:104C00008091970280FD0C94F3250C94DB25809114
:104C100097028170089590919702892F86958695C5
:104C200086958F5F8F7197708630D8F4880F880FC4
:104C3000880F892B8093970280919702887F91E05B
:104C400009F490E08091970290FB80F9809397029D
:104C50000E94CC22809197028695869586950C9429
:104C6000700390939702E8CF863008F085E0982F84
:104C7000990F990F990F809197028770892B8093D4
:104C80009702887F91E009F490E08091970290FB71
:104C900080F9809397020E94CC228091970286959A
:104CA000869586950C9470038091970286958695DB
:104CB0008695089580916302089508950F931F9338
:104CC000CF93DF9300D00F92CDB7DEB78C010E9457
:104CD0008C28823011F0843021F584E089830A83A6
:104CE0001B8382E08093E9008FEF9091E800815070
:104CF00095FD06C095ED9A95F1F700008111F5CF6D
:104D00008091E80085FF0DC050E040E063E070E076
:104D1000CE0101960E94A9288091E8008E778093A9
:104D2000E8000F900F900F90DF91CF911F910F919E
:104D30000895CF93DF9300D00F92CDB7DEB79C01DB
:104D400080919C02843031F583E0898320583109B9
:104D50003B832A8382E08093E9008FEF9091E80003
:104D6000815095FD06C095ED9A95F1F700008111EF
:104D7000F5CF8091E80085FF0DC050E040E063E092
:104D800070E0CE0101960E94A9288091E8008E77FC
:104D90008093E8000F900F900F90DF91CF910895CE
:104DA000CF93DF93D82FC92F0E948C28823011F027
:104DB000843049F581E08093E9008FEF9091E8001D
:104DC000815095FD06C095ED9A95F1F7000081118F
:104DD000F5CF8091E80085FF16C050E040E068E024
:104DE00070E08D2F9C2F0E94A9288091E8008E777B
:104DF0008093E80088E0ED2FFC2FABE5B2E0019056
:104E00000D928A95E1F7DF91CF91089580919B02F1
:104E1000811109C00E94312A0E948E2A8091E200ED
:104E200084608093E200089510929B020895089593
:104E300008950C94D32342E061EC81E00E94AD29F7
:104E400042E261EC82E00C94AD2980919E028930AF
:104E500089F148F4823009F49DC0833009F458C0C8
:104E6000813041F008958A3009F484C08B3009F410
:104E70006AC0089580919D02813A09F048C08091EE
:104E8000E800877F8093E8008091A1029091A202C0
:104E9000892B61F468E08BE592E070E00E94F828CD
:104EA0008091E8008B778093E800089560E090E0BF
:104EB00080E0F3CF80919D02813249F58091A1027B
:104EC0009091A202029718F58091E800877F809365
:104ED000E8008091E80082FF16C09091F300809175
:104EE000F200029729F48091F1008B7F813021F448
:104EF0008091F100809363028091E8008B7780932A
:104F0000E8000C94E12980919C028111E2CF089580
:104F100080919D02813AD9F78091A1029091A202DD
:104F2000892BA9F78091E800877F8093E800809122
:104F3000E80080FFFCCF809147018093F1008091D1
:104F4000E8008E77DCCF80919D02813201F780915D
:104F5000A1029091A202892BD1F68091E800877F6F
:104F60008093E8000E94E12980919F02809347018D
:104F70000C947E1B80919D02813249F68091E8005D
:104F8000877F8093E8000E94E1298091A0028093AE
:104F90006402089580919D02813A09F0B8CF809112
:104FA000E800877F8093E8008091E80080FFFCCFD5
:104FB00080916402C2CF84B7877F84BF0FB6F89414
:104FC000A8958091600088618093600010926000D5
:104FD0000FBE80E880936100109261000E949616D7
:104FE0000E94312A0E948E2A8091E2008460809380
:104FF000E20078940E94162D0E949C168DE391E0A9
:105000000E94411680919C02853029F00E94A816CA
:105010000E94D810F7CF0E94882380919A0288239B
:1050200089F30E94BC23882369F30E949328EACF66
:105030000C941A28FC01CB01DA012F2F33272330DF
:105040003105D1F070F42130310509F445C022302A
:10505000310569F48BE390E02BEE33E02D933C9324
:1050600008952132310521F12232310559F190E0C4
:1050700080E030E020E0F2CFCF019927E230A9F0C4
:105080008330910550F4009769F0E7EDF3E0019764
:1050900071F7849190E09F01E1CFE3EBF3E0039798
:1050A000C1F3E5CFE7EEF3E0F4CFE9EBF3E0F1CFC6
:1050B000892BB9F061307105D1F689E090E026E1E5
:1050C00034E0CCCF892B91F06130710581F686E315
:1050D00090E028E334E0C2CF82E190E026E234E0C1
:1050E000BDCF89E090E02DEF33E0B8CF80E490E0D1
:1050F0002EE634E0B3CF0895CF93C82F0E947B28CB
:10510000C0936502CF91089580919C02843011F480
:1051100082E0089581E0089580916502811102C0C6
:105120000C948428089580E189BD82E189BD09B489
:1051300000FEFDCF8091D8008F7D8093D8008091B4
:10514000E00082608093E0008091E00081FDFCCF70
:105150000895AF92BF92CF92DF92FF920F931F9369
:10516000CF93DF936C01EB018A010E94002AF82E95
:10517000811123C00115110539F0F8018081918159
:10518000C81BD90BC80ED91EB12CA12C2097A9F091
:105190008091E80085FD22C08091E8008E778093A1
:1051A000E80001151105A1F0F80180819181A80E98
:1051B000B91EB182A08285E0F82E8F2DDF91CF91AC
:1051C0001F910F91FF90DF90CF90BF90AF90089507
:1051D0000E94002A8823D1F2F82EEFCFF6018191A8
:1051E0006F018093F1002197FFEFAF1ABF0ACECF76
:1051F000FC01CB012091A3023091A40226173707AE
:1052000090F0009729F42091E8002E772093E80091
:1052100040E0009751F4411108C08091E80082FFFE
:1052200031C080E00895C901F3CF20919C02222370
:10523000A9F12530A9F12091E80023FD2DC020918E
:10524000E80022FDEACF2091E80020FFE2CF309174
:10525000F3002091F200009719F02830310558F042
:1052600041E02830310509F040E02091E8002E7738
:105270002093E800CECF41914093F10001972F5F3A
:105280003F4FE9CF80919C02882341F0853041F067
:105290008091E80083FFC1CF81E0089582E0089506
:1052A00083E00895FC01CB012091A3023091A40278
:1052B0002617370790F0009729F42091E8002E7701
:1052C0002093E80040E0009751F4411108C080911C
:1052D000E80082FF32C080E00895C901F3CF209139
:1052E0009C022223B1F12530B1F12091E80023FD89
:1052F0002EC02091E80022FDEACF2091E80020FF97
:10530000E2CF3091F3002091F200009719F028309D
:10531000310558F041E02830310509F040E0209196
:10532000E8002E772093E800CECF44914093F1001F
:10533000319601972F5F3F4FE8CF80919C028823E1
:1053400041F0853041F08091E80083FFC0CF81E0DB
:10535000089582E0089583E00895982F973028F00B
:105360008F708093E90081E008959093E900242FE5
:10537000762F50E0981731F07091EC002091ED00FD
:105380005091F00021FD02C09F5FE8CF3091EB000B
:105390003E7F3093EB003091ED003D7F3093ED0088
:1053A0003091EB0031603093EB007093EC00209370
:1053B000ED005093F0002091EE0027FDE5CF80E056
:1053C000089580919D0287FF13C08091E80082FFBD
:1053D00006C08091E8008B778093E80004C080913C
:1053E0009C028111F2CF089580919C028823D9F309
:1053F0008091E80080FFF8CF8091E8008E77ECCFB5
:105400002091E4003091E50095E6A9012091EC009F
:10541000822F817020FF06C08091E80080FF06C0C7
:1054200080E008952091E80022FD1AC080919C023E
:10543000882389F0853089F08091EB0085FD0FC0CD
:105440002091E4003091E50042175307F9F29150A2
:10545000E1F684E0089582E0089583E0089581E014
:1054600008950E949F2A0E94A72AE0EEF0E0808122
:1054700081608083E8EDF0E080818F77808319BCC4
:10548000A7EDB0E08C918E7F8C9380818F7E80839E
:1054900010929B0208950F931F93CF93DF930E9466
:1054A0009F2A0E94A72AC8EDD0E088818F77888341
:1054B00088818068888388818F7D888319BC109259
:1054C0009C021092980210929A021092990200EE99
:1054D00010E0F80180818B7F8083888181608883E0
:1054E00042E060E080E00E94AD29E1EEF0E08081E2
:1054F0008E7F8083E2EEF0E0808181608083808116
:1055000088608083F80180818E7F808388818061BC
:105510008883DF91CF911F910F910895E8EDF0E01E
:1055200080818F7E8083E7EDF0E0808181608083E1
:1055300084E082BF81E080939B020C944B2AE8EDCB
:10554000F0E080818E7F80831092E20008951092B7
:10555000DA001092E10008951F920F920FB60F9299
:1055600011242F933F934F935F936F937F938F9368
:105570009F93AF93BF93EF93FF938091E10082FFDE
:105580000BC08091E20082FF07C08091E1008B7F19
:105590008093E1000E94152D8091DA0080FF19C0F0
:1055A0008091D80080FF15C08091DA008E7F8093B3
:1055B000DA008091D90080FF94C080E189BD82E14A
:1055C00089BD09B400FEFDCF81E080939C020E945A
:1055D00006278091E10080FF19C08091E20080FFE2
:1055E00015C08091E2008E7F8093E2008091E200FE
:1055F00080618093E2008091D80080628093D8001F
:1056000019BC85E080939C020E9418278091E100DC
:1056100084FF29C08091E20084FF25C080E189BD1C
:1056200082E189BD09B400FEFDCF8091D8008F7D55
:105630008093D8008091E1008F7E8093E10080917B
:10564000E2008F7E8093E2008091E200816080938F
:10565000E20080919802882309F449C084E0809395
:105660009C020E9419278091E10083FF29C080914C
:10567000E20083FF25C08091E100877F8093E100F5
:1056800082E080939C02109298028091E1008E7FCC
:105690008093E1008091E2008E7F8093E200809110
:1056A000E20080618093E20042E060E080E00E94DE
:1056B000AD298091F00088608093F0000E94172748
:1056C000FF91EF91BF91AF919F918F917F916F91DA
:1056D0005F914F913F912F910F900FBE0F901F90B0
:1056E000189519BC10929C020E94142772CF8091C9
:1056F000E30087FD02C081E0B2CF83E0B0CF1F920C
:105700000F920FB60F9211242F933F934F935F93F5
:105710006F937F938F939F93AF93BF93CF93DF93B9
:10572000EF93FF93D091E900DF708091EC00C82FD8
:10573000C17080FDC0E81092E9008091F000877F81
:105740008093F00078940E94C32B1092E90080911E
:10575000F00088608093F000CD2BCF70C093E900FB
:10576000FF91EF91DF91CF91BF91AF919F918F9179
:105770007F916F915F914F913F912F910F900FBE4D
:105780000F901F9018951F93CF93DF93CDB7DEB77F
:10579000AA970FB6F894DEBF0FBECDBF8DE992E099
:1057A000FC0101962091F100208322E0853A9207C6
:1057B000B9F70E9425278091E80083FF1EC18091E0
:1057C0009D0290919E029A3008F017C1E92FF0E0F7
:1057D000E959F14D0C948B2D803899F0823809F0FD
:1057E0000CC18091A1028F70873008F006C18093B0
:1057F000E9008091EB0085FB882780F91092E90091
:1058000006C08091990290919A02911182609091C4
:10581000E800977F9093E8008093F1001092F100E8
:105820008091E8008E77E5C0882309F4D3C08230E8
:1058300009F0E3C080919F028111D6C08091A1023E
:105840008F702FEF280F263008F0D7C08093E90023
:105850002091EB0020FFC8C0933031F48091EB0021
:1058600080628093EB00C0C09091EB0090619093B8
:10587000EB0021E030E001C0220F8A95EAF7209387
:10588000EA001092EA008091EB008860EACF811173
:10589000B4C010919F021F778091E3008078812B24
:1058A0008093E3008091E800877F8093E8000E9466
:1058B000E1298091E80080FFFCCF8091E3008068BF
:1058C0008093E30082E0111183E080939C0295C0F5
:1058D0008058823008F091C080919F029091A00280
:1058E0008C3D23E09207A1F583E08A838AE28983D5
:1058F0004FB7F894DE01139620E03EE051E2E32F2B
:10590000F0E050935700E49120FF03C0E295EF7060
:105910003F5FEF708E2F90E0EA30C0F0C7968D9316
:105920009D932F5F243159F74FBF8091E800877F07
:105930008093E8006AE270E0CE0101960E94F828A8
:105940008091E8008B778093E80057C0C096E7CF3E
:105950006091A1027091A202AE014F5F5F4F0E9461
:105960001828BC01892B09F448C08091E800877F82
:105970008093E80089819A810E945229E1CF803882
:10598000E1F58091E800877F8093E800809198029C
:105990008093F10045CF811130C090919F029230E9
:1059A00060F58091E800877F8093E80090939802EB
:1059B0000E94E12980919802882311F084E005C0BB
:1059C0008091E30087FDFACF81E080939C020E94E2
:1059D0001B2713C080919F02813079F481E09330BE
:1059E00009F080E080939A021092E9008091E8002B
:1059F000877F8093E8000E94E1298091E80083FF7F
:105A00000AC08091E800877F8093E8008091EB00D6
:105A100080628093EB00AA960FB6F894DEBF0FBEAB
:105A2000CDBFDF91CF911F9108950895CF938091BD
:105A30009C028823A1F0C091E900CF709091EC0006
:105A4000892F817090FD80E8C82B1092E900809129
:105A5000E80083FD0E94C32BCF70C093E900CF9173
:105A60000895DB018F939F930E94A02DBF91AF916A
:105A7000A29F800D911DA39F900DB29F900D1124A8
:105A80000895AA1BBB1B51E107C0AA1FBB1FA61785
:105A9000B70710F0A61BB70B881F991F5A95A9F7D7
:105AA00080959095BC01CD01089597FB072E16F4C3
:105AB000009407D077FD09D00E94412D07FC05D046
:105AC0003EF4909581959F4F0895709561957F4F15
:105AD0000895A1E21A2EAA1BBB1BFD010DC0AA1F2F
