:100000000C940B030C94E8130C9452030C945203BD
:100010000C9452030C9452030C9452030C9452030C
:100020000C9452030C9452030C94A2290C94752A3C
:100030000C94D3220C9452030C9452030C9452034C
:100040000C9452030C9452030C9452030C945203DC
:100050000C9452030C9434230C9452030C945203CA
:100060000C9452030C9452030C9452030C945203BC
:100070000C9452030C9452030C9452030C945203AC
:100080000C9452030C9452030C9452030C9452039C
:100090000C9452030C9452030C9452030C9452038C
:1000A0000C9452030C9452030C945203290029001F
:1000B0002900290029002900290014001A0009003C
:1000C00013000500290004611564166817440A002E
:1000D00029001D001B000600070019000000000099
:1000E0000100010001002C422900290029002900FB
:1000F00029002900290033001C0018000F000D0002
:10010000290012610C6408681100100029003802EF
:10011000370036000B000E00000000000100010057
:10012000010028410100010001000100010001005F
:10013000010014021A02090213020502010004025E
:100140001502160217020A0201001D021B02060216
:100150000702190200000000010001000100010077
:100160000100010001000100010001000100330055
:100170001C0218020F020D02010012020C020802FA
:100180001102100201001E02340234000B020E02A2
:100190000000000001000100010001000100010059
:1001A00001000100010001000100350035022502B7
:1001B0003800220201002B022B002E022D432D02BB
:1001C00001000100010001003100010000000000F9
:1001D0000100010001000100010001000100010017
:1001E0000100010001006700260025002400010035
:1001F000010036612364220021002C000100370039
:1002000020001F001E00010000000000010001008E
:1002100001002700010001000100010001000100B0
:1002200001000100010001000100010001000100C6
:1002300001000100010001000100010001000100B6
:1002400001000100000000000100010001000100A8
:100250000100010001000100010001000100010096
:1002600001002502240201000100010023022202F4
:10027000210201000100010020021F021E020100F4
:100280000000000001000100010001000100010068
:100290000100010001000100010001000100010056
:1002A0000100010001000100010001000100010046
:1002B0000100010001000100010001000000000038
:1002C0000100010001000100010001000100010026
:1002D0000100010001000100010001000100010016
:1002E000010001004F0052005100500001000100C8
:1002F00001004C002A000100000000000100010084
:100300000100010000047F3F1F643214643214783E
:100310003C1E1E140A052223252628292A2C2D2FAF
:100320003032333536383A3B3D3E4042434547490B
:100330004A4C4E5051535557595A5C5E6062646640
:1003400068696B6D6F71737577797B7D7F8183854C
:1003500087898A8C8E90929496989A9C9E9FA1A34E
:10036000A5A7A8AAACAEAFB1B3B4B6B8B9BBBCBE72
:10037000BFC1C2C3C5C6C7C9CACBCCCDCED0D1D2EE
:10038000D2D3D4D5D6D7D7D8D9D9DADADBDBDBDCF0
:10039000DCDCDCDCDDDDDDDDDCDCDCDCDCDBDBDB9C
:1003A000DADAD9D9D8D7D7D6D5D4D3D2D2D1D0CEFC
:1003B000CDCCCBCAC9C7C6C5C3C2C1BFBEBCBBB901
:1003C000B8B6B4B3B1AFAEACAAA8A7A5A3A19F9E7F
:1003D0009C9A98969492908E8C8A89878583817F47
:1003E0007D7B79777573716F6D6B69686664626028
:1003F0005E5C5A5957555351504E4C4A49474543F4
:1004000042403E3D3B3A3836353332302F2D2C2A90
:10041000292826252322FFAA7F554000000000003E
:1004200000000000000101010101010101010202BF
:10043000020202020202030303030303030404048F
:100440000404050505050506060606060707070751
:10045000080808080909090A0A0A0B0B0B0C0C0CFE
:100460000D0D0D0E0E0E0F0F101010111112121394
:10047000131414151516161717181819191A1A1B0C
:100480001C1C1D1D1E1F1F20212122232324252566
:1004900026272828292A2B2C2C2D2E2F303131329B
:1004A000333435363738393A3B3C3D3E3F404142A4
:1004B000434445464748494B4C4D4E4F5052535488
:1004C000555758595A5C5D5E606163646567686A38
:1004D0006B6C6E6F7172747677797A7C7D7F8182B6
:1004E000848687898B8D8E9092949597999B9D9FFA
:1004F000A1A2A4A6A8AAACAEB0B2B4B6B9BBBDBF07
:10050000C1C3C5C8CACCCED0D3D5D7DADCDEE1E3CF
:10051000E6E8EAEDEFF2F4F7F9FCFF04033000003F
:10052000001C03490072006900730020004B006545
:1005300000790062006F0061007200640000000E2C
:10054000034B0065006500620069006F0000000455
:1005500003090409023B00020100A0FA090400009B
:1005600001030101000921110100012240000705DA
:10057000810308000A0904010001030000000921A9
:10058000110100012236000705820320000A120132
:1005900010010000000810CB5612000301020301F5
:1005A00005010980A10185031601002603001A81B7
:1005B000002A8300751095018100C0050C0901A176
:1005C000018504160100269C021A01002A9C02756E
:1005D0001095018100C005010906A101050719E078
:1005E00029E7150025019508750181029501750817
:1005F00081010508190129059505750191029501EB
:10060000750391010507190029FF150026FF0095C4
:100610000675088100C011241FBECFEFDAE0DEBFEF
:10062000CDBF04B603FE27C080918B0290918C024F
:10063000A0918D02B0918E028730904BA740B04BB5
:10064000D1F410928B0210928C0210928D021092B3
:100650008E0214BE84B7877F84BF0FB6F894A89526
:1006600080916000886180936000109260000FBEEE
:10067000E0E0F8E3099511E0A0E0B1E0EEECFAE586
:1006800002C005900D92A437B107D9F722E0A4E784
:10069000B1E001C01D92AB38B207E1F70E94D1264C
:1006A0000C94F62C0C94000081E0089581E00895EC
:1006B0000C9456031F93CF93DF9300D000D00F927A
:1006C000CDB7DEB749835A836B832091C6018981F8
:1006D0009A8121111BC06623A9F00E945320182F74
:1006E000682F89819A810E94FA1F69817A81812FFE
:1006F0000F900F900F900F900F90DF91CF911F915F
:100700000C94FB050E942920182FEFCF0E94532044
:1007100069817A81EDCFFC014081518162817381D1
:1007200084810C945A030E941C120C94A708E82F91
:10073000E295EF70F0E032A1282F2F7081E090E079
:1007400001C0880F2A95EAF78095832382A3089534
:10075000CF93DF93CDB7DEB728970FB6F894DEBFFF
:100760000FBECDBF863048F5811128C09091800022
:100770009F7D90938000282F30E0AFEFBFEF0E9465
:10078000872C25E030E040E050E00E945F2CC9015A
:100790002C3764E13607B0F469E070E00E94372C32
:1007A00070938B0060938A0028960FB6F894DEBF92
:1007B0000FBECDBFDF91CF91089585E0909180006D
:1007C0009062D7CF2A50374D4F4F5F4FB42FA32F92
:1007D000922F8827BC01CD0125EF38E241E050E09F
:1007E0000E945F2C29833A834B835C83CA01B90141
:1007F0000E94272C9B01AC0169817A818B819C81AD
:100800000E94272CBB27A92F982F872FBC01009768
:10081000A140B10529F66FEF7FEFC2CF269A86E39C
:100820000E94970382E28093800089E18093810097
:100830008FEF9FEF90938700809386000C947C2429
:100840000E94A221811102C00E9431220E940E0446
:100850000E9406120C94A40808950C942C040C9485
:100860002D0408950E94A9170E9431042FEF84E3FC
:100870009CE0215080409040E1F700C000000C94C3
:1008800058230F931F93CF93DF93EC010E948B03A8
:100890008C01BE010E945803882309F44BC0BE019D
:1008A000C8010E94F012882309F444C00F3D8CE572
:1008B0001807A0F4023C8CE51807B8F405318CE564
:1008C0001807E8F402308CE5180708F013C1011589
:1008D0008CE5180759F101301C4591F1CE01DF91EB
:1008E000CF911F910F910C945403F801E25CFC45E9
:1008F000ED31F10598F7E850F34D0C94812C063159
:100900001C4561F70E94F0209A81992309F465C182
:100910008A7A91E009F490E09093740181115BC1AF
:1009200089E20E94CB200E943F2104C08A8181116C
:100930000E94320480E0DF91CF911F910F910895C2
:100940008A818823B9F390913E02892F8E7F90FF90
:10095000816080933E02EECF8A81882359F30E9402
:100960003122E8CF8A818111E5CF0E948910E2CF40
:100970008A818823F9F20E94F020827251F00E944D
:100980007B10D8CF8A818823A9F20E94F02082723E
:10099000B1F30E946D10CECF8A818111CBCF0E941E
:1009A0006D0DC8CF8A818111C5CF0E94790DC2CF4C
:1009B0008A818111BFCF0E94880DBCCF8A818111AD
:1009C000B9CF0E94970DB6CF8A818111B3CF0E9413
:1009D000A60DB0CF8A818111ADCF0E94B50DAACFEF
:1009E0008A81882309F4A6CF0E94BA0BA3CF8A81FB
:1009F000882309F49FCF0E94DD0B9CCF8A81882336
:100A000009F498CF81E00E947E1094CF8A818823D8
:100A100009F490CF0E94B20B823028F00E94B20BF2
:100A2000853008F4B6CF82E0EECF8A81882309F4BE
:100A300081CF0E94B20B863028F00E94B20B883022
:100A400008F4A7CF86E0DFCF8A81882309F472CF2C
:100A50000E94B20B893028F00E94B20B8E3008F44D
:100A600098CF89E0D0CF8A81882309F463CF0E9490
:100A7000B20B8F3028F00E94B20B843108F489CF7A
:100A80008FE0C1CF8A81882309F454CF0E94B20B32
:100A9000853128F00E94B20B873108F47ACF85E1C6
:100AA000B2CF8A81882309F445CF88E1ACCF8A810F
:100AB000882309F43FCF0E94B20B893128F00E94AD
:100AC000B20B823208F465CF89E19DCF8A818823F9
:100AD00009F430CF83E297CF8A81882309F42ACFA3
:100AE00080E00E94722726CF8A81882309F422CFD2
:100AF00082E0F7CF8A81882309F4F0CE0E94A221F8
:100B0000811102C00E9431220E94B52190E0909391
:100B10007C0280937B02F801E350FC4580917B02CC
:100B20008160E231F10538F4EB5EF24D0C94812CDA
:100B300080917B02826080937B0280917B020E9485
:100B4000B9210E94A917F6CE80917B028460F3CF71
:100B500080917B028860EFCF80917B028061EBCF38
:100B600080917B028062E7CF80917B028064E3CF3B
:100B700080917B028068DFCF80917B028C60DBCF2D
:100B800080917B028E7FD7CF80917B028D7FD3CFE8
:100B900080917B028B7FCFCF80917B02877FCBCFF1
:100BA00080917B028F7EC7CF80917B028F7DC3CFE8
:100BB00080917B028F7BBFCF80917B028F77BBCFF1
:100BC00080917B02837FB7CF90917B02892F97FB27
:100BD00087F98058B0CF85E3A4CE8091740181114C
:100BE00004C089E20E94D2209ECE85E3FBCF90E034
:100BF00080E008950895972F70E026E0929F600DA1
:100C0000711D1124FB019CE3899FE00DF11D11244E
:100C1000EE0FFF1FE455FF4F859194910895FC015D
:100C2000EE0FFF1FEC5FFC4F859194910895CF93D9
:100C3000DF930E94FB050E940508EC01811523E566
:100C4000920708F063C0811532E5930708F05FC191
:100C50008F3F910509F090F5803F910508F033C171
:100C60008F3B9105D8F4883A910508F0CDC0853ABC
:100C7000910568F4049738F491E080E0219709F039
:100C800090E0C92FD82FCE01DF91CF910895853AFA
:100C9000910509F0B2C0C1E8D0E4F5CF803E9105DE
:100CA00040F4805C9109CF3BD105D9F4D0E0C0E09D
:100CB000EACF805E9109089730F3F8CF811540E5BF
:100CC0009407D0F4C11580E4D80708F001C1C1151C
:100CD00090E3D90750F4C11520E2D207A0F2CE016B
:100CE0009F700E940F06EC01CECFCE019927D3FD55
:100CF000ECC0EC01D06CC7CF811531E5930708F447
:100D0000EAC0D82FCC27C16FD06ABDCF8C3B9C45A1
:100D100009F427C1CD3B8CE5D80708F043C0C115C5
:100D200099E5D90798F5C11528E5D20708F004C15F
:100D3000C11535E5D307C8F4C11544E5D40708F05B
:100D4000F6C0CE018370992721E030E002C0220F67
:100D5000331F8A95E2F7C695C69580E2C89FE001E9
:100D60001124C22BD32BDA688ECFCE0195558F3F3D
:100D7000910511F008F09ACF8C2F0E948008C82F9F
:100D8000D0E0DC2FCC27CC27DF7135C0C1159AE528
:100D9000D90708F4D6C0CB3BDC4509F087CFC0E0CB
:100DA000D4ED71CFCF3B3CE5D30709F4DDC060F44F
:100DB000CD3B8CE5D80709F4DAC0CE3BDC4509F021
:100DC00075CFC0E0D0ED5FCFC03C2CE5D20709F471
:100DD000D1C0CE0190568115904208F067CF8D2F7B
:100DE0008F710E94800890E0982F882788279F7134
:100DF0009C012C2BE901D06246CF863A910509F07F
:100E0000BCC0C2E8D0E43FCF883A910509F4B8C02D
:100E1000893A910509F4B7C08A3A910509F4B6C038
:100E20008B3A910509F4B5C08C3A910509F4B4C028
:100E30008B3B910509F4B3C08C3B910509F4B2C01A
:100E40008D3A910509F4B1C0803B910509F4B0C019
:100E50008E3A910509F4AFC08F3A910509F4AEC0FE
:100E6000813B910509F4ADC0823B910509F4ACC00A
:100E7000833B910509F4ABC0843B910509F4AAC0FA
:100E8000853B910509F4A9C0863B910509F4A8C0EA
:100E9000873B910509F4A7C0883B910509F4A6C0DA
:100EA000893B910509F4A5C08D3B910509F4A4C0C7
:100EB0008E3B910509F4A3C08A3B910509F4A2C0B9
:100EC000C0E0D4E4E0CED065DECEEC01D86CDBCE61
:100ED000DF70D06AD8CE54E0969587955A95E1F7A1
:100EE00083702C2F26952695237090E2299F9001E0
:100EF0001124382B8C2F8370C1E0D0E002C0CC0FBE
:100F0000DD1F8A95E2F7C22BD32BDC68BCCE837041
:100F1000992721E030E002C0220F331F8A95E2F7C3
:100F2000C695C69540E2C49FE0011124ECCFDC2FAA
:100F3000CC27C46FD06AA7CEDC2FCC27C06FD06A75
:100F4000A2CE8C2F8F700E94800894E0D695C79512
:100F50009A95E1F79C2F9F70C82FCF70C06ED92F44
:100F6000B8CFC0E0D5ED8FCEC0E0D2ED8CCEC0E0E2
:100F7000D1ED89CEC0E0D3ED86CEC3E8D0E483CEF8
:100F8000C2EED4E480CEC9EED4E47DCECAEED4E481
:100F90007ACEC5EBD4E477CEC6EBD4E474CEC3EB03
:100FA000D4E471CEC4EBD4E46ECEC7EBD4E46BCE04
:100FB000CCECD4E468CECDECD4E465CEC3E8D5E483
:100FC00062CECAE8D5E45FCEC2E9D5E45CCEC4E91E
:100FD000D5E459CEC1E2D6E456CEC3E2D6E453CE30
:100FE000C4E2D6E450CEC5E2D6E44DCEC6E2D6E4A5
:100FF0004ACEC7E2D6E447CECFE6D4E444CEC0E73B
:10100000D4E441CECAE2D6E43ECE803E910581F1E1
:10101000C8F48133910509F462C048F4893291051E
:1010200009F456C08A32910509F460C008958933E5
:101030009105B9F082389105A1F08533910509F445
:1010400040C00895863E910561F138F4823E9105D5
:10105000B1F0833E9105E1F00895873E910551F18D
:10106000089520917B022370D9F080EE90E00895DE
:1010700020917B0220FF14C089E390E00895209125
:101080007B0222FF0DC024FD09C083EE90E008958D
:1010900020917B0222FD31C024FF02C090E080E05D
:1010A000089520917B0223FFFBCF24FDF7CF87EE2D
:1010B00090E0089520917B0223FFEECF86EE90E032
:1010C000089520917B0225FFEBCF89E290E00895FF
:1010D00020917B0225FFE4CF85E390E008952091E5
:1010E0007B0226FFDDCF8AE290E0089520917B020B
:1010F00026FFD6CF81E390E0089582EE90E0089538
:1011000090917B0292FF06C0282F2871283069F445
:10111000877F846093FF06C0282F2871283161F4EF
:10112000877E846194FD877E0895282F2471243062
:1011300089F78B7F8860EECF282F2471243191F7B7
:101140008B7E8861EFCF08950C94A30808950C94CA
:10115000A6080895E82FF0E0E558FE4F8081089535
:101160000895CF93DF9380913E028B6080933E027F
:10117000809100018091000195E0811190E09093B1
:101180004D0285E0891B80934C02A4E3B1E061E04D
:1011900070E08D91E82FE295EF70F0E041A18F7043
:1011A0009B0101C0220F8A95EAF7922F9095942314
:1011B00091A382A1822B82A381E0A933B80749F7CA
:1011C000AEE2B1E044E351E0C1E0D0E08D91E82F20
:1011D000E295EF70F0E061A18F709E0101C0220FD7
:1011E0008A95EAF7922F9095962391A382A1822B5C
:1011F00082A34A175B0751F7EBE7F1E085E891E03E
:1012000011928E179F07E1F785E00E94CB09DF91CD
:10121000CF910C9420046F927F928F929F92AF9205
:10122000BF92CF92DF92EF92FF920F931F93CF93D3
:10123000DF9326E731E044E3E42E41E0F42E712C05
:10124000CC24C394D12CE90179919E01DE011E9238
:10125000F70181917F01E82FE295EF70F0E091A115
:101260008F70860101C0000F8A95EAF7892F802BC5
:1012700081A382A1602E6094862182A380EA8A9550
:10128000F1F79EE2A92E91E0B92E50E040E0E50191
:1012900069915E01862E82948FE08822912CE40170
:1012A00088A190E06F7002C0959587956A95E2F7E6
:1012B000812C80FD06C04601042E01C0880C0A94D2
:1012C000EAF78C91882A8C924F5F5F4F4630510528
:1012D000F1F681A1862181A382A1082B02A381E0DE
:1012E0009C91971301C080E0782AD1E02B373D070D
:1012F00009F0A9CF60914D0270E065587E4F272D0F
:1013000045E086E791E00E94CC09872DDF91CF91DF
:101310001F910F91FF90EF90DF90CF90BF90AF9013
:101320009F908F907F906F900895CF930E940B09AC
:10133000C82F0E94060A882311F180914C0290E088
:1013400085589E4F0E94600A811116C090917501C8
:101350009F5F90937501963050F0E0914C02F0E061
:10136000E558FE4F108211821282138214820E946D
:1013700093038C2FCF91089510927501F8CF80912F
:101380004D0290E085589E4F0E948D0A0E941C12CB
:101390000E94A908EECF0895FF920F931F93CF9359
:1013A000DF93F82E092F162FD72FC42F222349F0B1
:1013B00081E0809387010E940323909386018093AC
:1013C0008501809187018823A1F08091850190910A
:1013D00086010E940F23069760F0EF2DF02FA12FBA
:1013E000BD2FCE0FDF2FD11DEC17FD0741F410925A
:1013F0008701DF91CF911F910F91FF900895819107
:101400008D93F2CF80988FB181700895809188017B
:10141000811110C08091D80080618093D8008AE14A
:101420008A95F1F700C09091D900917082E0891BF4
:101430008093880181E090918801913009F080E0EB
:1014400008950E94020A809300018091000166E0E5
:10145000882349F080E00E944E0B0E94060A8823F0
:1014600021F00C94370A86E0F6CF0C943D0A62E036
:1014700070E081E091E00C94951362E070E081E00F
:1014800091E00C949E130E94870F882361F082E9FB
:1014900091E00E948D0F81E090E00E947714892BEB
:1014A00011F40C948A0F089580919101883039F4D9
:1014B00060E082E991E00E94D010109291010895BD
:1014C000CF93DF93D82FC92F0E94430A90E080E08A
:1014D0000E9477149C0180E021153105C9F4ED2F9D
:1014E000FC2FD901A557BE4F8C9181932F5F3F4FA1
:1014F00025303105B1F70E94FD24882361F00E9458
:101500004A2580938A0180E991E00E945D1281E082
:10151000DF91CF91089580E0F4CFCF93DF93D82F60
:10152000C92F0E94540AED2FFC2F90E080E02191FA
:10153000DC01A557BE4F2C93019685309105B9F774
:1015400080918A010E94A80380E991E0DF91CF9108
:101550000C945812AF92BF92CF92DF92EF92FF920B
:101560000F931F93CF93DF93362FD72E282FE82F7B
:10157000F0E0711110C0E55EFB4F6491762F862F6D
:10158000DF91CF911F910F91FF90EF90DF90CF905F
:10159000BF90AF900895E72EF12C86E0689F800100
:1015A0001124CFEFD0E0C801BE010E94372C832F59
:1015B00090E0880F991F35E5369FA001379F500DA9
:1015C0001124841B950B382F330F380FCE018E1941
:1015D0009F098E9FA0018F9F500D9E9F500D11243B
:1015E000952F3D9DD0011124AB2FBB276E01CA1A48
:1015F000DB0ACE9ED001CF9EB00DDE9EB00D112431
:101600008B2F5E01A31AB108AE9C6001AF9CD00C79
:10161000BE9CD00C1124CD2CDD24CC19DD09CE9F2D
:101620007001CF9FF00CDE9FF00C11246330710528
:1016300031F10C3F33E0130760F46130710519F1AB
:101640006230710521F10F3F110548F4852F9F2D60
:1016500006C064307105F1F066307105B9F3E22F10
:10166000F0E0E55EFB4F7491E92FF0E0E55EFB4FA3
:101670006491E82FF0E0E55EFB4F849181CF9B2FD2
:10168000822F252FECCF922F2B2F852FE8CF8F2D58
:10169000922FF7CF822F2F2DE2CF08958093A101B3
:1016A000609315010895CF93DF93982F762F842FA1
:1016B000E901692F0E94AA0A798368838A83DF91EE
:1016C000CF91089580914E02982F9E7F29F48170CA
:1016D000826080934E0208958A34E8F381708864B2
:1016E000F8CF88E090E00C94B62C0F931F93CF9323
:1016F000DF938B01D82FC92F0E94620BA8016D2F99
:101700007C2F88E090E0DF91CF911F910F910C9496
:10171000D42CCF93DF9300D000D0CDB7DEB7EEE46A
:10172000F2E083E0808311828FEF828383831482CF
:10173000A9EAB1E012968C911297836012968C936D
:1017400080819181A281B38189839A83AB83BC8399
:10175000BC01CD010F900F900F900F90DF91CF91B2
:101760000C94750B80914E0280FF02C086950895FF
:1017700080E00895CF93DF9300D000D0CDB7DEB7DF
:1017800080915202833018F48F5F809352028091CF
:101790004E0290914F02A0915002B0915102898364
:1017A0009A83AB83BC83BC01CD010F900F900F9047
:1017B0000F90DF91CF910C94750BCF93DF9300D0F6
:1017C00000D0CDB7DEB780915202882319F0815046
:1017D0008093520280914E0290914F02A09150024C
:1017E000B091510289839A83AB83BC83BC01CD0144
:1017F0000F900F900F900F90DF91CF910C94750B7D
:101800006091150170E080914E0280FF0AC08091C6
:10181000A10123E0829FC00111248D5A9D4F0C9499
:1018200000128091A0019091140123E0829FF001A9
:101830001124ED5AFD4F891750F711821082128240
:101840008F5F3396F8CF90914E0290FF14C0909125
:10185000A0012091140133E0939FF0011124ED5A6F
:10186000FD4F921710F00C94000C8183608342832B
:101870009F5F3396F6CF0895CF93DF9300D00F92FA
:10188000CDB7DEB790914E0290FF0AC09E012F5F48
:101890003F4F0E94530B4B8169818A810E94230C28
:1018A0000F900F900F90DF91CF910895CF93DF931A
:1018B000EC01EC81F0E0EA5EFC4F4491EEE4F2E0F2
:1018C000628181810E943C0C8C818F5F8C83DF91CF
:1018D000CF910895CF93DF93EC01EEE4F2E04381E2
:1018E00062818C810E943C0C8C818F5F8C83DF91A4
:1018F000CF9108950F931F93CF93DF9300D00F9252
:10190000CDB7DEB78C0180919A0181110AC09E018A
:101910002F5F3F4F4FEF6FEF0E94530B8A818093F1
:101920009A01F8016481613049F06230F1F08091F0
:101930009A0140E0662331F040E019C060919A01BD
:1019400040E080E00E94230CF801848190E0019641
:1019500063E070E00E944B2C84830F900F900F90F7
:10196000DF91CF911F910F91089540919A0180E0EE
:1019700060E0E8CFAF92BF92CF92DF92EF92FF92FA
:101980000F931F93CF93DF9300D000D000D00F921E
:10199000CDB7DEB7182FF62E042FD22E90914E021F
:1019A00090FF3DC0E92FE695AE2FB0E0A25CBE4FA0
:1019B0008C918093A9019E7F923009F041C09E01D5
:1019C0002F5F3F4F812F0E94530B4B8169818A818A
:1019D0000E94230C80914F02811308C08091500215
:1019E0008F1104C080915102801729F08091AB01C2
:1019F00082608093AB0110934F02F09250020093EB
:101A00005102DD2061F080914E0290914F02A09131
:101A10005002B0915102BC01CD010E94750B279676
:101A20000FB6F894DEBF0FBECDBFDF91CF911F91EF
:101A30000F91FF90EF90DF90CF90BF90AF900895FF
:101A4000823019F400915102C5CF863019F41091FB
:101A50004F02C0CF8930D9F3893109F0BBCFE951AA
:101A60008E2F8170C82EE695F0E0EA5EFB4FA590C0
:101A7000B490E12CBB2460911301E61618F00E948B
:101A8000000CA8CF2E2D30E0EA9CC001EB9C900DFD
:101A9000112470E00E94372C812FC11013C0860FD3
:101AA0004091A001420F532F511D9A01220F331F65
:101AB000240F351F2D5A3D4F402F6F2D0E94530B81
:101AC000E394D9CF861BECCF282FEEE4F2E081819E
:101AD00043816281885F0C94BA0C81E00C94640DA0
:101AE000282FEEE4F2E081814381628188500C94DA
:101AF000BA0C81E00C94700D282FEEE4F2E06281C4
:101B000038E0630F08F46FEF438181810C94BA0CC5
:101B100081E00C947C0D282FEEE4F2E0628138E045
:101B2000631B08F460E0438181810C94BA0C81E06E
:101B30000C948B0D282FEEE4F2E0438138E0430F44
:101B400008F44FEF628181810C94BA0C81E00C940F
:101B50009A0D282FEEE4F2E0438138E0431B08F4AD
:101B600040E0628181810C94BA0C81E00C94A90D53
:101B700020E00C94BA0CEF92FF921F93CF93DF9367
:101B8000EC0110E0EE24EA94F12C60911301161799
:101B900070F00E94000C9A818C8190FF27C08F5FAB
:101BA0008C83DF91CF911F91FF90EF90089520914A
:101BB000A001422F410F5527551FCA019A01220F3C
:101BC000331F280F391F2D5A3D4F70E0C7010E9467
:101BD0004B2C962F8C814091510260915002199F9D
:101BE000800D11240E94530B1F5FCFCF8150D8CF9F
:101BF0009F92AF92BF92CF92DF92EF92FF920F939C
:101C00001F93CF93DF93EC018A81BB24BA9480FDAC
:101C100002C0BB24B3948C8181110AC081E0B81248
:101C200027C080911301815080939C0181E08C83B7
:101C3000A12C80911301A816F0F00E94000C809155
:101C40009C0191E0B91259C0811152C080911301D9
:101C5000815080939C011C82DF91CF911F910F9145
:101C6000FF90EF90DF90CF90BF90AF909F9008953E
:101C700010929C01DBCF0091A001CA2CD12C0C0D3D
:101C80001D2D111DC801880F991F080F191F0D5A0E
:101C90001D4FF80111821082128234E0E32EF12CE4
:101CA000912C80919C01890D87FF03C090911301B5
:101CB000890F082E000C990BC816D90691F4809153
:101CC00051028E9DA0018F9D500D11245595479571
:101CD0005595479598016091500280914F020E945E
:101CE000530B9B0CF1E0EF1AF108D9F6A394A1CFA6
:101CF000815080939C01BC82AFCF90E001966091AF
:101D0000130170E00E944B2C80939C018C83A4CF24
:101D1000EF92FF920F931F93CF93DF93EC018C818F
:101D2000811109C081E08C8310929B0192E0909315
:101D30001201809311018091A0019091140123E080
:101D4000829FF0011124ED5AFD4F891768F110E0D0
:101D500003E060911301161768F10E94000C809156
:101D6000110120919B01280F20939B01909112015A
:101D7000980F90931201191654F4022E000C330B95
:101D8000409113014150550B2417350734F08195CC
:101D900080931101813009F41C82DF91CF911F9152
:101DA0000F91FF90EF9008951182108212828F5F41
:101DB0003396CBCFE12EF12C70E0C7010E944B2C63
:101DC0002091A001820F482F50E020919B01022E0C
:101DD000000C330BE216F306BCF020911201022E28
:101DE000000C330B2E153F057CF0809F90011124D1
:101DF0002D5A3D4F409151026091500280914F0207
:101E00000E94530B1F5FA5CFFA01EE0FFF1FE40FD7
:101E1000F51FED5AFD4F118210821282F3CF0F93FE
:101E20001F93CF93DF938C01FC01848195810196F0
:101E30008170992795838483C0E0D5E58091130153
:101E4000C81730F0DF91CF911F910F910C94000CC7
:101E50002091A001422F4C0F5527551FCA019A010E
:101E6000220F331F280F391F2D5A3D4F8C2F869577
:101E7000F80144815581840F952F911D8170409107
:101E80005102609150028D9F802D11240E94530BAE
:101E9000CF5FD4CF0F931F93CF93DF93EC0110E06C
:101EA00000E0909113019017110609F06CF40E9464
:101EB000000C8C8190E00196817099278C83DF91D2
:101EC000CF911F910F9108952091A001A801420F79
:101ED000511D9A01220F331F240F351F2D5A3D4FDC
:101EE0004C816091500280914F0296959017110697
:101EF00051F04CF0442349F0409151020E94530BA1
:101F00000F5F1F4FCECF4423B9F340E0F7CF80914E
:101F1000AB0108951092AB010895CF93DF93EC01CC
:101F200085E0EEE4F2E0DE0101900D928A95E1F7A2
:101F30008091A9019091AA01A091AB018D839E830C
:101F4000AF83DF91CF910895E9EAF1E011828281B8
:101F5000846082830895EEE4F2E080818E7F808346
:101F60000E94A40FE9EAF1E08281816082832FEF71
:101F700080E792E0215080409040E1F700C00000EF
:101F80000C94000CCF93DF9300D000D0CDB7DEB718
:101F9000EEE4F2E080818E7F808380819181A28156
:101FA000B38189839A83AB83BC83BC01CD010E943A
:101FB000750B0E94A40FE9EAF1E0828181608283BF
:101FC0009FEFA0E7B2E09150A040B040E1F700C021
:101FD00000000F900F900F900F90DF91CF910C9415
:101FE000000C60914E02669570E04BE050E086E197
:101FF00091E00E94A12C892B19F481E08093AA0121
:102000000E9403239093A3018093A2018091AB01CE
:1020100084608093AB010895CF93DF9300D000D00C
:10202000CDB7DEB790914E0290FF46C091708111FE
:1020300039C0926090934E028091AB018160809391
:10204000AB01662381F080914E0290914F02A091E6
:102050005002B091510289839A83AB83BC83BC0147
:10206000CD010E94750B60914E02669570E04BE0C9
:1020700050E086E191E00E94A12C892BD1F00E94D2
:10208000A40F81E08093A50140915102609150021C
:1020900080914F020F900F900F900F90DF91CF9192
:1020A0000C94B80D853210F09864C4CF880F982B2B
:1020B000C1CF0E94F10FE5CF0F900F900F900F90BE
:1020C000DF91CF910895682F80914E0286958F5FA2
:1020D000853208F081E00C940C1081E00C946310C0
:1020E000682F90914E0296958FEF890F913009F4E9
:1020F00084E20C940C1081E00C94701061E00C945C
:102100000C10EEE4F2E080818160808386950C946F
:102110007E1080914E0280FD0C94C20F0C948110B1
:1021200060E00C940C108091A801811138C080915E
:102130003E02816080933E020E94A221811104C070
:102140000E9431220E94890B0E94710B60934E0203
:1021500070934F0280935002909351028091AB0193
:1021600083608093AB016E7F61F40E94890B0E94B3
:10217000710B60934E0270934F02809350029093C4
:1021800051020E94620B0E94A40F80914E0280FFB8
:1021900003C086950E94901081E08093A801089565
:1021A0001F93CF93DF93EC01162F8F8180FF0CC01C
:1021B000888180FF24C080914E02816080934E020E
:1021C000888186950E940C108F8181FF06C0212F87
:1021D0004B816A8189810E94BA0C8F8182FF05C080
:1021E0008E81882379F00E94F10F8F8183FF03C0D5
:1021F00081E08093A501DF91CF911F9108950E9406
:10220000AB0FE2CF0E94A40FF0CFEF92FF920F939B
:102210001F93CF93DF938091AA01882309F468C0AC
:102220008091A901E0914E02E695E81BE093A4019C
:10223000823009F064C0F0E0EE5EFC4FE491CE2FF6
:10224000D0E006E51CE08091A501882389F010927A
:10225000A5010E9403239E0120953095280F391F68
:102260003093A3012093A2011092A7011092A6011E
:102270008091A2019091A3010E940F238C179D07CA
:10228000B8F180919F018823B1F010929F01809155
:102290009D0190919E010E940F238033954758F035
:1022A0000E94032390939E0180939D018091AB0136
:1022B00088608093AB01E090A601F090A701E091C7
:1022C000A201F091A301CE0FDF1FD093A301C09311
:1022D000A20182EA91E0F80109958091A60190910E
:1022E000A701892B29F4EF2819F081E080939F0141
:1022F000DF91CF911F910F91FF90EF90089586305D
:1023000049F4F0E0E15FFC4FE491CE2FD0E00AE623
:102310001CE099CF893051F4E695F0E0E45FFC4F82
:10232000E491CE2FD0E00BEB1DE08DCF8F3051F438
:10233000E695F0E0E75FFC4FE491CE2FD0E008EFA8
:102340001DE081CF853149F4F0E0EA5FFC4FE49174
:10235000CE2FD0E008E81EE076CFC8EED3E00FE045
:102360001FE0883109F46FCF833239F4E4E0F3E001
:10237000C591D4910AE71CE066CFC4EFD1E00AE42E
:102380001FE0843209F45FCFC0EDD7E00DE41BE01D
:102390005ACF9C01CB0161B3542F5095562361B3A2
:1023A000462B6FB7F894820F931F2817390711F443
:1023B0006FBF0895F90171919F01E8E041BB0000F2
:1023C00000C077FF51BB770F000000C000C000C005
:1023D00051BB00C0EA9591F7E8CFFC0190B3942B74
:1023E00090BB9B01220F331F620F731FCF010E940E
:1023F000C91187EC90E00197F1F700C00000089543
:1024000040E80C94ED1108950C94031225982D9A30
:1024100027982F9A83B185FB882780F923B130E074
:10242000220F232F221F330B90E0232B09F092E081
:10243000892B8093AE010895E091AE01EE0FEE0F6F
:10244000E093AE0183B185FB222720F983B190E0B0
:10245000880F892F881F990B009711F082E090E078
:10246000822BE82BE093AE01EF70F0E0ED59FE4FC8
:1024700080819091AC01890F8093AC01843024F06D
:1024800060E080E00E9404128091AC018D3F24F452
:1024900061E080E00E9404129091AC01892F837862
:1024A00097FF03C081508C6F8F5F8093AC010895BC
:1024B0002091AE01FC0120830895DC01EC91EF70C6
:1024C000F0E0ED59FE4F80819091AD01890F80932E
:1024D000AD01843024F060E081E00E94041280911C
:1024E000AD018D3F24F461E081E00E9404129091DF
:1024F000AD01892F837897FF03C081508C6F8F5F68
:102500008093AD0108950F931F93CF93DF93C62F50
:10251000D42F022FFC0182818823C9F06093B1017E
:102520000E9403239093B0018093AF0180E28C0F4F
:10253000883008F050C0C77081E001C0880FCA958C
:10254000EAF7DF91CF911F910F910C9489171091A9
:10255000B101161335C08091AF019091B0010E9476
:102560000F23883C910560F5C0E2CD0F1D17B9F02F
:1025700080E2810F883040F4177081E001C0880F3D
:102580001A95EAF70E949017C83048F481E09D2F11
:10259000977001C0880F9A95EAF70E948917802FDB
:1025A0000E947617C830B8F4D77081E001C0880F58
:1025B000DA95EAF7DF91CF911F910F910C94901764
:1025C00080E28C0F883038F4C77081E001C0880F3A
:1025D000CA95EAF7EFCFDF91CF911F910F91089540
:1025E0009C01CB01203F4CE5340769F190F4283D74
:1025F000FCE53F0721F1293D4CE5340781F1273DFA
:102600003C45B1F0FC018281882361F11092B10157
:102610000895223FFCE53F07D1F0233F4CE5340706
:10262000D1F0213F3C4571F727E245EE64EE03C04F
:1026300026E241EE61EE0E94831280E0089527E2D7
:1026400045EE65EEF8CF26E241EE60EEF4CF26E2ED
:1026500041EE62EEF0CF27E245EE66EEECCF28E2E7
:1026600041E0EFCF81E008958EE1489B02C08150A8
:10267000E1F7489BFECF0895589880E28A95F1F7DC
:10268000589A0895FC013BE03A95F1F720E090E07C
:1026900080E031E040E14A95F1F7880F489B02C0A5
:1026A0008160232742E04A95F1F7000040E14A9516
:1026B000F1F79F5F6913EECF90E19A95F1F799B129
:1026C00032E03A95F1F7000040E14A95F1F7917058
:1026D00092272081920F90830895EF92FF920F939B
:1026E0001F93CF93DF930F92CDB7DEB719828C0182
:1026F0007C01E60EF11C0E151F0561F481E0998145
:10270000911180E00F90DF91CF911F910F91FF9079
:10271000EF9008950E94341368E0CE0101960E9464
:102720004213F80181938F01E6CF9093B401809317
:10273000B3016093B201509A589A08959093B401EE
:102740008093B3016093B2015098589AE89AE9E6F1
:10275000F0E080818C7F808308956150770B91E059
:1027600001C0990F6A95EAF720E031E0911108C0A5
:10277000222391F0589A80E28A95F1F758980895AB
:10278000492F482339F0589A232740E24A95F1F718
:102790009695ECCF5898F9CF5898EDCFFF920F93BC
:1027A0001F93CF93DF93EC018C01060F111DC0170F
:1027B000D10731F4DF91CF911F910F91FF900895D0
:1027C000F9900E943C1368E08F2D0E94AD13EFCF6B
:1027D0001F920F920FB60F9211240F931F932F93F6
:1027E0003F934F935F936F937F938F939F93AF9399
:1027F000BF93EF93FF93CF93DF930F92CDB7DEB7E5
:1028000019820E94341367E0CE0101960E944213A0
:10281000082F069506950695982F92959570202F6E
:102820002570920F292F2370969596958770920F99
:10283000891344C08981811141C08091B201801700
:10284000E8F120E12A95F1F7589A509A82E08A95AA
:10285000F1F700C0A8E00A9FC00111240091B30164
:102860001091B401080F191F5898F801658166236B
:1028700021F0868197810E94CE130E943C13F0E1E3
:10288000FA95F1F758985098589A20E12A95F1F75F
:10289000D80112966C911297662331F113968D919F
:1028A0009C910E946D13D801ED91FC91882311F049
:1028B00088E001C082E080830E9434130F90DF9192
:1028C000CF91FF91EF91BF91AF919F918F917F91A8
:1028D0006F915F914F913F912F911F910F910F90A9
:1028E0000FBE0F901F901895ED91FC91E1CF0F93C3
:1028F0001F93CF93DF939C018091B201821713063F
:102900000CF471C0890183E0000F111F8A95E1F773
:10291000C091B301D091B401C00FD11FF894509A67
:10292000589885E08A95F1F70000922F969595705A
:102930002570920F892F837096959695980F092B85
:102940000E943C1300C067E0802F0E94AD1380E11D
:102950008A95F1F75098589A489B17C087E090E005
:10296000489915C06D81662321F18E819F810E9457
:102970006D1381111EC0509A589AE881F98182E046
:102980008083789482E090E00DC000C0E5CF01978D
:1029900071F4509A589AE881F98181E080837894A3
:1029A00081E090E0DF91CF911F910F91089500C0D9
:1029B000D7CF0E94341380E28A95F1F75898509A45
:1029C00080E18A95F1F76A81662321F08B819C81F1
:1029D0000E94CE130E943C13E881F9811082789402
:1029E00090E080E0DFCF84E090E0DCCF9093BA010C
:1029F0008093B9010895E091B901F091BA0130973F
:102A000021F00190F081E02D099480E00895E0919B
:102A1000B901F091BA01309721F00280F381E02DE5
:102A2000099408952091B7013091B801281739070A
:102A300071F09093B8018093B701E091B901F091E2
:102A4000BA01309721F00680F781E02D09940895AE
:102A50002091B5013091B6012817390771F0909394
:102A6000B6018093B501E091B901F091BA013097B8
:102A700021F00084F185E02D0994089585B78068E0
:102A800085BF85B7806885BF089508950C94451566
:102A900008950C9448150E943E150E94210A0C943A
:102AA00046150E94FA220E94B1080E947C230E94CF
:102AB0007C240E9493100C944915BF92CF92DF9210
:102AC000EF92FF920F931F93CF93DF9300D000D02C
:102AD0000F92CDB7DEB70E9495090E94060A88239F
:102AE00009F470C08CEBC82E81E0D82E10E000E015
:102AF000E02E802F0E94AA08B82EF601F1906F01F7
:102B0000F81609F459C080913E0281FD0E94B00878
:102B100030E020E0FB244F2D50E0922FBA01022E2E
:102B200002C0759567950A94E2F760FF3FC029835C
:102B3000EA8221E030E0790102C0EE0CFF1C9A9598
:102B4000E2F72B2D30E02E213F2181E0232B09F4E9
:102B500080E08B830E9403238160782F9D838C8388
:102B600049815A816B818D810E940216F801E454DB
:102B7000FE4F80818E2580830E94FB149091BB01C3
:102B8000891789F10E94FB148093BB010F900F906D
:102B90000F900F900F90DF91CF911F910F91FF90A9
:102BA000EF90DF90CF90BF900C942F042F5F3F4F9A
:102BB0002630310509F0B1CF0F5F1F4F0A301105E4
:102BC00009F096CF8FEF89838A831B820E940323AB
:102BD0008160782F9D838C8349815A816B818D819F
:102BE0000E940216C9CF0F900F900F900F900F9078
:102BF000DF91CF911F910F91FF90EF90DF90CF90D9
:102C0000BF900895CF93DF93CDB7DEB72B970FB664
:102C1000F894DEBF0FBECDBF4F83588769877A8790
:102C20008B878A859B85892B21F0CA0189238F3F59
:102C3000D1F41E8285E0FE013796DE0111960190E7
:102C40000D928A95E1F749815A816B817C818D8152
:102C50009E812B960FB6F894DEBF0FBECDBFDF91DD
:102C6000CF910C94101D8091C7019091C8010196DD
:102C70009093C8018093C701DCCFFC0180819181D2
:102C80000C949520CF93C82F882309F4DEC0823896
:102C9000C1F40E94FB1481FDD8C089E30E94CB20BF
:102CA0000E943F212FEF81EE94E021508040904020
:102CB000E1F700C0000089E30E94D220CF910C947C
:102CC0003F218338A1F40E94FB1480FDBEC083E540
:102CD0000E94CB200E943F212FEF81EE94E02150F3
:102CE00080409040E1F700C0000083E5E5CF8438E4
:102CF000A1F40E94FB1482FDA8C087E40E94CB20AF
:102D00000E943F212FEF81EE94E0215080409040BF
:102D1000E1F700C0000087E4CFCF8CEF8C0F813A41
:102D200048F48C2F0E94442481118FC08C2F0E9464
:102D3000CB20C4CF80E28C0F883048F4C77081E08C
:102D400001C0880FCA95EAF70E94F320B7CF8BE540
:102D50008C0F833068F481E890E0C53A31F083E865
:102D600090E0C63A11F482E890E0CF910C941215ED
:102D700088E58C0F873108F068C082EE90E0C83A91
:102D800009F460C089EE90E0C93A09F45BC08AEEAC
:102D900090E0CA3A09F456C085EB90E0CB3A09F4CA
:102DA00051C086EB90E0CC3A09F44CC083EB90E044
:102DB000CB3B09F447C084EB90E0CC3B09F442C024
:102DC00087EB90E0CD3AF1F18CEC90E0C03BD1F193
:102DD0008DEC90E0CE3AB1F183E891E0CF3A91F1F9
:102DE0008AE891E0C13B71F182E991E0C23B51F187
:102DF00084E991E0C33B31F181E292E0C43B11F1FF
:102E000083E292E0C53BF1F084E292E0C63BD1F070
:102E100085E292E0C73BB1F086E292E0C83B91F0D8
:102E200087E292E0C93B71F08FE690E0CD3B51F034
:102E300080E790E0CE3B31F090E080E0CA3B11F4B7
:102E40008AE292E0CF910C942815CF9108958823BF
:102E500009F44BC0823871F40E94FB1481FF45C015
:102E600089E30E94CB200E943F2189E30E94D22067
:102E70000C943F21833859F40E94FB1480FF35C025
:102E800083E50E94CB200E943F2183E5EFCF843869
:102E900059F40E94FB1482FF28C087E40E94CB20D3
:102EA0000E943F2187E4E2CF9CEF980F913AF0F225
:102EB00090E2980F983050F4877091E001C0990F1C
:102EC0008A95EAF7892F0E94F920D2CF9BE5980FC7
:102ED000933020F490E080E00C941215885A8731EA
:102EE00020F490E080E00C9428150895CF93C82F2B
:102EF0000E944216C93349F42FEF87EE93E0215028
:102F000080409040E1F700C000008C2FCF910C94DE
:102F10002717882321F00E94F3200C943F21089565
:102F2000882321F00E94F9200C943F2108950E94EB
:102F300012210E9423210E943F2190E080E00E9404
:102F4000121590E080E00C9428150E94D9200C9472
:102F500097170E9401210C94A517282F892F82957D
:102F60008F70903C80F48A30B0F4843020F482304A
:102F700090F480E008958630E1F781E0203E88F00B
:102F8000213FB9F70EC08C3011F08F3091F793FBD1
:102F9000882780F9089581E0203F39F018F4203E19
:102FA00040F70895243F29F7FCCF08950E9495200B
:102FB0000C94AD176F927F928F929F92BF92CF9297
:102FC000DF92EF92FF920F931F93CF93DF9300D086
:102FD00000D000D0CDB7DEB76C016D837E83FC01DD
:102FE000058102950F70128111110E9412210E9419
:102FF000E920E82E882371F01123B1F08D81805EE5
:10300000883090F082E00E948A210E94E92091E0BD
:10301000E82EE926BE80B2942FE0B222EB2DF0E03C
:10302000E95DF24D0C94812CE12CF4CFFE81FF7010
:10303000FF2E8E81807F19F0F29490EFF9221123F8
:10304000B1F0FF2061F08D81805E883018F06D80D6
:10305000611009C08F2D0E94F3200E943F218D81B5
:103060000E94421615C08F2D0E940421F6CF8D813B
:103070000E942717FF2061F08D81805E883018F054
:103080007D80711042C08F2D0E94F9200E943F2147
:10309000E8E0BE1629F086E08B0D8F70823020F4B8
:1030A0000E94FB140E942F048D819E810E94AD1707
:1030B0008111FEC11092C8011092C701EE2009F4DF
:1030C00009C20E94E52080FD05C2F60112820E941D
:1030D000DF200E94EA1EC6010E947E1A0E94DF20A5
:1030E00026960FB6F894DEBF0FBECDBFDF91CF910D
:1030F0001F910F91FF90EF90DF90CF90BF909F9026
:103100008F907F906F900C941B1F8F2D0E940A212F
:10311000BDCF2E812F70F22E8E81807F803219F0EC
:10312000F29480EFF8226D80662041F0262D213048
:1031300019F1112361F1002321F191CF112381F0C5
:10314000011106C00E9426218F290E948917A0CF55
:103150000130C1F70E9426218F290E942C2198CF8F
:10316000011106C00E9435218F2D0E94901790CF2B
:10317000013009F48DCFF6CF112329F0063008F085
:1031800087CF8F2DE2CF053008F082CFEDCF00231F
:1031900059F38D81893349F49FEFE7EEF3E09150C5
:1031A000E040F040E1F700C000008D810E94271749
:1031B0006FCF8E8186958695837069F0813009F096
:1031C00067CF8D819E819370111102C090E080E0E5
:1031D0000E9428155DCF8D819E819370111102C0D0
:1031E00090E080E00E94121553CF8E81837009F029
:1031F00058C011114DCF2D81229526952770220F91
:10320000220F4D814F7050E070E060E0022E04C04C
:10321000440F551F661F771F0A94D2F76D8080E018
:1032200090E0DC0164FE0FC08FE090E0A0E0B0E031
:1032300004C0880F991FAA1FBB1F2A95D2F780953B
:103240009095A095B0952E812695269523703C01EA
:103250004D01642A752A862A972A69827A828B828E
:103260009C82223081F02330A9F0213029F0C40162
:10327000B3010E94601E0CCF69817A818B819C8191
:103280000E94381E05CF69817A818B819C810E94C2
:10329000881EFECE69817A818B819C810E94361EB8
:1032A000F7CE8695112311F08E818170882309F461
:1032B000EFCE2D81229526952770220F220F4D816A
:1032C0004F7050E070E060E0022E04C0440F551FC4
:1032D000661F771F0A94D2F77D8080E090E0DC01C2
:1032E00074FE0FC08FE090E0A0E0B0E004C0880F53
:1032F000991FAA1FBB1F2A95D2F780959095A0957C
:10330000B0952E812695269523703C014D01642AA7
:10331000752A862A972A69827A828B829C82223039
:1033200081F02330A9F0213029F0C401B3010E94BB
:10333000A91FAECE69817A818B819C810E94811FF9
:10334000A7CE69817A818B819C810E94D11FA0CEFA
:1033500069817A818B819C810E94B41E99CE2D81D6
:10336000223F09F445C080F4203F69F1213FC9F1B3
:10337000822F805E8031D0F0112309F454C00111F6
:103380006ECE8E818F7131C08D81833FC1F1843FBC
:1033900099F71123F1F1EE81EF71FE2E8E2F0E942D
:1033A000EA1E63E08F2D0E94752172CE9D819F7071
:1033B000F92E8E818F71112319F00E94EA1EE1CE41
:1033C0000E941B1FD1CE112341F0053008F060CEC2
:1033D0008E818F710E94501F5BCE063008F058CE50
:1033E000F7CF8E818F71112339F00E94EA1E50CEE3
:1033F0008E818F711123C9F30E941B1F49CE1123A7
:1034000029F08E818F710E94C51E42CE0E94C01E7F
:103410003FCE81E00E948A21023008F439CE82E05A
:103420000E948A2135CE002361F0FD81F93309F035
:10343000BCCE2FEF87EE93E0215080409040E1F723
:10344000B2CE8E818F71D8CF4E814F706D81C60103
:103450000E94F7050E94AA1D1BCE111119CE8E8164
:103460008F708330B9F048F4813071F0823079F098
:1034700081110ECE0E9498240BCE843071F08530DD
:1034800009F006CE80E00AC00E94B62401CE0E9458
:10349000F624FECD0E940125FBCD85E00E942A2561
:1034A000F7CD4E814F706D81C6010E94FA05F0CDB7
:1034B000112319F00111FECD01CE0111FBCD809138
:1034C000C7019091C801029709F0F4CD8D810E9447
:1034D0007617F0CD26960FB6F894DEBF0FBECDBF9F
:1034E000DF91CF911F910F91FF90EF90DF90CF90E0
:1034F000BF909F908F907F906F9008950F931F9330
:10350000CF93DF93EC018B819C81892B29F08881FB
:10351000998189238F3F29F4DF91CF911F910F91DA
:103520000895CE010E9441048823B1F36881798116
:103530008A810E94A1208C010E94F91F0E94351EE1
:10354000B801CE01DF91CF911F910F910C94DA1742
:10355000CF93DF9300D000D00F92CDB7DEB70F909E
:103560000F900F900F900F90DF91CF910895CF9310
:10357000DF9300D000D000D0CDB7DEB726960FB6CF
:10358000F894DEBF0FBECDBFDF91CF9108951F939A
:10359000CF93DF93E091C90116E08091CA018E13A9
:1035A00004C0DF91CF911F910895CE2FD0E01E9FD0
:1035B000F0011124E553FE4F4081518162817381F6
:1035C000848195810E94B71AFE013196E770E5CF9C
:1035D0004091FB015091FC016091FD017091FE0151
:1035E0008091FF01909100020C94B71A1F93CF9322
:1035F000DF9380910002807FC1F48091FD018823D8
:10360000A1F08091C901C091CA016091FB01709144
:10361000FC014091FE015091FF01D62FD723DA0122
:10362000A095B09516E0C81304C0DF91CF911F910B
:10363000089590E04115510511F0DF3F31F40196F6
:103640008770F1CF2A0F3B1F17C0189FF001199FF9
:10365000F00D1124E553FE4F21812713F0CF208177
:103660002613EDCF22812111EACF23813481241743
:10367000350740F3241B350B283C310500F720911A
:1036800000022F7020612093000226E0289FF001A5
:10369000299FF00D1124E053FE4F80818F708061CF
:1036A00080838BEF91E00E947E1ADF91CF911F9172
:1036B0000C94C71A9F92AF92BF92CF92DF92EF9273
:1036C000FF920F931F93CF93DF93CDB7DEB72B9766
:1036D0000FB6F894DEBF0FBECDBF8C0185E0F801B8
:1036E000DE01179601900D928A95E1F7D8014C9171
:1036F00011965C9111971296EC9012978091FE01B1
:103700009091FF01009709F46CC12091FB01309169
:10371000FC01632F62236F3F09F463C11396CD90C0
:10372000DC909090FD01992009F4FAC0C816D906E2
:1037300008F43FC0F601E81BF90BCF01FF24F39416
:10374000883C910508F0F12C8BEFA82E81E0B82E73
:1037500080910002982F907FFF2009F4B9C0911149
:1037600080C0FE2C35132AC0241328C0E11026C0C7
:103770008F708061809300020E94E81AC5010E9448
:103780007E1A80910002D80115968C938F2D2B966E
:103790000FB6F894DEBF0FBECDBFDF91CF911F9162
:1037A0000F91FF90EF90DF90CF90BF90AF909F90E0
:1037B0000895809590958C0D9D1DC0CFCD2829F042
:1037C000842F85238F3F09F028C180E0B82FB17086
:1037D000DB2EE091C9012091CA0136E080FD1CC0BA
:1037E000EE20A1F280910002816080930002F12C12
:1037F000CDCF8E2F90E03E9FF0011124E553FE4F78
:103800006181651306C06081641303C062816E111B
:10381000E7CFFC013196E770E213EBCF4F83588777
:103820008F8198850E949520292F22952F709032A4
:1038300060F0225F2F70223078F49F7051F0F80111
:103840009581907F31F4D12C0AC09F7011F08823AC
:10385000D1F3805E8830B8F3C8010E947E1AFD2C37
:1038600095CF351306C0241304C0D801EE2009F407
:103870007CC04F8358878F8198850E94D6178823F4
:1038800019F1EE2009F180910002803270F0209150
:10389000FB013091FC013A8329831B82DD82CC82BB
:1038A0008E83CE0101960E947E1A86E0F801ABEF6E
:1038B000B1E001900D928A95E1F70E94F61A0E94FC
:1038C000E81AFF24F39462CFC8010E947E1AF9CF50
:1038D000911113C07C2DDB86CA866E2D8B850E94CC
:1038E000A81A8BEF91E00E947E1A86E0F5011192F2
:1038F0008A95E9F70E94E81A49CF3513BACF241305
:10390000B8CFE110B6CFD80115968C93C8010E94AC
:103910007E1A86E0F50111928A95E9F7F92C36CFE7
:10392000C816D90680F1B601681B790BCB01F12CC2
:10393000883C910508F046C0FE2CEE2029F2351394
:1039400030C024132EC08091000280FD21C0982F2A
:10395000907FF1F0D80115968C931597903F39F030
:10396000982F907F905F8F70892B15968C93C8014C
:103970000E947E1A86E0F801ABEFB1E001900D9253
:103980008A95E1F7B7CF809590958C0D9D1DCFCF8F
:1039900086E0F801ABEFB1E001900D928A95E1F776
:1039A000F5CE4F8358878F8198850E94D617811155
:1039B0007CCF80910002816080930002C8010E9448
:1039C0007E1AE4CE7C2DDB86CA866E2D8B850E9406
:1039D000A81A86E0EBEFF1E0DF011D928A95E9F786
:1039E00089CFEE2009F470CF4F8358878F81988557
:1039F0000E94D617F82E882309F466CF86E0F801D6
:103A0000ABEFB1E001900D928A95E1F78BEF91E079
:103A10000E943D160E94F61A6DCF81E08E25D6CE0B
:103A20001F93CF93DF93CDB7DEB72C970FB6F894E3
:103A3000DEBF0FBECDBF4F83588769877A878B87DC
:103A40009C87CE0107960E945A1B882369F08A85BD
:103A50009B85892B39F04F815885842F85238F3F93
:103A600009F071C016E05FC086E0FE013796DE0106
:103A7000119601900D928A95E1F78A859B85892B95
:103A800089F388859F8189238F3F61F32091CA0143
:103A900030E0C9010196877099274091C901481704
:103AA000190671F40E94A9171092CA011092C90157
:103AB00086E0EBEFF1E0DF011D928A95E9F7D2CFC6
:103AC00096E0929FD001939FB00D1124A553BE4F55
:103AD000FE01319601900D929A95E1F78093CA010B
:103AE0000E94C71ABFCF819FC001112485539E4FEA
:103AF0000E945A1B8823E9F0E091C9011E9FF00142
:103B00001124E553FE4F408151816281738184818C
:103B100095810E94B71A8091C90190E00196877043
:103B200099278093C9018091C9019091CA01891395
:103B3000DACF2C960FB6F894DEBF0FBECDBFDF9163
:103B4000CF911F91089569857A858B859C850E9408
:103B5000B71A88CFEF92FF920F931F93CF93DF9303
:103B60008C01892B89F0F12CEE24E394E801219655
:103B7000F8018491843709F457C0A0F4823009F425
:103B80003EC048F48130D1F0DF91CF911F910F9169
:103B9000FF90EF9008959CEF980F9037A8F70E9440
:103BA00042160AC0853709F44CC09CE7980F90373D
:103BB00058F78F770E9427178E0116C00E5F1F4F90
:103BC000FE01849190E2980F983060F48770FE2D8A
:103BD00001C0FF0F8A95EAF78F2F0E9415210E94DE
:103BE0003F2102C00E9442168F2D815008F4BECFA3
:103BF000EFE9FFE03197F1F700C00000F6CF0E5F6C
:103C00001F4FFE01849190E2980F983050F4877016
:103C1000FE2D01C0FF0F8A95EAF78F2F0E941B210E
:103C2000DECF0E942717E0CF0E5F1F4FFE01C49129
:103C3000C150D0F28FE99FE00197F1F700C000007A
:103C4000F7CF0E5F1F4FFE01F490CECF08950C9476
:103C5000261E0E94271E60932D0270932E028093D1
:103C60002F02909330020C94971708950C94291EFC
:103C7000CF93DF9300D000D0CDB7DEB769837A83CE
:103C80008B839C8380912D0290912E02A0912F0214
:103C9000B091300229813A814B815C81282B392BEC
:103CA0004A2B5B2B29833A834B835C83CA01B9017E
:103CB0000F900F900F900F90DF91CF910C94291ED1
:103CC000CF93DF9300D000D0CDB7DEB769837A837E
:103CD0008B839C8380912D0290912E02A0912F02C4
:103CE000B091300229813A814B815C8128233923AC
:103CF0004A235B2329833A834B835C83CA01B9013E
:103D00000F900F900F900F90DF91CF910C94291E80
:103D1000CF93DF9300D000D0CDB7DEB769837A832D
:103D20008B839C8380912D0290912E02A0912F0273
:103D3000B091300229813A814B815C812827392753
:103D40004A275B2729833A834B835C83CA01B901E5
:103D50000F900F900F900F90DF91CF910C94291E30
:103D60000C94261E0C94B01E0E94B21E6093290271
:103D700070932A0280932B0290932C020C94971735
:103D800060E070E0CB010C94B41E0F931F93CF93AF
:103D9000DF9300D000D0CDB7DEB741E050E060E067
:103DA00070E08A019B0104C0000F111F221F331F06
:103DB0008A95D2F709831A832B833C83C901B80102
:103DC0000F900F900F900F90DF91CF911F910F9157
:103DD0000C94B41E0F931F93CF93DF9300D000D0A9
:103DE000CDB7DEB741E050E060E070E004C0440FC2
:103DF000551F661F771F8A95D2F7809129029091EF
:103E00002A02A0912B02B0912C028A019B01082B5F
:103E1000192B2A2B3B2B09831A832B833C83C90143
:103E2000B8010F900F900F900F90DF91CF911F91DD
:103E30000F910C94B41E0F931F93CF93DF9300D078
:103E400000D0CDB7DEB741E050E060E070E004C0E4
:103E5000440F551F661F771F8A95D2F740955095DE
:103E6000609570958091290290912A02A0912B0271
:103E7000B0912C028A019B01082319232A233B239A
:103E800009831A832B833C83C901B8010F900F90DB
:103E90000F900F90DF91CF911F910F910C94B41E52
:103EA0000F931F93CF93DF9300D000D0CDB7DEB731
:103EB00041E050E060E070E004C0440F551F661F11
:103EC000771F8A95D2F78091290290912A02A091BA
:103ED0002B02B0912C028A019B01082719272A275F
:103EE0003B2709831A832B833C83C901B8010F90B8
:103EF0000F900F900F90DF91CF911F910F910C9425
:103F0000B41ECF93DF9300D000D0CDB7DEB7698366
:103F10007A838B839C838091290290912A02A091BD
:103F20002B02B0912C0229813A814B815C81282B94
:103F3000392B4A2B5B2B29833A834B835C83CA0141
:103F4000B9010F900F900F900F90DF91CF910C94CB
:103F5000B41ECF93DF9300D000D0CDB7DEB7698316
:103F60007A838B839C838091290290912A02A0916D
:103F70002B02B0912C0229813A814B815C8128234C
:103F800039234A235B2329833A834B835C83CA0109
:103F9000B9010F900F900F900F90DF91CF910C947B
:103FA000B41ECF93DF9300D000D0CDB7DEB76983C6
:103FB0007A838B839C838091290290912A02A0911D
:103FC0002B02B0912C0229813A814B815C812827F8
:103FD00039274A275B2729833A834B835C83CA01AD
:103FE000B9010F900F900F900F90DF91CF910C942B
:103FF000B41E0895292F220FE22FE90FEE0FE80FCC
:104000008E2F877041E001C0440F8A95EAF7E6954C
:10401000E695E69585E0E89FF0011124EF5FFD4FFE
:1040200030E020E070E05191DF011197CB01022ECA
:1040300002C0969587950A94E2F78170819585274D
:10404000842385278C932F5F3F4F2530310559F707
:104050000895292F220FE22FE90FEE0FE80F9E2F70
:104060009770E695E695E69585E0E89FF0011124C6
:10407000EF5FFD4F50E040E080E0219130E0092EFD
:1040800002C0369527950A94E2F721703327042E53
:1040900001C0220F0A94EAF7822B4F5F5F4F453031
:1040A000510559F70895BF92CF92DF92EF92FF9298
:1040B0000F931F93CF93DF938C01C0902902D09070
:1040C0002A02E0902B02F0902C0280912D02909118
:1040D0002E02A0912F02B0913002C82AD92AEA2AD2
:1040E000FB2ACFE1D0E0BC2ED701C6010C2E04C0C4
:1040F000B695A795979587950A94D2F780FD0EC03F
:10410000219788F7B12C8B2DDF91CF911F910F91C3
:10411000FF90EF90DF90CF90BF900895B8018C2F63
:104120000E941706019761F3EECFCF93DF93D82F4C
:10413000C92F0E9453206D2F7C2FDF91CF910C94BB
:1041400017061F93CF93DF93162FD72F9091C60199
:10415000992339F0862F972FDF91CF911F910C94DF
:104160009520882391F0862F972F0E945320C82FE7
:10417000682F812F9D2F0E94FA1F612F7D2F8C2F7A
:10418000DF91CF911F910C941706862F972F0E94D5
:104190002920C82FF2CF682F809121019091220110
:1041A0000C946E22682F80912101909122010C9431
:1041B000702280912101909122010C9472228091B1
:1041C0003102859585958595089580913102877096
:1041D000089590913102977081E009F480E008958C
:1041E00080913D02089590913D02982B90933D025D
:1041F0000895982F909580913D02892380933D02E8
:10420000089510923D02089590913C02982B90934E
:104210003C020895982F909580913C0289238093C9
:104220003C02089510923C02089590913B02982B15
:1042300090933B020895982F909580913B0289239B
:1042400080933B02089510923B02089580913202C0
:10425000089508950C94292190913202981721F025
:10426000809332020C942A2108958091320288238F
:1042700029F01092320280E00C942A210895E091F6
:104280002101F091220180913D028083E091210182
:10429000F0912201808190913C02892B8083E091F2
:1042A0002101F0912201808190913B02892B808332
:1042B00090913202992381F0E0912101F091220145
:1042C0008081892B808380912101909122010E941D
:1042D000332281110E943521809121019091220188
:1042E0000C94071508950C94722198E0899F900111
:1042F0001124622B609331020E94EA1E80913102E8
:104300008595859585950C9473211092310280E0F6
:104310000C9473219091310280958923809331020E
:10432000282F277071F4282F082E000C330B9217BA
:10433000130639F08595859585950E941B1F0C9471
:104340008521089590E080E00E94BC2C9C0181E0D2
:104350002D3E3E4F09F080E0089582E090E00C94FD
:10436000AE2C83E090E00C94AE2C84E090E00C94B2
:10437000AE2C682F84E090E00C94C22C86E090E094
:104380000C94AE2C682F86E090E00C94C22CAB010C
:10439000BC018FE090E00C94D42CAB01BC0183E114
:1043A00090E00C94D42C60E070E0CB010C94CD2113
:1043B00060E070E0CB010E94C7210C94D3216DEE28
:1043C0007EEF90E080E00E94E02C60E082E090E0F0
:1043D0000E94C22C60E083E090E00E94C22C109208
:1043E0002D0210922E0210922F021092300260E0E5
:1043F00084E090E00E94C22C60E085E090E00E94A2
:10440000C22C60E086E090E00E94C22C6FEF87E053
:1044100090E00E94C22C40E050E0BA0188E090E0B9
:104420000E94D42C60E08DE090E00E94C22C40E01D
:1044300050E0BA0188E190E00E94D42C60E087E16E
:1044400090E00E94C22C40E050E0BA018CE190E084
:104450000E94D42C60E080E290E00E94C22C0C9478
:10446000D8210C94DF21AC019C012E5F3F4F485FA7
:104470005F4F80E02417350709F40895F901919101
:104480009F019923B9F38F5FF5CF9C01FC01329610
:104490008FEF90E04191461751F08F3F19F4411191
:1044A00001C0892F9F5F9630A9F78F3F09F40895C7
:1044B000280F311D87FD3A95F901628308959C010B
:1044C000FC013296285F3F4F8191861303C0DF01C4
:1044D00011971C92E217F307B9F708950C9445223F
:1044E0000C945F22FC01329686E0DF011D928A95D2
:1044F000E9F70895089508950C947B220E947C2288
:1045000080918202843061F110923F0288E190E054
:1045100020E40FB6F894A895809360000FBE209316
:10452000600080E00E94A80380E00E942F040E94A7
:104530007C2283B7817F846083BF83B7816083BF20
:104540007894889583B78E7F83BF0FB6F894A8952B
:1045500080916000886180936000109260000FBEBF
:1045600008950895CF930E947A220E9495090E948F
:10457000B122C0E08C2F0E94AA08811105C0CF5F34
:10458000CA30C1F7CF91089581E0FCCF08950C9413
:10459000C6220E94A9170E947C240E94FB140E943C
:1045A0002F040C94C7221F921FB61F9211248F93C1
:1045B0009F93AF93BF9380913F02811113C080916D
:1045C000770290917802A0917902B0917A02419697
:1045D000A11DB11D8093770290937802A093790278
:1045E000B0937A02BF91AF919F918F911F901FBEA0
:1045F0001F90189582E084BD93E095BD9AEF97BD1A
:1046000080936E0008952FB7F8948091770290916F
:104610007802A0917902B0917A022FBF0895CF92CB
:10462000DF92EF92FF929C014FB7F894809177024E
:1046300090917802A0917902B0917A024FBF6C01FB
:104640007D01EE24FF24A90170E060E0C416D506C8
:10465000E606F70638F0821B930BFF90EF90DF9091
:10466000CF9008950197F7CF78941F921FB61F92AD
:1046700011248F939F93AF93BF9380917702909172
:104680007802A0917902B0917A020196A11DB11D24
:104690008093770290937802A0937902B0937A0284
:1046A000BF91AF919F918F911F901FBE1F90189542
:1046B00081E08093E00080E28093D8001092C900EE
:1046C0008FE19EE40197F1F700C0000087E090EBD6
:1046D000DC0180938B0290938C02A0938D02B093A7
:1046E0008E0288E19CE00FB6F894A8958093600054
:1046F0000FBE90936000FFCFCF93DF9300D000D028
:10470000CDB7DEB70E94A221811102C00E943122E2
:104710000E94AD2180933E020E94B52190E09093CB
:104720007C0280937B020E94B121282F30E050E070
:1047300040E029833A834B835C83CA01B9010F901F
:104740000F900F900F90DF91CF910C94361E0F9326
:104750001F93CF93DF9300D000D0CDB7DEB741E0F9
:1047600050E060E070E08A019B0104C0000F111F5F
:10477000221F331F8A95D2F709831A832B833C8328
:10478000C901B8010E94361E0F900F900F900F9034
:10479000DF91CF911F910F910C94A9178B3258F490
:1047A0008530C0F0EBEFE80FE632A0F4F0E0E95C12
:1047B000F24D0C94812C833450F48A3308F05CC0A1
:1047C000853309F455C0883329F481E00895833492
:1047D00009F44EC080E008950E943122F6CF809106
:1047E0003E02807F80933E0281E0809340020895E4
:1047F0000E94A9172FEF83ED90E321508040904055
:10480000E1F700C000000E945823DFCF90913E02E4
:10481000892F8E7F90FF816080933E0280FDD5CFEF
:10482000817F80933E02D1CF90913E02892F8D7F70
:1048300091FF826080933E0281FFC7CF80913E024C
:104840008160EFCF90913E02892F8B7F92FF846031
:1048500080933E0282FDF2CFB8CF90913E02892F25
:10486000877F93FF886080933E0283FDE7CFADCFC3
:1048700080E00E94A723A9CF8953FBCF8D51F9CFA8
:1048800080E008950C944024CF93C82F809140027B
:10489000882331F0813099F01092400280E00DC001
:1048A0000E94F0208232D1F78C2F0E944024811187
:1048B00019C08C2F0E94CE238170CF9108950E9441
:1048C000F020823289F38C2F0E944224811112C081
:1048D000C93229F050F4CB3069F0C43169F7109235
:1048E000400206C081E090E0E7CF81E0C83321F3C9
:1048F00080E0E2CF81E0E0CF0E94A221811102C0DE
:104900000E9431220E94BE2180937D02803320F0DC
:104910008770886280937D0290917D02892F8170DB
:1049200090FF04C0892F8695869586950C94A803E0
:1049300080917D02982F969596959695883240F4B1
:104940009F5F990F990F990F8770892B80937D0234
:1049500080917D02816080937D020E94C2218091BE
:104960007D028695869586950C94A80380917D029C
:10497000982F987F79F0885080937D02887F91E00E
:1049800009F490E080917D0290FB80F980937D0294
:104990000E94C22180917D028695869586950C9411
:1049A000A80380917D0280FD13C0816080937D0209
:1049B000813019F489E080937D0280917D020E940C
:1049C000C22180917D028695869586950C94A803D8
:1049D000089580917D0280FF08C08E7F80937D02C4
:1049E0000E94C22180E00C94A803089580917D026A
:1049F00080FD0C94E9240C94D12480917D02817077
:104A0000089590917D02892F8695869586958F5F72
:104A10008F7197708630D8F4880F880F880F892B94
:104A200080937D0280917D02887F91E009F490E07F
:104A300080917D0290FB80F980937D020E94C221CB
:104A400080917D028695869586950C94A803909317
:104A50007D02E8CF863008F085E0982F990F990FF6
:104A6000990F80917D028770892B80937D02887FCA
:104A700091E009F490E080917D0290FB80F98093B1
:104A80007D020E94C22180917D0286958695869541
:104A90000C94A80380917D0286958695869508954D
:104AA00080914902089508950F931F93CF93DF9348
:104AB00000D00F92CDB7DEB78C010E9482278230E2
:104AC00011F0843021F584E089830A831B8382E01E
:104AD0008093E9008FEF9091E800815095FD06C02A
:104AE00095ED9A95F1F700008111F5CF8091E800DE
:104AF00085FF0DC050E040E063E070E0CE0101961C
:104B00000E949F278091E8008E778093E8000F90A5
:104B10000F900F90DF91CF911F910F910895CF9338
:104B2000DF9300D00F92CDB7DEB79C018091820257
:104B3000843031F583E08983205831093B832A830F
:104B400082E08093E9008FEF9091E800815095FD1D
:104B500006C095ED9A95F1F700008111F5CF80918F
:104B6000E80085FF0DC050E040E063E070E0CE015A
:104B700001960E949F278091E8008E778093E8003D
:104B80000F900F900F90DF91CF910895CF93DF9307
:104B9000D82FC92F0E948227823011F0843049F526
:104BA00081E08093E9008FEF9091E800815095FDBE
:104BB00006C095ED9A95F1F700008111F5CF80912F
:104BC000E80085FF16C050E040E068E070E08D2FFF
:104BD0009C2F0E949F278091E8008E778093E800A9
:104BE00088E0ED2FFC2FA1E4B2E001900D928A95B0
:104BF000E1F7DF91CF91089580918102811109C081
:104C00000E9427290E9484298091E2008460809379
:104C1000E2000895109281020895089508950C9479
:104C2000C92242E061EC81E00E94A32842E261ECEB
:104C300082E00C94A32880918402893089F148F4A1
:104C4000823009F49DC0833009F458C0813041F0AE
:104C500008958A3009F484C08B3009F46AC008953D
:104C600080918302813A09F048C08091E800877FF3
:104C70008093E8008091870290918802892B61F4EB
:104C800068E081E492E070E00E94EE278091E80005
:104C90008B778093E800089560E090E080E0F3CFA8
:104CA00080918302813249F5809187029091880238
:104CB000029718F58091E800877F8093E800809143
:104CC000E80082FF16C09091F3008091F2000297F5
:104CD00029F48091F1008B7F813021F48091F100E3
:104CE000809349028091E8008B778093E8000C94D0
:104CF000D728809182028111E2CF089580918302AA
:104D0000813AD9F78091870290918802892BA9F77F
:104D10008091E800877F8093E8008091E80080FF21
:104D2000FCCF80912D018093F1008091E8008E7777
:104D3000DCCF80918302813201F7809187029091CC
:104D40008802892BD1F68091E800877F8093E80064
:104D50000E94D7288091850280932D010C94A91779
:104D600080918302813249F68091E800877F8093A9
:104D7000E8000E94D7288091860280934A02089515
:104D800080918302813A09F0B8CF8091E800877F53
:104D90008093E8008091E80080FFFCCF80914A0278
:104DA000C2CF84B7877F84BF0FB6F894A89580914F
:104DB0006000886180936000109260000FBE80E800
:104DC00080936100109261000E944B150E94272978
:104DD0000E9484298091E20084608093E2007894AC
:104DE0000E940C2C0E94511583E291E00E94F6145F
:104DF00080918202853029F00E945D150E94051184
:104E0000F7CF0E947E2280918002882389F30E943E
:104E1000B222882369F30E948927EACF0C941027D5
:104E2000FC01CB01DA012F2F332723303105D1F0DC
:104E300070F42130310509F445C02230310569F4A0
:104E40008BE390E023E535E02D933C9308952132E8
:104E5000310521F12232310559F190E080E030E056
:104E600020E0F2CFCF019927E230A9F083309105FD
:104E700050F4009769F0EFE3F5E0019771F7849142
:104E800090E09F01E1CFEBE1F5E00397C1F3E5CFBF
:104E9000EFE4F5E0F4CFE1E2F5E0F1CF892BB9F0F2
:104EA00061307105D1F689E090E02EE735E0CCCF96
:104EB000892B91F06130710581F686E390E020EA5C
:104EC00035E0C2CF82E190E02EE835E0BDCF89E049
:104ED00090E025E635E0B8CF80E490E026ED35E0BF
:104EE000B3CF0895CF93C82F0E947127C0934B0270
:104EF000CF91089580918202843011F482E0089568
:104F000081E0089580914B02811102C00C947A27B0
:104F1000089580E189BD82E189BD09B400FEFDCF1D
:104F20008091D8008F7D8093D8008091E0008260CE
:104F30008093E0008091E00081FDFCCF0895AF9266
:104F4000BF92CF92DF92FF920F931F93CF93DF9385
:104F50006C01EB018A010E94F628F82E811123C012
:104F60000115110539F0F80180819181C81BD90B19
:104F7000C80ED91EB12CA12C2097A9F08091E80071
:104F800085FD22C08091E8008E778093E8000115AE
:104F90001105A1F0F80180819181A80EB91EB1829E
:104FA000A08285E0F82E8F2DDF91CF911F910F9178
:104FB000FF90DF90CF90BF90AF9008950E94F628A9
:104FC0008823D1F2F82EEFCFF60181916F01809303
:104FD000F1002197FFEFAF1ABF0ACECFFC01CB0142
:104FE0002091890230918A022617370790F00097A6
:104FF00029F42091E8002E772093E80040E0009704
:1050000051F4411108C08091E80082FF31C080E076
:105010000895C901F3CF209182022223A9F12530FE
:10502000A9F12091E80023FD2DC02091E80022FD88
:10503000EACF2091E80020FFE2CF3091F3002091E9
:10504000F200009719F02830310558F041E028307F
:10505000310509F040E02091E8002E772093E80028
:10506000CECF41914093F10001972F5F3F4FE9CFA1
:1050700080918202882341F0853041F08091E800E0
:1050800083FFC1CF81E0089582E0089583E0089511
:10509000FC01CB012091890230918A022617370743
:1050A00090F0009729F42091E8002E772093E800F3
:1050B00040E0009751F4411108C08091E80082FF60
:1050C00032C080E00895C901F3CF209182022223EB
:1050D000B1F12530B1F12091E80023FD2EC02091DF
:1050E000E80022FDEACF2091E80020FFE2CF3091D6
:1050F000F3002091F200009719F02830310558F0A4
:1051000041E02830310509F040E02091E8002E7799
:105110002093E800CECF44914093F100319601975F
:105120002F5F3F4FE8CF80918202882341F0853086
:1051300041F08091E80083FFC0CF81E0089582E0D4
:10514000089583E00895982F973028F08F7080930A
:10515000E90081E008959093E900242F762F50E034
:10516000981731F07091EC002091ED005091F00013
:1051700021FD02C09F5FE8CF3091EB003E7F30936E
:10518000EB003091ED003D7F3093ED003091EB006E
:1051900031603093EB007093EC002093ED0050935E
:1051A000F0002091EE0027FDE5CF80E0089580918A
:1051B000830287FF13C08091E80082FF06C08091C0
:1051C000E8008B778093E80004C08091820281110F
:1051D000F2CF0895809182028823D9F38091E8006C
:1051E00080FFF8CF8091E8008E77ECCF2091E4002B
:1051F0003091E50095E6A9012091EC00822F8170A5
:1052000020FF06C08091E80080FF06C080E008957E
:105210002091E80022FD1AC080918202882389F043
:10522000853089F08091EB0085FD0FC02091E4006E
:105230003091E50042175307F9F29150E1F684E00E
:10524000089582E0089583E0089581E008950E9422
:1052500095290E949D29E0EEF0E0808181608083A5
:10526000E8EDF0E080818F77808319BCA7EDB0E096
:105270008C918E7F8C9380818F7E808310928102AF
:1052800008950F931F93CF93DF930E9495290E9457
:105290009D29C8EDD0E088818F77888388818068D8
:1052A000888388818F7D888319BC10928202109236
:1052B0007E021092800210927F0200EE10E0F80150
:1052C00080818B7F808388818160888342E060E079
:1052D00080E00E94A328E1EEF0E080818E7F808351
:1052E000E2EEF0E08081816080838081886080834D
:1052F000F80180818E7F8083888180618883DF913F
:10530000CF911F910F910895E8EDF0E080818F7E9D
:105310008083E7EDF0E080818160808384E082BF5C
:1053200081E0809381020C944129E8EDF0E08081D6
:105330008E7F80831092E20008951092DA0010921E
:10534000E10008951F920F920FB60F9211242F9330
:105350003F934F935F936F937F938F939F93AF93FD
:10536000BF93EF93FF938091E10082FF0BC0809188
:10537000E20082FF07C08091E1008B7F8093E10013
:105380000E940B2C8091DA0080FF19C08091D80018
:1053900080FF15C08091DA008E7F8093DA008091C3
:1053A000D90080FF94C080E189BD82E189BD09B444
:1053B00000FEFDCF81E0809382020E94FC25809157
:1053C000E10080FF19C08091E20080FF15C080914C
:1053D000E2008E7F8093E2008091E2008061809302
:1053E000E2008091D80080628093D80019BC85E0EB
:1053F000809382020E940E268091E10084FF29C0E2
:105400008091E20084FF25C080E189BD82E189BDF1
:1054100009B400FEFDCF8091D8008F7D8093D80025
:105420008091E1008F7E8093E1008091E2008F7E89
:105430008093E2008091E20081608093E20080919D
:105440007E02882309F449C084E0809382020E948E
:105450000F268091E10083FF29C08091E20083FF45
:1054600025C08091E100877F8093E10082E08093F6
:10547000820210927E028091E1008E7F8093E10093
:105480008091E2008E7F8093E2008091E200806153
:105490008093E20042E060E080E00E94A3288091D7
:1054A000F00088608093F0000E940D26FF91EF913C
:1054B000BF91AF919F918F917F916F915F914F912C
:1054C0003F912F910F900FBE0F901F90189519BC10
:1054D000109282020E940A2672CF8091E30087FD1B
:1054E00002C081E0B2CF83E0B0CF1F920F920FB61F
:1054F0000F9211242F933F934F935F936F937F935A
:105500008F939F93AF93BF93CF93DF93EF93FF93CB
:10551000D091E900DF708091EC00C82FC17080FD50
:10552000C0E81092E9008091F000877F8093F0003E
:1055300078940E94B92A1092E9008091F000886066
:105540008093F000CD2BCF70C093E900FF91EF91D5
:10555000DF91CF91BF91AF919F918F917F916F918B
:105560005F914F913F912F910F900FBE0F901F9021
:1055700018951F93CF93DF93CDB7DEB7AA970FB6D9
:10558000F894DEBF0FBECDBF83E892E0FC01019628
:105590002091F100208322E08B389207B9F70E9416
:1055A0001B268091E80083FF1EC1809183029091A9
:1055B00084029A3008F017C1E92FF0E0E35AF24D67
:1055C0000C94812C803899F0823809F00CC18091BC
:1055D00087028F70873008F006C18093E9008091C0
:1055E000EB0085FB882780F91092E90006C08091C6
:1055F0007F0290918002911182609091E800977FE4
:105600009093E8008093F1001092F1008091E800FF
:105610008E77E5C0882309F4D3C0823009F0E3C057
:10562000809185028111D6C0809187028F702FEF03
:10563000280F263008F0D7C08093E9002091EB00B6
:1056400020FFC8C0933031F48091EB0080628093DA
:10565000EB00C0C09091EB0090619093EB0021E0D3
:1056600030E001C0220F8A95EAF72093EA001092F9
:10567000EA008091EB008860EACF8111B4C01091FC
:1056800085021F778091E3008078812B8093E3006F
:105690008091E800877F8093E8000E94D72880915E
:1056A000E80080FFFCCF8091E30080688093E300F6
:1056B00082E0111183E08093820295C0805882308D
:1056C00008F091C080918502909186028C3D23E084
:1056D0009207A1F583E08A838AE289834FB7F89421
:1056E000DE01139620E03EE051E2E32FF0E050931C
:1056F0005700E49120FF03C0E295EF703F5FEF7029
:105700008E2F90E0EA30C0F0C7968D939D932F5F67
:10571000243159F74FBF8091E800877F8093E800DC
:105720006AE270E0CE0101960E94EE278091E800C7
:105730008B778093E80057C0C096E7CF60918702CF
:1057400070918802AE014F5F5F4F0E940E27BC012F
:10575000892B09F448C08091E800877F8093E80096
:1057600089819A810E944828E1CF8038E1F58091B3
:10577000E800877F8093E80080917E028093F100AB
:1057800045CF811130C090918502923060F58091B3
:10579000E800877F8093E80090937E020E94D728DC
:1057A00080917E02882311F084E005C08091E3009F
:1057B00087FDFACF81E0809382020E94112613C0F8
:1057C00080918502813079F481E0933009F080E0A6
:1057D000809380021092E9008091E800877F809397
:1057E000E8000E94D7288091E80083FF0AC08091DA
:1057F000E800877F8093E8008091EB0080628093CF
:10580000EB00AA960FB6F894DEBF0FBECDBFDF91B6
:10581000CF911F9108950895CF938091820288239C
:10582000A1F0C091E900CF709091EC00892F8170B8
:1058300090FD80E8C82B1092E9008091E80083FD7C
:105840000E94B92ACF70C093E900CF910895DB017F
:105850008F939F930E94962CBF91AF91A29F800D32
:10586000911DA39F900DB29F900D11240895AA1B26
:10587000BB1B51E107C0AA1FBB1FA617B70710F03B
:10588000A61BB70B881F991F5A95A9F7809590956D
:10589000BC01CD01089597FB072E16F4009407D0A4
:1058A00077FD09D00E94372C07FC05D03EF4909577
:1058B00081959F4F0895709561957F4F0895A1E25E
:1058C0001A2EAA1BBB1BFD010DC0AA1FBB1FEE1F7A
:1058D000FF1FA217B307E407F50720F0A21BB30BC5
:1058E000E40BF50B661F771F881F991F1A9469F741
:1058F00060957095809590959B01AC01BD01CF019D
:105900000895EE0FFF1F0590F491E02D0994A29FDA
:10591000B001B39FC001A39F700D811D1124911D83
:10592000B29F700D811D1124911D08950E94872C36
:10593000A59F900DB49F900DA49F800D911D1124E3
:105940000895FC014150504030F001900616D1F707
:105950003197CF010895882799270895F999FECFA7
:1059600092BD81BDF89A992780B50895A6E1B0E06F
:1059700044E050E00C94E82CA8E1B0E042E050E0B4
:105980000C94E82C262FF999FECF92BD81BDF89A90
:10599000019700B4021639F01FBA20BD0FB6F89473
:1059A000FA9AF99A0FBE08950396272F0E94C32CE6
:1059B0000E94C22C252F0E94C32C242F0C94C32C90
:1059C0000196272F0E94C32C0C94C22CDC01CB0122
:1059D000FC01F999FECF06C0F2BDE1BDF89A3196FF
:1059E00000B40D9241505040B8F70895F894FFCF9D
:1059F000B204B804C204CC04D204D804DE04E40423
:105A0000EA04F004F704FE04060515052405330531
:105A100042055105570566056E046E046E046E045A
:105A20006E046E046C057405AC049805A405A80505
:105A3000AC05B005B405B805BC05C005C405C8056E
:105A4000CC05D005D405D805DC05E005E40516181D
:105A5000161889188918D918481848184818F518B8
:105A60004818AF19AF19241A2D1A4818511AF823DB
:105A7000EF230624E523EA23EA23E523EA23EA23A6
:105A80002224EA232D24EA23EA23EA23EA23EA2331
:105A9000E523EA23EA23E523EA231424EA23EA237D
:105AA0003E243E243E243E243E243E243E243E24E6
:105AB0003E243824EA23F823EC23E22A0A2BF32B92
:0E5AC0000A2BF32B3D2B5E2BF32BB52BC12BAA
:105ACE00018901018A01068B0191010892010000F2
