:100000000C9483040C94CA040C94CA040C94CA047F
:100010000C94CA040C94CA040C94CA040C94CA0428
:100020000C94CA040C94CA040C94F72E0C94CB2F95
:100030000C942C240C94CA040C94CA040C94CA0486
:100040000C94CA040C9465120C94CA040C94CA044F
:100050000C9489120C9477240C94CA040C94CA044E
:100060000C94CA040C94CA040C94CA040C94CA04D8
:100070000C94CA040C94CA040C94CA040C94CA04C8
:100080000C94CA040C94CA040C94CA040C94CA04B8
:100090000C94CA040C94CA040C94CA040C94CA04A8
:1000A0000C94CA040C94CA040C94CA043643413517
:1000B000344237413241323341363641006E757435
:1000C0007479377400290001001E001F00200021F0
:1000D0000022000100230024002500260027004CF8
:1000E000002A002B022B0014001A0009001300053F
:1000F0000001000D000F0018001C00330035000146
:10010000000451005704001500160017000A0001F2
:10011000001000110008000C00120034002800023A
:1001200051E1001D001B0006000700190038000EF9
:10013000000B00360037002D00E5000100E000064E
:100140005101000251E200E3002C61175C0551E20D
:100150000003510100010001000100010001000144
:100160000001000100010001000100010001000187
:100170000001000100010001000100010001000177
:1001800000010001000100010001004C002A0001F3
:100190000001000100010001000100010001000157
:1001A000000100010001005000510052004F000109
:1001B0000001000100010001000100010001000137
:1001C0000001000100010001000100010001000127
:1001D0000001000100010001000100010001000117
:1001E0000001000100010001000100010001000107
:1001F00000010001000100010001000100010001F7
:1002000000010001000100010001000100010001E6
:1002100000010001000100010001000100010001D6
:1002200000AE0078000100010001000100010001A2
:10023000000100005C0100010001000100A800AA0B
:1002400000A900BD00010001000100010001000142
:1002500000010001000100010001000100BC00BB21
:1002600000BE0001000100010001000100010001C9
:100270000001000100010001000100010001000176
:100280000001000100010001000100010001000166
:100290000001000100010001000100010001000156
:1002A0000001000100010001000100010001000146
:1002B0000001000100010040004100420045000132
:1002C0000001000100010001000100010001000126
:1002D00000010001003D003E003F0044000100011C
:1002E0000001000100010001000100010001000106
:1002F0000001003A003B003C004300010001000106
:1003000000010001000100010001000100010001E5
:1003100000010001000100010001000100010001D5
:10032000000100010001000100010053000100670D
:10033000005400550001000100010001000100010E
:10034000000100010001000100010001005F0060E8
:1003500000610056000100010001000100010001E0
:100360000001002C000100010001005C005D005E46
:100370000057000100580001000100010001004C7D
:10038000002A0001000100010059005A005B0036FC
:100390000001000100010001000100010001000155
:1003A00000010001006200620062006300010001C0
:1003B0000001000100010001000100010001000135
:1003C0000001000100010001000100010001000125
:1003D0000001000100350035022F02300238000113
:1003E000003102240225022E003302010001000424
:1003F0005101003602370226022702290001002E91
:10040000022102220223022800340201000100011D
:10041000002B022B002F003000310001002D001EA8
:10042000021F0220022B0001000100010001000157
:100430000001000100010001000100010027002768
:10044000003700010001000100010001000100016E
:100450000001000100010001000100010001000194
:100460000001000100010001000100010001000184
:100470000001000100010001000100010001000174
:100480000001000100010001000100010001000164
:1004900000010001000B010D010E010F010100011F
:1004A0000001000100010001000100010001000144
:1004B0000001000100010001000100010001000134
:1004C000000100010001000100010001002C0101F8
:1004D000002C0101000100010001000100010000E9
:1004E000000000000000002A2B280000000000008F
:1004F0000000000000000000000029000000002CA7
:100500001E3420212224342627252E362D37382745
:100510001E1F202122232425263333362E37381F51
:100520000405060708090A0B0C0D0E0F1011121313
:100530001415161718191A1B1C1D2F3130232D35B1
:100540000405060708090A0B0C0D0E0F10111213F3
:100550001415161718191A1B1C1D2F3130354C0095
:10056000000000000000000000000000000000008B
:100570000000007E0F00D4FFFFFFC70000007832AC
:10058000190A00047F3F1F643214643214783C1E41
:100590001E140A052223252628292A2C2D2F303225
:1005A000333536383A3B3D3E4042434547494A4C55
:1005B0004E5051535557595A5C5E60626466686983
:1005C0006B6D6F71737577797B7D7F81838587898B
:1005D0008A8C8E90929496989A9C9E9FA1A3A5A790
:1005E000A8AAACAEAFB1B3B4B6B8B9BBBCBEBFC1BC
:1005F000C2C3C5C6C7C9CACBCCCDCED0D1D2D2D347
:10060000D4D5D6D7D7D8D9D9DADADBDBDBDCDCDC5A
:10061000DCDCDDDDDDDDDCDCDCDCDCDBDBDBDADA1D
:10062000D9D9D8D7D7D6D5D4D3D2D2D1D0CECDCC94
:10063000CBCAC9C7C6C5C3C2C1BFBEBCBBB9B8B6A9
:10064000B4B3B1AFAEACAAA8A7A5A3A19F9E9C9A34
:1006500098969492908E8C8A89878583817F7D7B02
:1006600079777573716F6D6B6968666462605E5CE3
:100670005A5957555351504E4C4A494745434240A9
:100680003E3D3B3A3836353332302F2D2C2A29283F
:1006900026252322FFAA7F55400001010101010107
:1006A0000101010202020202020202020303030329
:1006B00003030303040404040404040505050505F9
:1006C00006060606060707070707080808080909B7
:1006D00009090A0A0A0B0B0B0C0C0C0D0D0D0E0E62
:1006E0000E0F0F0F101011111112121313141415F5
:1006F0001516161717181819191A1A1B1B1C1D1D69
:100700001E1E1F20202122222324242526262728BE
:1007100029292A2B2C2D2D2E2F30313232333435EE
:10072000363738393A3B3C3D3E3F404142434445F1
:10073000464748494A4C4D4E4F50515354555658D0
:10074000595A5B5D5E5F616264656668696B6C6D7A
:100750006F7072737577787A7B7D7E8082838587F0
:10076000888A8C8E8F91939596989A9C9EA0A2A32E
:10077000A5A7A9ABADAFB1B3B5B7BABCBEC0C2C433
:10078000C6C9CBCDCFD1D4D6D8DBDDDFE2E4E7E9F3
:10079000EBEEF0F3F5F8FAFDFF0403300000000A79
:1007A00003580044003700350000000C037800694E
:1007B0000075006400690000000403090409023B9D
:1007C00000020100A0FA0904000001030101000970
:1007D00021110100012240000705810308000A09D8
:1007E000040100010300000009211101000122BCE5
:1007F000000705820320000A120110010000000812
:100800004478757501000102030105010902A10187
:1008100085020901A1000509190129051500250115
:100820009505750181029501750381010501093066
:1008300009311581257F95027508810609381581D2
:10084000257F950175088106050C0A38021581255A
:100850007F950175088106C0C005010980A1018549
:100860000319012AB700150126B7009501751081FB
:1008700000C0050C0901A101850419012AA0021577
:100880000126A002950175108100C005010906A18D
:10089000018505050719E029E7150025019508756B
:1008A0000181020507190029EF1500250195F07552
:1008B0000181020508190129059505750191029527
:1008C0000175039101C005010906A101050719E0A1
:1008D00029E7150025019508750181029501750824
:1008E00081010507190029FF150026FF00950675EF
:1008F00008810005081901290595057501910295E2
:100900000175039101C011241FBECFEFDAE0DEBFF5
:10091000CDBF04B603FE27C080914C0390914D03D8
:10092000A0914E03B0914F038730904BA740B04B3E
:10093000D1F410924C0310924D0310924E0310927A
:100940004F0314BE84B7877F84BF0FB6F894A89571
:1009500080916000886180936000109260000FBEFB
:10096000E0E0F8E3099511E0A0E0B1E0E4E0F7E6AB
:1009700002C005900D92AE3EB107D9F723E0AEEE6E
:10098000B1E001C01D92AC34B207E1F70E94282CFF
:100990000C9405330C9400000C9438050C94040559
:1009A0000C94A5062A9A0895229A0C94D2048F9A40
:1009B0000895879A0C94D7048C980895849A0C947F
:1009C000DC048D9A0895859A0C94E1040E94D40465
:1009D0000E94D9040E94DE040E94E3040C942909B9
:1009E000FC018081823019F489E30C94761881E04F
:1009F0000C942820FC018081823019F489E30C9446
:100A00000D1981E00C944920CF938633910521F094
:100A1000C797D9F0C1E00FC0E0912D01F0912E01F0
:100A20008081827259F0FB01C28188E3CC23C1F03E
:100A30000E947618C0E08C2FCF91089581EE0E941D
:100A40000D1988E30E940D19E5CFE0912D01F09179
:100A50002E018081827239F0FB01C2818EE1E6CFE6
:100A60000E940D19E8CF81EE0E940D198EE1EACFA8
:100A700080912E02882309F454C080912C02909119
:100A80002D020E9468248D32914008F44AC01092D1
:100A90002E020E94B1168091220290912302439768
:100AA00009F03FC080912402909125024897E1F01F
:100AB0008091240290912502439799F58091260216
:100AC000909127022091280230912902822B932BAA
:100AD00020912A0230912B02822B932B892B09F52E
:100AE0008CEA90E00C949406809126029091270263
:100AF0002091280230912902822B932B20912A02E7
:100B000030912B02822B932B892B59F48DEB90E0A3
:100B10000E9494068091220290912302439741F211
:100B20000895089581E0089508950C9494051F9305
:100B3000CF93DF9300D000D00F92CDB7DEB74983BB
:100B40005A836B833091400289819A8131111DC093
:100B50006623B9F02223A9F00E941821182F682FCC
:100B600089819A810E94C42069817A81812F0F90A6
:100B70000F900F900F900F90DF91CF911F910C94D9
:100B80001E070E94F020182FEFCF0E9418216981C4
:100B90007A81EDCFFC01262F4081518162817381E2
:100BA00084810C949705CF93DF93EC0160E00E9461
:100BB000CA05BE01DF91CF910C949505FF920F936A
:100BC0001F93CF93DF93E82FF0E0E152FB4FF490B7
:100BD000C82FC695C695C695D0E0FE01E159FA4FDB
:100BE0000491877010E0082E02C0159507950A94AD
:100BF000E2F701701127C15ADA4FFE01C491D0E02B
:100C000002C0D595C7958A95E2F7C170DD27011519
:100C1000110519F081EE0E947618209719F086EEE2
:100C20000E9476188F2D0E946319CD2B19F086EE45
:100C30000E940D19012B41F081EEDF91CF911F91A0
:100C40000F91FF900C940D19DF91CF911F910F918F
:100C5000FF900895EF92FF920F931F93CF93DF932E
:100C60008C01F62E8AE0E82EF8018491882309F49D
:100C700054C0813009F04DC0E8012196FE018491F5
:100C8000813091F42196FE0184910E9463198E01B6
:100C90000F5F1F4F8F2D815038F3EFE9FFE0319741
:100CA000F1F700C00000F7CF823039F4E801229656
:100CB000FE0184910E947618EACF833039F4E8016E
:100CC0002296FE0184910E940D19E1CF8430F9F63D
:100CD000E8012296FE01249190E080E0FE01319629
:100CE0002053330B2A30310548F0019780F2EFE9A9
:100CF000FFE03197F1F700C00000F7CFE89EA001B8
:100D0000E99E500D1124C901840F951F2491EF0114
:100D1000E5CF0E94DE05E801BACFDF91CF911F91A8
:100D20000F91FF90EF90089560E00C942A060E94C6
:100D30005F22811102C00E940F230E942A130C948B
:100D4000E6040E9461160C94CC04089581E0089595
:100D50000C94A606CF93C82F0E94D0048C2FCF915D
:100D60000C94A80608950E94F21B0E94B2062FEF71
:100D700084E39CE0215080409040E1F700C00000F7
:100D80000C949B240F931F93CF93DF93EC0161E0AE
:100D90000E94CA058C01BE010E94C115BE01C80196
:100DA0000E94CE048823E9F1BE01C8010E942E12E0
:100DB0008823B9F1BE01C8010E940716882389F172
:100DC000BE01C8010E94CB16882359F1BE01C8019B
:100DD0000E94D313882329F1BE01C8010E94141474
:100DE0008823F9F0BE01C8010E9437158823C9F095
:100DF000BE01C8010E94F510882399F08A818823DA
:100E000039F001158CE5180751F00F3D1C4579F0BC
:100E1000CE01DF91CF911F910F910C9492050E940A
:100E2000B30680E0DF91CF911F910F9108950E944A
:100E30000F23F7CF90E080E008950895972F70E09A
:100E40002FE0929F600D711D1124FB019BE4899F8F
:100E5000E00DF11D1124EE0FFF1FEB53FF4F8591A5
:100E600094910895FC01EE0FFF1FE158FA4F859110
:100E700094910895CF93DF930E941E070E944F081C
:100E8000EC01811520E5920708F042C0811530E49D
:100E9000930708F0BDC0883E910528F5803E910576
:100EA00008F09DC0883A910588F4853A910508F0CC
:100EB0008FC08130910509F492C0009709F48FC06A
:100EC000049708F08CC0D0E0C0E089C08F3B91054A
:100ED00008F489C0805C9109C03CD105A0F30E9450
:100EE0003207EC017CC08115904250F4C11581E0BD
:100EF000D80708F074C0C03FD10528F3D0656FC093
:100F0000C11590E3D90708F079C0CE019F70E7CFF3
:100F1000811525E5920758F5811534E5930708F00A
:100F2000A6C0811542E5940750F4C11581E5D807A4
:100F300008F471C0DC2FCC27C16FD06A50C0982F45
:100F4000969596959E0123703327C115D34508F0D9
:100F50007FC0C1E0D0E002C0CC0FDD1F2A95E2F7D0
:100F600020E2929FC0011124C82BD92B6FC0C1155C
:100F700089E5D807A8F4C11598E5D90708F07CC021
:100F8000C11526E5D20708F09ECF8C2F0E94E608F7
:100F9000C82FD0E0DC2FCC27CC27DF71D0621FC058
:100FA000C1153AE5D30708F46CC0CE0190568115FF
:100FB000904208F088CF8D2F8F710E94E60890E054
:100FC000982F882788279F719C012C2BE901E6CF59
:100FD000C55AD0E0C059DE4FC881D0E0D064CE0100
:100FE000DF91CF910895C85AD0E0CC0FDD1FCE5BC2
:100FF000DE4F0990D881C02DD464F1CFCE0199275E
:10100000D3FF03C0EC01D86CEACFEC01D06CE7CF82
:10101000DF70D06AE4CFCE01E4E096958795EA953B
:10102000E1F783702C2F26952695237090E2299F57
:1010300090011124382B8C2F8370C1E0D0E002C0C6
:10104000CC0FDD1F8A95E2F7C22BD32BDC68C7CF0C
:10105000C1E0D0E002C0CC0FDD1F2A95E2F730E2FC
:10106000939FC0011124C82BD92BDA68B8CFD82F91
:10107000CC27C46FD06AB3CFDC2FCC27C06FD06A27
:10108000AECF8C2F8F700E94E60834E0D695C795BE
:101090003A95E1F7CF709C2FEC01D069A0CF823850
:1010A0009105B1F1B0F48133910509F475C048F4AC
:1010B0008932910509F469C08A32910509F473C037
:1010C00008958533910509F459C08933910501F1DB
:1010D0000895833E9105A9F138F4803E9105F9F019
:1010E000823E910549F10895863E9105A9F1873E1A
:1010F0009105C9F1843E910519F520913E0321FF28
:101100001FC080913D0384FD14C087EE90E00895D8
:1011100020913D032370A1F080EE90E0089520918E
:101120003D0320FD47C030913E0330FF09C024FF3E
:1011300044C090E080E004C020913D0322FDF7CF41
:10114000089520913D0322FD3BC030913E0330FDC8
:10115000E3CF24FFF5CFEDCF20913D0323FFF0CF68
:1011600024FDE7CFD2CF20913D0323FD2CC0309149
:101170003E0331FFEECF84EE90E0089520913D03D1
:1011800025FFDECF89E290E0089520913D0325FF01
:10119000D7CF85E390E0089520913D0326FFD0CF7F
:1011A0008AE290E0089520913D0326FFC9CF81E3B4
:1011B00090E0089589E390E0089583EE90E008952B
:1011C00082EE90E0089586EE90E0089590913D03C0
:1011D00092FF06C0282F28712830F9F4877F846099
:1011E00093FF06C0282F28712831F1F4877E84618F
:1011F00020913E0320FF06C0382F38713830D9F4D3
:10120000877F816021FF06C0282F28712831D1F403
:10121000877E816194FD877E0895282F2471243074
:10122000F9F68B7F8860DCCF282F2471243101F7F9
:101230008B7E8861DDCF382F3171313019F78E7F89
:101240008860E0CF282F2171213121F78E7E8861BF
:10125000E1CF0895E82FF0E0EE0FFF1FE95EFC4FAD
:10126000808191810895089580EA8A95F1F7089523
:10127000CF93DF93A2E8B1E047E851E0C1E0D0E0CE
:101280008D91E82FE295EF70F0E061A18F709E01E3
:1012900001C0220F8A95EAF7922F9095962391A389
:1012A00082A1822B82A34A175B0751F7A3E7B1E023
:1012B00061E070E08D91E82FE295EF70F0E041A1E0
:1012C0008F709B0101C0220F8A95EAF7922F9095AB
:1012D000942391A382A1822B82A381E0A238B80734
:1012E00049F710920E0310920D03109218031092FA
:1012F00017031092100310920F0310921A0310920A
:101300001903109212031092110310921C031092F1
:101310001B03109214031092130310921E031092D9
:101320001D031092160310921503109220031092C1
:101330001F0385E00E94270ADF91CF910C94970646
:101340008F929F92AF92BF92CF92DF92EF92FF92D5
:101350000F931F93CF93DF9382E8E82E81E0F82E5E
:101360000DE013E0912CAA24A394B12CF7018191F4
:101370007F01C82FC295CF70D0E099A18F70650111
:1013800001C0CC0C8A95EAF7892F8C2989A38AA100
:101390008C2C809488218AA30E943409E3E7F1E031
:1013A00050E040E030E020E06191A62FA295AF70C0
:1013B000B0E090968C9190E06F7002C09595879503
:1013C0006A95E2F780FD3EC0C501042E02C0880F79
:1013D000991F0A94E2F7282B392B4F5F5F4F4F304C
:1013E000510511F789A1882289A28AA1C82ACAA217
:1013F000F801808191812817390739F131832083E1
:1014000081E0982A0E5F1F4FF7E8EF16F1E0FF0624
:1014100009F0ACCF292D45E067E173E08DE093E062
:101420000E94280A0E94A106892DDF91CF911F9169
:101430000F91FF90EF90DF90CF90BF90AF909F9073
:101440008F90089590E080E0C6CF80E0DACF0895D5
:10145000FF920F931F93CF93DF93F82E092F162F30
:10146000D72FC42F222349F081E08093F0010E94FE
:101470005C249093EF018093EE018091F00188232A
:10148000A1F08091EE019091EF010E9468240697EF
:1014900060F0EF2DF02FA12FBD2F90E080E0D0E085
:1014A0008C179D0744F01092F001DF91CF911F91AE
:1014B0000F91FF900895219131912D933D930196C5
:1014C000EFCFAF92BF92CF92DF92FF920F931F9315
:1014D000CF93DF93362F472FE82FF0E0E756F94FF1
:1014E00071110DC06491762F862FDF91CF911F91DE
:1014F0000F91FF90DF90CF90BF90AF900895C72FCE
:10150000D0E02491F22E022F10E056E0659FC0013A
:101510001124EFEFF0E0BF010E94A731832F90E08C
:10152000880F991F35E5369FD001379FB00D1124E4
:101530008A1B9B0B982F990F980F6F01CC1ADD0A0D
:10154000C09ED001C19EB00DD09EB00D11248B2F36
:10155000949FA0011124452F55276F01C41AD50A65
:10156000C09EA001C19E500DD09E500D11245F0160
:10157000A91AB108AC9E6001AD9ED00CBC9ED00CE7
:101580001124CD2CDD24EC19FD09E09FE001E19F41
:10159000D00DF09FD00D1124ED2F62307105A1F018
:1015A00048F46115710569F06130710589F0EB2F20
:1015B000852F07C06430710571F088F066307105C1
:1015C000B1F76E2F722F91CFE22F2B2F8D2FF9CFE6
:1015D000E22F252FF6CFEB2F822F2D2FF2CF2B2F9F
:1015E0008F2DE52FEECF0895CF93DF93762FE9016E
:1015F000682F842F0E94610A798368838A83DF9130
:10160000CF91089580912103982F9E7F29F48170B6
:1016100082608093210308958635E8F381708465A4
:10162000F8CF88E090E00C949E32CF92DF92EF9258
:10163000FF926B017C010E94020BB701A60188E0BA
:1016400090E0FF90EF90DF90CF900C94BC32E1E2FD
:10165000F3E083E0808311828FEF8283838314829F
:1016600060817181828193810C94150B809121039B
:1016700080FF02C08695089580E00895809125033B
:10168000833018F48F5F809325036091210370915C
:10169000220380912303909124030C94150B8091D5
:1016A0002503882319F0815080932503609121033D
:1016B0007091220380912303909124030C94150BC5
:1016C00070E00C943A1360911D018091210380FF1A
:1016D0000AC080911C0123E0829FC00111248A5D11
:1016E0009C4F0C94600B80911E0190911F0123E090
:1016F000829FF0011124EA5DFC4F891750F7118297
:10170000108212828F5F3396F8CF9091210390FF61
:1017100014C090911E0120911F0133E0939FF001AE
:101720001124EA5DFC4F921710F00C94630B818337
:10173000608342839F5F3396F6CF0895CF93DF9304
:1017400000D00F92CDB7DEB79091210390FF0AC071
:101750009E012F5F3F4F0E94F40A4B8169818A816D
:101760000E94850B0F900F900F90DF91CF910895FD
:10177000CF93DF93EC01EC81F0E0EC56FA4F44910B
:10178000E1E2F3E0628181810E949E0B8C818F5F98
:101790008C83DF91CF910895CF93DF93EC01E1E249
:1017A000F3E0438162818C810E949E0B8C818F5F6C
:1017B0008C83DF91CF9108950F931F93CF93DF9385
:1017C00000D00F92CDB7DEB78C018091F10181116D
:1017D0000AC09E012F5F3F4F4FEF6FEF0E94F40A48
:1017E0008A818093F101F8016481613069F0809110
:1017F000F10140E0662361F040E0623011F4409175
:10180000F10180E060E004C06091F10140E080E01F
:101810000E94850BF801848190E0019663E070E0FE
:101820000E94BB3184830F900F900F90DF91CF9176
:101830001F910F910895AF92BF92CF92DF92EF92D6
:10184000FF920F931F93CF93DF9300D00F92CDB7EA
:10185000DEB7182FF62E042FE22E9091210390FF71
:1018600029C0E92FE695AE2FB0E0A957BE4F8C9165
:10187000809319029E7F923059F59E012F5F3F4F52
:10188000812F0E94F40A4B8169818A810E94850B15
:1018900010932203F092230300932403EE2051F0CF
:1018A000609121037091220380912303909124037E
:1018B0000E94150B0F900F900F90DF91CF911F9109
:1018C0000F91FF90EF90DF90CF90BF90AF90089571
:1018D000823019F400912403DBCF863019F4109183
:1018E0002203D6CF8930D9F3893191F6E9518E2F71
:1018F0008170D82EE695F0E0EC56F94FA590B490A3
:10190000C12CBB2460912001C61618F00E94630B05
:10191000BFCF2C2D30E0A29EC001A39E900DB29EA1
:10192000900D112470E00E94A731812FD11013C0B7
:10193000860F40911E01420F532F511D9A01220F15
:10194000331F240F351F2A5D3C4F402F6F2D0E94FF
:10195000F40AC394D7CF861BECCFE1E2F3E0918188
:10196000282F438162818CE0890F0C941B0C81E04D
:101970000C94AD0CE1E2F3E09181282F4381628168
:1019800084EF890F0C941B0C81E00C94BA0CE1E2FB
:10199000F3E0628129E1620F08F46FEF282F4381A1
:1019A00081810C941B0C81E00C94C70CE1E2F3E004
:1019B000628129E1621B08F460E0282F4381818164
:1019C0000C941B0C81E00C94D60CE1E2F3E0438113
:1019D0002CE0420F08F44FEF282F628181810C9494
:1019E0001B0C81E00C94E50CE1E2F3E043812CE078
:1019F000421B08F440E0282F628181810C941B0C6B
:101A000081E00C94F40C20E00C941B0CEF92FF92FC
:101A10001F93CF93DF93EC0110E0EE24EA94F12CB6
:101A200060912001161770F00E94630B9A818C81DF
:101A300090FF27C08F5F8C83DF91CF911F91FF9024
:101A4000EF90089520911E01422F410F5527551FF9
:101A5000CA019A01220F331F280F391F2A5D3C4FFC
:101A600070E0C7010E94BB31962F8C814091240306
:101A700060912303199F800D11240E94F40A1F5FB7
:101A8000CFCF8150D8CFAF92BF92CF92DF92EF925B
:101A9000FF920F931F93CF93DF93FC0182810FEF8F
:101AA00080FF01E010E046E0A42E8091200118178D
:101AB000C8F00E94630B8091F301013009F055C01A
:101AC000811102C08091200181508093F301DF9148
:101AD000CF911F910F91FF90EF90DF90CF90BF902B
:101AE000AF900895C0911E01C12ED12CCC0DDD2DDB
:101AF000D11DCE01880F991FC80FD91FCA5DDC4FB9
:101B0000198218821A8234E0E32EF12CB12C8091D4
:101B1000F3018B0D87301CF16A2D0E949931892FBA
:101B2000082E000C990BC816D90691F48091240355
:101B30008E9DA0018F9D500D11245595479555956B
:101B400047959E0160912303809122030E94F40A2D
:101B5000B00EF1E0EF1AF108D1F61F5FA6CF87FFB4
:101B6000DFCF90912001890FDBCF90E0019660914B
:101B7000200170E00E94BB31A8CF0F931F93CF9339
:101B8000DF9380911E0190911F0123E0829FF0015D
:101B90001124EA5DFC4F891740F1C0E0D3E0609169
:101BA0002001C61740F10E94630B20911A01809119
:101BB000F201820F8093F20190911B01920F90939A
:101BC0001B01191654F4082E000C990B40912001AA
:101BD0004150550B841795071CF0219520931A014D
:101BE000DF91CF911F910F9108951182108212827F
:101BF0008F5F3396D0CF0C2F10E070E0C8010E94A9
:101C0000BB3120911E01820F482F50E02091F2013C
:101C1000022E000C330B02171307BCF020911B019E
:101C2000022E000C330B201731077CF08D9F9001A2
:101C300011242A5D3C4F409124036091230380913D
:101C400022030E94F40ACF5FAACFFA01EE0FFF1F12
:101C5000E40FF51FEA5DFC4F118210821282F3CF70
:101C60000F931F93CF93DF938C01FC0184819581A7
:101C700001968170992795838483C0E0D5E5809192
:101C80002001C81730F0DF91CF911F910F910C9474
:101C9000630B20911E01422F4C0F5527551FCA017F
:101CA0009A01220F331F280F391F2A5D3C4F8C2FBA
:101CB0008695F80144815581840F952F911D81707F
:101CC00040912403609123038D9F802D11240E9455
:101CD000F40ACF5FD4CF0F931F93CF93DF93EC0120
:101CE00010E000E0909120019017110609F06CF4CB
:101CF0000E94630B8C8190E00196817099278C8300
:101D0000DF91CF911F910F91089520911E01A8019D
:101D1000420F511D9A01220F331F240F351F2A5DD8
:101D20003C4F4C816091230380912203969590173C
:101D3000110651F04CF0442349F0409124030E94D5
:101D4000F40A0F5F1F4FCECF4423B9F340E0F7CF23
:101D50008F929F92AF92BF92CF92DF92EF92FF92BB
:101D60000F931F93CF93DF93FC01B280948081E0A7
:101D7000848300E015E05BE4A52E88248394EE24A0
:101D8000EA94F12C7BE4C72ED12C80912001081716
:101D900070F0DF91CF911F910F91FF90EF90DF9046
:101DA000CF90BF90AF909F908F900C94630BC02FFB
:101DB000D0E01C9FF0011D9FF00D1124EC50FE4F50
:101DC00091101CC01382128220911E01CE01820F3D
:101DD000911D9C01220F331F280F391F2A5D3C4F94
:101DE0001C9FF0011D9FF00D1124EC50FE4F42810D
:101DF000618180810E94F40A0F5FC7CF2381222373
:101E000079F12150238334818A2D821B311101C045
:101E1000822F1C9FF0011D9FF00D1124EC50FE4FEE
:101E200090912403899FC0011124B6010E94A7311B
:101E30006283211104C0332311F01482A38222E0B3
:101E40002B1510F21C9FF0011D9FF00D1124EC507A
:101E5000FE4F809122038083809123038183B4CF3E
:101E60000E947932823091400CF0AECF82E08B1527
:101E700030F50E947932B7010E94BB311C9FF001FE
:101E80001D9FF00D1124EC50FE4F808322E02B1596
:101E9000C8F40E947932209123032695622F70E0C6
:101EA0000E94BB31280F1C9FF0011D9FF00D1124D3
:101EB000EC50FE4F21831282A382848285CF8091D1
:101EC0002203DCCF20912303EECFE1E2F3E0808117
:101ED0008E7F808360817181828193810E94150B46
:101EE00010921A022FEF80E792E02150804090403C
:101EF000E1F700C000000C94630B6091210366952C
:101F000070E04BE050E081E291E00E948932892B41
:101F100019F481E080931A020E945C2490931302CA
:101F20008093120208959091210390FF35C0917023
:101F3000811128C0926090932103662351F0609133
:101F400021037091220380912303909124030E9426
:101F5000150B60912103669570E04BE050E081E243
:101F600091E00E948932892BA1F010921A0281E03F
:101F700080931502409124036091230380912203F2
:101F80000C94030D8B3210F09465D5CF880F982BED
:101F9000D2CF0E947D0FEBCF0895682F909121033F
:101FA000969581E0890F8B3208F081E00C94930FB5
:101FB00081E00C94CD0F682F9091210396958FEFBF
:101FC000890F09F48AE20C94930F81E00C94DB0FE3
:101FD00061E00C94930FE1E2F3E080818160808303
:101FE00086950C94E80F8091210380FD0C94650F79
:101FF0000C94EB0F60E00C94930F80911802811108
:102000002EC00E945F22811104C00E940F230E94F3
:10201000270B0E94110B609321037093220380937E
:102020002303909324036E7F61F40E94270B0E9488
:10203000110B6093210370932203809323039093E9
:1020400024030E94020B10921A028091210380FF48
:1020500003C086950E94FA0F81E0809318020895CC
:102060000F931F93CF93DF9380911A02882309F473
:102070009DC080911902E0912103E695E81BE09351
:1020800014028230C9F5F0E0E057FA4FE491CE2F08
:10209000D0E008EB1BE080911502882389F01092B4
:1020A00015020E945C249E0120953095820F931F9B
:1020B000909313028093120210921702109216024C
:1020C00080911202909113020E9468248C179D0740
:1020D00008F46CC0E0911202F0911302CE0FDF1FE2
:1020E000D0931302C093120282E192E0F801DF91D3
:1020F000CF911F910F910994863049F4F0E0E35796
:10210000FA4FE491CE2FD0E00CEC1BE0C4CF893025
:1021100051F4E695F0E0E657FA4FE491CE2FD0E087
:1021200006E01DE0B8CF8F3051F4E695F0E0E957B6
:10213000FA4FE491CE2FD0E003E41DE0ACCF85311F
:1021400049F4F0E0EC57FA4FE491CE2FD0E00DEBDC
:102150001DE0A1CFC8EED3E000E31EE0883109F412
:102160009ACF833239F4E2E8F5E0C591D4910CEDD1
:102170001BE091CFC4EFD1E00BE61EE0843209F4FE
:102180008ACFC0EDD7E003EF1AE0853209F083CFA4
:102190008E2F63E00E948D31E92FF0E0E158FA4F75
:1021A000E491CE2FD0E008EA1EE075CFDF91CF9109
:1021B0001F910F910895FA01811101C0FB0109944B
:1021C000CF93DF93C82FD62F0E94360B8C1740F089
:1021D0000E94360B8D1720F4DF91CF910C94D80F0D
:1021E0008C2FDF91CF910C94E80F0F931F93CF9317
:1021F0008C01FB01C281CC2309F465C00E94AD2192
:102200008272F801E35CFC45E431F10538F4E95FE2
:10221000FC4C0C94F1310E94F30FC0E08C2FCF9155
:102220001F910F91089545EE5FE068ED7FE00E94F9
:10223000DB10F3CF48ED5FE065EE7FE0F8CF44ECD4
:102240005CE067EB7CE0F3CF47EB5CE064EC7CE0C8
:10225000EECF42EE5CE063ED7CE0E9CF43ED5CE085
:1022600062EE7CE0E4CF40E05DE061EF7CE0DFCF58
:1022700041EF5CE060E07DE0DACF4FE45BE06EE3ED
:102280007BE0D5CF4EE35BE06FE47BE0D0CF81E035
:102290000E94E80FC2CF65E082E00E94E010BDCF4F
:1022A00068E086E0FACF6EE089E0F7CF64E18FE086
:1022B000F4CF67E185E1F1CF88E1EACF62E289E11D
:1022C000ECCF83E2E5CFC1E0A9CF0E945F2281116C
:1022D00002C00E940F230E94972280933803883304
:1022E00020F0877080638093380390913803892FA2
:1022F000817090FF04C0892F8695869586950C94F1
:10230000B41280913803982F9695969596959630AD
:1023100040F49F5F990F990F990F8770892B8093D5
:102320003803809138038160809338030E949B2298
:10233000809138038695869586950C94B412809189
:102340003803982F987F79F0885080933803887FDE
:1023500091E009F490E08091380390FB80F980933C
:1023600038030E949B228091380386958695869536
:102370000C94B4128091380380FD13C08160809367
:102380003803813019F489E0809338038091380351
:102390000E949B22809138038695869586950C94A1
:1023A000B41208958091380380FF08C08E7F809317
:1023B00038030E949B2280E00C94B412089580910F
:1023C000380380FD0C94D2110C94BA11909138030B
:1023D000892F8695869586958F5F8F719770873048
:1023E000D8F4880F880F880F892B80933803809149
:1023F0003803887F91E009F490E08091380390FBE6
:1024000080F9809338030E949B228091380386953F
:10241000869586950C94B41290933803E8CF873054
:1024200008F086E0909138039770282F220F220F32
:10243000220F922B90933803987F21E009F420E03B
:102440009091380320FB90F9909338030C94B412C8
:102450000E940F12809138030C949B229C01FB0177
:102460008281882349F12E3BFCE53F07C9F040F407
:102470002C3BECE53E0769F02D3B3C4579F0089597
:10248000203C9CE5390791F070F0213C3C4589F0F7
:10249000089586E00E94281280E0089580E0FACF37
:1024A0000E949F11F9CF0E948111F6CF0E94DF1187
:1024B000F3CF0E94E611F0CF81E00895859A8D9ABE
:1024C00008958D9808958D9A08951F920F920FB6D2
:1024D0000F9211242F933F934F935F936F937F93AA
:1024E0008F939F93AF93BF93EF93FF930E946312D9
:1024F000FF91EF91BF91AF919F918F917F916F91DC
:102500005F914F913F912F910F900FBE0F901F90B1
:1025100018951F920F920FB60F9211242F933F938D
:102520004F935F936F937F938F939F93AF93BF93DB
:10253000EF93FF93809188009091890081309140C2
:1025400010F00E946112FF91EF91BF91AF919F91A6
:102550008F917F916F915F914F913F912F910F904C
:102560000FBE0F901F901895CF92DF92EF92FF92BF
:10257000CF93C82F873098F5811132C080918800A1
:1025800090918900892B51F080916F008D7F80930D
:102590006F0080916F008E7F80936F000E946312A6
:1025A0002C2F30E0AFEFBFEF0E94F73126E030E094
:1025B00040E050E00E94CF31C9012C3764E136077A
:1025C00000F569E070E00E94A73170938900609384
:1025D0008800CF91FF90EF90DF90CF900895C6E0F4
:1025E0008091880090918900892BD1F680916F00AD
:1025F000826080936F0080916F00816080936F0094
:10260000CFCF2A50374D4F4F5F4F942F832F722FCC
:10261000662725EF38E241E050E00E94CF316901A2
:102620007A01CA01B9010E947D319B01AC01C70149
:10263000B6010E947D31672F782F892F9927611568
:10264000710521E08207910509F0BFCF6FEF7FEFA1
:10265000BCCF08950E945E1282E08093800089E1E1
:10266000809381008FEF9FEF909387008093860087
:102670000C946511869A41B34F7B51B35064EFB708
:10268000F8949B01220F331F260F371F280F391F85
:102690002817390741F4EFBF8FE594E00197F1F770
:1026A00000C000000895DC016D91CD0178E051BBC0
:1026B000000000C067FF41BB660F000000C000C003
:1026C00000C041BB00C07A9591F7E2CF0F931F93F2
:1026D000CF93DF93C62FD42F022FFC018281882352
:1026E000C9F060931D020E945C2490931C028093A9
:1026F0001B0280E28C0F883008F050C0C77081E068
:1027000001C0880FCA95EAF7DF91CF911F910F9111
:102710000C94761910911D02161335C080911B027E
:1027200090911C020E946824883C910560F5C0E2EB
:10273000CD0F1D17B9F080E2810F883040F417707B
:1027400081E001C0880F1A95EAF70E947D19C83010
:1027500048F481E09D2F977001C0880F9A95EAF7A1
:102760000E947619802F0E946319C830B8F4D77080
:1027700081E001C0880FDA95EAF7DF91CF911F91D0
:102780000F910C947D1980E28C0F883038F4C7705B
:1027900081E001C0880FCA95EAF7EFCFDF91CF91B2
:1027A0001F910F9108959C01CB01243F4CE5340704
:1027B00031F190F4293DFCE53F07E9F02A3D4CE575
:1027C000340769F1283D3C4579F426E241EE61EE9B
:1027D0000E94661380E00895263FFCE53F07B9F0AC
:1027E00090F0273F3C45B9F0FC0182818823D1F06D
:1027F00010921D02089527E245EE65EEE9CF26E22C
:1028000041EE60EEE5CF27E245EE64EEE1CF26E251
:1028100041EE62EEDDCF27E245EE66EED9CF28E24B
:1028200041E0EBCF81E00895CF93DF93EC01FB0112
:102830008281882309F419C1C230FCE5DF07C0F1A9
:10284000C6319CE5D90730F09E012B5F3C4529300D
:10285000310570F50E947C2290933E0380933D03E6
:10286000C031ECE5DE0709F4CFC008F05BC0C8302A
:102870008CE5D80709F4B6C088F5C430ECE5DE076E
:1028800009F4A8C0C0F4C2308CE5D80709F49CC094
:1028900080913D038260C330DC4509F498C080918B
:1028A0003D0390913E030E948A220E94F21B80E029
:1028B000DF91CF91089580913D038061C630ECE5B2
:1028C000DE0709F484C080913D038860C730DC4591
:1028D00008F47DC080913D03806279C0CC308CE5E6
:1028E000D80709F489C070F480913D038C60CA3028
:1028F000ECE5DE0709F46BC008F478C080913D0375
:102900008E7F65C0CE308CE5D80709F479C0809100
:102910003D038B7FCF30DC4508F459C080913D03E7
:102920008F7E55C0CC3FECE5DE0709F457C030F58B
:10293000C3318CE5D80709F46FC078F4C131ECE5F8
:10294000DE0709F465C0C231DC4509F0A8CF0E945A
:10295000F21B80913D038F773AC0C5318CE5D807D3
:1029600009F462C008F476C080913E038160CB3FD9
:10297000DC4509F094CF80933E0391CFC115FDE56E
:10298000DF0709F44DC088F480913E038D7FCE3F70
:102990009CE5D90781F380913E038E7FCF3FDC45D4
:1029A00050F380913E038360E6CFC230FDE5DF0740
:1029B00009F459C008F444C080E0C330DD4509F093
:1029C0006ECF0E9411236BCF80913D038160809375
:1029D0003D0365CF80913D038460F9CF80913E0334
:1029E0008260C9CF80913D038064F1CF0E94F21BC9
:1029F00080913D038068EBCF80913D038D7FE7CFD1
:102A000080913D03877FE3CF80913D038F7DDFCFB2
:102A100080913D038F7BDBCF80913D03837FD7CFB8
:102A200080913E038C7FA7CF80913D0382FB992745
:102A300090F921E0922790FB82F990FB83F9C7CFB0
:102A400080913E03982F909591708E7F892B90FBFB
:102A500081F991CF0E94F21B90913D03892F97FB42
:102A600087F98058B4CF81E0ACCF81E021CFCF93FC
:102A7000DF93EB0186319C4511F50E94AD219A81CF
:102A8000992399F08A7A91E009F490E090931E02DC
:102A9000811109C089E20E9488210E94FC2180E006
:102AA000DF91CF91089585E3F6CF80911E028111C9
:102AB00004C089E20E948F21F0CF85E3FBCF81E043
:102AC000EFCFCF93DF93EC0181E0898B8F810E9460
:102AD000B02188850E94C3210E94FC21EA81FB81EC
:102AE000309739F06C897D89CE010696DF91CF91C0
:102AF0000994DF91CF910895EF92FF920F931F9366
:102B0000CF93DF93EC018A85811134C0EB80FC8088
:102B100087E5F81A26E12E9DC0012F9D900D112406
:102B2000DC01AC5FBE4F1496ED91FC911597309788
:102B300031F054966D917C91865F9E4F099586E1A8
:102B40008E9D80018F9D100D11240C5F1E4FF8018A
:102B500087810E94B621F80180850E94C9210E94C8
:102B6000FC21188219861B861E821D82109220026B
:102B700010921F02DF91CF911F910F91FF90EF9064
:102B80000895DF92EF92FF920F931F93CF93DF93FD
:102B90007C01FB018281882391F080912C018F3F81
:102BA00071F0C4E0D1E010E000E0DD24D394809126
:102BB0002C01082E000C990B8017910744F4DF912B
:102BC000CF911F910F91FF90EF90DF9008958E812C
:102BD0008823C9F089859A858E159F0539F48091DF
:102BE0001F02909120028E159F0569F0DF86FC86FA
:102BF000EB868989811103C0CE010E946115CE0147
:102C000006960E947C150F5F1F4F6696D0CFEF92FD
:102C1000FF920F931F93CF93DF937C0197558F3FC4
:102C2000910509F0D8F520912C01022E000C330BF0
:102C30002817390714F480932C01FB01228136E117
:102C4000389F8001399F100D1124E801CC5FDE4FC1
:102C5000288B92818E81992349F1FA86E9868F5FCC
:102C60008E830E945C249E878D870E94E3218F8340
:102C70000E94AD2188870E94C0219885892B888772
:102C8000E881F981309731F06C897D89C801865FD0
:102C90009E4F0995F0922002E0921F0281E0DF91A1
:102CA000CF911F910F91FF90EF9008958823B1F37A
:102CB0008989882399F3C801865F9E4F0E947C15FD
:102CC000EDCFEF92FF920F931F93CF93DF938091FD
:102CD0002C0110E006E18F3FC1F5DF91CF911F91EC
:102CE0000F91FF90EF900895029FF001039FF00D68
:102CF0001124EC5FFE4FE288F388E114F10419F42B
:102D000088ECE82EF12C029FE001039FD00D1124E6
:102D1000CC5FDE4F8E818823B9F08D859E850E9421
:102D20006824E816F90680F4109F7001112489893F
:102D3000811105C0C7018C5F9E4F0E946115C701BC
:102D4000865F9E4F0E947C151F5F212F30E080918F
:102D50002C01082E000C990B821793072CF6BDCF7F
:102D60000895089580912E02811114C00E94B0161A
:102D700081E080932E020E945C2490932D02809328
:102D80002C0210922102E2E2F2E08AE0DF011D92C1
:102D90008A95E9F708951F93CF93DF93EC01FB0128
:102DA0001281111106C011E0812FDF91CF911F9187
:102DB000089580912E02882351F180912C029091E8
:102DC0002D020E9468248C32914068F7CE01905603
:102DD000811520E2920720F0905E8115904108F461
:102DE000DD2780912102853068F4E82FF0E0EE0FB6
:102DF000FF1FEE5DFD4FD183C0838F5F8093210263
:102E000010E0D2CF10922E020E94B116F9CFC73136
:102E1000DC4549F60E94B216C7CF909334028093E6
:102E200033020895E0913302F0913402309721F09B
:102E30000190F081E02D099480E00895E091330243
:102E4000F0913402309799F020914101222359F0FA
:102E500020913D0327FF07C0DC012C9111962C9394
:102E6000119725E02C930280F381E02D09940895B9
:102E7000E0913302F0913402309739F022E0DC0126
:102E80002C930480F581E02D09940895209131025E
:102E9000309132022817390771F0909332028093F3
:102EA0003102E0913302F0913402309721F0068034
:102EB000F781E02D0994089520912F02309130027E
:102EC0002817390771F09093300280932F02E09118
:102ED0003302F0913402309721F00084F185E02D27
:102EE0000994089585B7806885BF85B7806885BFD8
:102EF0000895089508950C94791708950C947D17FA
:102F00000E9472170E947A170C947B1781E0089533
:102F10000C9486170E9453240E9438090E940A25A7
:102F20000E9465110E94FD0F0C947E179F92AF9234
:102F3000BF92CF92DF92EF92FF920F931F93CF93A6
:102F4000DF93CDB7DEB72A970FB6F894DEBF0FBE7A
:102F5000CDBF0E94A0090E948817882309F474C07D
:102F600056E3A52E52E0B52E10E000E0902E802F03
:102F70000E942A096C01F501E190F1905F01E816C9
:102F8000F90609F45BC08091D80281FD0E943309E3
:102F900097012C253D2580E0EE24E394F12CA90136
:102FA0004E215F21452B09F443C08E839F82CE20A2
:102FB000DF2081E0CD2809F480E088870E945C242E
:102FC0008160782F9A8789874E815F8168858A859D
:102FD0000E944718000F111FF801EA5CFD4F808125
:102FE0009181E826F926F182E0820E9430100E9449
:102FF00029130E9499270E94121790913502891770
:10300000A1F10E941217809335022A960FB6F89408
:10301000DEBF0FBECDBFDF91CF911F910F91FF900B
:10302000EF90DF90CF90BF90AF909F900C94AA0646
:103030008F5FEE0CFF1C8F3009F0B1CF0F5F1F4F79
:103040000530110509F092CF8FEF89838A831B82A7
:103050000E945C248160782F9D838C8349815A81F2
:103060006B818D810E944718C0CF2A960FB6F894C5
:10307000DEBF0FBECDBFDF91CF911F910F91FF90AB
:10308000EF90DF90CF90BF90AF909F900895CF9337
:10309000DF93CDB7DEB72B970FB6F894DEBF0FBE28
:1030A000CDBF4F83588769877A878B871E821D82A1
:1030B00085E0FE013796DE01119601900D928A950A
:1030C000E1F749815A816B817C818D819E812B96AC
:1030D0000FB6F894DEBF0FBECDBFDF91CF910C9439
:1030E000A41EFC01808191810C945A21CF93C82F9A
:1030F000882309F490C08238C1F40E94121781FD20
:103100008AC089E30E9488210E94FC212FEF81EE72
:1031100094E0215080409040E1F700C0000089E336
:103120000E948F21CF910C94FC218338A1F40E943E
:10313000121780FD70C083E50E9488210E94FC2147
:103140002FEF81EE94E0215080409040E1F700C0E5
:10315000000083E5E5CF8438A1F40E94121782FDB8
:103160005AC087E40E9488210E94FC212FEF81EE43
:1031700094E0215080409040E1F700C0000087E4D7
:10318000CFCF8CEF8C0F813AB8F48C2F0E940C2A91
:10319000811141C06C2F80912D0190912E010E94D0
:1031A0002A23882329F08C2F0E948F210E94FC2142
:1031B0008C2F0E948821B6CF80E28C0F883048F493
:1031C000C77081E001C0880FCA95EAF70E94B0215C
:1031D000A9CFEBE5EC0FE33040F4F0E0E052FE4F16
:1031E000808190E0CF910C944617E8E5EC0FE73131
:1031F00050F4F0E0EE0FFF1FEE54FE4F80819181FE
:10320000CF910C945C17C03F30F08C2F0E94A72602
:10321000CF910C948E27CF910895882309F452C042
:10322000823871F40E94121781FF4CC089E30E941A
:1032300088210E94FC2189E30E948F210C94FC21AB
:10324000833859F40E94121780FF3CC083E50E9426
:1032500088210E94FC2183E5EFCF843859F40E9435
:10326000121782FF2FC087E40E9488210E94FC2150
:1032700087E4E2CF9CEF980F913AF0F290E2980F3A
:10328000983050F4877091E001C0990F8A95EAF761
:10329000892F0E94B621D2CF9BE5980F933020F45E
:1032A00090E080E00C94461798E5980F973120F451
:1032B00090E080E00C945C17803F20F00E940F2784
:1032C0000C948E270895CF93C82F0E947618C93387
:1032D00049F42FEF87EE93E0215080409040E1F7D2
:1032E00000C000008C2FCF910C940D19882321F081
:1032F0000E94B0210C94FC210895882321F00E94A3
:10330000B6210C94FC210895BF92CF92DF92EF92E8
:10331000FF920F931F93CF93DF936C01D62FC72F8C
:10332000FC01058102950F70128111110E94D021BC
:103330000E94A621E82E882391F01123D1F08C2F32
:10334000807F803421F080E28D0F883090F082E021
:103350000E9447220E94A62191E0E82EE926BC2E79
:10336000B2949FE0B922EB2DF0E0E55EFC4C0C94AA
:10337000F131E12CF4CF0C2F0F70C07F11F00295CA
:10338000007F1123A9F0002359F080E28D0F8830CF
:1033900010F0D11109C0802F0E94B0210E94FC21A1
:1033A0008D2F0E94761814C0802F0E94C321F6CF63
:1033B0008D2F0E940D19002359F080E28D0F883067
:1033C00010F0D1112CC0802F0E94B6210E94FC2148
:1033D0002B2D2850330B2430310520F40E94121776
:1033E0000E94AA06EE2009F49EC10E94A22180FD3F
:1033F0009AC1F60112820E949C210E942820C601D7
:103400000E94B41B0E949C21DF91CF911F910F91CC
:10341000FF90EF90DF90CF90BF900C944920802FC9
:103420000E94C921D3CFFC2FFF70FF2EC07FC03276
:1034300019F0F29480EFF822DD2369F0D13049F1E0
:10344000112391F1002351F1F601858180FFA8CF6E
:103450008F70858323C0112381F0011106C00E9463
:10346000E3218F290E947619B3CF0130C1F70E9462
:10347000E3218F290E94E921ABCF011106C00E94F0
:10348000F2218F2D0E947D19A3CF013009F4A0CF26
:10349000F6CF112329F0063008F09ACF8F2DE2CF16
:1034A000053008F095CFEDCF002359F3D93349F417
:1034B000FFEF27EE33E0F15020403040E1F700C04D
:1034C00000008D2F0E940D1983CF8C2F8695869535
:1034D000837069F0813009F07BCF8D2F9C2F937022
:1034E000111102C090E080E00E945C1771CF8D2F17
:1034F0009C2F9370111102C090E080E00E9446174B
:1035000067CF8D2F112329F00E94A7260E948E27B6
:103510005FCF0E940F27FACF8C2F837009F041C034
:10352000111156CF4D2F429546954770440F440FC9
:103530000D2F0F7010E030E020E0042E04C0000FCB
:10354000111F221F331F0A94D2F760E070E0CB01F5
:10355000D4FF0FC06FE070E080E090E004C0660F21
:10356000771F881F991F4A95D2F7609570958095AF
:103570009095C695C695C370602B712B822B932BAB
:10358000C23049F058F4C13019F00E94DA1F20CF40
:103590000E94C81F1DCF0E94EC1F1ACF0E94C61F99
:1035A00017CF8695112311F08C2F8170882309F491
:1035B0000FCF4D2F429546954770440F440F0D2F66
:1035C0000F7010E030E020E0042E04C0000F111F47
:1035D000221F331F0A94D2F760E070E0CB01D4FFC2
:1035E0000FC06FE070E080E090E004C0660F771FCE
:1035F000881F991F4A95D2F7609570958095909590
:10360000C695C695C370602B712B822B932BC2304D
:1036100049F058F4C13019F00E949F20D9CE0E9481
:103620008D20D6CE0E94B120D3CE0E940220D0CED3
:10363000CF70112329F08C2F0E9428208D2F12CFBC
:103640008D2F0E947D198C2F0E944920C1CED23F20
:1036500089F160F4D03FC9F0D13F29F1112309F479
:1036600042C001119DCE8C2F8F7121C0D33F39F103
:10367000D43FA1F7112369F1CF718C2F0E9428202C
:1036800063E08C2F0E943222A3CE112341F005303B
:1036900008F09ECE8C2F8F710E946C2099CE063040
:1036A00008F096CEF7CF8C2F8F71112369F20E940C
:1036B00028208ECE8C2F8F711123C9F3C5CF1123F3
:1036C00029F08C2F8F710E94132082CE0E940E2031
:1036D0007FCE81E00E944722023008F479CE82E05A
:1036E0000E94472275CE002359F0D93309F0E9CE64
:1036F0008FEF97EEE3E081509040E040E1F7DFCEBE
:103700008C2F8F71A1CF4C2F4F706D2FC6010E944F
:103710001A070E943E1F5CCE4C2F4F706D2FC601C2
:103720000E941D0755CEDF91CF911F910F91FF9001
:10373000EF90DF90CF90BF9008950F931F93CF939A
:10374000DF93EC01688179818A810E9464218C0178
:103750000E94C3200E94C51FB801CE01DF91CF9106
:103760001F910F910C948419CF93DF93EC018B81FF
:103770009C81892B29F08881998189238F3F59F475
:10378000DF91CF910895CE010E949D1BCE01DF9164
:10379000CF910C94D305CE010E94C2068111F3CFC4
:1037A0000E94A621882361F38A81882349F382E05D
:1037B000DF91CF910C9447220E94D0210E94E021FA
:1037C0000E94FC210E94B3280E948E2790E080E096
:1037D0000E94461790E080E00C945C170E949621AE
:1037E0000C94DC1B0E94BD210C94EE1BE92FE2958A
:1037F000EF70E250EE3070F4F0E0E55DFC4C0C94BC
:10380000F131803F19F020F4883E20F481E00895E2
:10381000843FE1F380E00895883EC0F3813FD1F713
:10382000F5CF93FB882780F908950E945A210C94C4
:10383000F61BCF93DF9300D000D00F92CDB7DEB749
:103840000F900F900F900F900F90DF91CF910895F0
:10385000CF93DF9300D000D000D0CDB7DEB726964F
:103860000FB6F894DEBF0FBECDBFDF91CF910895A4
:103870001F93CF93DF93C091410216E080914202E3
:103880008C1304C0DF91CF911F910895D0E01C9F4D
:10389000F0011D9FF00D1124ED5BFD4F4081518122
:1038A00062817381848195810E94281C2196C77052
:1038B000E5CF40917302509174026091750270914E
:1038C000760280917702909178020C94281C2091C6
:1038D00041029091420256E0291302C080E008950F
:1038E00030E0529FF001539FF00D1124ED5BFD4F2E
:1038F0007181761306C07081781303C072817413CE
:1039000004C02F5F3F4F2770E7CF81E008951F93DA
:10391000CF93DF9380917802807FA9F48091750224
:10392000882389F080914102C09142026091730224
:1039300070917402A0917602B0917702D62FD723AE
:1039400016E0C81304C0DF91CF911F91089590E055
:10395000109711F0DF3F19F401968770F2CF189F8E
:103960009001199F300D1124F901ED5BFD4F41814C
:103970004713F2CF40814613EFCF42814111ECCF84
:10398000438154814A1B5B0B483C510528F78091C9
:1039900078028F70806180937802F901E85BFD4FB7
:1039A00080818F708061808383E792E00E94B41BE6
:1039B000DF91CF911F910C94381C8F929F92AF9200
:1039C000BF92CF92DF92EF92FF920F931F93CF930C
:1039D000DF93CDB7DEB761970FB6F894DEBF0FBEA9
:1039E000CDBF8C0185E0F801DE011D9601900D929E
:1039F0008A95E1F7D801EC901196FC9011971296F8
:103A0000CC90129783E7A82E82E0B82E40917602E0
:103A1000509177024115510509F474C190917302D8
:103A200020917402892F82238F3F09F46BC1139672
:103A30008D909C901497D0907502F401E41BF50BC7
:103A4000DD2009F40AC180917802382F307FE83CEC
:103A5000F10508F0C1C0311189C0DC2C2F1126C03E
:103A60009E1124C0C11022C08F70806180937802A3
:103A70000E94591CC5010E94B41B80917802D80194
:103A800015968C938D2D61960FB6F894DEBF0FBE00
:103A9000CDBFDF91CF911F910F91FF90EF90DF90FD
:103AA000CF90BF90AF909F908F9008958114910414
:103AB00029F08F2D8E218F3F09F043C180E080FFD8
:103AC00015C04C2D6F2D8E2D0E94671C882371F020
:103AD00083E792E00E94B41B86E0E3E7F2E0DF01B7
:103AE0001D928A95E9F70E94591C3EC0892829F049
:103AF0008F2D8E218F3F09F021C180E0B82FB1704A
:103B0000AB2E80FF29C04C2D6F2D8E2D0E94671C7F
:103B1000B82E811121C0ED86FE868D859E850E947E
:103B20005A21292F22952F70223050F0243078F41A
:103B30009F7051F0F8019581907F31F4DB2CA2CF7A
:103B40009F7011F08823D1F3805E8830B8F3C801EC
:103B50000E94B41BBA2CF2CFCC2009F493CF8091F1
:103B60007802816080937802D12C8CCF2F1105C010
:103B70009E1103C0CC2009F48DC0ED86FE868D8594
:103B80009E850E94151C882319F1CC2009F1809193
:103B90007802803270F0209173023091740238877D
:103BA0002F8319869B868A868C87CE0107960E9472
:103BB000B41B86E0F801A3E7B2E001900D928A956C
:103BC000E1F70E94871C0E94591CDD24D3945ACF30
:103BD000C8010E94B41BF9CF311112C0782D998A07
:103BE000888AA7016C2D89890E94191C83E792E0BD
:103BF0000E94B41B86E0F50111928A95E9F773CF14
:103C00002F110FC09E110DC0C1100BC015968C93C3
:103C1000C8010E94B41B86E0F50111928A95E9F76C
:103C200031CFED86FE868D859E850E94151C8823EA
:103C300079F2CC2069F280917802803208F4B9CF11
:103C400020917302309174023A8329831B829D82F2
:103C50008C828E83CE010196AACFE83CF10508F054
:103C600043C0DC2CCC2009F4B3CF2F112CC09E1103
:103C70002AC08091780280FD1DC0982F907FD1F0DE
:103C800015968C931597903F39F0982F907F905F01
:103C90008F70892B15968C93C8010E94B41B86E007
:103CA000F801A3E7B2E001900D928A95E1F70E9436
:103CB000591CE8CE86E0F801A3E7B2E001900D922E
:103CC0008A95E1F7DFCEED86FE868D859E850E9482
:103CD000151C81116ECF80917802816080937802EB
:103CE000C8010E94B41BCECE782D998A888AA7017C
:103CF0006C2D89890E94191C86E0F50111928A9524
:103D0000E9F7D5CFCC2009F463CFED86FE868D850B
:103D10009E850E94151CD82E882309F459CF86E071
:103D2000F801A3E7B2E001900D928A95E1F783E7ED
:103D300092E00E9471180E94871CB9CF81E08C2507
:103D4000DDCE81E08C25BBCE1F93CF93DF93CDB723
:103D5000DEB72C970FB6F894DEBF0FBECDBF4F83F2
:103D6000588769877A878B879C87CE0107960E9440
:103D7000DD1C882369F08A859B85892B39F04F816A
:103D80005885842F85238F3F09F071C016E05FC0EE
:103D900086E0FE013796DE01119601900D928A951C
:103DA000E1F78A859B85892B89F38F819885892303
:103DB0008F3F61F32091420230E0C9010196877084
:103DC0009927409141024817190671F40E94F21B8D
:103DD000109242021092410286E0E3E7F2E0DF0136
:103DE0001D928A95E9F7D2CF96E0929FD001939FDA
:103DF000B00D1124AD5BBD4FFE01319601900D92C7
:103E00009A95E1F7809342020E94381CBFCF819FB0
:103E1000C00111248D5B9D4F0E94DD1C8823E9F0B9
:103E2000E09141021E9FF0011124ED5BFD4F4081A6
:103E3000518162817381848195810E94281C8091C7
:103E4000410290E00196877099278093410280910A
:103E50004102909142028913DACF2C960FB6F89462
:103E6000DEBF0FBECDBFDF91CF911F910895698551
:103E70007A858B859C850E94281C88CFEF92FF92C3
:103E80000F931F93CF93DF938C01892B81F0F12C3B
:103E9000EE24E394E8012196F8018491843770F4CC
:103EA000843008F05FC08130B1F08230A1F1DF9141
:103EB000CF911F910F91FF90EF900895853709F4EE
:103EC0004CC008F43DC09CE7980F903780F78F777F
:103ED0000E940D1949C00E5F1F4FFE01849190E2B0
:103EE000980F983060F48770FE2D01C0FF0F8A95FF
:103EF000EAF78F2F0E94D3210E94FC2102C00E946A
:103F000076188F2D815030F2EFE9FFE03197F1F70D
:103F100000C00000F7CF0E5F1F4FFE01849190E2BA
:103F2000980F983050F48770FE2D01C0FF0F8A95CE
:103F3000EAF78F2F0E94D921DFCF0E940D19E1CF20
:103F40000E5F1F4FFE01C491C150D8F28FE99FE070
:103F50000197F1F700C00000F7CF0E5F1F4FFE0181
:103F6000F490CFCF0E9476188E01CBCF08950C9499
:103F7000B61F0E94B71F6093AF027093B002809388
:103F8000B1029093B2020C94DC1B08950C94B91FFB
:103F90000F931F930091AF021091B0022091B102D4
:103FA0003091B202602B712B822B932B1F910F91BA
:103FB0000C94B91F0F931F930091AF021091B002A0
:103FC0002091B1023091B2026023712382239323A6
:103FD0001F910F910C94B91F0F931F930091AF0283
:103FE0001091B0022091B1023091B2026027712786
:103FF000822793271F910F910C94B91F0C94B61F21
:104000000C94FE1F0E9400206093AB027093AC02E0
:104010008093AD029093AE020C94DC1B60E070E0E4
:10402000CB010C9402200F931F9341E050E060E01D
:1040300070E08A019B0104C0000F111F221F331F73
:104040008A95D2F7C901B8011F910F910C940220F3
:104050000F931F9341E050E060E070E004C0440F14
:10406000551F661F771F8A95D2F78091AB029091FA
:10407000AC02A091AD02B091AE028A019B01082B67
:10408000192B2A2B3B2BC901B8011F910F910C94BE
:1040900002200F931F9341E050E060E070E004C005
:1040A000440F551F661F771F8A95D2F7CB01BA01BF
:1040B00060957095809590950091AB021091AC023F
:1040C0002091AD023091AE026023712382239323AD
:1040D0001F910F910C9402200F931F9341E050E029
:1040E00060E070E004C0440F551F661F771F8A957B
:1040F000D2F78091AB029091AC02A091AD02B09149
:10410000AE028A019B01082719272A273B27C901EC
:10411000B8011F910F910C9402200F931F930091EF
:10412000AB021091AC022091AD023091AE02602B37
:10413000712B822B932B1F910F910C9402200F93C4
:104140001F930091AB021091AC022091AD0230910F
:10415000AE0260237123822393231F910F910C944D
:1041600002200F931F930091AB021091AC0220919B
:10417000AD023091AE0260277127822793271F91ED
:104180000F910C94022008952FE0929F800D11242E
:10419000982F977041E001C0440F9A95EAF78695F1
:1041A0008695869595E0899FF0011124E758FD4F8B
:1041B00090E080E070E05191DF0111979B01082EA3
:1041C00002C0369527950A94E2F72170219525279C
:1041D000242325272C9301968530910561F70895B6
:1041E0002FE0929F800D1124982F977086958695C9
:1041F000869525E0829FF0011124E758FD4F50E09D
:1042000040E080E0219130E0092E02C036952795EC
:104210000A94E2F721703327042E01C0220F0A947A
:10422000EAF7822B4F5F5F4F4530510559F70895EC
:10423000BF92CF92DF92EF92FF920F931F93CF9393
:10424000DF938C01C090AB02D090AC02E090AD0245
:10425000F090AE028091AF029091B002A091B102B5
:10426000B091B202C82AD92AEA2AFB2ACFE1D0E0CB
:10427000BC2ED701C6010C2E04C0B695A795979504
:1042800087950A94D2F780FD0EC0219788F7B12C4C
:104290008B2DDF91CF911F910F91FF90EF90DF90C9
:1042A000CF90BF900895B8018C2F0E943A070197D4
:1042B00061F3EECFCF93DF93EC010E941821BE0192
:1042C000DF91CF910C943A071F93CF93DF93EB01CB
:1042D00090914002992331F0CB01DF91CF911F9152
:1042E0000C945A21882379F0CB010E941821182FB1
:1042F000682FCE010E94C420BE01812FDF91CF9193
:104300001F910C943A07CB010E94F020182FF4CF94
:10431000682F80912D0190912E010C94AA23682F73
:1043200080912D0190912E010C94B52380912D0147
:1043300090912E010C94C0238091B30285958595B0
:10434000859508958091B302877008959091B30286
:10435000977081E009F480E008958091D702089574
:104360009091D702892B8093D702089580959091E0
:10437000D70298239093D70208951092D7020895F8
:104380008091D60208959091D602892B8093D6020F
:10439000089580959091D60298239093D60208951F
:1043A0001092D60208959091D502892B8093D50260
:1043B000089580959091D50298239093D502089501
:1043C0001092D50208958091B402089508950C9436
:1043D000E6219091B402981721F08093B4020C94D6
:1043E000E72108958091B402882329F01092B40245
:1043F00080E00C94E7210895E0912D01F0912E01C9
:104400008091D7028083E0912D01F0912E0180816F
:104410009091D602892B8083E0912D01F0912E019D
:1044200080819091D502892B80839091B402992349
:1044300081F0E0912D01F0912E018081892B808304
:1044400080912D0190912E010E94162381110E94CE
:10445000F22180912D0190912E010C941E17089548
:104460000C942F2298E0899F90011124622B609375
:10447000B3020E9428208091B30285958595859589
:104480000C9430221092B30280E00C943022909170
:10449000B302809589238093B302282F277071F48B
:1044A000282F082E000C330B9217130639F0859530
:1044B000859585950E9449200C944222089590E0AC
:1044C00080E00E94A43221E08C3E9E4F09F020E063
:1044D000822F089582E090E00C949632682F82E05B
:1044E00090E00C94AA3283E090E00C949632682F0E
:1044F00083E090E00C94AA32CF9384E090E00E9495
:104500009632C82F81E290E00E949632982F8C2F2D
:10451000CF910895CF93C92F682F84E090E00E9437
:10452000AA326C2F81E290E0CF910C94AA3286E0FF
:1045300090E00C949632682F86E090E00C94AA32BA
:10454000AB01BC018FE090E00C94BC32AB01BC012C
:1045500083E190E00C94BC3260E070E0CB010C94FD
:10456000A62260E070E0CB010E94A0220C94AC2255
:104570006CEE7EEF90E080E00E94C83260E082E066
:1045800090E00E94AA3260E083E090E00E94AA32AC
:104590001092AF021092B0021092B1021092B202C9
:1045A00060E084E090E00E94AA3260E081E290E066
:1045B0000E94AA3260E085E090E00E94AA3260E0AA
:1045C00086E090E00E94AA326FEF87E090E00E94C0
:1045D000AA3240E050E0BA0188E090E00E94BC328C
:1045E00060E08DE090E00E94AA3240E050E0BA0125
:1045F00088E190E00E94BC3260E087E190E00E9498
:10460000AA3240E050E0BA018CE190E00E94BC3256
:1046100060E080E290E00E94AA320C94B1220C94F7
:10462000B822682F8EE090E00C94AA32FC013296FA
:1046300080914101882321F080913D039EE187FF15
:1046400096E080E0915008F4089521912223D1F35F
:104650008F5FF8CF662301F1209141012223F1F011
:1046600020913D0327FF1AC0462F46954695469553
:104670004E3190F4677021E030E002C0220F331F0A
:104680006A95E2F7840F911DFC01828190E0282356
:10469000392381E0232B69F480E00895FC013296F0
:1046A00008962191261721F0E817F907D1F7F4CFE2
:1046B00081E008959C01FC0132969FEF80E04191DA
:1046C000461751F09F3F19F4411101C0982F8F5F99
:1046D0008630A9F79F3F09F40895290F311D97FDF2
:1046E0003A95F90162830895FC013296089621916A
:1046F000261303C0DF0111971C92E817F907B9F7D9
:104700000895E62FE695E695E695EE3168F4E80F14
:10471000F92FF11D677021E030E001C0220F6A958A
:10472000EAF78281822B82830895E62FE695E6954B
:10473000E695EE3170F4E80FF92FF11D677021E076
:1047400030E001C0220F6A95EAF720958281282384
:104750002283089520914101222329F020913D03D5
:1047600027FD0C9481230C945A232091410122238C
:1047700029F020913D0327FD0C9495230C9474237C
:10478000FC01329680914101882351F080913D03D4
:1047900087FF06C08EE1DF011D928A95E9F7089533
:1047A00086E0F9CF089508950C94D3230E94D42372
:1047B00080914303843061F11092D90288E190E046
:1047C00020E40FB6F894A895809360000FBE209364
:1047D000600080E00E94B41280E00E94AA060E945D
:1047E000D42383B7817F846083BF83B7816083BF15
:1047F0007894889583B78E7F83BF0FB6F894A89579
:1048000080916000886180936000109260000FBE0C
:1048100008950895CF930E94D2230E94A0090E9478
:104820000924C0E08C2F0E942A09892B31F4CF5F24
:10483000C530C1F780E0CF91089581E0FCCF0895A5
:104840000C941F240E94F21B0E9465110E941217F3
:104850000E94AA060C9420241F921FB61F921124B6
:104860008F939F93AF93BF938091D902811113C00F
:104870008091390390913A03A0913B03B0913C039E
:104880004196A11DB11D8093390390933A03A093E3
:104890003B03B0933C03BF91AF919F918F911F90C9
:1048A0001FBE1F90189582E084BD93E095BD9AEFDE
:1048B00097BD80936E0008952FB7F89480913903C7
:1048C00090913A03A0913B03B0913C032FBF089510
:1048D0009C014FB7F8948091390390913A03A091CD
:1048E0003B03B0913C034FBF821B930B0895789418
:1048F0001F921FB61F9211248F939F93AF93BF9364
:104900008091390390913A03A0913B03B0913C030D
:104910000196A11DB11D8093390390933A03A09392
:104920003B03B0933C03BF91AF919F918F911F9038
:104930001FBE1F90189581E08093E00080E2809375
:10494000D8001092C9008FE19EE40197F1F700C0F2
:10495000000087E090EBDC0180934C0390934D03C3
:10496000A0934E03B0934F0388E19CE00FB6F894F8
:10497000A895809360000FBE90936000FFCFAF9228
:10498000BF92CF92DF92EF92FF920F931F93CF933C
:10499000C0E0CC24C394D12CE82EF12C8C2F0E94A3
:1049A0002A095C0110E000E0C601002E02C0880F59
:1049B000991F0A94E2F78A219B21892B99F40F5FB2
:1049C0001F4F0F30110581F7CF5FC53039F780E0F9
:1049D000CF911F910F91FF90EF90DF90CF90BF90FC
:1049E000AF900895602F7C2F80E00E941E07E8168C
:1049F000F90629F781E0ECCFCF93C82F8CE20E9413
:104A0000BF24882321F08C2FCF910C94BF2480E009
:104A1000CF910895CF930E945F22811102C00E941E
:104A20000F23C5E608C00E94A0098FE39CE9019707
:104A3000F1F700C00000C150B1F789E20E94FC24E8
:104A4000811100C18AE20E94FC2481110E940F237F
:104A500085E00E94FC2481110E949B240E946A220E
:104A60008093D80287E00E94FC24882371F08BE1B8
:104A70000E94FC24882309F4C2C09091D802892F97
:104A80008D7F91FF82608093D8028091D8020E942E
:104A90006E220E947C2290933E0380933D0380EE21
:104AA0000E94FC24882341F090913D03892F8E7F42
:104AB00090FF816080933D0389E30E94FC2488235A
:104AC00041F090913D03892F8D7F91FF826080930B
:104AD0003D0382EE0E94FC24882341F090913D0327
:104AE000892F8B7F92FF846080933D0386EE0E9426
:104AF000FC24882341F090913D03892F877F93FF09
:104B0000886080933D0383EE0E94FC24882341F05B
:104B100090913D03892F8F7E94FF806180933D03A8
:104B200085E30E94FC24882341F090913D03892F66
:104B30008F7D95FF806280933D0381E30E94FC247A
:104B4000882341F090913D03892F8F7B96FF8064ED
:104B500080933D0381E10E94FC24882341F09091E1
:104B60003D03892F97FB87F9805880933D038091FF
:104B70003D0390913E030E948A2287E20E94FC241A
:104B8000C82F8EE10E94FC248111C2608FE10E9437
:104B9000FC248111C46080E20E94FC248111C86061
:104BA00081E20E94FC248111C06182E20E94FC2407
:104BB0008111C06283E20E94FC248111C06484E2FE
:104BC0000E94FC248823C1F1C0688C2F0E947722A8
:104BD0006C2F70E090E080E00E94C61F8FE00E9482
:104BE000FC24882319F081E00E94112385E10E94B2
:104BF000FC24882339F180E0CF910C9411238EE0BE
:104C00000E94FC24882339F09091D802892F8B7F51
:104C100092FF846038CF80E10E94FC249091D802FA
:104C2000882329F0892F877F93FF88602CCF892FD5
:104C30008E7F90FF816027CFC111C7CF0E94732262
:104C4000682FC7CFCF9108958091E10280FF12C0F5
:104C50006091340185E0689FB001112475956795D6
:104C60007595679560387105A8F561157105A1F115
:104C7000862F089581FF09C06091340185E0689F07
:104C8000B001112475956795EDCF6091340182FDD7
:104C90000AC08091E0028823D1F0909133016091A5
:104CA0003401891728F085E0689FB0011124DACF1C
:104CB000869FB001112485E0869F9001879F300D6B
:104CC0001124692F70E0C9010E94BB31CBCF65E090
:104CD00070E0CECF8FE7089581E008958091E102E2
:104CE00080FF0CC06091300170E0759567957595F7
:104CF00067956115710549F1862F089581FF06C0FA
:104D00006091300170E075956795F3CF6091300147
:104D100082FD0BC09091E0029923A1F060912F01D8
:104D200080913001961738F0682F70E06038710577
:104D300000F38FE70895899FC001112470E00E945D
:104D4000BB31F4CF61E070E0D7CF81E00895803FC0
:104D500031F40E94242681958093E5020895813FD5
:104D600019F40E942426F8CF823F31F40E942426B1
:104D700081958093E4020895833F19F40E942426CC
:104D8000F8CF893F29F40E946E268093E6020895A9
:104D90008A3F21F40E946E268195F7CF8B3F31F434
:104DA0000E946E2681958093E70208958C3F19F446
:104DB0000E946E26F8CF843F31F48091E302816037
:104DC0008093E3020895853F21F48091E30282609D
:104DD000F7CF863F21F48091E3028460F1CF873FD3
:104DE00021F48091E3028860EBCF883F21F4809129
:104DF000E3028061E5CF8D3F31F48091E102816073
:104E00008093E10208958E3F21F48091E102826057
:104E1000F7CF8F3FB9F78091E1028460F1CF909195
:104E2000E402803F41F48091E50287FD1092E502A3
:104E3000992371F00895813F29F48091E5021816B5
:104E4000ACF3F6CF823F81F497FFF2CF1092E402E9
:104E50008091E5029091E602892B9091E702892BDF
:104E600049F71092E0020895833F19F4191674F37C
:104E7000DFCF893F39F48091E6021816CCF6109204
:104E8000E602D6CF8A3F29F48091E60287FFD0CF91
:104E9000F6CF8B3F39F48091E70287FFC9CF10929C
:104EA000E702C6CF8C3F29F48091E7021816BCF3C5
:104EB000BFCF843F31F48091E3028E7F8093E30281
:104EC000B7CF853F21F48091E3028D7FF7CF863FF6
:104ED00021F48091E3028B7FF1CF873F21F4809111
:104EE000E302877FEBCF883F21F48091E3028F7E3E
:104EF000E5CF8D3F31F48091E1028E7F8093E10216
:104F000097CF8E3F21F48091E1028D7FF7CF8F3FC5
:104F100009F08ECF8091E1028B7FF0CF82EE92E09C
:104F20000E9438170E945C249093DF028093DE0277
:104F30000895CF93DF9300D000D000D0CDB7DEB777
:104F400086E0E2EEF2E0DE01119601900D928A9584
:104F5000E1F78091E4029091E502892B81F0809144
:104F6000DC029091DD020E946824AC019091E00285
:104F7000992331F1809135018417150670F18091E4
:104F8000E6029091E702892B91F08091DA029091EC
:104F9000DB020E946824AC019091E002992309F49D
:104FA00078C0809131018417150608F480C02696D8
:104FB0000FB6F894DEBF0FBECDBFDF91CF9108953D
:104FC000209136018AE0289F90011124241735078B
:104FD000B0F69F5F9093E00202C09F3FD1F710921E
:104FE000E6021092E7028091E402181624F40E946F
:104FF00024268093E4028091E40287FF05C00E948A
:10500000242681958093E4028091E502181624F409
:105010000E9424268093E5028091E50287FF05C067
:105020000E94242681958093E5023091E402332387
:10503000A1F02091E502222381F045EB3403C00169
:1050400011249923F1F09093E40245EB240390019D
:1050500011243323D1F03093E5020E948E278091F2
:10506000DE029091DF029093DD028093DC0286E005
:10507000FE013196A2EEB2E001900D928A95E1F721
:105080007ECF81E08093E402E0CF81E08093E5026F
:10509000E4CF209132018AE0289F90011124241747
:1050A000350708F084CF9F5F9093E00202C09F3FD6
:1050B000D1F71092E4021092E5028091E6021816F0
:1050C00024F40E946E268093E6028091E60287FF18
:1050D00005C00E946E2681958093E6028091E702CA
:1050E000181624F40E946E268093E7028091E7024E
:1050F00087FF05C00E946E2681958093E70230915C
:10510000E6023323A1F02091E702222381F045EB50
:105110003403C00111249923F1F09093E60245EB8A
:105120002403900111243323D1F03093E7020E942D
:105130008E278091DE029091DF029093DB028093B4
:10514000DA0286E0FE013196A2EEB2E001900D9205
:105150008A95E1F72CCF81E08093E602E0CF81E0F1
:105160008093E702E4CF86E0E2EEF2E0DF011D92F9
:105170008A95E9F71092E0021092E10208958330D7
:1051800081F128F4813059F08230D1F008958530D2
:1051900009F449C0B8F1863009F456C008958091E9
:1051A0003601482F460F5527551F4F3F510524F410
:1051B000680F6093360108958FEF8093360108954C
:1051C00080913501482F460F5527551F4F3F5105F8
:1051D00024F4680F6093350108958FEF80933501B3
:1051E000089580913401482F460F5527551F4F3F92
:1051F000510524F4680F6093340108958FEF809374
:105200003401089580913301482F460F5527551FCB
:105210004F3F510524F4680F6093330108958FEFD9
:1052200080933301089580913001482F460F552710
:10523000551F4F3F510524F4680F609330010895C6
:105240008FEF80933001089580912F01482F460FF2
:105250005527551F4F3F510524F4680F60932F01C8
:1052600008958FEF80932F010895833011F128F472
:10527000813049F0823091F00895853081F120F13C
:105280008630C1F1089580913601681720F4861B9D
:10529000809336010895109236010895809135016A
:1052A000681720F4861B809335010895109235010C
:1052B000089580913401681720F4861B809334018F
:1052C000089510923401089580913301681720F4F5
:1052D000861B8093330108951092330108958091C5
:1052E0003001681720F4861B8093300108951092D6
:1052F0003001089580912F01681720F4861B809358
:105300002F01089510922F0108950F931F9341E0EC
:1053100050E060E070E08A019B0104C0000F111FA3
:10532000221F331F8A95D2F7C901B8010E94C61FF8
:105330001F910F910C94F21BEBEFE80FEF3308F085
:105340005AC0F0E0E75CFC4C0C94F1310E940F2352
:1053500081E008958091D802807F8093D80281E017
:105360008093E90208950E94B306F2CF9091D8028B
:10537000892F8E7F90FF81608093D80280FDE8CFD7
:10538000817F8093D802E4CF9091D802892F8D7FBE
:1053900091FF82608093D80281FFDACF8091D8029A
:1053A0008160EFCF9091D802892F8B7F92FF84602C
:1053B0008093D80282FDF2CFCBCF9091D802892F73
:1053C000877F93FF88608093D80283FDE7CFC0CFAB
:1053D0000E94F21B90913D03892F97FB87F980581B
:1053E00080933D03B5CF80E00E948529B1CF8953DA
:1053F000FBCF8D51F9CF80E0089580E008950C94A3
:10540000FD298E518A3030F4E82FF0E0ED51FE4F47
:105410008081089580E00895CF93C82F8091E9029C
:105420008130B9F0882331F08230A1F11092E90285
:1054300080E00DC00E94AD218232D1F78C2F0E94F6
:10544000FD2981111BC08C2F0E949C298170CF9156
:1054500008950E94AD21823289F38C2F0E94FF298A
:1054600081110AC0C43199F060F4CB3029F0C03109
:1054700069F782E08093E90281E0E8CF81E090E083
:10548000E5CFC93221F0C833B9F380E0DFCF109205
:10549000E902FBCFC93219F188F4C43101F120F4DB
:1054A000C73081F181E0D3CF82EE8C0F8630D0F708
:1054B0008C2F0E94012A8093E802F4CFCE3401F1B0
:1054C00040F46AE0CB3471F78091E8020E94BF2873
:1054D000E9CFC13579F061E0C235B1F3E3CF809116
:1054E000E802882319F01092E802DCCF81E0809373
:1054F000E902ADCF61E08091E8020E943529D2CF68
:105500006AE0F9CF8EE18093360182E38093350122
:105510008AE08093340184E18093330188E08093B2
:10552000300188E280932F01BDCF80910A03089556
:10553000CF93DF9300D00F92CDB7DEB790914303A6
:10554000943019F589837B836A8382E08093E90034
:105550008FEF9091E800815095FD06C095ED9A95EA
:10556000F1F700008111F5CF8091E80085FF0DC0B3
:1055700050E040E063E070E0CE0101960E94EC2C28
:105580008091E8008E778093E8000F900F900F9045
:10559000DF91CF910895CF93DF93EC010E94CF2C40
:1055A000823011F0843031F4BE0184E0DF91CF917C
:1055B0000C94982ADF91CF910895BC0183E00C945C
:1055C000982ACF93DF93EC010E94CF2C823011F008
:1055D0008430F9F482E08093E9008FEF9091E80045
:1055E000815095FD06C095ED9A95F1F70000811167
:1055F000F5CF8091E80085FF0CC050E040E066E008
:1056000070E0CE010E94EC2C8091E8008E778093B0
:10561000E800DF91CF910895CF93DF93EC010E94D2
:10562000CF2C823011F08430B9F58091410188236C
:10563000B1F180913D0387FF32C060E282E0809348
:10564000E9008FEF9091E800815095FD06C095ED3F
:105650009A95F1F700008111F5CF8091E80085FF60
:105660001BC08091410170E050E040E0811104C016
:1056700050E040E068E070E0CE010E94EC2C8091A8
:10568000E8008E778093E80080E2FE01AAEEB2E0A7
:1056900001900D928A95E1F7DF91CF91089568E02E
:1056A00081E0CDCF80914203811109C00E947C2E00
:1056B0000E94D92E8091E20084608093E2000895D8
:1056C000109242030895089508950C94222442E014
:1056D00061EC81E00E94F82D42E261EC82E00C94E2
:1056E000F82D80914503833009F45FC030F4813098
:1056F000C1F1823009F49BC008958A3009F487C053
:105700008B3009F46DC0893009F04EC0809144039C
:10571000813209F049C08091480390914903029772
:1057200008F042C08091E800877F8093E800809174
:10573000E80082FF35C09091F3008091F20002975B
:1057400029F48091F1008B7F813021F48091F10068
:1057500080930A038091E8008B778093E8000C9493
:105760002C2E80914403813AF9F48091E800877FE0
:105770008093E8008091480390914903892B61F45C
:1057800060E28AEE92E070E00E943B2D8091E8009A
:105790008B778093E800089560E090E080E0F3CF9D
:1057A000809143038111C3CF089580914403813ACE
:1057B000D9F78091480390914903892BA9F78091EB
:1057C000E800877F8093E8008091E80080FFFCCFAD
:1057D000809141018093F1008091E8008E77BDCFE8
:1057E00080914403813201F78091480390914903ED
:1057F000892BD1F68091E800877F8093E8000E9492
:105800002C2E80914603809341010C94F21B8091D1
:105810004403813249F68091E800877F8093E80055
:105820000E942C2E8091470380930B030895809152
:105830004403813A09F0B8CF8091E800877F8093D4
:10584000E8008091E80080FFFCCF80910B03C2CF7D
:1058500084B7877F84BF0FB6F894A89580916000C5
:10586000886180936000109260000FBE80E890E035
:105870000FB6F89480936100909361000FBE0E9470
:1058800080170E947C2E0E94D92E8091E2008460B5
:105890008093E20078940E9462310E948A1787E325
:1058A00091E00E940D1780914303853019F00E940A
:1058B0009617F9CF0E94D62380914103882399F34C
:1058C0000E940A24882379F30E94D62CECCF0C94F2
:1058D000692C292F33272330310519F168F4213041
:1058E000310509F44AC02230310509F44BC090E07B
:1058F00080E030E020E028C02132310579F1223209
:105900003105A9F780E490E026EC38E061157105D7
:10591000D9F08CEB90E02AE038E061307105A1F01D
:10592000E6CF99278130910599F0009741F08230B8
:10593000910589F00397D9F6E9E9F7E002C0E9EBB0
:10594000F7E0849190E09F01FA013183208308956C
:10595000EBEAF7E0F6CFEFE9F7E0F3CF89E090E08C
:105960002FEC37E06115710579F389E090E028EEBE
:1059700037E06130710541F3BACF82E190E028EF62
:1059800037E0E2CF8BE390E02DEB37E0DDCF809185
:105990004303843011F482E0089581E008958091FA
:1059A0000C03811102C00C94C72C089580E189BDBD
:1059B00082E189BD09B400FEFDCF8091D8008F7DC2
:1059C0008093D8008091E00082608093E000809115
:1059D000E00081FDFCCF0895AF92BF92CF92DF929D
:1059E000FF920F931F93CF93DF936C01EB018A011A
:1059F0000E944B2EF82E811123C00115110539F09C
:105A0000F80180819181C81BD90BC80ED91EB12C19
:105A1000A12C2097A9F08091E80085FD22C08091FB
:105A2000E8008E778093E80001151105A1F0F801D8
:105A300080819181A80EB91EB182A08285E0F82EE6
:105A40008F2DDF91CF911F910F91FF90DF90CF901D
:105A5000BF90AF9008950E944B2E8823D1F2F82E6C
:105A6000EFCFF60181916F018093F1002197FFEF55
:105A7000AF1ABF0ACECFFC0180914A0390914B032D
:105A800086179707A0F06115710529F49091E80039
:105A90009E779093E80090E06115710551F49111A3
:105AA00008C08091E80082FF34C080E00895BC0106
:105AB000F2CF809143038823C1F18530C1F18091F9
:105AC000E80083FD30C08091E80082FDEACF80913C
:105AD000E80080FFE1CF8091F3002091F200382FA1
